:020000040800F2
:10000000E80A0020B5020008BD020008BF0200088F
:10001000C1020008C3020008C50200080000000079
:10002000000000000000000000000000C7020008FF
:10003000C902000800000000CB020008CD02000841
:10004000CF020008CF020008CF020008CF0200084C
:10005000CF020008CF020008CF020008CF0200083C
:10006000CF020008CF020008CF020008CF0200082C
:10007000CF020008CF020008CF020008CF0200081C
:10008000CF020008CF020008CF020008CF0200080C
:10009000CF020008CF020008CF020008CF020008FC
:1000A000CF020008CF020008CF020008CF020008EC
:1000B000CF020008CF020008CF020008CF020008DC
:1000C000CF020008CF020008CF020008CF020008CC
:1000D000CF020008CF020008CF020008CF020008BC
:1000E000CF020008CF020008CF020008CF020008AC
:1000F000CF020008CF020008CF020008CF0200089C
:10010000CF020008CF020008CF020008CF0200088B
:10011000CF020008CF020008CF020008CF0200087B
:10012000CF020008CF020008CF020008CF0200086B
:10013000CF020008CF020008CF020008CF0200085B
:10014000CF020008CF020008CF020008CF0200084B
:10015000CF020008CF020008CF020008CF0200083B
:10016000CF020008CF020008CF020008CF0200082B
:10017000CF020008CF0200080000000000000000CD
:10018000CF020008CF020008CF020008CF0200080B
:10019000CF020008CF02000800000000CF020008D4
:1001A000CF020008CF02000800000000000000009D
:1001B000CF0200080000000000000000CF0200088D
:1001C000CF020008CF020008CF020008CF020008CB
:1001D000CF020008CF02000800F002F800F052F849
:1001E00014A696E8000CB244B344DA4501D100F0FD
:1001F00049F8BAE80F000FA696E83000A5EB040511
:1002000004EB0607AAEB0704A7F101074FEA15154F
:100210004FEA3414A4F10104AC4201D300F032F8E7
:1002200013F0010F18BFFB1A43F0010300F001F8AF
:10023000DBE71847201B0000401B0000103A24BFDA
:1002400078C878C1FAD8520724BF30C830C144BF3B
:1002500004680C6070470000704700000023002411
:1002600000250026103A28BF78C1FBD8520728BFC6
:1002700030C148BF0B6070471FB501F05DFD1FBD69
:1002800010B510BD00F060F81146FFF7F5FF01F062
:10029000E5FC00F07EF803B4FFF7F2FF03BC00F0CA
:1002A00085F8000080F3088862B6084780F3088864
:1002B00062B608470948804709480047FEE7FEE75D
:1002C000FEE7FEE7FEE7FEE7FEE7FEE7FEE7FEE706
:1002D00004480549054A064B704700004D1C0008BC
:1002E000D9010008E8020020E80A0020E806002002
:1002F000E80600204FF0000200B5134694469646EB
:10030000203922BFA0E80C50A0E80C50B1F1200128
:10031000BFF4F7AF090728BFA0E80C5048BF0CC0D6
:100320005DF804EB890028BF40F8042B08BF704734
:1003300048BF20F8022B11F0804F18BF00F8012BA6
:100340007047704770477047754600F02BF8AE460F
:1003500005006946534620F00700854618B020B5D1
:10036000FFF7B6FFBDE820404FF000064FF0000752
:100370004FF000084FF0000BAC46ACE8C009ACE809
:10038000C009ACE8C009ACE8C00921F007018D46FE
:10039000704710B50446AFF300802046BDE810401A
:1003A000FFF779BF004870478802002001491820F4
:1003B000ABBEFEE726000200704708B500218DF8AD
:1003C0000010694600F086FD20B19DF8000008B1DC
:1003D000012008BD002008BD30B5A1B004461E4D67
:1003E00080216846FFF786FF94B3E07880B31C490C
:1003F0001A48CDE90001032002908020039019489B
:1004000004906078059001200690284600F0B8F925
:1004100020B1A869411C01D0401C069012480790E9
:10042000082008902079A17840EA012014907C21CE
:10043000684601F0E9F91F9000F0BCF840B1684649
:1004400000F078FA20B1284600F09AF921B030BDCA
:10045000FFE70020FAE700000000010843453634BA
:100460004D4E4633494E5354000002080C48016873
:1004700041F080510160BFF34F8F0A48016841F499
:1004800080710160BFF34F8F074A00211160121D78
:100490001160BFF34F8F016821F4807101607047D4
:1004A00040380240007000409028004010B5040021
:1004B00013D00B49206988420FD1204600F060F923
:1004C00058B100F077F840B1204600F033FA20B17F
:1004D000BDE81040034800F053B9002010BD0000F3
:1004E00056414C4400000108134C00F079F900F02B
:1004F000E5FA00F0A9FA1148016841F48041016071
:10050000BFF34F8F0E48016821F0030101600168BD
:1005100041F0010101600B480460002080F3148861
:10052000BFF36F8FBFF34F8FBFF36F8FD4E900011D
:10053000FFF7B8FE30BFFDE70000FF1F4438024060
:100540000038014008ED00E02DE9F04700F07AF8AE
:1005500040B300F063F828B3154F052440F2F316BA
:1005600040F27F3840F202293D1D3E60286820EAB3
:10057000080040EAC40040EA09002860286840F406
:100580008030286000F05EF80028286820F0020023
:10059000286009D0641C0D2CE7D900F037F8012041
:1005A000BDE8F0870020FBE700F030F8FAE7000034
:1005B0000C3C024010B500F045F8F8B100F02EF800
:1005C000E0B1114940F2F31008600C1D206840F2C0
:1005D0007F31884340F2222108432060206840F4A4
:1005E0008030206000F02EF80028206820F0020003
:1005F000206005D000F00AF8012010BD002010BDD9
:1006000000F004F8FAE700000C3C024002480168E0
:1006100041F0004101607047103C0240064801680B
:10062000002905DA0449054A0C390A60044A0A60BF
:100630000068C017401C7047103C0240230167450A
:10064000AB89EFCD70B50D4C0D4D07E02046641E13
:100650008005B0F5800F01D101F00EF92868C003C4
:1006600002D5002CF2D104E01CB1286810F4F97F07
:1006700001D0002070BD012070BD00000024F400F6
:100680000C3C024030B50446154D00F079F820B31B
:1006900014492069884220D1A16A286881421CD16E
:1006A000E36A6A68934218D1A0F10051B1F5A02F16
:1006B00013D8400711D1216A22F001004B19D2074B
:1006C0000BD0A84209D3984207D2284601F09CF8E3
:1006D000616A884201D1012030BD002030BD000098
:1006E0000000020856414C4408B5694600F0F2FB90
:1006F00008BD0000044600F0E1F900F0A5F90A4940
:1007000008480860002080F31488BFF36F8FBFF3A0
:100710004F8FBFF36F8FD4E90A01FFF7C3FD30BFDE
:10072000FDE700000000020808ED00E03CB50324EE
:100730008DF80040B02403468DF8014032248DF836
:1007400002408DF80430CE248DF805108DF8062077
:10075000FF208DF8034000226C460723A15C48402F
:100760000021050602D583EA400000E04000491C54
:10077000C0B20829F5D3521C072AEFD33CBD0000B4
:1007800010B5040024D0D4E90010124B124A59408D
:10079000504001431CD1A068032819D1E06880288B
:1007A00016D16069A0B1A06990B10C49E069884296
:1007B0000ED1206A08280BD3B0F5901F08D87C21F1
:1007C000204601F021F8E16F814201D1012010BDE6
:1007D000002010BD434536344D4E4633000002081C
:1007E000194808B5016841F007010160BFF34F8F58
:1007F000174816498161174A4FEAB1111160164A2C
:100800004FF4404111600168144A1140144A1143E9
:100810000160104918390868124A10400B4A0C321E
:10082000104308600C491839086820F0704040F007
:10083000A0400860002000900B4800BF0099491CB0
:1008400000918142F9D308BD303802400400000114
:10085000000002401804024018080240CFFFFCFFCD
:1008600010000100CFFFFFFC007102002DE9F047EE
:1008700016465FEA010824D01EB3B0F5901F20D8B9
:10088000C0F59011B1421CD3284900EB0109800743
:1008900017D1FFF7D7FEA0B1FFF7C0FE88B12449FA
:1008A00040F2F310086001F1040ADAF8000040F2A7
:1008B0007F32904340F201221043CAF80000002525
:1008C00028E00020BDE8F08700204FF0FF34FF2330
:1008D0000AE0C10003FA01F718F80220BC438A407D
:1008E0001443401C042802D22A18B242F1D309EB67
:1008F00005073C60FFF7A6FE10B13868A04208D09B
:10090000DAF8001021F00101CAF80010FFF77EFEAE
:10091000D7E72D1DB542D7D3DAF8001021F0010139
:10092000CAF80010FFF772FE0120CBE700000208B2
:100930000C3C02402DE9F04105461F4E2027FFF7F1
:1009400081FE40B3FFF76AFE28B31C4940F2F31062
:10095000086001F10408D8F8000040F27F329043AB
:1009600040F201221043C8F80000002455F824008A
:1009700046F82400FFF766FE28B156F8240055F823
:10098000241088420AD0D8F8001021F00101C8F8DC
:100990000010FFF73BFE0020BDE8F081641CBC4264
:1009A000E4D3D8F8001021F00101C8F80010FFF7D7
:1009B0002DFE0120F0E70000000001080C3C024081
:1009C000F0B5040013D00026267001256570A670CE
:1009D0001B48E67026710168001D0068194A9142A3
:1009E00001D1012805D0174A121F914206D00020DC
:1009F000F0BD03202070E57025711EE0C3B2C0F386
:100A000007212370C0F307426170070EA2701846D9
:100A1000FFF78CFEB8420DD12078012803D00228C0
:100A20000AD0032806D16078012805D0022803D017
:100A3000032801D02670DAE7E5700120F0BD000040
:100A40009028004007B032CE194A10B517491368F4
:100A5000084643F00103136000E0401E13689B0743
:100A600001D40028F9D11248083003684FF6F34446
:100A7000A343036000E0491E036813F00C0F01D08C
:100A80000029F8D110680B490840106008490A484D
:100A9000091D0860064900200C3108600448303008
:100AA000016821F48051016010BD0000006A180047
:100AB00000380240FFFFF6FE1030002472B600201E
:100AC0004FF0E0210861486188610A494FF02060D9
:100AD00008600020421E810001F1E021C1F8802160
:100AE000C1F88022401C0828F5D3BFF34F8FBFF315
:100AF0006F8F704704ED00E03FB581B080230A9D01
:100B00000091294A002108465054491C9942FBD3C0
:100B1000254C27492548C4E900010320A060802016
:100B2000E06024482061012060610398A0612248B0
:100B3000E0610198206209986062284600F014FE86
:100B4000A062281D00F010FEE0620898042240F028
:100B50000100206503A904F1300000F095F804229B
:100B600004A904F1340000F08FF8042201A904F173
:100B7000380000F089F80422694604F13C0000F0D6
:100B800083F8042209A904F1400000F07DF8042252
:100B900008A904F1440000F077F87C21204600F019
:100BA00033FEE06705B030BD08020020434536340F
:100BB0004D4E463356414C44000002082DE9F84F93
:100BC0001D46DDE90A690C9F92460C468046D7B364
:100BD00006B1C5B300F0A2F8A8B32A494FF48020AB
:100BE000886148F04000694600F0A4F850B3200E38
:100BF000694600F09FF828B36946C4F3074000F047
:100C000099F8F8B16946C4F3072000F093F8C8B129
:100C1000E0B2694600F08EF8A0B16946504600F097
:100C200089F878B1FF208DF8000000246946FF2084
:100C300000F080F830B19DF80000000607D5641C74
:100C4000202CF3D314E0FFE70020BDE8F88F9DF8D7
:100C500000003870002405E02919FF2000F06AF830
:100C600030B1641CB442F7D3B9F1000F03D006E0F1
:100C700000F054F8E8E700F051F80028E5D0012032
:100C8000E3E700000000024010B5002302E0CC5C66
:100C9000C4545B1C9342FAD310BD000005480168A0
:100CA00041F480510160BFF34F8F034901208860F8
:100CB00070470000303802400030024003480068AE
:100CC00003490A6822F480520A60704700300240EB
:100CD000303802402DE9F04300244FF0FF384FF048
:100CE000FF0CDFF8349012E04346002209E0D60002
:100CF0000CFA06F7455DBB43B5402B43521C042A52
:100D000002D2A5188D42F2D3C9F80030241D8C42BE
:100D1000EAD3BDE8F083000000300240044908B582
:100D2000042088616946FF2000F004F808BD000037
:100D30000000024038B5114B114C1A4600E0521E1B
:100D4000A568AD0702D4002AF9D113E092B120734F
:100D500000E05B1EA068C0070AD05BB1207B01B138
:100D60000870A068400607D5E068A068009001E020
:100D7000002BEED1002038BD012038BD40420F00CD
:100D8000003001402DE9F04387B0FF208DF80C00C2
:100D90004D4804278761002406A9FF20FFF7CAFFFA
:100DA00000287CD0641C142CF6D30024254603A80C
:100DB0000095CDE901500023952219461846FFF70A
:100DC000FDFE18B19DF80C00012806D0641C102C03
:100DD000EDD39DF80C00012865D103AE0097CDE955
:100DE000015604AB87224FF4D5710820FFF7E6FEC9
:100DF00090B39DF80C00012855D19DF812000128F0
:100E000051D19DF81300AA284DD100244FF08049FC
:100E100044F620680095CDE90156002301221946C9
:100E20003720FFF7CBFEB8B19DF80C0008B10128C0
:100E300039D10095CDE901560023012249462920E8
:100E4000FFF7BCFE00282FD09DF80C0028B1012828
:100E500029D1641C4445DDD325E00097CDE9015636
:100E600005AB012200213A20FFF7A8FED8B19DF87A
:100E70000C00C0B905989DF8171000BA0843134933
:100E8000C0F38070087090B90095CDE90156012239
:100E9000002351021020FFF791FE20B100E003E093
:100EA0009DF80C0018B1002007B0BDE8F083084998
:100EB000086820F07800086020F0380040F040001A
:100EC00008600120F0E70000000002400000002060
:100ED000003001402DE9F05F4FF000090F0005469A
:100EE0004C4600D03C7000F08DF900283BD0FFF755
:100EF00049FFD0B3284600F059FBB0B301282FD0EA
:100F00004048016841F004010160BFF34F8F3E4843
:100F10004FF4005101603C4E0122183E0D21304635
:100F200000F027FC00220D21304600F02CFC374851
:100F3000016841F08071016035484460016841F00A
:100F40000101016041683348416001214170284638
:100F500000F010FAD0B300F0D3F858B100F01EFC46
:100F600000F006F90120BDE8F09FFFE700F000F96E
:100F70000020F8E72846FFF72FFA38B3FFF7E4FA26
:100F800020B3DFF894A000244FF4007BDAF820505F
:100F900005F2FF104FEA502814E041F201001F490A
:100FA000204400F079FB88B15E46B54200D82E4659
:100FB000600232461949FFF759FC38B1AD1B00F009
:100FC0005BFC641C4445E8D325B115E0FFE700F065
:100FD000E5FBCBE754461248DAF8201000F014FC89
:100FE000616A884208D10C48FFF760FA20B14FF0DF
:100FF00001090FB10120387000F0D0FB00F0B8F803
:101000004846B0E73038024018080240FCED00E0E6
:10101000001000E00000002008020020080000206E
:101020000000020841F4807141F2210240004900B1
:10103000CB0500D5401CC30300D55040CB03F5D5EC
:1010400080B270472DE9F0471E46DDE908A79046BB
:101050008946040046D0B9F1000F43D0B8F1000F23
:1010600040D0EEB35FEA0A003CD0CFB3204600F098
:101070007BFB1F49884235D1201D00F075FB1D49BF
:1010800088422FD104F1100000F06EFB05461A498A
:101090000838884226D204F1080000F065FB306071
:1010A00008B90120306004F10C0000F05DFBCAF8C3
:1010B0000000C9F80050A08AA8F80000002038609D
:1010C00004F11C0000F050FB0C4988420DD104F1E2
:1010D000180000F049FB64213860B1EB106F00E0AC
:1010E00000E002D00020BDE8F0870120FBE700000F
:1010F00044414F4C544F4F42F9FF110043363446A0
:1011000010B5194C2046FFF7BDFA50B31748616976
:101110004269914225D1A1698269914221D1216A16
:10112000026A91421DD1616A426A914219D1A16A53
:10113000826A914215D1E16AC26A914211D1216D50
:10114000006D81420DD1084A08493032303100200B
:10115000135C0C5CA34204D1401C2028F8D301206E
:1011600010BD002010BD0000000001080802002092
:1011700070B5204D1E490420A8611F4A00E0491E99
:101180009068000601D50029F9D1106820F04000D0
:1011900010601A48016841F480510160BFF34F8F1D
:1011A000016821F48051016014482030016821F465
:1011B00080510160124980060860052403222146FF
:1011C000284600F0D6FA00222146284600F0DBFA35
:1011D000641C072CF2D903220221284600F0C9FA28
:1011E0002846BDE870400022022100F0CCBA000081
:1011F00040420F000000024000300140243802400D
:10120000180402402DE9F0475349524F08683C4604
:1012100040F0010008604FF0000900E0641E08681B
:10122000800702D4002CF9D18FE0002C0FD04A485F
:10123000083002684FF6F3439A4302603E4600E0EE
:10124000761E026812F00C0F02D0002EF8D17CE05E
:10125000002E7AD00868414A104008603E4830307D
:10126000016841F003010160BFF34F8F3D4D3C48E1
:10127000A8613D4A4FF482211160012202212846D3
:1012800000F077FA01220821284600F072FA364C65
:101290000122183C0221204600F06BFA01220C21A9
:1012A000204600F066FA01220221284600F06BFA7F
:1012B000002000BF401CB842FBD305244FF00F08AC
:1012C0000326E20805EB8203052061071A6AC90EAE
:1012D00008FA01F7BA4388401043186202222146F7
:1012E000284600F046FAA968620006FA02F0814337
:1012F0000843A860062C2AD000222146284600F088
:1013000042FA641C072CDCD913484430016841F4CC
:101310008051016010482430016841F4805101601F
:10132000BFF34F8F016821F4805101600F49C1F86C
:101330001C90C1F804904FF45F720A600C490120C0
:1013400081F80090BDE8F087FFE70020FAE701226E
:10135000D3E70000006A180000380240FFFFF6FEE5
:101360000400000100000240180402400030014067
:101370000000002010B5040022D0E07800B32078EF
:1013800003281DD112494FF4805000F085F9B8B1FF
:101390000F49802201F50070FFF776FC0D48FFF73A
:1013A000EFF978B10B480C4A016991420AD14069C2
:1013B0006178884206D12046BDE8104000F088B828
:1013C000002010BD2046BDE8104000F007B8000026
:1013D000080000200802002056414C442DE9F04747
:1013E00000248AB000285CD04078012859D108A98F
:1013F00007A8CDE9000106AB09AA05A93248FFF705
:1014000021FEE8B3059E06F2FF104FEA5029FFF7D0
:1014100045FC00254FF4007A2FE041F201002A49F3
:10142000284400F039F928B15746BE4200D8374663
:101430001DB10DE0FFF742FC33E02349059800F0B1
:10144000C3F90028F6D008221F4903A8FFF71CFCA7
:101450002046DFF87480002404E018F80410FFF739
:10146000E1FD641C3946BC42F7D304461648FFF739
:1014700031FCF61B00F000FA6D1C4D45CDD300E0A9
:101480000FE0FFF71BFC054620460021FFF7CAFDD1
:101490000021FFF7C7FD01461EB9BDF824008142B7
:1014A00003D000200AB0BDE8F087089A03A8009294
:1014B000CDE9015005AC94E80D00FFF71DFB034892
:1014C000FFF75EF9EEE700000800002008020020A8
:1014D0002DE9F05F040061D0E07800285ED020782C
:1014E00003285BD12E49802201F50070FFF7CCFB69
:1014F0002C48FFF745F918B32A482B4A0169914255
:101500004CD162784169914248D1056A824605F220
:10151000FF104FEA5029FFF7C1FB00244FF4007B76
:1015200030E041F201001E49204400F0B5F828B136
:101530005F46BD4200D82F461CB11BE0FFF7BEFB43
:101540002CE01748174E804600F00EF9B16A884229
:101550000DD108F1040000F007F9F16A884206D1C4
:101560004146306A00F030F908B1012000E0002067
:101570000028E3D039460A48FFF7ACFBED1B00F02A
:101580007BF9641C4C45CCD3FFF798FB35B9DAF8EE
:101590002410814202D10120BDE8F09F0020FBE72A
:1015A000080000200802002056414C4430B5364C5B
:1015B00087B0050066D0E878002863D02878032833
:1015C00060D132494FF4805000F066F8E8B32F49FB
:1015D000802201F50070FFF757FB2D48FFF7D0F888
:1015E00080B12B482B4A016991420BD1406969783F
:1015F000884207D1FFF784FD10B1012007B030BD4C
:101600000220FBE7687801283CD102A905A8CDE9B2
:10161000000104AB06AA03A91C48FFF713FDA0B103
:101620002046FFF72FF80028EAD0206DC107E7D049
:1016300061690129E4D1A169049A9142E0D1216A4A
:10164000039A9142DCD1029900E01BE041F00101D4
:101650008842D5D10C48343000F086F8059988428C
:10166000CED109483C3000F07FF8BDF8181080B2A8
:101670008842C5D10448443000F076F80299884287
:10168000BED1BAE70020B9E7000001080800002039
:101690000802002056414C4470B50D460646002411
:1016A0002946304600F00AF808B1012070BDFFF766
:1016B00035FB641C032CF3D3002070BD70B586B0DD
:1016C0000D00274C4FF0FF0201468DF80C2045D04D
:1016D000244A12781AB9B0F5000F3FD2490204AB80
:1016E000012200208DE80D0003461120FFF766FA65
:1016F00010B19DF8100048B1FFF710FB2EE003A9D0
:10170000FF20FFF717FB0028F6D0641E9DF80C00A1
:10171000FF2820D0002CEFD0C0B2FE28ECD100244E
:101720004FF400762919FF20FFF704FB0028E3D0CF
:10173000641CB442F6D303A9FF20FFF7FBFA68B19B
:1017400003A9FF20FFF7F6FA40B1FFF7E7FA28B147
:10175000012006B070BD002CD1D1CDE70020F8E704
:1017600000127A0000000020C178006861F31F6059
:10177000704710B50368490003248C40A3438A4096
:101780001A43026010BD10B5C368490003248C40A1
:10179000A3438A401A43C26010BD000010B5084C34
:1017A000607848B107494FF00050086005480322AF
:1017B0000D211838FFF7DDFF0020607010BD00001C
:1017C000000000201808024030B5C9B1082817D31E
:1017D000B0F5901F14D80B4D4B684419086823F0DE
:1017E0000102A0F10051B1F5A02F09D8400707D19F
:1017F000D80705D0AA4203D3A24201D2012030BDAE
:10180000002030BD00000208F0B5194D00222B6801
:1018100043F480532B60BFF34F8F164E0123B36008
:1018200006E08318DC781B6864F31F633360121DC5
:101830008B1A042BF5D28A4213D000234FF0FF34C9
:10184000FF270BE007FA03FC24EA0C0410F802C09F
:101850000CFA03FC521C4CEA040408338A42F1D30C
:1018600034603068296821F480512960F0BD00009F
:1018700030380240003002400B494878002812D02E
:101880000A4840684A680A4B821A9A420BD3094AAE
:1018900012689304084A02D54FF0005301E04FF458
:1018A000005313604860704700000020001000E003
:1018B00080841E00140802401808024010280CD032
:1018C00011280DD012280ED013280FD014280DD0B7
:1018D00015280BD016280CD00DE002290DD00AE0F7
:1018E00004290AD007E0032907D004E0402904D0E6
:1018F00001E0012901D0002070470120704718B194
:10190000016AB1F5901F01D900207047FEF7BABEF9
:101910001CB5044603208DF80000012200218DF83B
:1019200001208DF802108DF803208DF80410684610
:10193000FEF743FD2046FFF7E2FF002802D02046D5
:10194000FEF7D8FE1CBD0000044672B600204FF022
:10195000E02108614861886114494FF02060086007
:101960000021481E8A0002F1E022C2F88001C2F87C
:101970008002491C0829F5D3BFF34F8FBFF36F8F47
:1019800000F04EF809490A48091D0860002080F35C
:101990001488BFF36F8FBFF34F8FBFF36F8FD4E9FE
:1019A0000A01FEF783FC30BFFDE7000004ED00E014
:1019B000000214082DE9F041040011D0FFF700F8EF
:1019C00010B10120BDE8F081002525700126667068
:1019D000A5701148E570257100681049884201D052
:1019E0000020EFE70C48001D0068C3B2C0F30721D8
:1019F0002370C0F307426170070EA2701846FEF70D
:101A000095FEB84206D161782078FFF757FF08B1FC
:101A1000E670D6E72570E3E79028004003B032CEA9
:101A2000194A10B517491368084643F001031360BB
:101A300000E0401E13689B0701D40028F9D112482A
:101A4000083003684FF6F344A343036000E0491EE7
:101A5000036813F00C0F01D00029F8D110680B496E
:101A60000840106008490A48091D0860064900201E
:101A70000C31086004483030016821F48051016065
:101A800010BD0000006A180000380240FFFFF6FE9B
:101A9000103000242DE9F041374E04463546102918
:101AA00015D0112915D0122915D0132915D01429B4
:101AB00015D0152915D00020F4B3E8B3D4E90021DE
:101AC0002E4F2F4B7A4059400A4352D10BE0012050
:101AD000F2E70220F0E70420EEE70820ECE7102010
:101AE000EAE72020E8E7A168042942D1E1688029DB
:101AF0003FD1244A216991423BD16169402938D1C3
:101B0000A169C9B1E169B14233D1216A082930D351
:101B10001D4A91422DD8216D01422AD07C212046B8
:101B2000FFF772FEE16F814223D1A16A28688142EA
:101B30001FD1E16A6A6800E01BE0914219D1A0F16F
:101B40000051B1F5A02F14D8400712D1216A22F01C
:101B500001008B19D2070CD0B0420AD3984208D2A8
:101B60003046FFF751FE616A884202D10120BDE88C
:101B7000F0810020FBE700000002140843453634E2
:101B80005352563456414C4400FE03001CB50446E3
:101B90008DF8001040208DF8010000228DF8022001
:101BA00001208DF803008DF804202046FFF772FF16
:101BB00030B1684600F006F810B12046FFF7C4FEC9
:101BC00000201CBD70B5040036D0E07898B3617871
:101BD0002078FFF773FE70B3A27821787E20FEF79D
:101BE000A5FD2178A278090241EA024141EA00609C
:101BF000124940F07E000A6842F080520A60BFF34A
:101C00004F8F0F490A6842F480720A60BFF34F8F0A
:101C10000D4B0C4A1A601C1D2060BFF34F8F0D68DE
:101C200025F480750D601968914205D121688142C3
:101C300002D1012070BDFFE70020FBE740380240E1
:101C40000070004003B032CE902800400248016886
:101C500041F470010160704788ED00E01CB5344C20
:101C6000344D6846FFF7A6FE00284DD09DF80000D1
:101C700016280BD1FEF7FAFB2046FFF749FE152187
:101C80002846FFF783FF08B9FEF72EFC9DF80010E9
:101C9000102909D0112907D0122905D0132903D002
:101CA000142901D015290ED12846FFF7F3FE30B1D3
:101CB0006846FFF787FF10B12846FFF745FEFEF79D
:101CC000D5FBFEF711FC9DF80000012802D1684603
:101CD000FEF782FBFEF7CAFB9DF80000032811D136
:101CE0006846FEF701FD30B12046FFF708FE10B14F
:101CF0002046FEF7FFFC2046FFF701FE10B120460C
:101D0000FEF7F8FCFEF7F0FB2046FFF7F8FD002891
:101D1000204602D0FEF7EEFC08E0FFF7F9FD1521A2
:101D20002846FFF733FF08B9FEF7DEFB30BFFDE7BB
:101D30000000010800001408F1EE100A4FF6FF71D0
:101D4000C0F2C03120EA010040F04070E1EE100A1C
:101D500070470000781D0008000000200800000007
:101D60003C020008801D000808000020E00A000076
:101D70005C020008000000000000000000000000FD
:020000040801F1
:10000000434536344D4E4633030000008000000067
:1000100056414C4401000000EA31936A0000020896
:10002000B0F903007C2980CE80B400203903020897
:1000300077562868652BDA31093C565B541D54C449
:10004000EA11BE40945D579D59DB1B148265FC414B
:10005000200100640000000000000000000000001B
:100060000000000000000000000000000000000090
:10007000000000000000000000000000FC260AE56F
:020000040802F0
:1000000080B4002039030208AB500408BD35040851
:10001000A1500408510B0208E16A04080000000026
:10002000000000000000000000000000E55504088A
:1000300035A3030800000000B5500408AD5B0408B8
:100040005303020853030208530302085303020830
:10005000530302085303020853030208ADA4030824
:10006000C1A4030801A5030819A503085303020846
:10007000059F0308119F0308ADA00308B1A0030862
:10008000E1A00308EDA003081D09020853030208BC
:1000900053030208530302085303020855A503083B
:1000A000E1600408530302085303020853030208E3
:1000B000A16404085303020853030208D535040859
:1000C000C935040853030208530302085303020806
:1000D00053030208E96904085303020853030208A2
:1000E00039A30308B9500408530302085303020854
:1000F00053030208AD6404085303020835A1030842
:10010000530302085303020853030208530302086F
:100110002568040853030208530302085303020826
:10012000C9A10308CDA1030815A2030819A2030859
:10013000530302085303020853030208530302083F
:10014000530302085303020853030208530302082F
:1001500051A2030855A2030885A20308796A04087E
:10016000530302085303020853030208530302080F
:1001700053030208530302080000000000000000BF
:1001800053030208530302085303020853030208EF
:10019000530302085303020800000000530302083F
:1001A000530302085303020800000000000000008F
:1001B000530302080000000000000000530302087F
:1001C00053030208530302085303020853030208AF
:1001D000530302085303020800F002F800F082F80B
:1001E00014A696E8000CB244B344DA4501D100F0FD
:1001F00079F8BAE80F000FA696E83000A5EB0405E1
:1002000004EB0607AAEB0704A7F101074FEA15154F
:100210004FEA3414A4F10104AC4201D300F062F8B7
:1002200013F0010F18BFFB1A43F0010300F001F8AF
:10023000DBE71847FCF403009CF503000A444FF089
:10024000000C10F8013B13F0070408BF10F8014B35
:100250001D1108BF10F8015B641E05D010F8016B7A
:10026000641E01F8016BF9D113F0080F1EBF10F8DE
:10027000014BAD1C0C1B09D16D1E58BF01F801CB01
:10028000FAD505E014F8016B01F8016B6D1EF9D584
:100290009142D6D370470000103A24BF78C878C185
:1002A000FAD8520724BF30C830C144BF04680C607C
:1002B000704700007047000000230024002500263E
:1002C000103A28BF78C1FBD8520728BF30C148BFB9
:1002D0000B6070471FB52BF086F900F038F91FBD91
:1002E00010B510BD00F0E4FA1146FFF7F3FF29F056
:1002F00047FC00F002FB03B4FFF7F2FF03BC00F081
:1003000005FB00000B49D1F800C04A685CF8043BCB
:100310001068184442F8040B8C4528BFA1F1DC0C8E
:100320008A4228BFA1F1DC02C1F800C04A6020F077
:1003300000407047F4FF04200948804709480047FF
:10034000FEE7FEE7FEE7FEE7FEE7FEE7FEE7FEE785
:10035000FEE7FEE704480549034A054B70470000E5
:10036000D1600408D901020880AC002080B40020CC
:1003700080AC002053EA020C00F069802DE9F04BBC
:100380004FF00006002B1FBFB3FA83F503FA05F404
:1003900024FA05F65E4012BF1643B2FA82F502FA5D
:1003A00005F4C5F120051EBF22FA05FC44EA0C0441
:1003B000203556EA044C4FEA144418BF641C4FF031
:1003C00000084FF00009904271EB030C39D300296B
:1003D00019BFB1FA81F701FA07F6B0FA80F700FA0F
:1003E00007F6C7F120071EBF20FA07FC46EA0C06F5
:1003F0002037B6FBF4FCA7EB0507103F07F01F0BF7
:10040000CBF120062CFA06F60CFA0BFB44BFB346E0
:100410000026202FA4BF5E464FF0000B5BEA060CBF
:1004200008BF4FF0010B19EB0B0948EB0608ABFBBB
:10043000027C06FB02CC0BFB03CCC01B71EB0C0156
:10044000C1E70B46024641464846BDE8F08B13B56E
:10045000084318BF4FF0FF300146AFF30080BDE8FE
:100460001C407047B2F120030AD5C2F1200301FA03
:1004700002F120FA03F341EA030100FA02F07047A7
:1004800000FA03F14FF000007047B2F120030AD5E3
:10049000C2F1200320FA02F001FA03F340EA03005C
:1004A00021FA02F1704721FA03F04FF00001704782
:1004B00053EA020C23D010B54C1084EA530404D53F
:1004C0004042C1F1000138BF491E1B4204D55242CF
:1004D000C3F1000338BF5B1EFFF74CFF14F0804FE1
:1004E00004D04042C1F1000138BF491E14F0004F52
:1004F00004D05242C3F1000338BF5B1E10BD13B5D8
:1005000040424FF0000070EB0104B8BF012001F041
:10051000004100281CBF6FF000414FF0FF30AFF3E7
:1005200000801CBD0B4910B5A1F17C020A4CC2E948
:100530003712372106E000EB104342F82130074B19
:1005400000FB03400B1EA1F10101F4DC10BD0120F2
:10055000E8E7000094FF0420E119D666CD0D010004
:1005600040EA010310B59B070FD1042A0DD310C830
:1005700008C9121F9C42F8D020BA19BA884201D982
:10058000012010BD4FF0FF3010BD1AB1D30703D0CA
:10059000521C07E0002010BD10F8013B11F8014B80
:1005A0001B1B07D110F8013B11F8014B1B1B01D19C
:1005B000921EF1D1184610BD10B5431C02E010F890
:1005C000011B71B18107FAD14FF0013202C88C1AB8
:1005D0008C4314EAC211F9D0C01A0A0603D0C01E17
:1005E00010BDC01A10BD0A0401D0801E10BD090242
:1005F000FCD0401E10BD032A40F2308010F0030CE6
:1006000000F0158011F8013BBCF1020F624498BF65
:1006100011F801CB00F8013B38BF11F8013BA2F102
:10062000040298BF00F801CB38BF00F8013B11F07D
:10063000030300F06780083AC0F0088051F8043BDB
:10064000083A51F804CBA0E80810F5E7121D5CBF8A
:1006500051F8043B40F8043BAFF30080D20724BFBD
:1006600011F8013B11F801CB48BF11F8012B24BF51
:1006700000F8013B00F801CB48BF00F8012B7047A0
:10068000431A28BF9A427FF6B6AF10441144032A9A
:1006900040F2268010F0030F1EBF11F8013D521EDC
:1006A00000F8013D10F0030F7FF4F6AF11F00303E3
:1006B00000F06D80083AC0F00B8051F8043D083A14
:1006C00051F804CD40F8043D40F804CDFFF7F3BFE6
:1006D000121D5CBF51F8043D40F8043DAFF30080AB
:1006E000D20724BF11F8013D11F801CD48BF11F820
:1006F000012C24BF00F8013D00F801CD48BF00F8EF
:10070000012C704710B5203AC0F00B80B1E81850AA
:10071000A0E81850B1E81850A0E81850203ABFF4EB
:10072000F5AF5FEA027C24BFB1E81850A0E818508A
:1007300044BF18C918C0BDE810405FEA827C24BFDE
:1007400051F8043B40F8043B08BF7047D20728BF6C
:1007500031F8023B48BF11F8012B28BF20F8023BBB
:1007600048BF00F8012B7047431A28BF9A427FF612
:10077000C9AF1044114410F0030F1EBF11F8013D22
:10078000521E00F8013D10F0030F7FF4F6AF103A4F
:10079000C0F00A8010B531E9185020E91850103A1D
:1007A000BFF4F9AFBDE81040530724BF31E908108A
:1007B00020E9081044BF51F8043D40F8043D12F010
:1007C000030F08BF7047D20728BF31F8023D48BF6A
:1007D00011F8012C28BF20F8023D48BF00F8012C79
:1007E000704702F0FF0343EA032242EA024200F0AC
:1007F00002B84FF000020429C0F0128010F0030C80
:1008000000F01B80CCF1040CBCF1020F18BF00F803
:10081000012BA8BF20F8022BA1EB0C0100F00DB8B2
:100820005FEAC17C24BF00F8012B00F8012B48BF10
:1008300000F8012B70474FF0000200B513469446B4
:100840009646203922BFA0E80C50A0E80C50B1F128
:100850002001BFF4F7AF090728BFA0E80C5048BF3C
:100860000CC05DF804EB890028BF40F8042B08BFDA
:10087000704748BF20F8022B11F0804F18BF00F8D6
:10088000012B704770477047704710B500F008F8AB
:10089000006810BD10B5044600F002F8046010BDF9
:1008A0000048704720AC00200048704720AC002072
:1008B0007546FFF7F9FFAE4605006946534620F03E
:1008C0000700854618B020B5FFF744FDBDE820407D
:1008D0004FF000064FF000074FF000084FF0000BFC
:1008E000AC46ACE8C009ACE8C009ACE8C009ACE86B
:1008F000C00921F007018D46704710B50446AFF3DB
:1009000000802046BDE81040FFF7F5BC01491820E3
:10091000ABBEFEE72600020070470000104910B58C
:100920000A68002010600868826822F00102826074
:100930000868C06B46F2207180B2A0FB010147F647
:10094000FF72801841F100014FF6FF720023FFF79C
:1009500011FD0146BDE81040024816F06FB80000D6
:1009600034F80420683B0020464910B54A6822F458
:1009700040324A604A6843681A434A6001684A68DC
:1009800022F480724A6001684A68036942EA0322DD
:100990004A6001684A6822F040724A6001684A6809
:1009A00083681A434A6001688A6822F400628A6098
:1009B00001688A68C3681A438A60816A6FF070624E
:1009C000D14201688A6822F070628A6001688A6890
:1009D0000CD0836A1A438A6001688A6822F0405208
:1009E0008A6001688A68C36A1A4301E022F04052B3
:1009F0008A6001688A6822F002028A6001688A6857
:100A0000037E42EA43028A6090F8201000290168C0
:100A10004A680FD042F400624A6001684A6822F4D2
:100A200060424A6001684A68174C436A04EB4333EA
:100A30001A4301E022F400624A600168CA6A22F4A3
:100A40007002CA620168CA6A838B104C04EB0353BC
:100A50001A43CA6201688A6822F400728A600168D7
:100A60008A6890F8303042EA43228A6001688A68D6
:100A700022F480628A6001688A68406942EA8020C4
:100A8000886010BD0023014000E0FFFF0000F0FF80
:100A900018B50023009303098DF8003000F00F0013
:100AA0008DF8010000206C46235C0A2B01D2303304
:100AB00000E037330B54401C0228F5DB0220108085
:100AC000002018BD1E4C08B565681CF087F81AF0A8
:100AD00083FC4FF0E02100200861486188611948DB
:100AE000016841F02061016072B60020421E810061
:100AF00001F1E021C1F88021C1F88022401C0828C2
:100B0000F5D31148016841F480410160006800F4A8
:100B1000804000900D48016821F0030101600168E8
:100B200041F0010101600748001D0460BFF34F8FD1
:100B3000BFF36F8F206880F3088862B6A847FEE78E
:100B40000000FF1F04ED00E044380240003801407F
:100B50000C2008F08BFD18F0E7F9000030B50028F4
:100B600032D0016A00292FD01849B1F85E20002A3E
:100B70002AD091F87D10002926D100F12801C06A01
:100B80004A6844088868204488608868904206D390
:100B900088688B68B0FBF2F000FB123088608A6ACC
:100BA000C86A121940F100008A62C862002001EB95
:100BB0008002183252E8003F234442E80035002DFD
:100BC000F8D1401C0328F2DB30BD000080790420FE
:100BD0002DE9F04F85B015461C460A460646DDE96C
:100BE0001010DDE90E733762C6E90341C6E901253D
:100BF0000246B37706F1280028F0C8FD6949086865
:100C00000A8952085043684A904200D210468146F1
:100C1000086888B187B1B9FBF7F107FB119058B9A3
:100C20006248006A40B1006830B16148B0F898028B
:100C300001285BD0022859D000208046002D7DD0AD
:100C4000DFF870A128684FEA074BE0B3E7B319F06B
:100C5000FBFEB8F1000F06D0574A2968914201D037
:100C6000514500D14846B0FBFBF1491C07FB01F29E
:100C7000B0FBF2F0491E69600021401EC5E9021078
:100C8000284629611DF092F94B492868884201D015
:100C900050452FD1494A904212D0B0F1804F0FD029
:100CA000474A90420CD088420AD04649884207D031
:100CB000504505D04449884202D04449884219D160
:100CC0001421684601E015E012E0FFF7B4FD5FEA89
:100CD000080000D0072000900020019069462846B7
:100CE0001DF047FE30B119F07FFC03E00120A4E7BE
:100CF0000020B06014B3206800B3E7B319F0A4FE7D
:100D0000B8F1000F06D02C4A2168914201D051451C
:100D100000D14846B0FBFBF1491C4F43B0FBF7F054
:100D2000491E0025401E6160C4E90250204625612D
:100D30001DF03CF920492068884200E02EE001D0F7
:100D400050452BD11D4A904212D0B0F1804F0FD0A8
:100D50001B4A90420CD088420AD01A49884207D0D8
:100D6000504505D01849884202D01849884215D10B
:100D70001421684600E00FE0FFF75DFD5FEA080020
:100D800000D00720CDE90005694620461DF0F1FDA1
:100D900020B119F029FC01E00020F06005B000202E
:100DA000BDE8F08F6833002000E204001028002026
:100DB00080EF0420000401400008004000000140D2
:100DC00000040040000C00400040014000180040BA
:100DD00038B1406828B1016819B18868C00703D0EC
:100DE00018E04FF0FF307047886840F001008860DD
:100DF0000D480E4A0068B0FBF2F0102801D2102016
:100E000006E04FF40062904202D9104600E000BFB5
:100E1000401EFCD2086820F004000860886840F496
:100E20008000886000207047BC740420400D0300DF
:100E300030B54FF0FF35A0B14168096889B1002293
:100E40004CF250340FE08B68DB070AD01346521C7B
:100E5000A34208D9086820F0080008606FF001007C
:100E600030BD284630BD0B685B07ECD5CA6B82826B
:100E70000A6CC2824A6C02838A6C4283086820F042
:100E80000C000860002030BD00BF70472DE9FF5FF7
:100E90004FF0000A8B46D146D04600F037FFC48B96
:100EA00000F034FF808B251A00246D1C00F02EFF0B
:100EB00000EBC4000021C0E90E11641C102CF5D316
:100EC00000F024FF848B2CE000F020FFD0F88C0190
:100ED00030F8246000F01AFFD0F88C01022101EBF9
:100EE0008401405A16FB06F110FB001600F00EFFBD
:100EF000808B201A0001B0FBF5F7102F00D30F27CD
:100F000000F004FF00EBC700D0E90E21921941F177
:100F10000001C0E90E21564502D90098B24604806E
:100F2000641C00F0F3FEC08BA042CDD2002404FB71
:100F300005F00109601C6843D1EB10163AD000F0AF
:100F4000E5FE00EBC4013246D1E90E010023FFF7B4
:100F500011FA00F024FB064600F0D8FE204480F889
:100F6000906100F0D3FE204490F89011894400F085
:100F7000CDFE204490F89011414504D900F0C6FE02
:100F8000204490F89081641C102CD0D3504600F07F
:100F900006FB8BF80000A9EB08000F21B0FBF1F075
:100FA0000299C0B208709BF80010814204D9081A57
:100FB000C0B202E00020CCE7002003990870BDE831
:100FC000FF9F3EB50D46044600F0A0FE002869D004
:100FD000002C67D00C2D65D36078042862D1A078EE
:100FE00000F003008DF80000E0788DF80100207912
:100FF0008DF8020060798DF80300A079E17940EA6C
:101000000121ADF80410207A627A40EA0220ADF89E
:101010000600A27AE37A42EA03229DF80130ADF895
:101020000820102B19D19DF8023013B1012B04D0E8
:1010300013E09DF8033023B10FE09DF80330402BFF
:101040000BD251B1402808D2814206D8642A04D379
:10105000B2F57A7F01D8012000E00020002821D0DD
:1010600000F054FE0A2269461830FFF74BFB00F0EF
:101070004DFE012180F82B1200F048FE0021C0E94E
:101080000A1100F043FE002480F8244200F03EFEE6
:10109000A0F8204200F03AFE80F8264200F036FE2A
:1010A000C0F8F0413EBD2DE9F04715461C465FEA09
:1010B000000A18D0DAF800005FEA000913D0D9F866
:1010C000380080B19AF8140068B9504600F02FFE3D
:1010D00048B1D9F80410B1EB400F04D30022291A0B
:1010E00074EB020102D20020BDE8F087D9F8047049
:1010F000281A64EB02013A460023FFF73BF9144635
:101100000025601CD9F83810B84200D30020085CD4
:10111000095D41EA0028284600F0D8F9A8F5004802
:1011200000FB08F600F0F2FDD0F88811002E02DB7B
:1011300006F5804601E0A6F58046F01321F815007B
:10114000DAF80C000444BC4200D3E41B6D1C802D73
:10115000D7D30120C8E7B0F51C7F0CD940F271212C
:10116000B0FBF1F201FB12022AB9B0FBF1F020282A
:1011700001D8C0B27047002070472DE9F0411446F5
:101180001F460546069E00F0C1FD4021C830FFF70E
:1011900052FB00F0BBFD802100F58470FFF74BFB94
:1011A00000F0B4FD0021C0E92E1100F0AFFD0021D8
:1011B000C0E9301100F0AAFDC0E90C4700F0A6FD1F
:1011C0000024A0F8204200F0A1FDA0F8224200F087
:1011D0009DFD80F8254200F099FD80F8264200F040
:1011E00095FDC0F8F04100F091FD80F8246200F018
:1011F0008DFD0246697DA87D00B18020014382F803
:101200002712BDE8F08100002DE9FC5F17461D465E
:10121000040042D0206801900028FAD0806B00289A
:10122000F7D02069FFF797FF5FEA0009F1D0019836
:101230004668E068B6EB800F2FD3617DA07D00B1DA
:10124000802041EA000800F061FD90F82412494531
:101250001CD100F05BFD90F82712414516D100F03B
:1012600055FDD0E90C10791A75EB00000ED300F093
:101270004DFDD0E90C107B1A65EB0001E06840429F
:1012800006EB40020020D21A884107D23A462B468C
:101290002046CDF80090FFF770FF12E100F036FD18
:1012A00090F8260210B10120BDE8FC9F00F02EFD51
:1012B000D0E90C23B81A65EB03010023E268FFF7BD
:1012C00059F80090802801D9802000900020F3E098
:1012D00000F01CFDD0E90C51324600232846FFF7F0
:1012E00049F8607D02EB400500F010FD90F8258282
:1012F000B54200D3AD1B681CB04200D3801B0199DE
:10130000896B4A5D085C42EA002005B2A07D00B10D
:101310006D00B5F5004F02DB47F6FF7503E06A4844
:10132000854200DA054600F0F1FC00F1B80700F054
:10133000EDFC00EB4800B0F9C800D7E90023281AFB
:10134000C11780185941C7E9000100F0DFFC00EB2C
:101350004800A0F8C85000F0D9FC00F1C00B00F024
:10136000D5FCD0E92E7500F0D1FC00EB8800D0F858
:1013700008013A1A65EBE075DBE9001051184541A8
:10138000CBE9001500F0C2FCD0F8B85000F0BEFC6C
:1013900000EB8800C0F8085100F0B8FCD0E90C520E
:1013A000E368EB1842F10002C0E90C3200F0AEFC39
:1013B000B0F82212B1EB490F06D200F0A7FCB0F84A
:1013C0002212491CA0F8221208F1010000F0FF08C7
:1013D000C8456BD319FB09F54FF0000800F096FCE7
:1013E000B0F82212B1EB490F60D300F08FFCD0F8B7
:1013F000C40000280ADB00F089FCD0E9302105EBAD
:10140000D5704010C317101859410AE000F07EFC57
:10141000D0E9302105EBD5704010C317101A61EBED
:1014200003012A46EB17FFF743F8054647F6FF731B
:101430000022181A8A4101DA1D4600212248281A82
:1014400071F1FF3000DA204D00F060FCB0F82002AE
:1014500068B900F05BFCD0E90C7100233846E26803
:10146000FEF788FF471E00F051FCC0F8F47100F051
:101470004DFC00F50877B0F820B200F047FCD0F83A
:1014800088110BF10100388021F81B5000F03EFC60
:10149000B0F82002802809D300F038FC012180F840
:1014A000261200F033FC80F82582FCE600F02EFCCA
:1014B00080F825820AF10100009982468842FFF4F3
:1014C00007AF0020F0E600000080FFFF402801D3B6
:1014D000C0F17F00024901EB0010B0F90000704735
:1014E000C8B9040870B5050032D0B1F5006F2FD32C
:1014F00095F82905184E05F5407438B1D4F818024E
:10150000B04203D1D4F81C02A84221D04FF40C7190
:101510002046FFF790F905F58070C4E9625010206D
:1015200000216076A176E176A0833F20E083C82089
:1015300020840A4601238021204627F0DBFE40B1AB
:10154000002084F82802E4E9866501206074E074D4
:1015500070BD0120F5E700003443505310B500F092
:10156000D5FBD0B100F0D2FB90F82902A8B100F071
:10157000CDFB90F82B0280B100F0C8FBD0F88801B9
:1015800058B100F0C3FBD0F88C0130B100F0BEFBC5
:10159000007EC00701D0012010BD002010BD002832
:1015A00013D0B0FA80F1C1F11F01042902D30A1F40
:1015B000D04002E0C1F10402904000F00F00C900E9
:1015C00001EB5000FF2801D9FF207047C0B27047DF
:1015D0002DE9F05F9846DDE90CB4DDE90A9A16467C
:1015E0000D46074684B318212046FFF724F900F082
:1015F0008DFB807E70B9BAF1000F0BD057B1B8F1F6
:10160000000F07D0276002206760C4E903080020AC
:1016100020752EE000F07AFB807E01282CD1BBF1F2
:10162000000F29D0B9F1000F26D06DB166B100F0DE
:101630006DFBC07E202801D3012000E00020A075B2
:10164000002802D0304601E016E02846C4E9000533
:1016500000D135464FF04000C4F81090C4E9025064
:101660004FF00100207500F051FBC07E00F01F001C
:1016700060750120BDE8F09F0020FBE710B500F089
:1016800045FB002859D000F041FB90F829020028C2
:1016900053D02A48D0F80C0900284ED100F036FB70
:1016A00000F5D074AD2020709A2060700420A070E6
:1016B00000F02CFB007EE07000F028FB407E2071E3
:1016C00000F024FB807E607100F020FBC07EA071E2
:1016D00000F01CFB818BE01D00F02EFB00F016FBE0
:1016E000C18B04F1090000F027FB00F00FFB018C17
:1016F00004F10B0000F020FB00F008FB90F828023A
:1017000008B1872000E00720607300F0FFFAB0F80E
:10171000E80181B204F10E0000F00EFBDA20207423
:10172000607412222146064806F001FB002804D10D
:10173000BDE8104002480EF097BA10BD188D042085
:10174000187D04202DE9FF4F81B09846934600F0A4
:10175000DDFA00F5D07400F0D9FA00F5DA7600F081
:10176000D5FA00F2C71500F0D1FA807E012810D01A
:10177000002700F0CBFAD0F8DC0100905348B0F815
:10178000B002C0067ED55248D0F80C09002879D1A5
:1017900006E000F0BBFAC07E401C4006070EE8E7FA
:1017A00000F0B4FA90F82A0208B147F001074FF0B0
:1017B000AD0984F80090B02060704FF0040A84F8FE
:1017C00002A0E770201D009900F0BAFA04F10800A9
:1017D000019900F0B5FA04F10C00029900F0ACFA9E
:1017E00084F80EB084F80F800E98207400F08EFA02
:1017F000D0F8E001B0F57F3F01D9FF2005E000F00F
:1018000085FAD0F8E001C0F387206074DA27A77466
:10181000E77486F800904FF0B10B86F801B086F8B7
:1018200002A0F01C009900F08BFA0020F0714FF03C
:10183000080886F8088000F069FAD0F89011C6F818
:101840000910D0F89401C6F80D007774B77485F8C4
:10185000009085F801B085F802A0E81C009900F01E
:101860006FFA85F8078085F8088000F04FFAD0F805
:101870009811C5F80910D0F89C01C5F80D006F74D7
:10188000AF7400E011E014222146124806F04FFA2E
:1018900058B9132231460F4806F049FA28B91322E5
:1018A00029460C4806F043FA48B100F02FFAD0F868
:1018B000EC11491CC0F8EC1105B0BDE8F08F05B083
:1018C0000448BDE8F04F0EF0CFB9000018AD042079
:1018D000188D0420187D04202DE9FF4F8FB04FF0A4
:1018E0000009DDE91D64984692468B461C9FADF8C1
:1018F0003090FFF733FE002862D004A8CDE9024003
:10190000CDE900764346524659460F98FFF760FEF0
:10191000D8B30498C8B30598B8B30498806BA0B343
:1019200000F0F4F9D0F8880178B300F0EFF9D0F8BE
:101930008C0150B300F0EAF990F8280228B300F0C7
:10194000E5F9018CDDE90702A2FB0024A1FB0205F9
:10195000002303FB025201FB04214FF47A72FEF7CD
:1019600009FD82468B4608432AD0059827F000FFE0
:1019700006460D4600F0CAF9007E800706D5D2481B
:101980000068C00702D0012001E014E0002080467A
:101990009DF82400012816D004A800F0C8F904001E
:1019A00009D004984068B0EB440F04D30027301BE3
:1019B00075EB07005CD200F0A9F90021C0E90A111B
:1019C00013B0BDE8F08F0898FFF7C5FB0028F7D0EB
:1019D000049840680799B0EB810FF1D3069818B1CD
:1019E0004068B0EB810FEBD31F980028E8D1B8F125
:1019F000000F02D0B448D0F8049032462B4604A819
:101A0000FFF702FC0446B8F1000F09D000F07EF9A0
:101A1000AD49D0F8F0214B68A3EB0901114402E075
:101A200000F074F90021C0F8F011002CC8D000F0CB
:101A30006DF9D0E90A10014315D000F067F9D0E93B
:101A40000A10711A75EB00000DD200F05FF9002446
:101A5000A0F8204200F05AF980F8264200F056F92A
:101A6000C0F8F041ACE700F051F9D0F8F40114E00F
:101A700000F04CF9D0E90A10014314D000F046F907
:101A8000D0E90A10711A75EB000099D3301B079A40
:101A900065EB07010023FEF76DFC0D90DDE91F01EA
:101AA000084361D108E000F031F916EB0A0145EB7B
:101AB0000B05C0E90A1583E704988169406800EBCB
:101AC0004000B1EB900F7ED2069830B1816940683A
:101AD00000EB4000B1EB900F75D27C48B0F8B0023B
:101AE000C00670D57A48D0F80C09E8BBB8F1000FF1
:101AF00002D07548D0F804909DF82400012806D043
:101B000032462B4604A8FFF7CEFA68B31CE0002447
:101B100000F0FCF8D0F8880130F814702046FFF788
:101B2000D5FC17FB00F700F0F1F8D0F88811002F72
:101B300002DB07F5804701E0A7F58047F81321F89D
:101B40001400641C802CE3D300F0E0F8D0F88C7112
:101B500000F0DCF8D0F8884100F0D8F83A46214689
:101B600027F02CFC0EAB00E02DE00AAA0BA90CA874
:101B7000FFF78CF9B8F1000F3AD09DF82400012846
:101B800031D0002050494A68A2EB0901441800F006
:101B9000BDF8C0F8E04100F0B9F8D0F8E04100F03D
:101BA000B5F8D0F8E401844207D900F0AFF8D0F8D6
:101BB000E04100F0ABF8C0F8E44100F0A7F80121E3
:101BC00080F82A121DE000F0A1F8D0F8E811491CB5
:101BD000C0F8E81100F09AF8D0F8E84100F096F863
:101BE000C0F80442ECE600F091F8D0F8F001C9E743
:101BF00000F08CF80024C0F8E04100F087F880F88D
:101C00002A4200F083F816EB0A0145EB0B05C0E908
:101C10000A159DF8240001280CD100F077F8002463
:101C2000A0F8204200F072F880F8264200F06EF82A
:101C3000C0F8F04100F06AF8D0F8E04100F066F832
:101C4000C0F8F84100F062F8D0F8E44100F05EF826
:101C5000C0F8FC4100F05AF8D0F80012491CC0F856
:101C6000001200F053F8D0F8EC4100F04FF8C0F843
:101C7000084200F04BF804994968C0F80C1200F0D3
:101C800045F80D99C0F8101200F040F89DF82410A6
:101C9000012916D00899C0F814129DF83800009058
:101CA0009DF828309DF82C20BDF830100D98FFF7D6
:101CB00049FD00F02BF8D0F8DC11491CC0F8DC110C
:101CC0007EE640F27121E6E7001000E018AD042046
:101CD000188D042010B5044600F018F8002814D020
:101CE00090F82912002910D00CB1012100E0002148
:101CF00080F82B120021C0E90A1180F82412A0F804
:101D0000201280F82612C0F8F01110BD10B5054C55
:101D10002068002805D012F0C5FD2168084400F5B0
:101D2000407010BD300100204FF400607047002863
:101D300001D0C068C00170470170090A4170704746
:101D400001700A0A42700A0C8270090EC170704755
:101D500070B50446006A002871D02046FFF794F859
:101D600061684FF4885009684860E068016801B90B
:101D7000A068006A05684348296821F018012960B5
:101D8000296821F00101296000E000BF2968C90726
:101D900001D0401EF9D22868C00702D06FF00100C0
:101DA00070BDEFF3108672B63748A8602069E8600E
:101DB000E06A40086860002104F1280027F0F6FD81
:101DC0003248854207D131494FF4746020390860A8
:101DD000392024F092FF06B962B6A068006878B393
:101DE00000214162A0680068026922F001020261DC
:101DF000E068006840B14162E0680068016921F074
:101E000001010161E06800E0A0680068C16841F478
:101E10008071C16060680068816840F201121143FE
:101E20008160286840F019002860A168184A086895
:101E3000904206D1016A41F4805101620EE01EE039
:101E400016E0144A904210D1016A41F0010101628A
:101E5000A0680068416C41F400414164A0680068DA
:101E6000016841F00101016002E008461CF016FA29
:101E7000E068006818B1016841F0010101600020CC
:101E800070BD0000400D03004C200140286402405A
:101E9000000800400000014070B504004FF000054C
:101EA0001CD06068D0B10068C0B1A06800F054F8E0
:101EB000E06820B1A168884201D000F04DF8606868
:101EC00000688168214A114081606168A1B1E068C1
:101ED00038B102682AB1006A58B902E04FF0FF3009
:101EE00070BDA06818B102680AB1006A08B9886BB1
:101EF00008B1016800E0002101B315480A6822F02A
:101F000018020A600A6822F001020A6000E000BFBD
:101F10000A68D20701D0401EF9D20868C00702D073
:101F20006FF001050AE00B48814207D109494FF4DF
:101F3000746020390860392024F0DFFE6068006892
:101F4000016821F01E010160284670BDFEFEBFBF82
:101F5000400D03002864024000281CD001680029BD
:101F600019D0CA6822F48072CA6001680A6822F037
:101F700001020A60084A0168914203D10A6A22F408
:101F8000805205E0054A914203D10A6A22F001021B
:101F90000A621CF0FFB970470008004000000140D1
:101FA000002903D00844401E491E884370472DE98C
:101FB000FF4F81B01F461546040010D000F0CEF947
:101FC00004F586710091029800F062FC060009D0C9
:101FD000204601F03DF9304605B0BDE8F08F4FF0E6
:101FE000FF30F9E7D4F80C01416B006B00F0E7FD1E
:101FF00000287ED0D4F80C01C16B806B00F0DFFDAF
:10200000002876D0D4F80C01416C006C00F0D7FDAC
:1020100000286ED0D4F80C0100F0BFF9002869D078
:10202000002D67D0874265D305EB07080027C4F869
:102030000471D4F80C112E46B946886D60B34D6D0D
:102040002021FFF7ADFF0746B54253D305EB070A42
:10205000C2454FD8D4F80C11C86DFF2804D98A6D39
:10206000C96983188B4205D9204601F0F1F86FF059
:102070000300B1E7D4F8141101EB000B1146284618
:10208000FEF7B7FBD4F80C015946826D2846FEF7DF
:10209000B2FAA81B07445546D4F80C01406B90B126
:1020A0002021FFF77DFF284440455CD8C4F8D85074
:1020B000D4F80C110546871B4A6BC4F8DC20096B69
:1020C000C4F8E01005E0C4F8D890C4F8DC90C4F877
:1020D000E090D4F80C01C06BA8B12021FFF760FF9D
:1020E000284440453FD8C4F8F850D4F80C11CA6BC6
:1020F00001E03EE037E0C4F8FC20896B0546871B11
:10210000C4F8001105E0C4F8F890C4F8FC90C4F8D5
:102110000091D4F80C01406C90B12021FFF740FFF2
:10212000284440451FD8C4F8EC50D4F80C1105469B
:10213000871B4A6CC4F8F020096CC4F8F41005E061
:10214000C4F8EC90C4F8F090C4F8F490D4F8D80037
:1021500078B1D4F8EC0060B1D4F80C11A8EB050804
:10216000CA6A90450BD2204601F072F86FF0040065
:1021700032E7204601F06CF86FF007002CE72021D1
:102180001046FFF70DFF074404F59470814600F0F8
:102190004FFA482104F5AE70FEF74DFBD4F80C0160
:1021A000466916F4706F03D1029900F09CFB064358
:1021B0004FF00110C4E95706C4E95958D4F8D800C3
:1021C000C4F86C01D4F8DC00C4F87001D4F8F8004D
:1021D000C4F87401D4F8FC00C4F87801D4F8EC0019
:1021E000C4F87C01D4F8F000C4F80471C4F880018C
:1021F0004946009800F078FA050004D0204600F027
:10220000ADF82846E8E6012060800020E4E6000002
:10221000054800680549884202D00549884201D135
:10222000012070470020704714770420494145433E
:102230004B4F4D532DE9F05F414A0024661E136851
:10224000FFF7E6FF002879D03E48834201D10127FD
:1022500000E000274FF0000B91461046C2F820B076
:10226000C2F818B0C2F81CB052688568DFF8D88090
:10227000022A02D36FF0010051E06FF0040A102D22
:1022800010D807B175B10121104600F001FFC0BBA5
:10229000D8F8D80040B1D8F8EC1029B1D8F8DC1043
:1022A000A94204D250463AE04FF0FF3037E0FEF743
:1022B000A0FAD8E93B01FEF79CFAD8F8F80018B16B
:1022C000D8F8FC10FEF795FA57B11D48D8F8D81089
:1022D000243003E010F8012B01F8012B6D1EF9D218
:1022E000194801F0BFF8060000D40020D8F8F040EB
:1022F000102C00D91024124923463431D8F8EC2090
:1023000004E00CE012F8015B01F8015B5B1EF9D2FE
:10231000042C04D3D8F8EC100968C9F81C10C9F8CB
:102320000C00C9F81060D8F80801C9F81400C9F801
:1023300018400648C9F82000C9F800B0BDE8F09F71
:10234000147704204941454350F604204345414950
:1023500001490860704700001077042010B50400A0
:102360000ED06088012806D1D4F80C0118B104F50C
:10237000867000F038F92046BDE8104000F068BFD4
:1023800010BD012805D0022802D0032803D0002068
:102390007047042070470120704770B5040019D0C1
:1023A0002021606BFFF7FCFD05462021E06BFFF765
:1023B000F7FD05442021606CFFF7F2FD0544202164
:1023C000A06DFFF7EDFD05442021E06AFFF7E8FD71
:1023D000284470BD002070BD10B500F009FDE0B9C3
:1023E0000F490868401C13D1087D88B90024204695
:1023F00000F070F938B1D0E900100A4B0A4A594090
:102400005040014307D0641C022CF0D3002020B1BF
:102410004FF4803010BD0120F9E7002010BD00000E
:1024200098010020474D49413233454370B500B112
:102430000120134C0025207560B100F0D9FC70B16B
:10244000104801F03CF80F48FFF788FF25756FF042
:10245000070012E00B4801F032F8256104E0206823
:10246000401C05D000F0E0FDBDE8704000F054BF16
:10247000044801F024F86FF001002061F4E7000047
:102480009801002050F6042070B51D4D0446022826
:1024900002D36FF0010013E01A48B0F85E206AB969
:1024A00090F87C2052B9827C42B9C27C32B9B0F833
:1024B0006C213AB1B0F86C01012803D06FF007002D
:1024C000286105E00022204600F02EF9286120B1A5
:1024D0002046BDE8704000F0E4BE2868A04204D168
:1024E000297D204600F0D4FD2861204600F0D9FE69
:1024F0002868A04203D1BDE8704000F00DBF70BD58
:10250000980100208079042070B50546144C4FF0E6
:10251000FF3604F11800FF2D03D0022D08D3700000
:1025200018E04FF480712660FEF785F9002005E081
:102530000146284600F018FB40B12660206109489A
:1025400000F0BDFF0748FFF709FF04E0217D2846A2
:1025500000F09EFD2061BDE8704000F0DDBE00008F
:102560009801002050F6042010B500F041FC00282E
:102570000ED0084800F0A3FF0648FFF7EFFE06481C
:102580000168491C02D06FF007010161002101754B
:1025900010BD000050F604209801002001F0010257
:1025A00052420A4203D0FF2901D9814202D36FF07F
:1025B000030070470020704730B5002A0FD0084C48
:1025C00011F8013B58400023C50702D084EA5000AF
:1025D00000E040085B1C082BF6D3521EF0D130BD42
:1025E0002083B8ED704718B18069002802D00047F9
:1025F0004FF0FF30704708B5694600F05BF810B146
:102600006FF0010008BD009803C818F05FF80028BB
:10261000F8D06FF0050008BD012805D0022802D0CF
:10262000032803D000207047042070470120704722
:1026300010B504000DD03421FEF7FDF84FF0011065
:102640002060012060600348A0600348E060034808
:10265000206110BDA5B803081DB40308E5250208D4
:1026600018B1012804D0002070474FF48050704703
:102670004FF490507047002809D0806811B1096963
:1026800001B10846012803D0022804D00020704779
:102690004FF4807070474FF40060704708B569468A
:1026A00000F008F808B1002008BD009803C8081A17
:1026B000401C08BD09B1022802D36FF00100704729
:1026C000034A00EB400002EB8000086000207047E6
:1026D000D0C3040808B56946FFF7ECFF08B1002035
:1026E00008BD0098006808BD10B58EB0040004D085
:1026F0002069002803D021B107E04FF0FF300EB071
:1027000010BD6846FFF794FF69460868B0F1011FE5
:1027100002D14868012802D06FF00700EFE7226974
:1027200008469047EBE700002DE9F74FDFF83881C6
:102730000C46A8F5BA70C2B0B0F85E1069B990F84E
:102740007C1051B9817C41B9C17C31B9B0F86C11B0
:1027500041B1B0F86C01012804D06FF0070045B01A
:10276000BDE8F08F40A94298FFF7A4FF0028F6D1FA
:1027700042980CB1419403E0FFF772FF419050B1D1
:1027800000200028EBD1414641981DF071F928B195
:102790006FF00200E3E76FF00100F2E74FF48072A0
:1027A00041466846FDF727FF6846429900F0E2F887
:1027B0000028D4D14298FFF71EFF0028CFD14098BF
:1027C000079E4FF0FF3A076806F2FF104FEA5029C4
:1027D00000244FF4007B2CE04CB14198414620444A
:1027E0001DF046F918B1409800F040F8D0E75D467A
:1027F000AE4200D8354614B12A46414606E0B5F54A
:10280000807F07D9A5F5807208F580715046FFF7E3
:10281000D3FE82462A464146384618F007F828B1CA
:10282000409800F023F86FF0050098E7761B2F44DE
:10283000641C4C45D0D313996FEA0A00814205D03D
:10284000409800F013F86FF0060088E7449942982A
:1028500000F08AF9040004D0409800F007F8204600
:102860007DE700207BE70000F47A04201CB50021FE
:102870000091019148B100680822694617F0D6FF1F
:10288000002801D06FF005001CBD4FF0FF301CBDCB
:1028900038B50C00054623D06946FFF70BFF00282A
:1028A0001DD10021284600F05FF9002817D10098BB
:1028B0000068C4E9000500990A68A2604A68E260FD
:1028C000026A0AB10B681A4422610A68436A1A4410
:1028D0006261806A08B109680844A061002038BDBF
:1028E0004FF0FF3038BD38B50A46040004D06946C1
:1028F0001046FFF7DFFE08B1002038BDA08A10F4B3
:102900007060FAD121460098FFF7B5FE38BD30B4AB
:1029100050B149B143693BB10A68B2F1011F06D019
:102920006FF0070030BC70474FF0FF30FAE78A685D
:102930006FF00404CAB10068CA68C56AAA4214D319
:10294000426B22B10D6985B14D6995420DD3C26BC1
:1029500022B18D694DB1CD69954206D3406C30B13D
:102960000A6A12B14A6A824201D22046DAE730BCD2
:10297000084618472DE9F04FC1B00D46040016D0A7
:1029800040A92846FFF796FE002812D14098724EC3
:10299000724BD0E90021891A01F10108D4E9002124
:1029A000724059406FF003090A4371D104E04FF0BF
:1029B000FF3041B0BDE8F08FA1686FF00706012934
:1029C00069D1E168B1F1011F65D1A16C012962D122
:1029D000216911B18068814264D1207DC00757D040
:1029E00029462046FFF77FFF054621464098FFF71E
:1029F00042FE4FF40067B84201D14FF460600542D7
:102A000050D0681E05424DD14FF4007B4FF4807AC0
:102A10005D4504D0B5F5806F01D0BD421ED1206B5D
:102A2000FFF7FAFD98B3616B89B3B1FBF0F200FBDD
:102A3000121272BB5D4502D100EB400008E0B5F513
:102A4000806F04D0BD4209D100EBC00000E0C0009F
:102A5000B1FBF0F200FB1210D8B904E0554502D1E9
:102A6000606E40283DD2E06B0028A06B12D0FFF7CB
:102A7000D3FD60B1E16BB1FBF0F200FB121232B991
:102A8000C000B1FBF0F200FB121010B905E002E04B
:102A900049E026E008B130468BE74099A069096813
:102AA000884202D06FF0010083E7E069FF2818D95F
:102AB000404516D8A16D0546B1B1294B626D13444E
:102AC000B3F5703F2FD2E56DFF2D2CD985422AD268
:102AD00053189A4205D8234A934202D82944814286
:102AE00006D96FF0040064E7616DE1B9E16DD1B919
:102AF000616AFFF753FD0028CED1606AA84212D266
:102B0000216A09B1A9420ED2A06A08B1A8420AD22C
:102B100019B1E069FFF742FD28B9A16A29B1E0695E
:102B2000FFF73CFD08B1484643E75546524621466B
:102B30006846FDF7E7FD002014902A466946401ECE
:102B4000FFF73AFD216DC043814202D06FF00600CD
:102B50002FE700202DE70000474D49413233454320
:102B6000804BFFDF80740420F8B50D4606466946A9
:102B7000FFF7A0FD002818D10098314604682046D0
:102B8000FFF7F8FE002810D10098E26901684FF0C5
:102B9000FF3001F58071A2F58072FFF70DFDE16C49
:102BA000C043814202D06FF00600F8BD2DB14FF452
:102BB000807221462846FDF7A5FD0020F8BD00B52E
:102BC00051B100280AD0FFF7DCFB30B1B1FBF0F2C5
:102BD00000FB121008B902E008B1002000BD01207E
:102BE00000BD000070B5050023D0FFF7F5FB1149CB
:102BF0000446884200D9002411F054FE0646FFF72F
:102C000093F831180B48405928440D1815F0DAF89C
:102C10002918094D01F50A612246E960C5E9011448
:102C2000064826F0B3FD00206875BDE8704000F04E
:102C3000FBB970BD00BE030098010020C0740420E1
:102C4000002903D00844401E491E884370470000F5
:102C50002DE9F04104002DD01948417D51B3D0E950
:102C600001504619A06D6FF0040750B1616D084422
:102C70002021FFF7E5FF616DA9421ED3B0421CD8A9
:102C800005462021606BFFF7DBFF05442021E06B48
:102C9000FFF7D6FF05442021606CFFF7D1FF054404
:102CA0002021E06AFFF7CCFF2844B04205D800207D
:102CB000BDE8F0816FF00700FAE73846F8E700005A
:102CC0009801002070B504462021FDF792FD2F48A1
:102CD000304D008820802E48C1896180018AA18002
:102CE000418AE18001892181418961818189A181B4
:102CF0000188E1814188218280886082D5F80003C3
:102D00004FF6FF71A0FB010140F6E4425310C018DA
:102D1000002641F100013346FDF72CFB1E4AA0823C
:102D2000E68292ED000A1D4910EE100ADFED1C0A42
:102D3000884201DDB0EE600A10EE100A4FF0474302
:102D40009FED181A984201D9B0EE410ABDEEC00AB3
:102D500010EE100A208392ED010A10EE100A88424C
:102D600001DDB0EE600A10EE100A984201D9B0EE13
:102D7000410ABDEEC00A10EE100A6083D5F8F802D1
:102D8000A083D5F8F802000CE08370BD620000203B
:102D900012320020683B0020D004002000FEFF46D5
:102DA00000FEFF46000000C77FB50E4800240294D5
:102DB000406803904FF48C710B48FDF73CFD0A48C6
:102DC000651E01230560009403AA02A90748019427
:102DD00000F0F2FA054800F072FB04480565C0F8FF
:102DE00008417FBDE8C304089801002050F6042084
:102DF0000448406820B1D0F8C00008B101207047F5
:102E000000207047683B00200AB1084402E000201F
:102E10007047801A9042FCD2704712B90020704768
:102E2000891A9142FCD2884201D3401A7047081A8D
:102E3000101A70472DE9F05F0C465FEA000A9346CE
:102E40004FF0FF3824D01046FFF79BFA00B3B4FBD5
:102E5000F0F100FB1141D9B9B4FBF0F6D6B372B66C
:102E60002848836828498F6842684D6862B6806B3D
:102E700070B1886B60B1402A0AD3402D08D3234833
:102E8000006828B12248D0F80C01446E402C02D3CF
:102E90004046BDE8F09F40211846FFF7BEFF81463F
:102EA0002A4640213846FFF7B8FF202C01D2154FA3
:102EB00000E0154F01D3A4F12004A04600D24846FB
:102EC0007A684FEA8611A1F14001FFF7A6FF054697
:102ED000002412E013E005EB4801384600F08CF8BE
:102EE00003B222465946504600F036F97A6840212E
:102EF0002846FFF789FF0546641CB442EBD3002047
:102F0000C7E7000028320020683200206833002024
:102F100050F604202DE9FF4F89B00024169F099830
:102F200099460D46661E60B1B9F1000F09D047B150
:102F30000B98FFF726FA20B1B5FBF0F100FB115119
:102F400019B130460DB0BDE8F08FB5FBF0F616B301
:102F5000F019401EB0FBF7FB72B6264988684A6834
:102F6000009262B6896B09B1202A15D26846FFF734
:102F7000A9FE6D460DE0B4FBF7F007FB10412246B9
:102F800019F801000B9935F91030099800F0E4F8B0
:102F9000641CB442EFD32BE02021FFF73EFF4FEA41
:102FA0004B112039009AFFF738FF824600201CE0C1
:102FB00000250EE019F805000AEB40010D4800F06D
:102FC0001BF803B222460B99099800F0C5F8641C5F
:102FD0006D1CBD4201D2B442ECD320215046009A70
:102FE000FFF712FF824608F1010080465845DFD303
:102FF0000020A7E7E832002010B520B1826B12B1A3
:103000004368022B01D2002010BD4368B1FBF3F0EE
:1030100003FB1010411CB1FBF3F403FB1413105C11
:10302000D15C40EA012010BD70B5174800F047FAA6
:103030001548FFF793F9154D6FF007042868401CF9
:10304000687D07D020B1A86810B1FFF7D1FE28B184
:103050002C6170BD0028FBD00024F9E70B48183024
:10306000FFF7F6FD28B9D5E9023207482968FEF7CF
:103070009EFF28610028ECD1287D0028E9D0BDE81A
:103080007040014800F014BA50F604209801002066
:103090002DE9F0470E46284980468946FFF764FD32
:1030A000254D04004FF0FF37A5F1180502D02F6021
:1030B0002C612EE0C5F80080FFF79AFE0446687D7B
:1030C00010B1A86800B184B11C4800F0F8F91B48A1
:1030D000FFF744F96FF007002861002E03D0002CA1
:1030E00001D000212975BDE8F0874846FFF7B0FD03
:1030F000286130B9D5E9023210482968FEF757FF38
:10310000286104000DD04FF4807148462F60FDF710
:1031100092FB0A4800F0D3F90848FFF71FF9204650
:10312000E1E7064826B100F0C3F901202875F6E76B
:1031300000F0C5F9F3E70000B001002050F60420CC
:10314000002806D0002904D00A460146014813F0A1
:10315000C5BB7047683B0020012906D002290DD06D
:10316000032901D1190A8154704700EE103A00EB8F
:103170008200B8EEC00A80ED000A704720F81230D5
:1031800070470000F8B5304D4FF0FF3468880128D3
:1031900032D1D5F80C217AB3D5F8D81061B3D5F86F
:1031A000DC1049B3D5F810111046D835FFF79BFB5A
:1031B000064675E83601FDF71CFB30460826B0F5DB
:1031C000807F09D0B0F5007F0DD0B0F5806F15D0AD
:1031D000B0F5006F10D118E0D83595E80700D83D5C
:1031E000FFF728FE06E00320D835009095E8070099
:1031F000164B11E0040013D02046F8BDD8350096D8
:1032000095E80700114B103306E00920D8350090EF
:1032100095E807000D4B1833D83DFFF77BFEE9E733
:10322000D5F8F80068B1D5F8FC1051B1FDF7E1FA16
:10323000F8350096054B95E807000833FFF76AFE5E
:10324000F8BD0020F8BD000050F60420E8C30408D3
:1032500010B504461C2100F58670FDF7ECFA342108
:1032600004F59470FDF7E7FA482104F5AE70FDF718
:10327000E2FA00219CB104F19802C4F8D82003209E
:103280004023C4E93730C4E93D01C4F8FC104C3296
:10329000C4F800110823C4F80411C4E93B23618079
:1032A00010BD70B5CAB00646282140A8FDF7C3FA84
:1032B0003046FFF70FFA05463046FFF7EFF90446B0
:1032C00069463046FFF750FC18B30021AD228DF857
:1032D00000219B228DF801218DF802618DF80311E8
:1032E0004394CDE9410549B107984490059845902C
:1032F000159846900B9847900D984890DA208DF8D5
:1033000024018DF82501262140A8FFF719FF4AB0B6
:1033100070BD0121DAE7000010B588B020216846B1
:10332000FDF789FA224A0020517D01B10120116880
:103330004B1C01D040F00200137D0BB140F00400A3
:103340001C4B1C78A40701D540F008005B88012BBA
:1033500001D140F01000AD238DF8003099238DF895
:1033600001308DF80200022901D2C8B200E0FF202E
:103370008DF80300106901905068029090680390E6
:103380000C4800F18001D0F8DC000490086F059033
:103390000848D0F808010690DA208DF81C008DF856
:1033A0001D001E216846FFF7CBFE08B010BD0000CF
:1033B0009801002050F604202DE9F05F9B46DDE9DE
:1033C0000A8516460F4604004FF0FF3A41D0EFB38E
:1033D000E6B3FEF7C3FF4FF00009A4F80090388869
:1033E000A0807888E080308820817088608184F8AF
:1033F00054B0A4F8568048461DB1404501DA295C16
:1034000000E000212218401C11744028F4DB204603
:10341000FFF71EFF402204F1980104F1580026F046
:10342000B5F9002049462218401C82F8981040281F
:10343000F9DB00202218401C82F8E4100828F9DB90
:10344000A18849B1E08838B1414300E001E040295A
:1034500002D95046BDE8F09F208840F0010020804E
:103460000020F7E770B5040002D02078800702D46E
:103470004FF0FF3070BD0D4E75686088012807D091
:1034800021F00DFE7068401BC4F80801206D70BD6E
:1034900004F5AE7104F58670FFF739FA7168491BBF
:1034A000C4F808110028F2DB206570BD001000E0B0
:1034B000002803D0018841F00201018070470028F4
:1034C00003D0018821F00201018070472DE9FF41FE
:1034D000404E0024F47786F8204086F8214086F894
:1034E0002240A6F8424086F8254086F8244001256F
:1034F00086F8235086F826403748846006F1800716
:1035000000F531687C61D8F8000008B1002000E0C7
:1035100001204FF48071CDE90210304B4A00CDE913
:1035200000232F4A2F4930480BF0B8F82F490028C4
:10353000086829D020F01000086086F82350002188
:1035400005200AF001FF402129480FF05DFE01220D
:10355000114605200AF062FDD8F8300080B32549F5
:103560002548B0F81C2ED0F80C0E92B2CDE902021C
:103570001948CDE9001548382049D0E909232048E9
:10358000FDF726FBBDE8FF8140F010000860012137
:1035900005200AF0D9FE05200AF09EFC0BF0A8FCDD
:1035A00018F080F9786186F8234001200BF038FB91
:1035B000142214490C480BF021FA10B1F577CBE72F
:1035C00006E018F06FF9386102200BF029FBC3E721
:1035D0000021C5E718000020582800200004024000
:1035E00040AA00207CF804206477042034010020E5
:1035F00068330020007102008064042034F8042045
:1036000008420020FE31002070B5164D287818B110
:103610001548B0F8980208B1002070BDE87A18B9D2
:1036200022F0E8F90028F8D022F0E7F90028F4D0D9
:1036300000242C70EC720D48022180F8F012A0F8E2
:10364000124322F0F1F808B116F0CEFF11F0CEFDD2
:10365000074808A10A6840F8482F8988818084714A
:10366000012070BD1800002080EF0420683B00207E
:103670001801002043453634535F000070B5144CE8
:103680002078002803D0FFF7BFFF08B1002070BDED
:1036900010480025B0F89802012817D00E480121E3
:1036A00080F8F012A0F8125322F096F808B116F044
:1036B0009BFF11F09BFD094809A10A6840F8482FBB
:1036C0008988818085712570012070BD2570DDE7B6
:1036D0001800002080EF0420683B00201801002023
:1036E00043453634585F000030B4E8B100F10801BA
:1036F0000C0927494FF6FF750A88891C0B88991A0F
:103700008AB3AA4230D073B3AB422DD059B3A01ABA
:103710004FF448725043C20FB2EBD17F13D000294F
:1037200006DAC1F1000204E030BC40F6FF707047D9
:103730000A46C0EB520001DAC1F10001B0FBF1F022
:10374000C0F100000CE0002902DAC1F1000200E043
:103750000A4600EB520001DAC1F10001B0FBF1F0C2
:1037600000F5967010E0FFE740F2393100FB01F000
:1037700047F6FF7101EB8000B0FBF5F0C0F10000EF
:1037800040F6DA4101EB800030BC00F003B80000E5
:103790002C7AFF1F00F5C87140F6FF70814200D2FD
:1037A00088B270470448B0F85E1019B990F87C00F0
:1037B000002800D0012070478079042010B5264CE5
:1037C000207AE8BB43F6982008F090FAC0BB234863
:1037D00008F014FF00283CD02148B0F8B01240F6A1
:1037E0000842114234D1D0F83812490430D4A0F53F
:1037F0000051D1F80C1919BBD0F8241201BBD0F834
:103800008C17E9B9D0F8F00BD0B9FFF7CBFF08B3AC
:103810001448C06AA0B91448807C88B9134841682C
:1038200021B181694068B1EB500F11D20F4840308F
:10383000416821B181694068B1EB500F08D200E0C6
:1038400006E00B480078C00604D594F8200008B1C3
:10385000002010BD012010BD18000020187D04209C
:1038600018AD04206833002080790420283200201D
:103870003401002008440349B0FBF1F201FB1200BF
:103880007047000080510100411A07480144B1FB14
:10389000F0F200FB12104AF6C001884201D201206A
:1038A000704700207047000080510100084991F8DE
:1038B0000A23C32A03D191F80B233C2A01D0FF200D
:1038C000704708B10122027091F80C0370470000A4
:1038D00018AD042010B5002100B10170154CD4E9D9
:1038E00002329A4221D9B2F5004F1ED9E46C9C42B3
:1038F0001BD3A2F50042934217D2D21A15D0E31A75
:10390000934200D9134608B101240470642450087E
:10391000E3FB04010023FCF72DFD0749C0B2C322DD
:1039200088700A703C224A7010BDBDE81040FFF755
:10393000BDBF00008079042022B004203EB50020E5
:1039400000900190029016480078800704D5154831
:10395000B0F8B002800602D54FF0FF303EBD684699
:1039600012F00CFD10480A2269460446FCF7F8FDE7
:103970000E49002848790DD040F00200487100F04F
:10398000D5FB0A2269462046FCF7EAFD0028E5D06F
:1039900001203EBD00F0FD00487100203EBD00004A
:1039A0003401002018AD042016B0042018000020B7
:1039B000EFF3108172B60A48D0F8E022D20505D4A0
:1039C000D0F8E02222F08002C0F8E022D0F8E02215
:1039D00042F48072C0F8E02281F310887047000042
:1039E000683B0020EFF3108272B60749D1F8E0027D
:1039F000D1F8E032C0F3C01023F4C073C1F8E03254
:103A000082F3108870470000683B00202DE9F047E2
:103A1000334F6FF0020907F54055D5F8340230B145
:103A2000816B21B1096811B10020BDE8F087EFF387
:103A3000108672B618B1806B08B10068C0BB294906
:103A40000868C00709D1D5F83002C268120604D44C
:103A5000D5F8382212F4A03F02D04FF0FF303BE0FF
:103A6000C26822F08002C2601F48426922F08002D0
:103A700042611E4C4FF000604FF00008C4E9001096
:103A800040200101A060C4E90381C4F81480C4F897
:103A90001880C4F81C80C4F820802046C4F8248014
:103AA00017F0F8FB28B16FF00100C4F8008013E0B4
:103AB0000FE00F488463A063462018F099FD384654
:103AC0000CF030FBD5F8340228B1806B18B10068D7
:103AD00008B1002000E04846002EA6D162B6A4E757
:103AE000187D0420B864024000100140C0AB0020E3
:103AF00048FC04202DE9F04F89B007004FF000008A
:103B00005F4D0590069007902968C1F3400606D0E6
:103B100021F002012960A5F58E714871C8718046B7
:103B200004465848016841F002010160016801F053
:103B300002010891016841F004010160006814214C
:103B400000F0040008906846FCF775FE4FF48049C9
:103B50004FF0010ACDF80090CDE901A4DFF828B1BB
:103B600069465846039417F0ABFD4FF40040CDE989
:103B7000000A0320CDE902406946584617F0A0FD2F
:103B800001224946584617F088FE4048006808B9A7
:103B900021F0C0FD3E4CD4F8B40218B94FF4964061
:103BA000C4F8B40284F8B98238493A480BF009FBEA
:103BB000394808F034FA394808F031FA30493748C2
:103BC00032222C317A38FCF716FD9FB105A812F08D
:103BD000D5FB324805993638016006994160BDF839
:103BE0001C100181642017F019FC2A4808F062FFBC
:103BF00006461FE024481830016841F48041016006
:103C0000B4F8B00220F00800A4F8B00204F52C7457
:103C100000F072FC208820F08000208054F87C0C9A
:103C200015F06EFF208840F002002080A4F52C746F
:103C3000FEB10026174808F015FD2868DEB120F017
:103C400002002860B4F8B00240F02000A4F8B002EE
:103C50000222082106200AF0E1F91148C16841F06A
:103C60002001C160C16821F40051C16009B0BDE804
:103C7000F08F0126DEE740F002002860EDE700004B
:103C800034010020303802400008024048FC042083
:103C900018AD0420187D0420B0B404204CB00420DA
:103CA000001001402DE9F047074617F0FBFDDFF853
:103CB0006CA08146DAF804801A48194D4FF47A72E4
:103CC00000680023A0FB0701FCF754FB04460E46E6
