:020000040800F2
:2000000050180020790200083D5D000839550008395D0008D10500089B7E00080000000000
:200020000000000000000000000000003D6200080F0B000800000000AF5F00085162000826
:200040009302000893020008930200089302000893020008930200089302000893020008B8
:200060009302000893020008930200081B0A0008930200081D0A00081F0A0008210A00084C
:20008000230A0008930200086F040008930200089302000893020008930200089302000802
:2000A00093020008930200081D630008930200089302000893020008930200084D55000860
:2000C0003D550008930200089302000893020008930200086D6500089302000893020008FE
:2000E00093020008B15F00089302000823630008930200082563000893020008250A00081F
:2001000093020008930200081F63000893020008930200089302000893020008216300081B
:20012000270A000893020008290A00082B0A00082D0A00089302000893020008930200085B
:20014000930200089302000893020008415D000893020008930200082F0A0008930200080A
:200160009302000893020008930200089302000893020008930200080000000000000000D1
:20018000930200089302000893020008930200089302000893020008000000009302000814
:2001A0009302000893020008000000000000000093020008000000000000000093020008CB
:2001C00093020008930200089302000893020008930200089302000800F002F800F03CF863
:2001E0000AA090E8000C82448344AAF10107DA4501D100F031F8AFF2090EBAE80F0013F02B
:20020000010F18BFFB1A43F001031847207D0000407D0000103A24BF78C878C1FAD8520721
:2002200024BF30C830C144BF04680C60704700000023002400250026103A28BF78C1FBD891
:20024000520728BF30C148BF0B6070471FB507F057FE1FBD10B510BD00F0CFF81146FFF7B2
:20026000F5FF07F039FE00F0EDF803B4FFF7F2FF03BC00F0F5F8000009488047094800479D
:20028000FEE7FEE7FEE7FEE7FEE7FEE7FEE7FEE7FEE7FEE704480549054A064B704700007B
:2002A00009630008D90100085010002050180020501400205014002053EA020C00F06980B4
:2002C0002DE9F04B4FF00006002B1FBFB3FA83F503FA05F424FA05F65E4012BF1643B2FAD7
:2002E00082F502FA05F4C5F120051EBF22FA05FC44EA0C04203556EA044C4FEA144418BF32
:20030000641C4FF000084FF00009904271EB030C39D3002919BFB1FA81F701FA07F6B0FABF
:2003200080F700FA07F6C7F120071EBF20FA07FC46EA0C062037B6FBF4FCA7EB0507103F4F
:2003400007F01F0BCBF120060CFA0BFB2CFA06F644BFB3460026202FA4BF5E464FF0000BAA
:200360005BEA060C08BF4FF0010B19EB0B09ABFB027C48EB0608C01B06FB02CC0BFB03CC18
:2003800071EB0C01C1E70B46024641464846BDE8F08B13B54FF000004FF00001AFF3008015
:2003A000BDE81C4070474FF0000200B5134694469646203922BFA0E80C50A0E80C50B1F1DC
:2003C0002001BFF4F7AF090728BFA0E80C5048BF0CC05DF804EB890028BF40F8042B08BF13
:2003E000704748BF20F8022B11F0804F18BF00F8012B7047704770477047754600F02CF884
:20040000AE4605006946534620F00700854618B020B5FFF73FFFBDE820404FF000064FF05F
:2004200000074FF000084FF0000B21F00701AC46ACE8C009ACE8C009ACE8C009ACE8C009A5
:200440008D46704710B50446AFF300802046BDE81040FFF70ABF000000487047EC0F0020AD
:2004600001491820ABBEFEE7260002007047704755494A6822F440324A604A6843681A43DA
:200480004A600268526822F4807203685A6002685368026943EA022203685A600268526837
:2004A00022F0407203685A600268526883681A4303685A600268926822F4006203689A6081
:2004C00002689268C3681A4303689A603F4B826A9A4218D00268926822F0706203689A60E4
:2004E00002689268836A1A4303689A600268926822F0405203689A6002689268C36A1A438E
:2005000003689A600BE00268926822F0706203689A600268926822F0405203689A60026807
:20052000926822F0020203689A6002689368027E43EA420203689A602022125CA2B102681E
:20054000526842F4006203685A600268526822F4604203685A6002685368426A521E43EAB5
:20056000423203685A6005E00268526822F4006203685A600268D26A22F470020368DA6267
:200580000268D36A828B521E43EA02520368DA620268926822F4007203689A600268936859
:2005A00090F8302043EA422203689A600268926822F4806203689A6002689368426943EA6F
:2005C000822203689A607047002301400100000F00BFFEE702460248086000207047000072
:2005E0000000010870B505460C46054800F0FEFA0021A161E1612146284600F047F970BD64
:20060000000002082DE9F04FADF6340D4FF40070CDF810080DF61401081DFFF7DBFFDDF825
:2006200014088769032F01D9012000E000200FB9012100E00021084300B103270327884876
:20064000006840F40050864908608648006840F4805084490860642001F006F8824803F0D8
:20066000D9FD002873D100BF00E000BF7F48806800F002000228F8D17C480C307C49086019
:200680007A48006820F04000784908600846406840F0020048600846006840F04000086059
:2006A00000BF0DF581614FF4805003F0B7FE02AA0DF581610DF6180000F0DEF8032F74D1F4
:2006C000DDF8100408B1012000E00020DDF8181409B1012100E000210840BDF81C14DDF877
:2006E0001428928A914201D0012100E000210840604ADDF81414914201D1012100E0002124
:200700000840002851D00DF5816000F043F900287DD1DDF81804440ADDF81804C0F30800D8
:2007200000B1641C00200190DDF81894054606461CE04FF480516A18501C0DF5C26103F0A9
:200740006DFEB9F5007F03D94FF4007001E06DE048468246A9EB0A0901AA51460DF5C260E1
:2007600000F03CF980466D1C46F10006291B76F10000DED3BDF81C0440454FD10DF581610E
:200780000DF61800FFF72EFFDDF818A400252DE005F58051481C0DF5C26103F03FFEBAF525
:2007A000007F03D94FF4007001E03EE050460646AAEB060AF01706EB9070831069020DF5AD
:2007C000C2620DF6180000F0F9F828B14FF0FF300DF6340DBDE8F08F4FF4005120481838FE
:2007E00001F010F91E2000F03FFF6D1CA542CFD301210020CDF82014CDF824040DF5816175
:200800000DF6180000F042F80DF6180000E006E000F0A8F86002CDF8240800BF00BF1048F9
:20082000006840F000500E49086000BF0DF61401081DFFF7CFFEDDF81408D0E9061000236F
:2008400059405840014309D00548006840F00050034908600DF6180000F084F80020B7E71C
:200860001808024018040240C80100200030014060640240434536340346034818610869E8
:20088000D8601A6070470000000002082DE9F04387B081460C4600F0A9FF4FF00008124813
:2008A00000F0C0FA1149086001201149086000200190022005900D4800680390084600687B
:2008C000049006A901A800F0E3FE804600F03CFF80252646044F32462946384600F00AF8AF
:2008E00007B0BDE8F08300000000010800000020040000202DE9F04104460F46164604F0A6
:20090000030010B10420BDE8F08100F06FFF00251CE056F825C0624600232146022000F0E3
:200920001DFF50B956F825102068884203D000F00BFF0220E7E7241D07E000F0FFFE804625
:2009400000F002FF48F00300DDE76D1CBD4202D203488442DDD300F0F7FE0020D3E70000CB
:20096000FFFF17082DE9F0410746084C2568666802F0F4F900F052FE72B6284680F308885F
:2009800000BF03480460B047BDE8F0810000020808ED00E010B50146064C074BD1E9002073
:2009A00062405840024301D1002010BD4FF0FF30FBE7000044414F4C544F4F422DE9F0410E
:2009C00004460D4617461E46206900EB05083A4631464046FFF78EFFBDE8F0812DE9F041DB
:2009E00005460F461646346805EB070805E015F8011BA0B207F038FA04464545F7D33460A5
:200A0000A0B2002107F030FA04462046002107F02BFA04462046BDE8F0817047704770476A
:200A2000704770477047704770477047704770470146087810381823B0FBF3F20848805CF8
:200A4000C865032A05D908686FF30900001D886503E008686FF309008865886D7047000022
:200A60000A7F0008014600208A6A8B69CBB932B1012A0DD0022A03D0032A10D10EE000BF6D
:200A8000CB6A03F08073B3F1807F00D1012007E0CB6AB3F1C07F00D1012001E000E000BF35
:200AA00034E08B69B3F5005F1AD132B1012A07D0022A03D0032A11D10AE000BF01200EE091
:200AC000CB6A03F08073B3F1807F00D1012006E0CB6AB3F1C07F00D1012000E000BF15E0E2
:200AE00032B1012A05D0022A04D0032A0CD103E000BF00BF012008E0CB6A03F08073B3F1E0
:200B0000807F00D1012000E000BF00BF7047704772B600BFFEE7000010B5002201B909E0C2
:200B2000012901D10A0205E0022901D10A0201E04FF440720E4B1B6823F440730C4C236068
:200B400023461B681343236023461B6823F07803236023461B68022444EAC0042343044C19
:200B6000236023461B6843F48033236010BD0000103C02401C48006800F40070B0B11A484B
:200B8000006820F400701849086000BF0846006840F4006008600846006820F4006008609D
:200BA00000BF0846006840F4007008600E48006800F48060B0B10C48006820F480600A49BE
:200BC000086000BF0846006840F4805008600846006820F48050086000BF0846006840F421
:200BE0008060086070470000003C0240F0B587B00746002600F0FAFD0D4800F085F9044635
:200C00000C4800F081F9051B00200190022005900394049506A901A800F03AFD064600F0A3
:200C200093FD16B1012007B0F0BD0020FBE7000000000208FFFF17080A4A126822F4407219
:200C4000084B1A601A46126842F004021A601A4612684FF4803343EA00231A43014B1A60F8
:200C600070470000103C0240074A126822F44072054B1A601A4612681A601A46126842F072
:200C800001021A6001707047103C024010B50A49096821F44071084C21602146096841F4F0
:200CA000407121602146096841F0010121600260BFF36F8F436010BD103C0240084A12689A
:200CC00022F44072064B1A601A46126842F480721A601A46126842F001021A600180704744
:200CE000103C0240084A126822F44072064B1A601A46126842F400721A601A46126842F0FF
:200D000001021A6001607047103C02402A48006800F0100040B12948C06940F0100027499B
:200D2000C8611020244908602348006800F0200040B12248C06940F008002049C861202014
:200D40001D4908601C48006800F0400040B11B48C06940F004001949C86140201649086066
:200D60001548006800F0800040B11448C06940F002001249C86180200F4908600E480068F4
:200D800000F4807048B10D48C06940F001000B49C8614FF48070084908600748006800F0B7
:200DA000020040B10548C06940F020000349C86102200149086070470C3C024018000020B8
:200DC00070B50446002500201449C86100F02AFE054609E0601C38B124B100F023FE401BE7
:200DE000A04201D9032070BD0D48006800F480300028EFD10A48006800F0010010B1012011
:200E0000074908600648006800F4F97018B1FFF77DFF0120E7E70020E5E7000018000020B9
:200E20000C3C0240014600202C4A914203D2B1F1006F00D350E02A4A914204D2274A91422E
:200E400001D3012048E0274A914204D2244A914201D3022040E0244A914204D2214A9142AF
:200E600001D3032038E0214A914204D21E4A914201D3042030E01E4A914204D21B4A9142C3
:200E800001D3052028E01B4A914204D2184A914201D3062020E0184A914204D2154A9142D7
:200EA00001D3072018E0154A914204D2124A914201D3082010E0124A914204D20F4A9142EB
:200EC00001D3092008E00F4A914204D20C4A914201D30A2000E00B207047000000400008FA
:200EE0000080000800C00008000001080000020800000408000006080000080800000A0853
:200F000000000C0800000E08014600202C4A914203D2B1F1006F00D350E02A4A914204D2F1
:200F2000274A914201D3012048E0274A914204D2244A914201D3022040E0244A914204D2C8
:200F4000214A914201D3032038E0214A914204D21E4A914201D3042030E01E4A914204D2DC
:200F60001B4A914201D3052028E01B4A914204D2184A914201D3062020E0184A914204D2F0
:200F8000154A914201D3072018E0154A914204D2124A914201D3082010E0124A914204D204
:200FA0000F4A914201D3092008E00F4A914204D20C4A914201D30A2000E00B207047000035
:200FC000004000080080000800C0000800000108000002080000040800000608000008083C
:200FE00000000A0800000C0800000E0830B50246864C8869A04200D000BF00BF92F83C00CF
:20100000012801D1022030BD012082F83C0000BF0868092816D91068C0680C780A3C04EB47
:2010200044050724AC40A0431468E0600C780A3C04EB44048868A0401468E4682043146839
:20104000E06013E0106800690C7804EB44050724AC40A043146820610C7804EB440488681E
:20106000A040146824692043146820611068806B20F440101468A0631068846B088A401E8A
:2010800044EA00501468A0630879C01C0C7C001B00EB80041F20A0401468A46B84431068FB
:2010A00084630879C01C0C7C001B00EB8004088880B2A0401468A46B20431468A063534C2C
:2010C0008869A04218D01068806820F470201468A060106880688C6920431468A060106829
:2010E000806820F440101468A06010688068CC6920431468A0600BE01068806820F47020C5
:201100001468A0601068806820F440101468A060487D30B11068406840F4806014686060FD
:2011200005E01068406820F4806014686060087D30B11068406840F480501468606005E0CF
:201140001068406820F48050146860604868012804D002280FD0032827D119E0106840695C
:201160006FF30B001468606110684069CC6820431468606126E0106880696FF30B00146880
:20118000A06110688069CC6820431468A06119E01068C0696FF30B001468E0611068C06974
:2011A000CC6820431468E0610CE01068006A6FF30B00146820621068006ACC6820431468AD
:2011C000206200BF00BF124B124C1068A04206D10868122803D1586840F4800058600D4C20
:2011E0001068A0420AD10C4C0868A04202D00868112803D1586840F40000586000BF002036
:2012000082F83C0000BF00BFFDE6000001000F0000230140002001401200001038B502468B
:201220000020009000BF92F83C00012801D1022038BD012082F83C0000BF0868092816D941
:201240001068C0680C780A3C04EB44050724AC40A0431468E0600C780A3C04EB4404886845
:20126000A0401468E46820431468E06013E0106800690C7804EB44050724AC40A0431468A1
:2012800020610C7804EB44048868A040146824692043146820614868072817D21068406BEE
:2012A0000C79641E04EB84051F24AC40A04314686063088880B20C79641E04EB8404A0403E
:2012C0001468646B20431468606331E048680D2817D21068006B0C79E41F04EB84051F241C
:2012E000AC40A04314682063088880B20C79E41F04EB8404A0401468246B20431468206312
:2013000016E01068C06A0C790D3C04EB84051F24AC40A0431468E062088880B20C790D3C8F
:2013200004EB8404A0401468E46A20431468E0621E4B1F4C1068A0420AD10868122807D1E0
:20134000586820F400005860586840F480005860174C1068A04222D1164C0868A04202D09F
:20136000086811281BD1586820F480005860586840F4000058600F4C0868A0420FD10E483D
:2013800000680E4CB0FBF4F000EB80004000009002E00098401E009000980028F9D100BF10
:2013A000002082F83C0000BF00BF41E70023014000200140120000104400002040420F00D5
:2013C00070B5044600250CB9012070BD1549A06A884200D000BF206C30B9204600F024F8BE
:2013E0000020606484F83C00206C00F0100088B9206C20F4885040F0020020642046FFF7FA
:2014000037F800206064206C20F0020040F00100206400E0012500BF002084F83C0000BF0A
:201420002846D2E70100000F10B586B00446142101A8FEF7B8FF2F492068884258D100BFF4
:20144000002000902C48006840F480702A4908600846006800F48070009000BF00BF00BF9A
:201460000020009024481438006840F001002249143908600846006800F00100009000BF55
:2014800000BF01200190032002900020039001A91A4800F0C5F91A481A49086000204860C4
:2014A000002118488160C1604FF48061016149004161C90081618911C1610902016204213E
:2014C0004162012181620021C162016300F030F808B1FFF71DFB00BF0A48A063846300BF23
:2014E00000220721122000F0A7FB122000F090FB06B010BD0020014044380240000002404D
:201500007064024094000020014691F83500022803D08020486501207047052081F8350007
:201520000868006820F001000A6810600020F3E72DE9F0410446002500F074FA074614B9B8
:201540000120BDE8F081606A00B100BF022084F8350000BF002084F8340000BF2068006809
:2015600020F00100216808600AE000F05BFAC01B052805D920206065032084F83500E0E7B4
:201580002068006800F001000028EED12068056821480540D4E901010843E16808432169B8
:2015A000084361690843A1690843E1690843216A08430543606A042803D1D4E90B010843E5
:2015C0000543206805602068456925F00705606A0543606A04280DD1A06A0543E06A48B104
:2015E0002046FFF73FFA28B140206065012084F83500A6E7206845612046FFF719FA064610
:2016000094F85C103F208840B06000206065012084F83500002094E73F8010E010B56FF472
:201620009A300E490860002008600D48091D0860002008600B480949103908600020086050
:20164000C020091D0860002008600320091D08600020086000F0A4FA002010BD2038024046
:20166000F3795703FF10600070B5044600F0DAF906462546681C10B104480078054400BF3B
:2016800000F0D0F9801BA842FAD370BD400000202DE9F04104460F46002600BF2548007EFC
:2016A000012802D10220BDE8F08101202149087600BF4CF25030FFF783FB0546002D31D182
:2016C000401E3860206801280FD1207C6168FFF7B3FA4CF25030FFF773FB05461648006848
:2016E00020F00400144908601AE0A66812E0217C3046FFF711FA4CF25030FFF761FB0546A8
:201700000D48006820F07A000B4908600DB13E6005E0761CD4E902100844B042E7D800BF68
:20172000FFF728FA00BF00200249087600BF2846B9E7000018000020103C02400148C069E4
:2017400070470000180000200348006840F000400149086000207047103C02402DE9F04119
:201760000646884614461D4600BF1E48007E012802D10220BDE8F08101201A49087600BFFA
:201780004CF25030FFF71CFB07461FBB26B9E1B24046FFF769FA12E0012E04D1A1B2404637
:2017A000FFF78CFA0BE0022E04D121464046FFF799FA04E022462B464046FFF767FA4CF26F
:2017C0005030FFF7FDFA07460748006820F001000549086000BF00200249087600BF3846EC
:2017E000C8E7000018000020103C024000200949096801F0004159B10749064A0C3A1160FE
:20180000064911600349096801F0004101B1012070470000103C024023016745AB89EFCD41
:20182000F8B502460B460025002400200021D1E0012606FA01F51E6806EA0504AC4274D158
:201840001E7906F00306012E04D01E7906F00306022E13D190684F000326BE40B0434F0095
:20186000DE68BE4030439060506801268E40B0431E79C6F300168E40304350601E7906F03D
:201880000306032E09D0D0684F000326BE40B0434F009E68BE403043D0601E7906F0030608
:2018A000022E13D1CF0802F1200656F827004E07F70E0F26BE40B0434F07FF0E1E69BE4047
:2018C0003043CF0802F1200646F8270010684F000326BE40B0431E7906F003064F00BE407C
:2018E000304310605E6806F44036002E71D000BF00260096394E366846F48046374F3E609C
:201900003E46366806F48046009600BF00BF344E8F0856F827008E07370F0F26BE40B04342
:20192000304EB24202D100261FE052E02E4EB24201D1012619E02D4EB24201D1022614E04C
:201940002B4EB24201D103260FE02A4EB24201D104260AE0284EB24201D1052605E0274E1D
:20196000B24201D1062600E007268F073F0FBE4030431B4E8F0846F82700214E3068A043C4
:201980005E6806F4801606B120431D4E3060361D3068A0435E6806F4001606B12043184EB8
:2019A000361D3060164E361F3068A0435E6806F4003606B12043124E361F3060361F3068CE
:2019C000A0435E6806F4803606B120430C4E083E3060491C1029FFF42BAFF8BD4438024086
:2019E00008380140000002400004024000080240000C024000100240001402400018024044
:201A0000083C014010B5426921EA020302EA010443EA0443836110BD0AB1816101E00B041E
:201A20008361704701480068704700003800002070472DE9F84F0446206847692068D0F865
:201A40000480002594F83E90C7F3002040B1C8F3002028B145F001056FF480702168486144
:201A6000C7F3402040B1C8F3002028B145F002056FF4007021684861C7F3802070B3C8F32E
:201A8000002058B3CA46B4F82AB094F83D60206B0090BAF1200F0FD1BBF1000F0CD1212EA0
:201AA00006D0292E04D0282E06D10098212803D1204603F0A9FE11E06FF4806021684861DD
:201AC00045F00405B9F1100F02D0B9F1400F05D12068006840F4007021680860C7F3C0203F
:201AE00040B1C8F3002028B145F008056FF40060216848612DB1206C28432064204603F058
:201B0000ADFDBDE8F88F70477047704703480068034909780844014908607047380000203D
:201B20004000002010B50A48006840F40070084908600846006840F480600860032000F024
:201B4000B9F8002000F006F800F02CF8002010BD003C024070B504460E4800784FF47A71DC
:201B6000B1FBF0F00C490968B1FBF0F5284602F06EFA08B1012070BD102C07D20022214615
:201B8000501E00F059F80548046001E00120F2E70020F0E740000020440000203C000020F3
:201BA0007047000008B500BF002000901748006840F48040154908600846006800F4804057
:201BC000009000BF00BF00BF00200090081F006840F08050091F08600846006800F08050F3
:201BE000009000BF00BF042000F064F800220721501F00F021F800220721101F00F01CF828
:201C000000220721901E00F017F808BD443802400146084600280DDB00BF00BF00F01F0315
:201C200001229A4043099B0003F1E023C3F8002100BF00BF00BF70472DE9F05F80460D467B
:201C40001646002706F02CF9074639462A46334601F00700C0F1070ABAF1040F02D94FF09F
:201C6000040A01E0C0F1070AD14600F1040ABAF1070F02D24FF0000A01E0A0F1030AD44626
:201C80004FF0010A0AFA09FAAAF1010A0AEA020A0AFA0CFA4FF0010B0BFA0CFBABF1010B44
:201CA0000BEA030B4AEA0B042146404606F000F9BDE8F09F00BF00F00702064B19684FF6FF
:201CC000FF031940044B0B4343EA0221014B196000BF70470CED00E00000FA05704710B52D
:201CE0000446D4F8E00404F051FF10BD70B504460D4605EBC50304F1140101EB8301CA68B3
:201D00002946D4F8E00404F034FE70BD70B504460D4605EBC50304F5157101EB8301CA68B6
:201D20002946D4F8E00404F0ACFE70BD10B50446D4F8E00404F02DFF10BD2DE9F04104467C
:201D40000D4605F08000802808D105F00F0000EBC00104F1140000EB810607E005F00F0024
:201D600000EBC00104F5157000EB81063146206805F0A8FE07463846BDE8F08170B50446DD
:201D80000E4606F00F002179884201D9012070BD06F0800080280AD106F00F0000EBC001B4
:201DA00004F1140000EB81050120687009E006F00F0000EBC00104F5157000EB8105002007
:201DC00068700020A87006F00F00287000BF94F89404012801D10220D9E7012084F8940461
:201DE00000BF2946206805F0F9FB00BF002084F8940400BF00BFCAE72DE9F04705460E4636
:201E000090461F464FF0000906F0800080280AD106F00F0000EBC00105F1140000EB81041B
:201E20000120607009E006F00F0000EBC00105F5157000EB81040020607006F00F002070A3
:201E4000C8F30A00A0602771607808B120786083022F01D10020607100BF95F89404012818
:201E600002D10220BDE8F087012085F8940400BF2146286805F0FEFA00BF002085F8940484
:201E800000BF4846EEE72DE9F04105460E461746984606F00F0000EBC00105F5157000EBE4
:201EA0008104E760C4F8108000206061607006F00F002070A879012800D1E761AA792146D7
:201EC000286805F01FFC0020BDE8F08170B504460D4605F00F002179884201D9012070BDDA
:201EE00005F0800080280AD105F00F0000EBC00104F1140000EB81060120707007E005EBE7
:201F0000C50104F5157000EB8106002070700120B07005F00F00307000BF94F8940401281A
:201F200001D10220DBE7012084F8940400BF3146206805F09AFB05F00F0028B9A17904F279
:201F40009C42206805F012FB00BF002084F8940400BF00BFC3E72DE9F04105460E461746BB
:201F6000984606F00F0000EBC00105F1140000EB8104E760C4F810800020606101206070F3
:201F800006F00F002070A879012800D1E761AA792146286805F0B6FB0020BDE8F0812DE93D
:201FA000FE4F0446D4F800B05E46206805F03DFE002874D1206805F077FE08B9BDE8FE8F60
:201FC00040F608008059C0F30D20C4F8D404206805F06AFE00F00200022805D1206840696E
:201FE00000F0020021684861206805F05DFE00F01000102845D12068806920F0100021687D
:202000008861DBF8209009F00F0000EBC00104F5157000EB810AC9F3434002281AD147F61B
:20202000F07009EA000030B3C9F30A125846DAF80C1005F03EFEC9F30A11DAF80C000844D4
:20204000CAF80C00C9F30A11DAF814000844CAF8140010E0C9F3434006280CD1082204F279
:202060009C41584605F025FEC9F30A11DAF814000844CAF814002068806940F010002168B4
:202080008861206805F010FE00F40020B0F5002F7BD10025206805F0D7FD029072E003E358
:2020A000029800F00100002868D0E9B2206805F0EEFD804608F0010048B1012106F53060CD
:2020C00000EB451081602946204603F073FE08F00800082809D1082106F5306000EB4510A8
:2020E00081602946204603F033FE08F01000102805D1102106F5306000EB4510816008F01B
:202100000200022824D1DBF8140000F08000802807D140F60400805940F4806140F6040065
:20212000815105EBC50104F5157000EB810A9AF80300012806D100208AF80300E9B22046E8
:2021400000F0BDFA022106F5306000EB4510816008F02000202805D1202106F5306000EB1C
:202160004510816008F40050B0F5005F06D14FF4005106F5306000EB451081606D1C02989F
:2021800040080290029800288AD1206805F08CFD00F48020B0F5802F7DD1206805F04AFD48
:2021A000029000259AE0029800F00100002873D0E9B2206805F052FD804608F00100F0B32F
:2021C00005F00F0101208840019040F634008159019821EA000040F634018851012106F537
:2021E000106000EB45108160A079012824D105EBC50104F1140000EB810005EBC502C1680C
:2022000004F1140000EB82008068014405EBC50204F1140000EB8200C1606DB905EBC501F1
:2022200004F1140000EB8100006928B904F29C420121206805F09AF9E9B2204600E001E017
:20224000FFF754FD08F00800082805D1082106F5106000EB4510816008F01000102805D166
:20226000102106F5106000EB4510816008F04000402805D1402106F5106000EB451081603E
:2022800008F0020002281DD12946584605F090FC05EBC50101E025E01CE004F1140000EB12
:2022A000810A9AF80300012806D100208AF80300E9B2204600F0FAF9022106F5106000EBFC
:2022C0004510816008F08000802803D12946204603F012FE6D1C029840080290029800283D
:2022E0007FF461AF206805F0DFFC00F00040B0F1004F1CD140F60400805920F0010140F69B
:202300000400815194F8CC04012807D1002084F8CC0400212046FFF7E1FC02E0204600F08C
:20232000E9F92068406900F0004021684861206805F0BAFC00F40060B0F5006F0ED140F678
:202340000800805900F0010010B1204600F004FA2068406900F4006021684861206805F062
:20236000A3FC00F00060B0F1006F19D12068406900F000602168486194F8CC0468B9012023
:2023800084F8CC042068406DC0F38300C4F8D00401212046FFF7A2FC02E0204600F0DCF9CD
:2023A000206805F081FC00F48050B0F5805F7ED140F60400805920F0010140F6040081515B
:2023C0001021206805F0F4FB002732E04FF67F3106F5106000EB4710816006F5106000EB4E
:2023E0004710006820F4001106F5106000EB471001604FF67F3106F5306000EB4710816048
:2024000006F5306000EB4710006820F4001106F5306000EB4710016006F5306000EB471067
:20242000006840F0006106F5306000EB471001607F1C2079B842C9D840F61C00805940F04B
:20244000011140F61C008151E07B70B1D6F8840840F00B01C6F8841840F64400805940F057
:202460000B0140F6440081510FE040F61400805942F22B01084340F614018851081F805923
:2024800040F00B014FF401608151D6F8000820F4FE60C6F80008A17904F29C42206805F011
:2024A00065F82068406900F48050216800E000E04861206805F0F8FB00F40050B0F5005F20
:2024C00017D1206805F03EF8206805F09BFBE07100F000FD0090E2792068009905F02EFCE5
:2024E000204600F0F5F82068406900F4005021684861206805F0D8FB00F00800082808D1A1
:20250000204600F0FEF82068406900F0080021684861206805F0C8FB00F08000802818D1D3
:20252000DBF8180020F08000CBF8180001250DE005EBC50104F5157000EB8100C078012831
:2025400003D1E9B22046FFF7F8FB6D1C2079A842EED8206805F0A8FB00F48010B0F5801F03
:202560002DD1012522E006F5106000EB4510D0F8009005EBC50104F1140000EB810000798E
:20258000012812D109F00040B0F1004F0DD1012105EBC50204F1140000EB8200C170E8B20E
:2025A00040F080012046FFF7C8FB6D1C2079A842D9D82068406900F480102168486120681F
:2025C00005F072FB00F40010B0F5001F44D1012538E006F5306000EB4510D0F8009005EB6B
:2025E000C50104F5157000EB81000079012828D109F00040B0F1004F23D194F8D40400F01F
:202600000100C9F3004188421BD1012105EBC50204F5157000EB8200C170DBF8180040F0F6
:202620008000CBF81800DBF8140000F0800040B940F60400805940F4007140F6040081512B
:2026400003E06D1C2079A842C3D800BF2068406900F4001021684861206805F025FB00F03D
:202660008040B0F1804F08D12046FFF738FB2068406900F0804021684861206805F014FB23
:2026800000F0040004280FD12068D0F8049009F00400042802D12046FFF748FB206840688B
:2026A00040EA09002168486000BF87E470B504460D462946D4F8E00404F09AFA70BD70B5D1
:2026C00004460D462946D4F8E00404F0B5FA70BD70B504460125E079022801D0FEF718FA7E
:2026E0002946D4F8E00404F051FBD4F8E00404F0F7FA70BD10B50446D4F8E00404F027FBE4
:2027000010BD10B50446D4F8E00404F02BFB10BD70B504460D4600BF94F89404012801D1A6
:20272000022070BD012084F8940400BF65742946206805F0EEFA00BF002084F8940400BFF7
:2027400000BFEEE710B5044604F29C41D4F8E00404F033FB10BD000010B50446D4F8E004A5
:2027600004F079FB2068D0F8000E40F001002168C1F8000EE07A28B10348006840F00600F6
:202780000149086010BD000010ED00E02DE9F8430446002500260027A846207800F0010059
:2027A00058B1FE48006820F0C060E1690843FB490860E06908B94FF00108207800F0020015
:2027C00002280BD1F548006820F0C050216A0843F2490860206A08B94FF00108208800F486
:2027E0000050B0F5005F19D1EC48006820F44010A16C0843E9490860A06C08B94FF0010894
:20280000A06CB0F5001F09D1E448006820F4F8516069401E41EA0020E0490860208800F47E
:202820008040B0F5804F19D1DC48006820F44000E16C0843D9490860E06C08B94FF0010823
:20284000E06CB0F5000F09D1D448006820F4F8516069401E41EA0020D0490860207800F042
:20286000080008287ED100BF00200090CB484C38006840F08050C9494C39086008460068AE
:2028800000F08050009000BF00BFC548006840F48070C3490860FFF7C5F8054607E0FFF782
:2028A000C1F8401B022802D90320BDE8F883BC48006800F480700028F1D0B8481C380068C7
:2028C00000F440764EB3A08C00F44070B04224D0B2481C38006820F440760120B149086094
:2028E00000200860AD481C380660006800F0010098B1FFF797F8054608E0FFF793F8401B6B
:2029000041F28831884201D90320CEE7A3481C380068C0F340000028EFD000BFA08C00F4EF
:202920004070B0F5407F0CD19C488438006820F4F8109D4A616A114008439849843908602E
:2029400007E096488438006820F4F81093498439086092481C380068A18CC1F30B010843A3
:202960008E4900E002E01C39086000BF207800F00400042803D194F854008C490860207801
:2029800000F01000102809D184480830006820F44000E16A0843814908310860207800F0DC
:2029A000200020280FD17D480830006820F00060216B0843794908310860206BB0F1006F25
:2029C00001D14FF00108207800F04000402809D172480830006820F08050A16A08436F498B
:2029E00008310860B8F1010F02D0206880287DD100206F498866FFF715F8054606E0FFF73D
:202A000011F8401B022801D903204EE763488C380068C0F3C0600028F1D16649206D0860BE
:202A2000207800F0010008B1E069D0B1207800F00200022801D1206A98B1207800F0200089
:202A4000202803D1206BB0F1006F0AD0207800F04000402812D1A06A80B9206BB0F1006FF4
:202A60000CD1D4E9011041EA8011207B41EA0061207C41EA0070494908390860208800F4BA
:202A80000050B0F5005F01D1A06C38B1208800F48040B0F5804F1BD1E06CC8B93F480838CB
:202AA0000068C0F30367D4E9011041EA801040EA0761207C41EA0070384908390860374896
:202AC000006820F01F00A169491E084333490860207800F0800080280ED1D4E9011041EA37
:202AE0008011207B41EA0061207C00E019E041EA00702A490839086001202D498866FEF778
:202B000091FF054606E0FEF78DFF401B022801D90320CAE621488C380068C0F3C0600028B1
:202B2000F1D0208800F48070B0F5807F07D11B48006820F00040616B084318490860208829
:202B400000F40070B0F5007F07D11448006820F40040A16B084311490860208800F4806068
:202B6000B0F5806F07D10D48006820F00040E16B08430A490860208800F40060B0F5006F7A
:202B800007D10648006820F48040216C084303490860208800F480500EE000008C380240E7
:202BA00000700040400E4742FFFCFF0FE011474200004742D8104742B0F5805F07D1054868
:202BC000006820F04040616C08430249086000206BE600009438024070B504460D460CB92C
:202BE000012070BD5848006800F00700A84209D255490D700846006800F00700A84201D040
:202C00000120EEE7207800F0020002281DD1207800F00400042805D14C48006840F4E0502E
:202C20004A490860207800F00800082805D14748006840F46040454908604448006820F03E
:202C4000F000A168084341490860207800F00100A8B36068012807D13C4808380068C0F3B2
:202C60004040B8B90120BCE76068022802D06068032807D1354808380068C0F3406048B997
:202C80000120AEE7314808380068C0F3400008B90120A6E72D48006820F0030061680843F7
:202CA0002A490860FEF7BEFE064609E0FEF7BAFE801B41F28831884202D9032091E707E0F8
:202CC0002248006800F00C006168B0EB810FEDD11D48006800F00700A84209D91A490D7004
:202CE0000846006800F00700A84201D0012078E7207800F00400042807D11448006820F484
:202D0000E050E168084311490860207800F00800082808D10D48006820F46040216940EA6F
:202D2000C1000A49086000F0FBF808490968C1F30311074A515CC840064908600648006837
:202D4000FEF708FF00204CE7003C024008380240127F0008440000203C00002010B5FEF711
:202D600061FE04465648006840F001005449086006E0FEF757FE001B022801D9032010BD2F
:202D80004F48006800F002000028F2D04C48006840F080004A490860FEF744FE0446002010
:202DA00047490831086008E0FEF73CFE001B41F28831884201D90320E1E74148083000680C
:202DC00000F00C000028EFD1FEF72CFE04463C48006820F450203A49086006E0FEF722FE50
:202DE000001B642801D90320C9E73548006800F400300028F2D1FEF715FE04463048006859
:202E000020F080702E49086006E0FEF70BFE001B022801D90320B2E72948006800F00070DB
:202E20000028F2D1FEF7FEFD04462548006820F080602349086006E0FEF7F4FD001B0228C3
:202E400001D903209BE71E48006800F000600028F2D11C481A49091D086019498431086016
:202E600017480C30006820F4F85015490C3108600846006820F4005008600846006840F484
:202E80001F0008600846006840F4001008600C487430006820F0010009497431086008462B
:202EA000006840F08070086007480849086008480068FEF74FFE08B1012060E700205EE79A
:202EC00000380240103000240024F400440000203C00002001480068704700004400002070
:202EE00000B5FFF7F7FF04490968C1F38221034A515CC84000BD000008380240227F000832
:202F000000B5FFF7E7FF04490968C1F34231034A515CC84000BD000008380240227F000851
:202F20002DE9F047002400250026A1462548006800F00C0020B1042805D008283AD105E02B
:202F4000DFF8849039E0DFF8849036E01D48001F006800F03F041B48001F006800F48000EF
:202F600078B11A481749091F0968C1F38811A0FB01700146224600233846FDF79DF905464F
:202F80000EE011480F49091F0968C1F38811A0FB01700146224600233846FDF78DF905468B
:202FA0000848001F0068C0F30140401C4600B5FBF6F902E0DFF8109000BF00BF4846BDE8FB
:202FC000F0870000083802400024F40000366E01F8B504460CB90120F8BD207800F0010020
:202FE000002874D0F748006800F00C0004280DD0F448006800F00C00082813D1F148001FAD
:20300000006800F48000B0F5800F0BD1ED4808380068C0F34040002859D06068002856D14C
:203020000120D9E700BF6068B0F5803F08D1E5480838006840F48030E249083908601EE060
:203040006068B0F5A02F0DD1DE480838006840F48020DC49083908600846006840F480304C
:2030600008600CE0D7480838006820F48030D549083908600846006820F48020086000BF19
:20308000606890B1FEF7CEFC054606E0FEF7CAFC401B642801D903209EE7CA480838006859
:2030A000C0F340400028F1D011E0FEF7BBFC054606E0FEF7B7FC401B642801D903208BE728
:2030C000C04808380068C0F340400028F1D1207800F0020002285FD1BA48006800F00C00D9
:2030E00058B1B848006800F00C0008281CD1B548001F006800F48000B0B9B2480838006843
:20310000C0F3400020B1E068012801D0012063E7AC480838006820F0F800216940EAC10025
:20312000A8490839086037E0E06800B30120A6490860FEF777FC054606E0FEF773FC401B13
:20314000022801D9032047E79E4808380068C0F340000028F1D09B480838006820F0F8001D
:20316000216940EAC10097490839086014E0002095490860FEF756FC054606E0FEF752FC3C
:20318000401B022801D9032026E78E4808380068C0F340000028F1D1207800F00800082885
:2031A0002CD16069A8B1012088490860FEF73AFC054606E0FEF736FC401B022801D9032091
:2031C0000AE780486C300068C0F340000028F1D014E000207D490860FEF724FC054606E0CE
:2031E000FEF720FC401B022801D90320F4E675486C300068C0F340000028F1D1207800F03C
:203200000400042870D100276E483830006800F0805090B900BF002000906A483830006896
:2032200040F080506749383108600846006800F08050009000BF00BF01276548006800F458
:203240008070B0B96248006840F4807060490860FEF7E8FB054606E0FEF7E4FB401B02286C
:2032600001D90320B8E65A48006800F480700028F2D000BFA068012808D152486830006878
:2032800040F001004F49683108601DE0A06805280DD14C486830006840F004004949683161
:2032A00008600846006840F0010008600CE045486830006820F001004249683108600846F3
:2032C000006820F00400086000BFA068A8B1FEF7A9FB054609E0FEF7A5FB401B41F2883141
:2032E000884202D9032077E626E0364868300068C0F340000028EED013E0FEF793FB05468B
:2033000008E0FEF78FFB401B41F28831884201D9032061E62B4868300068C0F34000002863
:20332000EFD1012F07D127483830006820F0805024493831086000BFA069002850D02148EF
:20334000006800F00C00082860D0A069022848D100201D490866FEF765FB054606E0FEF7EE
:2033600061FB401B022801D9032035E6154808380068C0F340600028F1D1D4E90701084302
:20338000616A40EA81110122A06AC2EB500041EA00412C20005D41EA00613020005D41EA03
:2033A00000700849091F0860012007490866FEF739FB05460EE0FEF735FB401B022809D9EF
:2033C000032009E60838024000004742800E47420070004028480068C0F340600028EAD0FC
:2033E00048E0002025490866FEF71CFB054606E0FEF718FB401B022801D90320ECE51E48AB
:203400000068C0F340600028F2D133E0A069012800D1E1E51848001D0668A069012827D016
:2034200006F48001E069814222D106F03F01206A81421DD147F6C0703040616AB0EB811FBE
:2034400016D106F440310122A06AC2EB5000B1EB004F0DD106F070612C20005DB1EB006FAC
:2034600006D106F0E0413020005DB1EB007F01D00120B1E50020AFE5003802400000474257
:203480007047704710B504464FF400301749086020688068C0F3003078B12068C068C0F395
:2034A000002050B12068C06800F0800060F4C0702168C8602046FFF7E4FF20688068C0F334
:2034C000403078B12068C068C0F3402050B12068C06800F0800060F420702168C860204674
:2034E000FFF7CEFF0120607710BD0000143C014070B504460CB9012070BD607F20B9002059
:203500002077204600F04EF8022060772068C068C0F3001000283CD100BFCA2021684862FB
:2035200053202168486200BF204602F056FD0546EDB9206880681A49084021688860216974
:203540006068084361690843216889680843216888602168E068086120680169208941EA0D
:20356000004021680861204602F05CFD05465DB92068006C20F48020216808642068006C76
:20358000A16908432168086400BFFF202168486200E000250DB9012060772846ACE700000C
:2035A000BFFF8FFF10B596B0044658216846FCF7FAFE0D492068884214D1082000900B48C0
:2035C00009906846FFF7E2F808B1FDF7A1FA012007490860002211462920FEF72DFB29208B
:2035E000FEF716FB16B010BD00280040000318003C0E47422DE9F84103460C4615468348CC
:20360000006840094FF47A71B0FBF1F0484300900026002700BF187F012802D10220BDE8BE
:20362000F8810120187700BF0220587755BB1868806800F0400000B102E00020E07000BF47
:20364000E06900B900E000BF207802F0B9FC4FEA0048607802F0B4FC48EA0028A07802F02B
:20366000AFFC48EA0008E07848EA805894F8200002F0A6FC48EA0060E1690843616940EAA8
:2036800001061FE01868806800F0400000B102E00020E07000BFE06900B900E000BF207891
:2036A0000004617840EA0120A1780843E17840EA815094F8201040EA0160E1690843616984
:2036C00040EA0106A169606840EA010700BFCA201968486253201968486200BF606AB0F515
:2036E000807F37D11868806820F48070196888601868C06800F0800060F4C0701968C860A9
:2037000000BF0098401E0090009860B900BFFF201968486200BF0320587700BF002018778B
:2037200000BF03207BE71868C06800F001000028E7D01868C661186847641868806840F45F
:203740008070196888601868806840F48050196888603FE01868806820F4007019688860C7
:203760001868C06800F0800060F420701968C8602648006840094FF47A71B0FBF1F0484340
:20378000009000BF0098401E0090009860B900BFFF201968486200BF0320587700BF00200A
:2037A000187700BF03203AE71868C068C0F340000028E7D018680662186887641868806842
:2037C00040F40070196888601868806840F40050196888600E48006840F400300C490860A8
:2037E0000B480830006840F4003009490831086000BFFF201968486200BF0120587700BF08
:203800000020187700BF00BF09E7000044000020003C01402DE9F04105460C4617464FF02A
:20382000000800BF287F012802D10220BDE8F0810120287700BF022068774FB9607800F096
:203840001000102804D1607800F0EF000A30607087B9E07802F0B4FB0304607802F0B0FBD5
:2038600043EA0023A07802F0ABFB0343207843EA403809E0E0780004617840EA0120A17843
:203880000843217840EA413800BFCA202968486253202968486200BF284602F09EFB06460B
:2038A00046B90B4808EA000029684860284602F0B9FB06460EB90120687700BFFF202968F5
:2038C000486200BF00BF0020287700BF3046ADE73FFFFF002DE9F04104460D4617464FF07B
:2038E000000800BF207F012802D10220BDE8F0810120207700BF02206077CFB920688068C6
:2039000000F0400000B102E00020E87000BF287802F056FB0304687802F052FB43EA002354
:20392000A87802F04DFB0343E87843EA805812E02068806800F0400000B102E00020E870E5
:2039400000BF28780004697840EA0120A9780843E97840EA815800BFCA20216848625320B9
:203960002168486200BF204602F037FB0646B6B9124808EA0000216808602068806820F44F
:20398000802021688860D5E90301084321688968084321688860204602F044FB06460EB929
:2039A0000120607700BFFF202168486200BF00BF0020207700BF304698E700007F7F7F0098
:2039C00070B5044600250B482168C860FEF72AF8054607E0FEF726F8401BB0F57A7F01D920
:2039E000032070BD2068C06800F020000028F1D00020F6E75F3F010010B504460CB901203D
:203A000010BD606A38B96068B0F5827F00D105E00021E16102E00021216161610021A1622C
:203A200094F8510028B9002084F85000204600F047F8022084F851002068006820F0400018
:203A400021680860A08800F48270218901F404410843A18901F400610843217C01F00201DC
:203A60000843217D01F001010843218B01F400710843217F01F0380108432021095D01F015
:203A800080010843218D01F400510843216808600421A06901EA104094F8241001F01001FF
:203AA0000843216848602068C06920F400602168C86100206065012084F8510000209FE73A
:203AC00010B586B00446142101A8FCF76CFCE2492068884266D100BF00200090DF480068B6
:203AE00040F48050DD4908600846006800F48050009000BF00BF00BF00200090D7481438D2
:203B0000006840F00100D549143908600846006800F00100009000BF00BFA0200190022011
:203B2000029000200390032004900520059001A9CB48FDF775FE40200190022002900120E5
:203B40000390032004900520059001A9C448FDF767FEC448C44908604FF0C0604860402169
:203B6000C14881600021C1604FF480610161002141614FF4804181610021C1614FF48031B3
:203B8000016204214162032181620021C1620163FDF7CEFC08B1FCF7BBFF00BFB248A0646A
:203BA000846357E1B1492068884265D100BF00200090AA48001F006840F48040A749091F70
:203BC00008600846006800F48040009000BF00BF00BF00200090A1481438006840F00200C7
:203BE0009E49143908600846006800F00200009000BF00BF4FF40440019002200290002087
:203C00000390032004900520059001A99848FDF707FE4FF480400190022002900120039021
:203C2000032004900520059001A99148FDF7F8FD9048914908600020486000218E488160ED
:203C4000C1604FF48061016149004161C90081618911C161490201620421416200218162F1
:203C6000C1620163FDF764FC08B1FCF751FF00BF8148E0648463EDE080492068884271D190
:203C800000BF002000907548001F006840F400407249091F08600846006800F40040009038
:203CA00000BF00BF00BF002000906C481438006840F002006949143908600846006800F070
:203CC0000200009000BF00BF382001900220029000200390032004900620059001A96448BC
:203CE000FDF79EFD634818386549086000204860002163488160C1604FF4806101610021E7
:203D000041618161C1614FF44031016200214162FDF70EFC08B1FCF7FBFE00BF5848E064DC
:203D2000846300BF5348603056490860002048604021544881600021C160016141618161DD
:203D40004FF48071C1610902016200214162FDF7EFFB08B1FCF7DCFE00BF4A48A06484633B
:203D600078E0FFE748492068884273D100BF002000903A48006840F40050384908600846CA
:203D8000006800F40050009000BF00BF00BF0020009032481438006840F001002F491439D6
:203DA00008600846006800F00100009000BF00BF00BF002000900846006840F00200086027
:203DC0000846006800F00200009000BF00BF022001900290002003900320049005200590C4
:203DE00001A91F48FDF71CFD4FF4005001900220029000200390032004900620059001A9FE
:203E00001B48FDF70DFD1748483820490860C005486000211D488160C1604FF48061016116
:203E200049004161002181614FF48071C1614FF4403101620421416200218162C1620163D4
:203E4000FDF776FB08B1FCF763FE00BF0F48E064846300BF06B010BD00300140443802403E
:203E600000000240586402402803002000380040000402405860024088030020003C0040D8
:203E8000E80300204804002000340140A80400202DE9F84304460F4616461D46FDF7C2FD08
:203EA0008046B14694F85100012802D00220BDE8F88307B10EB90120F9E700BF94F8500010
:203EC000012801D10220F2E7012084F8500000BF032084F85100002060652763A686E68649
:203EE000A063A087E08760642064A068B0F5004F0BD12068006820F0400021680860206858
:203F0000006840F48040216808602068006800F04000402805D02068006840F0400021680E
:203F20000860E068B0F5006F37D1606810B1B9F1010F09D1206B00882168C860206B801CAD
:203F40002063E08E401EE08623E02068806800F0020002280AD1206B00882168C860206BF3
:203F6000801C2063E08E401EE08612E0FDF75AFDA0EB0800A84201D3681C00B94DB90120FE
:203F800084F8510000BF002084F8500000BF03208DE7E08E0028D8D136E0606810B1B9F1CB
:203FA000010F09D1206B007821680873206B401C2063E08E401EE08623E02068806800F011
:203FC000020002280AD1206B007821680873206B401C2063E08E401EE08612E0FDF722FD32
:203FE000A0EB0800A84201D3681C00B94DB9012084F8510000BF002084F8500000BF0320B2
:2040000055E7E08E0028D8D142462946204602F065F808B120206065A06850B900BF0020CB
:2040200000902068C068009020688068009000BF00BF012084F8510000BF002084F8500099
:2040400000BF606D08B1012031E700202FE770B504462546681EB0F1807F01D301200FE0C8
:20406000681E4FF0E02148610F214FF0FF3003F01FFF00204FF0E021886107200861002029
:2040800070BD10B504460CB9012010BDA06900B100E000BF94F8410028B9002084F840004E
:2040A000204600F029F8242084F841002068C06820F400502168C860204602F035F92068B5
:2040C000006920F49040216808612068406920F02A00216848612068C06840F40050216847
:2040E000C86000206064202084F8410084F842000020606300BFC8E710B586B0044614212E
:2041000001A8FCF750F93D492068884273D100BF002000903A48006840F01000384908601C
:204120000846006800F01000009000BF00BF00BF0020009032481438006840F00200304973
:20414000143908600846006800F00200009000BF00BFC020019002200290002003900120FB
:2041600004900720059001A92648FDF759FB2648264908604FF00060486000212348816096
:20418000C1604FF480610161002141618161C16101624162FDF7CCF908B1FCF7B9FC00BFD2
:2041A0001A48E063846300BF17487830184908604FF0006048604021154881600021C160BC
:2041C0004FF480610161002141618161C16101624162FDF7ADF908B1FCF79AFC00BF0C489D
:2041E000A063846300BF002205212520FDF724FD2520FDF70DFD06B010BD0000001001405D
:2042000044380240000402404064024060070020C0070020F0B58BB00746384601F03BFF70
:2042200000260AE027A0006801904FF47A73012201A93846FFF72CFE761C41F288308642CE
:20424000F0DB21A103C9CDE909010025002412E01F48806940F480201D4988610A20FDF779
:2042600003FA09A800F094FD0546641C052C02DD01200BB0F0BD012DEAD116A103C9CDE989
:20428000070100BF07A801F085F80128FAD113A103C9CDE9050100BF05A800F069FA002823
:2042A000FAD110A103C9CDE9030100BF02A903A800F00EFF0028F9D1384601F0CAFE0020A1
:2042C000D7E70000FF00000040000000009500000000024048000001AA87000069400000E7
:2042E00000E500007A000000000100003EB50146FF20029031E0FF22464B1B6803F04003F7
:20430000402B05D0434B1B6843F04003414C236000E000BF3F4B9B6803F00203022BF8D1AC
:2043200003E03C4BDB68DBB200933A4B9B6803F00103002BF5D1374B1A73002001E000BF71
:20434000401C344B9B6803F0010313B9B0F5FA5FF5DB304BDB68DBB202939DF80800FE284B
:20436000C9D10A464FF40073002021E000E000BF284CA46804F00204022CF8D103E0254C18
:20438000E468E4B20094234CA46804F00104002CF5D1FF241F4D2C7300E000BF1D4CA468FF
:2043A00004F00104002CF8D01A4CE4681454401C9842DBDB00BF18A00068019001AA0223CA
:2043C000002021E000E000BF124CA46804F00204022CF8D103E00F4CE468E4B200940D4CB5
:2043E000A46804F00104002CF5D1FF24094D2C7300E000BF074CA46804F00104002CF8D0C3
:20440000044CE4681454401C9842DBDB00BF00203EBD000000300140FFFF000013B582B069
:204420000C46FF200190D048806940F48020CE4988615121CD4A126802F04002402A05D02F
:20444000CA4A126842F04002C84B1A6000E000BFC64A926802F00202022AF8D103E0C34A49
:20446000D268D2B20092C14A926802F00102002AF5D1BE4A1173002001E000BF401CBB4A55
:20448000926802F0010212B9B0F5FA5FF5DBB74AD2689DF80B10B54A126802F04002402A92
:2044A00005D0B24A126842F04002B04B1A6000E000BFAE4A926802F00202022AF8D103E069
:2044C000AA4AD268D2B20092A84A926802F00102002AF5D1A54A1173002001E000BF401C38
:2044E000A24A926802F0010212B9B0F5FA5FF5DB9E4AD2689DF80A109C4A126802F04002E3
:20450000402A05D0994A126842F04002974B1A6000E000BF954A926802F00202022AF8D1CC
:2045200003E0924AD268D2B20092904A926802F00102002AF5D18D4A1173002001E000BF98
:20454000401C8A4A926802F0010212B9B0F5FA5FF5DB864AD2689DF80910844A126802F0B1
:204560004002402A05D0814A126842F040027F4B1A6000E000BF7D4A926802F00202022A3B
:20458000F8D103E0794AD268D2B20092774A926802F00102002AF5D1744A1173002001E079
:2045A00000BF401C714A926802F0010212B9B0F5FA5FF5DB6D4AD2689DF808106B4A1268D0
:2045C00002F04002402A05D0684A126842F04002664B1A6000E000BF644A926802F0020260
:2045E000022AF8D103E0614AD268D2B200925F4A926802F00102002AF5D15C4A1173002016
:2046000001E000BF401C594A926802F0010212B9B0F5FA5FF5DB554AD2680121534A126861
:2046200002F04002402A05D0504A126842F040024E4B1A6000E000BF4C4A926802F0020247
:20464000022AF8D103E0494AD268D2B20092474A926802F00102002AF5D1444A11730020FD
:2046600001E000BF401C414A926802F0010212B9B0F5FA5FF5DB3D4AD26831E0FF213B4AB4
:20468000126802F04002402A05D0384A126842F04002364B1A6000E000BF344A926802F0B9
:2046A0000202022AF8D103E0304AD268D2B200922E4A926802F00102002AF5D12B4A117304
:2046C000002001E000BF401C284A926802F0010212B9B0F5FA5FF5DB244AD268D2B2019205
:2046E0009DF80400FF28C9D09DF8040018B14FF0FF3004B010BD2046FFF7F8FDC0B20190BC
:20470000FF211A4A126802F04002402A05D0174A126842F04002154B1A6000E000BF134A03
:20472000926802F00202022AF8D103E00F4AD268D2B200920D4A926802F00102002AF5D1D2
:204740000A4A1173002001E000BF401C074A926802F0010212B9B0F5FA5FF5DB034AD26805
:204760009DF80400C5E7000000000240003001403FB50146F9A309CBCDE90203FF2001902B
:204780000022F848806940F48020F64B98619DF80830F54C246804F04004402C05D0F24C6F
:2047A000246844F04004F04D2C6000E000BFEE4CA46804F00204022CF8D103E0EA4CE468F1
:2047C000E4B20094E84CA46804F00104002CF5D1E54C2373002001E000BF401CE24CA46867
:2047E00004F0010414B9B0F5FA5FF5DBDE4CE4689DF80930DC4C246804F04004402C05D0B4
:20480000D94C246844F04004D74D2C6000E000BFD54CA46804F00204022CF8D103E0D24C01
:20482000E468E4B20094D04CA46804F00104002CF5D1CD4C2373002001E000BF401CCA4C0E
:20484000A46804F0010414B9B0F5FA5FF5DBC64CE4689DF80A30C44C246804F04004402C4B
:2048600005D0C14C246844F04004BF4D2C6000E000BFBD4CA46804F00204022CF8D103E032
:20488000B94CE468E4B20094B74CA46804F00104002CF5D1B44C2373002001E000BF401CF1
:2048A000B14CA46804F0010414B9B0F5FA5FF5DBAD4CE4689DF80B30AB4C246804F040048B
:2048C000402C05D0A84C246844F04004A64D2C6000E000BFA44CA46804F00204022CF8D194
:2048E00003E0A14CE468E4B200949F4CA46804F00104002CF5D19C4C2373002001E000BF52
:20490000401C994CA46804F0010414B9B0F5FA5FF5DB954CE4689DF80C30934C246804F059
:204920004004402C05D0904C246844F040048E4D2C6000E000BF8C4CA46804F00204022C00
:20494000F8D103E0884CE468E4B20094864CA46804F00104002CF5D1834C2373002001E032
:2049600000BF401C804CA46804F0010414B9B0F5FA5FF5DB7C4CE4689DF80D307A4C246878
:2049800004F04004402C05D0774C246844F04004754D2C6000E000BF734CA46804F0020425
:2049A000022CF8D103E0704CE468E4B200946E4CA46804F00104002CF5D16B4C23730020CD
:2049C00001E000BF401C684CA46804F0010414B9B0F5FA5FF5DB644CE46831E0FF23624CAA
:2049E000246804F04004402C05D05F4C246844F040045D4D2C6000E000BF5B4CA46804F087
:204A00000204022CF8D103E0574CE468E4B20094554CA46804F00104002CF5D1524C2373D1
:204A2000002001E000BF401C4F4CA46804F0010414B9B0F5FA5FF5DB4B4CE468E4B2019411
:204A40009DF80400FF2805D11046521C42F210739842C3D30B78444C246804F04004402C92
:204A600005D0414C246844F040043F4D2C6000E000BF3D4CA46804F00204022CF8D103E0B0
:204A8000394CE468E4B20094374CA46804F00104002CF5D1344C2373002001E000BF401C6F
:204AA000314CA46804F0010414B9B0F5FA5FF5DB2D4CE4684B782C4C246804F04004402CA9
:204AC00005D0294C246844F04004274D2C6000E000BF254CA46804F00204022CF8D103E098
:204AE000214CE468E4B200941F4CA46804F00104002CF5D11C4C2373002001E000BF401C57
:204B0000194CA46804F0010414B9B0F5FA5FF5DB154CE4688B78144C246804F04004402C50
:204B200005D0114C246844F040040F4D2C6000E000BF0D4CA46804F00204022CF8D103E07F
:204B4000094CE468E4B20094074CA46804F00104002CF5D1044C2373002009E077000000DA
:204B600000010000000002400030014000BF401C864CA46804F0010414B9B0F5FA5FF5DBF4
:204B8000824CE468CB78814C246804F04004402C05D07E4C246844F040047C4D2C6000E0E3
:204BA00000BF7A4CA46804F00204022CF8D103E0764CE468E4B20094744CA46804F0010493
:204BC000002CF5D1714C2373002001E000BF401C6E4CA46804F0010414B9B0F5FA5FF5DB1A
:204BE0006A4CE4680B79694C246804F04004402C05D0664C246844F04004644D2C6000E0A2
:204C000000BF624CA46804F00204022CF8D103E05E4CE468E4B200945C4CA46804F001047A
:204C2000002CF5D1594C2373002001E000BF401C564CA46804F0010414B9B0F5FA5FF5DBE9
:204C4000524CE4684B79514C246804F04004402C05D04E4C246844F040044C4D2C6000E061
:204C600000BF4A4CA46804F00204022CF8D103E0464CE468E4B20094444CA46804F0010462
:204C8000002CF5D1414C2373002001E000BF401C3E4CA46804F0010414B9B0F5FA5FF5DBB9
:204CA0003A4CE468FF20019031E0FF23374C246804F04004402C05D0344C246844F0400433
:204CC000324D2C6000E000BF304CA46804F00204022CF8D103E02D4CE468E4B200942B4C68
:204CE000A46804F00104002CF5D1284C2373002001E000BF401C254CA46804F0010414B954
:204D0000B0F5FA5FF5DB214CE468E4B201949DF80400FF2805D11046521C42F210739842F6
:204D2000C3D3FF23194C246804F04004402C05D0164C246844F04004144D2C6000E000BF5F
:204D4000124CA46804F00204022CF8D103E00F4CE468E4B200940D4CA46804F00104002CBA
:204D6000F5D10A4C2373002001E000BF401C074CA46804F0010414B9B0F5FA5FF5DB034C23
:204D8000E4689DF8040004B030BD0000003001403CB50146FF2001900023CB48806940F4E1
:204DA0008020C94A90610A78C84C246804F04004402C05D0C54C246844F04004C34D2C6003
:204DC00000E000BFC14CA46804F00204022CF8D103E0BE4CE468E4B20094BC4CA46804F0BF
:204DE0000104002CF5D1B94C2273002001E000BF401CB64CA46804F0010414B9B0F5FA5F34
:204E0000F5DBB24CE4684A78B04C246804F04004402C05D0AD4C246844F04004AB4D2C6034
:204E200000E000BFA94CA46804F00204022CF8D103E0A64CE468E4B20094A44CA46804F0A6
:204E40000104002CF5D1A14C2273002001E000BF401C9E4CA46804F0010414B9B0F5FA5F03
:204E6000F5DB9A4CE4688A78984C246804F04004402C05D0954C246844F04004934D2C60F4
:204E800000E000BF914CA46804F00204022CF8D103E08E4CE468E4B200948C4CA46804F08E
:204EA0000104002CF5D1894C2273002001E000BF401C864CA46804F0010414B9B0F5FA5FD3
:204EC000F5DB824CE468CA78804C246804F04004402C05D07D4C246844F040047B4D2C60B4
:204EE00000E000BF794CA46804F00204022CF8D103E0764CE468E4B20094744CA46804F076
:204F00000104002CF5D1714C2273002001E000BF401C6E4CA46804F0010414B9B0F5FA5FA2
:204F2000F5DB6A4CE4680A79684C246804F04004402C05D0654C246844F04004634D2C6072
:204F400000E000BF614CA46804F00204022CF8D103E05E4CE468E4B200945C4CA46804F05D
:204F60000104002CF5D1594C2273002001E000BF401C564CA46804F0010414B9B0F5FA5F72
:204F8000F5DB524CE4684A79504C246804F04004402C05D04D4C246844F040044B4D2C6032
:204FA00000E000BF494CA46804F00204022CF8D103E0464CE468E4B20094444CA46804F045
:204FC0000104002CF5D1414C2273002001E000BF401C3E4CA46804F0010414B9B0F5FA5F42
:204FE000F5DB3A4CE46831E0FF22384C246804F04004402C05D0354C246844F04004334D4F
:205000002C6000E000BF314CA46804F00204022CF8D103E02D4CE468E4B200942B4CA46896
:2050200004F00104002CF5D1284C2273002001E000BF401C254CA46804F0010414B9B0F578
:20504000FA5FF5DB214CE468E4B201949DF80400FF2805D118465B1C42F210729042C3D3BA
:20506000FF221A4C246804F04004402C05D0174C246844F04004154D2C6000E000BF134C51
:20508000A46804F00204022CF8D103E00F4CE468E4B200940D4CA46804F00104002CF5D10F
:2050A0000A4C2273002001E000BF401C074CA46804F0010414B9B0F5FA5FF5DB034CE4685B
:2050C0009DF804003CBD000000000240003001407CB50246FF200190AC48806940F48020B1
:2050E000AA4B986113460624002022E000E000BFA74DAD6805F00205022DF8D103E0A44DAD
:20510000ED68EDB20095A24DAD6805F00105002DF5D11D5C9E4E357300E000BF9C4DAD686A
:2051200005F00105002DF8D0994DED68EDB20095401CA042DADB00BF31E0FF23944C2468BF
:2051400004F04004402C05D0914C246844F040048F4D2C6000E000BF8D4CA46804F002040F
:20516000022CF8D103E08A4CE468E4B20094884CA46804F00104002CF5D1854C23730020B7
:2051800001E000BF401C824CA46804F0010414B9B0F5FA5FF5DB7E4CE468E4B201949DF8CF
:2051A0000400FF28C9D0CB78794C246804F04004402C05D0764C246844F04004744D2C600B
:2051C00000E000BF724CA46804F00204022CF8D103E06F4CE468E4B200946D4CA46804F0A8
:2051E0000104002CF5D16A4C2373002001E000BF401C674CA46804F0010414B9B0F5FA5FCD
:20520000F5DB634CE4688B78614C246804F04004402C05D05E4C246844F040045C4D2C602B
:2052200000E000BF5A4CA46804F00204022CF8D103E0574CE468E4B20094554CA46804F08F
:205240000104002CF5D1524C2373002001E000BF401C4F4CA46804F0010414B9B0F5FA5F9C
:20526000F5DB4B4CE4684B78494C246804F04004402C05D0464C246844F04004444D2C606B
:2052800000E000BF424CA46804F00204022CF8D103E03F4CE468E4B200943D4CA46804F077
:2052A0000104002CF5D13A4C2373002001E000BF401C374CA46804F0010414B9B0F5FA5F6C
:2052C000F5DB334CE4680B78314C246804F04004402C05D02E4C246844F040042C4D2C60AB
:2052E00000E000BF2A4CA46804F00204022CF8D103E0274CE468E4B20094254CA46804F05F
:205300000104002CF5D1224C2373002001E000BF401C1F4CA46804F0010414B9B0F5FA5F3B
:20532000F5DB1B4CE468FF23194C246804F04004402C05D0164C246844F04004144D2C600B
:2053400000E000BF124CA46804F00204022CF8D103E00F4CE468E4B200940D4CA46804F046
:205360000104002CF5D10A4C2373002001E000BF401C074CA46804F0010414B9B0F5FA5F0B
:20538000F5DB034CE4689DF804007CBD00000240003001403EB5014664A000680290FF20C6
:2053A00001906348806940F48020614A90610A460623002022E000E000BF5E4CA46804F074
:2053C0000204022CF8D103E05A4CE468E4B20094584CA46804F00104002CF5D1145C554D24
:2053E0002C7300E000BF534CA46804F00104002CF8D0504CE468E4B20094401C9842DADBDA
:2054000000BF31E0FF224B4B1B6803F04003402B05D0484B1B6843F04003464C236000E08B
:2054200000BF444B9B6803F00203022BF8D103E0404BDB68DBB200933E4B9B6803F00103D9
:20544000002BF5D13B4B1A73002001E000BF401C384B9B6803F0010313B9B0F5FA5FF5DB15
:20546000344BDB68DBB201939DF80400FF28C9D002AA0423002022E000E000BF2D4CA468D7
:2054800004F00204022CF8D103E02A4CE468E4B20094284CA46804F00104002CF5D1145C71
:2054A000244D2C7300E000BF224CA46804F00104002CF8D01F4CE468E4B20094401C9842BF
:2054C000DADB00BFFF221B4B1B6803F04003402B05D0184B1B6843F04003164C236000E0B7
:2054E00000BF144B9B6803F00203022BF8D103E0104BDB68DBB200930E4B9B6803F00103A9
:20550000002BF5D10B4B1A73002001E000BF401C084B9B6803F0010313B9B0F5FA5FF5DBB4
:20552000044BDB689DF804003EBD0000FFFFFFFF000002400030014000BFFEE710B50248E3
:20554000FCF777FA10BD0000F400002070470000F8B5054600200090AC6B94F83D603948E6
:2055600000681921B0FBF1F04FF47A71B0FBF1F0C0EBC00000EB8000009000BF009820B9AD
:20558000206C40F02000206409E00098401E00902068006800F40070B0F5007FEED000BF47
:2055A000606B10B10020616BC863A06B10B10020A16BC8632068006820F480602168086050
:2055C00000206085606B10B10020616B0865A06B10B10020A16B08652068006820F001007B
:2055E0002168086094F83D0060280AD1202084F83D00002084F83E0020642046FCF718FACC
:205600001EE006F02800282811D12068006840F00100216808602068006840F4806021689D
:20562000086000202063282084F83D0005E0202084F83D00002084F83E002046FCF763FAF0
:20564000F8BD00004400002001684969C1F3C01111B1002102681161704700002DE9F041D4
:20566000044694F83D6094F83E70102F01D0402F07D1222E05D12068006820F40060216813
:20568000086006F02800282805D100202063282084F83D0010E02068406800F40060B0F5A1
:2056A000006F07D0602E05D0202084F83D00002084F83E00002020632068406800F4006047
:2056C000B0F5006F40D12068406820F4006021684860606B90F83500012814D04848616BDF
:2056E0000865606BFBF710FF00285BD02068006820F0010021680860202084F83D00606B68
:20570000016D88474EE03E48A16B0865A06BFBF7FBFE002846D020684069C0F3801030B196
:2057200020680069616A0870606A401C60622068006820F0010021680860202084F83D0062
:20574000A06B016D88472DE094F83D0060281AD1202084F83D000020206420684069C0F337
:20576000801030B120680069616A0870606A401C60622068006820F0010021680860204644
:20578000FCF756F90EE020684069C0F3801030B120680069616A0870606A401C6062204602
:2057A000FCF7B1F9256C05F0010058B905F00200022807D005F00400042803D005F00800C7
:2057C000082805D12068406820F4E0602168486094F83D60206C00F0040004280ED1282E04
:2057E0000CD10848E06200202063202084F83D00002084F83E002046FCF786F9BDE8F081D6
:20580000515500080000FFFF70B5044694F83D50E66A082E01D0202E1FD1282D1DD1234811
:20582000E0622068406820F4E060216848606FF48060216848612068006820F4806021688F
:20584000086000202063202084F83D00002084F83E002046FCF758F926E0212D20D1134820
:20586000E06221202063202084F83D00002084F83E002068406820F4E060216848606FF437
:205880008060216848612068006820F48060216808602046FFF7D8FE2046FCF736F903E084
:2058A0006FF480602168486170BD00000000FFFF00B58DB0002009900A900B900C9020218B
:2058C00001A8FAF770FD2248224908604FF48030486000211F4881600161017680F82010FF
:2058E0004FF08051C162491081620914C1600121C16180F830104161FBF762FD08B1FBF761
:2059000007F90020099001200A9003200B9009A91048FBF783FC08B1FBF7FAF8122001907A
:2059200001200290059003200390002008900A48079000208DF819008DF81800049001A92F
:205940000448FBF753FB08B1FBF7E2F80DB000BD002001404C00002001000F0008B500BF63
:20596000002000904948006840F40010474908600846006800F40010009000BF00BF00BFBB
:20598000002000900846006840F4800008600846006800F48000009000BF00BF3C483D4943
:2059A00008600020486080213A4881608900C1604900016189004161890081610021C16185
:2059C000016204214162032181620021C1620163FBF7AEFD08B1FBF79BF8002201210B20A3
:2059E000FCF72AF90B20FCF713F9002204210D20FCF722F90D20FCF70BF9002204210E204C
:205A0000FCF71AF90E20FCF703F9002207210F20FCF712F90F20FCF7FBF80022062110205E
:205A2000FCF70AF91020FCF7F3F8012202212F20FCF702F92F20FCF7EBF80022042138201B
:205A4000FCF7FAF83820FCF7E3F8012204213A20FCF7F2F83A20FCF7DBF8012211463B20C7
:205A6000FCF7EAF83B20FCF7D3F8012205213C20FCF7E2F83C20FCF7CBF800220521462006
:205A8000FCF7DAF84620FCF7C3F808BD30380240286402402008002000B587B0142102A8DD
:205AA000FAF781FC00BF002001904948006840F00400474908600846006800F004000190A8
:205AC00000BF00BF00BF002001900846006840F0800008600846006800F08000019000BF94
:205AE00000BF00BF002001900846006840F0010008600846006800F00100019000BF00BF72
:205B000000BF002001900846006840F0020008600846006800F00200019000BF00BF0022EC
:205B20004FF460412B48FBF777FF002248F204112948FBF771FF00224FF480512748FBF7CB
:205B40006BFF4FF4604002900120039000200490059002A91F48FBF763FE0420029001202D
:205B6000039004900320059002A91B48FBF758FE4FF4C2600290032003900020049002A9E4
:205B80001548FBF74DFE07200290032003900020049002A91148FBF743FE4FF4805002906C
:205BA0000120039000200490059002A90B48FBF737FE4FF401400290012003900020049045
:205BC000059002A90448FBF72BFE07B000BD0000303802400008024000000240000402402E
:205BE00000B591B014210CA8FAF7DDFB00200B90282101A8FAF7D7FB2E482F490860002017
:205C0000486063212C48816042F20F71C1600021016141618161FDF76BFC08B1FAF778FFAB
:205C200000208DF830008DF831008DF832000F90109000220CA92048FDF74CFE08B1FAF7BC
:205C400067FF01208DF82C008DF82D008DF82E0000208DF82F0000220BA91748FDF7DAFDD3
:205C600008B1FAF755FF00208DF804008DF805008DF80600029004900590069007900890E8
:205C800001208DF8240000020A90002201A90A48FDF7B0FC08B1FAF73BFF4FF400700A90AF
:205CA000002201A90448FDF7A5FC08B1FAF730FF11B000BD00280040A801002010B50E4894
:205CC0000E4908604FF48270486000210B488160C160016141614FF4007181610021C161D5
:205CE0000162416281620A21C162FDF785FE08B1FAF70EFF10BD000000300140C801002018
:205D000010B50B480B4908604FF496404860002108488160C16001610C2141610021816147
:205D2000C161FEF7AEF908B1FAF7F2FE10BD0000001001401807002000BFFEE700BFFEE766
:205D400010B50248FCF72BF910BD0000800800202DE9F04704460D4626683746D6F8408025
:205D600007F5306000EB4510D0F80890104880450BD909F40040B0F5004F06D14FF400416A
:205D800007F5306000EB451081602046FCF7DAFC0748804508D9A079012805D104F29C4246
:205DA0000121206801F0E2FB0020BDE8F08700000A30544F2DE9F04705460C46D5F800900B
:205DC0004E46D9F840A006F5306000EB4410D0F80880A879012855D108F0080008280FD1E4
:205DE000434882450BD908F40040B0F5004F7BD14FF4004106F5306000EB4410816073E06F
:205E000008F02000202806D1202106F5306000EB4410816068E008F02800002864D134481E
:205E200082450CD908F40040B0F5004F07D14FF4004106F5306000EB4410816054E004EB5C
:205E4000C40105F5157000EB810706F5306000EB4410396A0069C0F31200081A786164B9D8
:205E6000386930B905F29C420121286801F07EFB03E07969F8680844F860E1B22846FBF7EB
:205E800045FF31E01B4882451BD108F40040B0F5004F07D14FF4004106F5306000EB441041
:205EA000816021E008F02000202805D1202106F5306000EB44108160E1B22846FBF726FFC6
:205EC00012E06CB904EBC40105F5157000EB8100006928B905F29C420021286801F046FB0A
:205EE000E1B22846FBF712FF0020BDE8F08700000A30544F0A31544F2DE9F84F07460E46A9
:205F0000D7F80090C84606EBC60107F1140000EB8104D4E90410884202D90120BDE8F88F1D
:205F2000D4E90401451AA068A84200D2A568E81C4FEA900A17E0D4E90401451AA068A8428E
:205F400000D2A568E81C4FEA900AB879ABB2F2B200904846E16801F065FFE0682844E060A9
:205F600060692844606108F5106000EB4610806980B2504506D3D4E90410884202D22069FC
:205F80000028D8D1D4E9040188420ED806F00F01012000FA01FB40F6340050F8080020EADD
:205FA0000B0040F6340141F808000020B6E7704710B50248FDF766FA10BD0000A8010020BD
:205FC0000146002203E0521CA1F10A00C1B20A29F9D2100741EA1060704770B504460026FC
:205FE00000252068C06800F04000C8B92068C06840F080002168C860FBF714FD064608E0D3
:20600000FBF710FD801BB0F57A7F02D90420607701252068C06800F0400008B9012DEFD1BD
:20602000284670BD70B5044600252068C06820F080002168C8602068806800F0200030B9D7
:206040002046FDF7BDFC10B1042060770125284670BD10B504464FF4827060600021A1608A
:20606000E160216161614FF40071A1610021E16121626162A1620A21E1622046FDF7BCFCB9
:2060800008B1012010BD2068006840F04000216808600020F6E710B504464FF48270606007
:2060A0000021A160E160216161614FF40071A1613821E161002121626162A1620A21E16210
:2060C0002046FDF799FC08B1012010BD2068006840F04000216808600020F6E77CB5044661
:2060E0000E4615463346012202212046009500F039F828B1606D40F02000606503207CBDFF
:20610000164800681821B0FBF1F01549B0FBF1F04FF47A71484301906068B0F5827F0DD174
:206120003346002280212046009500F01BF898B1606D40F0200060650320E0E700BF0198B8
:2061400000B908E00198401E019020688068C0F3C0100028F3D100BF0020D0E7440000203D
:2061600040420F002DE9F84F04460D4690461E46DDF82890FBF756FCA0EB0900371AFBF7B2
:2061800051FC82462C480068C0F3CB307843009046E0701C002843D0FBF744FCA0EB0A0061
:2061A000B84200D2A7BB2068406820F0E000216848606068B0F5827F0DD1A068B0F5004F18
:2061C00003D0A068B0F5806F05D12068006820F0400021680860A06AB0F5005F0DD100BF9E
:2061E0002068006820F40050216808602068006840F400502168086000BF012084F8510048
:2062000000BF002084F8500000BF0320BDE8F88FFFE7009808B9002702E00098401E0090F7
:20622000206880682840A84201D1012000E000204045AED10020E9E744000020704730B5B5
:2062400001460A461378521C147843EA042030BD10B5FBF75BFC10BD00B593B0342106A80E
:20626000FAF7A1F8142101A8FAF79DF82448006840F480002249086000BF002000902048FE
:206280003C30006840F080501D493C3108600846006800F08050009000BF00BF00BF00208C
:2062A00000901848006820F4404040F48040154908600846006800F44040009000BF00BF00
:2062C000012006900004079000200C9006A8FCF77FFE08B1FAF71CFC0F200190012002905D
:2062E000002003904FF48050049000200590002101A8FCF771FC08B1FAF70AFC13B000BD35
:2063000004380240007000400348006840F47000014908607047000088ED00E070477047CC
:2063200070477047704700002DE9F84F04462068006920F44050E1680843216808612169EC
:20634000A068084361690843E169084300902068C06849F20C618843009908432168C860F8
:206360002068406920F44070A1690843216848617A49206888420BD079492068884207D0C6
:2063800078492068884203D077492068884203D1FCF7B6FD814602E0FCF7A2FD8146E06940
:2063A000B0F5004F6BD102206168A0FB015003461920A9FB007001462A463846F9F77CFFA0
:2063C0006421B0FBF1F04FEA001A02206168A0FB01510B461920A9FB00712A463846F9F704
:2063E0006BFF834602206168A0FB015003461920A9FB00712A463846F9F75EFF6421B0FB91
:20640000F1F000EBC00101EB0010ABEB8000322101EBC0006421B0FBF1F000F0F8000AEBF0
:20642000400A02206168A0FB015003461920A9FB00712A463846F9F73FFF834602206168D4
:20644000A0FB015003461920A9FB00712A463846F9F732FF6421B0FBF1F000EBC00101EB01
:206460000010ABEB8000322101EBC0006421B0FBF1F000F007005044216888606CE004207A
:206480006168A0FB01510B461920A9FB00712A463846F9F711FF824604206168A0FB015018
:2064A00003461920A9FB007001462A463846F9F703FF6421B0FBF1F000EBC00101EB001066
:2064C000AAEB8000322101EB00106421B0FBF1F000F0F00A04206168A0FB017003461920E2
:2064E000A9FB005001463A462846F9F7E5FE6421B0FBF1F00AEB001A04206168A0FB0151A6
:206500001920A9FB007080462A460B4638464146F9F7D2FE834604206168A0FB01500346F7
:206520001920A9FB007001462A463846F9F7C4FE6421B0FBF1F000EBC00101EB0010ABEBD8
:206540008000322101EB00106421B0FBF1F000F00F00504421688860BDE8F88F00100140DA
:206560000014014000180140001C0140704770B504460D460026D4F8B8022946426820466C
:20658000904700B10326304670BD70B504460D4694F89C02012804D0022803D003280CD1B9
:2065A00001E000BF00BF6888012805D10020C4F8A402204600F051F804E02946204600F0C3
:2065C00021F800BF00BF70BD02460020704702460020704770B506460C4615462B462246C2
:2065E0000021304600F064FB002070BD70B506460C4615462B4622460021304600F039FCB5
:20660000002070BD70B504460D468021204600F00FFC0021204600F00BFC70BD10B50446AF
:206620000520C4F8940200231A461946204600F03FFB002010BD70B504460E461546022044
:20664000C4F8940265616662A5612B4632460021204600F00EFC002070BD10B5044604206A
:20666000C4F8940200231A461946204600F001FC002010BD70B504460D46E888012804D077
:2066800029462046FFF7BEFF1EE094F89C02012804D0022803D0032810D109E000BF00207C
:2066A000A060012204F108012046FFF7C4FF0AE00122211D2046FFF7BEFF04E0294620467D
:2066C000FFF7A0FF00BF00BF70BDF8B504460E46002000900027002570880012082875D2B2
:2066E000DFE800F0C7040C20C7C7A5B5207CD4F8B4120A68694690470746C1E0207C40B95B
:20670000D4F8B802816A6846884707460220787007E0D4F8B802C16A6846884707460220B0
:206720007870ADE0B078062878D2DFE800F00316293C5063D4F8B402406838B1207CD4F8E1
:20674000B4124A6869469047074605E031462046FFF758FF681CC5B267E0D4F8B402806833
:2067600038B1207CD4F8B4128A6869469047074605E031462046FFF745FF681CC5B254E012
:20678000D4F8B402C06838B1207CD4F8B412CA6869469047074605E031462046FFF732FF4A
:2067A000681CC5B241E0D4F8B402006938B1207CD4F8B4120A6969469047074605E0314619
:2067C0002046FFF71FFF681CC5B22EE051E0D4F8B402406938B1207CD4F8B4124A69694661
:2067E0009047074605E031462046FFF70BFF681CC5B21AE0D4F8B402806940B1207CD4F8FA
:20680000B4128A6969469047074606E006E031462046FFF7F7FE681CC5B206E0314620469A
:20682000FFF7F0FE681CC5B200BF00BF28E0207C30B9D4F8B802416B68468847074605E08D
:2068400031462046FFF7DEFE681CC5B218E0207C40B9D4F8B802016B68468847074607201E
:20686000787005E031462046FFF7CCFE681CC5B206E031462046FFF7C5FE681CC5B200BF7D
:2068800000BF05B1F8BDF088C0B1BDF8000080B1F088BDF80010884202DDBDF8000000E084
:2068A000F0880090BDF8002039462046FFF7C3FE07E031462046FFF7A5FE02E02046FFF7C4
:2068C000CCFE00BFDEE770B504460D4694F89C02012804D0022803D003281AD101E000BFCE
:2068E00000BFE888022804D029462046FFF78AFE14E00120E060D4F8A40218B1E06840F010
:206900000200E060022204F10C012046FFF793FE04E029462046FFF775FE00BF00BF70BD55
