:020000040800F2
:10000000E80A0020AD020008B5020008B7020008A7
:10001000B9020008BB020008BD0200080000000091
:10002000000000000000000000000000BF02000807
:10003000C102000800000000C3020008C502000859
:10004000C7020008C7020008C7020008C70200086C
:10005000C7020008C7020008C7020008C70200085C
:10006000C7020008C7020008C7020008C70200084C
:10007000C7020008C7020008C7020008C70200083C
:10008000C7020008C7020008C7020008C70200082C
:10009000C7020008C7020008C7020008C70200081C
:1000A000C7020008C7020008C7020008C70200080C
:1000B000C7020008C7020008C7020008C7020008FC
:1000C000C7020008C7020008C7020008C7020008EC
:1000D000C7020008C7020008C7020008C7020008DC
:1000E000C7020008C7020008C7020008C7020008CC
:1000F000C7020008C7020008C7020008C7020008BC
:10010000C7020008C7020008C7020008C7020008AB
:10011000C7020008C7020008C7020008C70200089B
:10012000C7020008C7020008C7020008C70200088B
:10013000C7020008C7020008C7020008C70200087B
:10014000C7020008C7020008C7020008C70200086B
:10015000C7020008C7020008C7020008C70200085B
:10016000C7020008C7020008C7020008C70200084B
:10017000C7020008C70200080000000000000000DD
:10018000C7020008C7020008C7020008C70200082B
:10019000C7020008C702000800000000C7020008EC
:1001A000C7020008C70200080000000000000000AD
:1001B000C70200080000000000000000C70200089D
:1001C000C7020008C7020008C7020008C7020008EB
:1001D000C7020008C702000800F002F800F052F859
:1001E00014A696E8000CB244B344DA4501D100F0FD
:1001F00049F8BAE80F000FA696E83000A5EB040511
:1002000004EB0607AAEB0704A7F101074FEA15154F
:100210004FEA3414A4F10104AC4201D300F032F8E7
:1002200013F0010F18BFFB1A43F0010300F001F8AF
:10023000DBE718474C1400006C140000103A24BF90
:1002400078C878C1FAD8520724BF30C830C144BF3B
:1002500004680C6070470000704700000023002411
:1002600000250026103A28BF78C1FBD8520728BFC6
:1002700030C148BF0B6070471FB501F0F3F91FBDD7
:1002800010B510BD00F05CF81146FFF7F5FF01F066
:10029000B5F900F07AF803B4FFF7F2FF03BC00F001
:1002A00081F8000080F3088862B608470948804753
:1002B00009480047FEE7FEE7FEE7FEE7FEE7FEE748
:1002C000FEE7FEE7FEE7FEE704480549054A064B60
:1002D00070470000ED150008D9010008E802002071
:1002E000E80A0020E8060020E80600204FF000029F
:1002F00000B5134694469646203922BFA0E80C501C
:10030000A0E80C50B1F12001BFF4F7AF090728BFF6
:10031000A0E80C5048BF0CC05DF804EB890028BF72
:1003200040F8042B08BF704748BF20F8022B11F09B
:10033000804F18BF00F8012B704770477047704717
:10034000754600F02BF8AE4605006946534620F08E
:100350000700854618B020B5FFF7B6FFBDE820407E
:100360004FF000064FF000074FF000084FF0000B71
:10037000AC46ACE8C009ACE8C009ACE8C009ACE8E0
:10038000C00921F007018D46704710B50446AFF350
:1003900000802046BDE81040FFF77DBF0048704751
:1003A0008802002001491820ABBEFEE726000200AB
:1003B0007047000030B5A1B004461E4D802168464C
:1003C000FFF794FF94B3E07880B31C491A48CDE955
:1003D0000001032002908020039019480490607867
:1003E000059001200690284600F00AFA20B1A8697D
:1003F000411C01D0401C069012480790082008902C
:100400002079A17840EA012014907C21684601F00F
:10041000B5F81F9000F0BCF840B1684600F0CAFA89
:1004200020B1284600F0ECF921B030BDFFE70020F4
:10043000FAE7000000000108434536344D4E4633CC
:10044000494E5354000002080C48016841F08051A5
:100450000160BFF34F8F0A48016841F48071016069
:10046000BFF34F8F074A00211160121D1160BFF3C7
:100470004F8F016821F4807101607047403802405D
:10048000007000409028004010B5040013D00B49C4
:10049000206988420FD1204600F0B2F958B100F02F
:1004A00077F840B1204600F085FA20B1BDE8104051
:1004B000034800F0A5B9002010BD000056414C448F
:1004C00000000108134C00F0CBF900F037FB00F0FE
:1004D000FBFA1148016841F480410160BFF34F8F7E
:1004E0000E48016821F003010160016841F001013B
:1004F00001600B480460002080F31488BFF36F8F05
:10050000BFF34F8FBFF36F8FD4E90001FFF7CAFE2F
:1005100030BFFDE70000FF1F4438024000380140B3
:1005200008ED00E02DE9F04700F07AF840B300F064
:1005300063F828B3154F052440F2F31640F27F38D4
:1005400040F202293D1D3E60286820EA080040EA8A
:10055000C40040EA09002860286840F48030286020
:1005600000F05EF80028286820F00200286009D01A
:10057000641C0F2CE7D900F037F80120BDE8F087A4
:100580000020FBE700F030F8FAE700000C3C0240E6
:1005900010B500F045F8F8B100F02EF8E0B11149BF
:1005A00040F2F31008600C1D206840F27F31884350
:1005B00040F2222108432060206840F4803020600F
:1005C00000F02EF80028206820F00200206005D0FE
:1005D00000F00AF8012010BD002010BD00F004F862
:1005E000FAE700000C3C02400248016841F000417B
:1005F00001607047103C024006480168002905DA96
:100600000449054A0C390A60044A0A600068C017A8
:10061000401C7047103C024023016745AB89EFCD79
:1006200009480A4900E0401E0A68D20302D50028A2
:10063000F9D104E018B1086810F4F97F01D0002066
:1006400070470120704700000024F4000C3C024079
:1006500030B50446154D00F0D3F820B31449206995
:10066000884220D1A16A286881421CD1E36A6A6865
:10067000934218D1A0F10051B1F5A02F13D8400733
:1006800011D1216A22F001004B19D2070BD0A842E8
:1006900009D3984207D2284600F070FF616A884269
:1006A00001D1012030BD002030BD00000000020853
:1006B00056414C442DE9F05F04464FF0000800F02D
:1006C000CFFC00280CD000F095FBA8B3204600F02A
:1006D0007FFD88B300F046FC20B100F077FC0120DC
:1006E000BDE8F09F2046FFF765FE28B3FFF71AFF2D
:1006F00010B3DFF874904FF4007A41F2010BD9F88F
:10070000205005F2FF10470A002411E0174904EBBE
:100710000B0000F091FE78B15646B54200D82E4647
:1007200060023246114900F0E1F828B1AD1B641CAB
:10073000BC42EBD32DB113E0FFE700F047FC0020F3
:10074000CEE74C460A48D9F8201000F017FF616A3E
:10075000884205D10448FFF797FE08B14FF0010821
:1007600000F034FC4046BBE70802002008000020EF
:1007700000000208044600F0E1F900F0A5F90A497A
:1007800008480860002080F31488BFF36F8FBFF320
:100790004F8FBFF36F8FD4E90A01FFF783FD30BF9E
:1007A000FDE700000000020808ED00E03CB503246E
:1007B0008DF80040B02403468DF8014032248DF8B6
:1007C00002408DF80430CE248DF805108DF80620F7
:1007D000FF208DF8034000226C460723A15C4840AF
:1007E0000021050602D583EA400000E04000491CD4
:1007F000C0B20829F5D3521C072AEFD33CBD000034
:1008000010B5040024D0D4E90010124B124A59400C
:10081000504001431CD1A068032819D1E06880280A
:1008200016D16069A0B1A06990B10C49E069884215
:100830000ED1206A08280BD3B0F5B01F08D87C2150
:10084000204600F09BFEE16F814201D1012010BDE6
:10085000002010BD434536344D4E4633000002089B
:10086000194808B5016841F007010160BFF34F8FD7
:10087000174816498161174A4FEAB1111160164AAB
:100880004FF4404111600168144A1140144A114369
:100890000160104918390868124A10400B4A0C329E
:1008A000104308600C491839086820F0704040F087
:1008B000A0400860002000900B4800BF0099491C30
:1008C00000918142F9D308BD303802400400000194
:1008D000000002401804024018080240CFFFFCFF4D
:1008E00010000100CFFFFFFC007102002DE9F0476E
:1008F00016465FEA010824D01EB3B0F5B01F20D819
:10090000C0F5B011B1421CD3284900EB01098007A2
:1009100017D1FFF785FEA0B1FFF76EFE88B124491D
:1009200040F2F310086001F1040ADAF8000040F226
:100930007F32904340F201221043CAF800000025A4
:1009400028E00020BDE8F08700204FF0FF34FF23AF
:100950000AE0C10003FA01F718F80220BC438A40FC
:100960001443401C042802D22A18B242F1D309EBE6
:1009700005073C60FFF754FE10B13868A04208D06C
:10098000DAF8001021F00101CAF80010FFF72CFE80
:10099000D7E72D1DB542D7D3DAF8001021F00101B9
:1009A000CAF80010FFF720FE0120CBE70000020884
:1009B0000C3C02402DE9F04105461F4E2027FFF771
:1009C0002FFE40B3FFF718FE28B31C4940F2F31086
:1009D000086001F10408D8F8000040F27F3290432B
:1009E00040F201221043C8F80000002455F824000A
:1009F00046F82400FFF714FE28B156F8240055F8F5
:100A0000241088420AD0D8F8001021F00101C8F85B
:100A10000010FFF7E9FD0020BDE8F081641CBC4236
:100A2000E4D3D8F8001021F00101C8F80010FFF756
:100A3000DBFD0120F0E70000000001080C3C024053
:100A4000F0B5040013D00026267001256570A6704D
:100A50001B48E67026710168001D0068194A914222
:100A600001D1012805D0174A121F914206D000205B
:100A7000F0BD03202070E57025711EE0C3B2C0F305
:100A800007212370C0F307426170070EA270184659
:100A9000FFF78CFEB8420DD12078012803D0022840
:100AA0000AD0032806D16078012805D0022803D097
:100AB000032801D02670DAE7E5700120F0BD0000C0
:100AC0009028004007B032CE194A10B51749136874
:100AD000084643F00103136000E0401E13689B07C3
:100AE00001D40028F9D11248083003684FF6F344C6
:100AF000A343036000E0491E036813F00C0F01D00C
:100B00000029F8D110680B490840106008490A48CC
:100B1000091D0860064900200C3108600448303087
:100B2000016821F48051016010BD0000006A1800C6
:100B300000380240FFFFF6FE1030002472B600209D
:100B40004FF0E0210861486188610A494FF0206058
:100B500008600020421E810001F1E021C1F88021DF
:100B6000C1F88022401C0828F5D3BFF34F8FBFF394
:100B70006F8F704704ED00E07FB582B08023009155
:100B80000B9D254A002108465054491C9942FBD32D
:100B9000214C23492148C4E900010320A0608020A2
:100BA000E06020480126C4E904060498A0611E48BC
:100BB000E061029820620A986062284600F0A4FC76
:100BC000A062281D00F0A0FC2665E062042204A9B2
:100BD00004F1300000F090F8042205A904F134007B
:100BE00000F08AF8042202A904F1380000F084F829
:100BF0000422694604F13C0000F07EF804220AA9B0
:100C000004F1400000F078F87C21204600F0B6FCAA
:100C1000E06706B070BD000008020020434536348E
:100C20004D4E463356414C44000002082DE9F84F22
:100C30001D46DDE90A690C9F92460C468046D7B3F3
:100C400006B1C5B300F0A2F8A8B32A494FF480203A
:100C5000886148F04000694600F0A4F850B3200EC7
:100C6000694600F09FF828B36946C4F3074000F0D6
:100C700099F8F8B16946C4F3072000F093F8C8B1B9
:100C8000E0B2694600F08EF8A0B16946504600F027
:100C900089F878B1FF208DF8000000246946FF2014
:100CA00000F080F830B19DF80000000607D5641C04
:100CB000202CF3D314E0FFE70020BDE8F88F9DF867
:100CC00000003870002405E02919FF2000F06AF8C0
:100CD00030B1641CB442F7D3B9F1000F03D006E081
:100CE00000F054F8E8E700F051F80028E5D00120C2
:100CF000E3E700000000024010B5002302E0CC5CF6
:100D0000C4545B1C9342FAD310BD0000054801682F
:100D100041F480510160BFF34F8F03490120886087
:100D2000704700003038024000300240034800683D
:100D300003490A6822F480520A607047003002407A
:100D4000303802402DE9F04300244FF0FF384FF0D7
:100D5000FF0CDFF8349012E04346002209E0D60091
:100D60000CFA06F7455DBB43B5402B43521C042AE1
:100D700002D2A5188D42F2D3C9F80030241D8C424E
:100D8000EAD3BDE8F083000000300240044908B512
:100D9000042088616946FF2000F004F808BD0000C7
:100DA0000000024038B5114B114C1A4600E0521EAB
:100DB000A568AD0702D4002AF9D113E092B12073DF
:100DC00000E05B1EA068C0070AD05BB1207B01B1C8
:100DD0000870A068400607D5E068A068009001E0B0
:100DE000002BEED1002038BD012038BD40420F005D
:100DF000003001402DE9F04387B0FF208DF80C0052
:100E00004D4804278761002406A9FF20FFF7CAFF89
:100E100000287CD0641C142CF6D30024254603A89B
:100E20000095CDE901500023952219461846FFF799
:100E3000FDFE18B19DF80C00012806D0641C102C92
:100E4000EDD39DF80C00012865D103AE0097CDE9E4
:100E5000015604AB87224FF4D5710820FFF7E6FE58
:100E600090B39DF80C00012855D19DF8120001287F
:100E700051D19DF81300AA284DD100244FF080498C
:100E800044F620680095CDE9015600230122194659
:100E90003720FFF7CBFEB8B19DF80C0008B1012850
:100EA00039D10095CDE90156002301224946292078
:100EB000FFF7BCFE00282FD09DF80C0028B10128B8
:100EC00029D1641C4445DDD325E00097CDE90156C6
:100ED00005AB012200213A20FFF7A8FED8B19DF80A
:100EE0000C00C0B905989DF8171000BA08431349C3
:100EF000C0F38070087090B90095CDE901560122C9
:100F0000002351021020FFF791FE20B100E003E022
:100F10009DF80C0018B1002007B0BDE8F083084927
:100F2000086820F07800086020F0380040F04000A9
:100F300008600120F0E700000000024000000020EF
:100F40000030014041F4807141F22102400049002B
:100F5000CB0500D5401CC30300D55040CB03F5D5CD
:100F600080B2704710B5174C2046FFF771FB30B3C5
:100F7000154861694269914221D1A1698269914212
:100F80001DD1216A026A914219D1616A426A914275
:100F900015D1A16A826A914211D1E16AC06A814287
:100FA0000DD1084A0849303230310020135C0C5C06
:100FB000A34204D1401C2028F8D3012010BD0020FA
:100FC00010BD0000000001080802002070B5204D8F
:100FD0001E490420A8611F4A00E0491E90680006CF
:100FE00001D50029F9D1106820F0400010601A489E
:100FF000016841F480510160BFF34F8F016821F413
:101000008051016014482030016821F48051016052
:10101000124980060860052403222146284600F074
:1010200078FA00222146284600F07DFA641C072C3D
:10103000F2D903220221284600F06BFA2846BDE8C7
:1010400070400022022100F06EBA000040420F0002
:1010500000000240003001402438024018040240E1
:101060002DE9F0475349524F08683C4640F00100D3
:1010700008604FF0000900E0641E0868800702D491
:10108000002CF9D18FE0002C0FD04A4808300268BC
:101090004FF6F3439A4302603E4600E0761E026834
:1010A00012F00C0F02D0002EF8D17CE0002E7AD086
:1010B0000868414A104008603E483030016841F0FD
:1010C00003010160BFF34F8F3D4D3C48A8613D4A8D
:1010D0004FF48221116001220221284600F019FA02
:1010E00001220821284600F014FA364C0122183C4F
:1010F0000221204600F00DFA01220C21204600F0CA
:1011000008FA01220221284600F00DFA002000BF53
:10111000401CB842FBD305244FF00F080326E20819
:1011200005EB8203052061071A6AC90E08FA01F768
:10113000BA4388401043186202222146284600F034
:10114000E8F9A968620006FA02F081430843A86042
:10115000062C2AD000222146284600F0E4F9641C1F
:10116000072CDCD913484430016841F480510160F8
:1011700010482430016841F480510160BFF34F8F63
:10118000016821F4805101600F49C1F81C90C1F839
:1011900004904FF45F720A600C49012081F80090BE
:1011A000BDE8F087FFE70020FAE70122D3E700005F
:1011B000006A180000380240FFFFF6FE040000013C
:1011C00000000240180402400030014000000020EE
:1011D00010B5040022D0E07800B3207803281DD198
:1011E00012494FF4805000F027F9B8B10F4980221E
:1011F00001F50070FFF780FD0D48FFF701FB78B1A6
:101200000B480C4A016991420AD1406961788842D1
:1012100006D12046BDE8104000F0A2B8002010BD65
:101220002046BDE8104000F007B80000080000208C
:101230000802002056414C442DE9F047002488B0B4
:10124000002873D04078012870D1404D284600F026
:101250005BF93F49884269D1281D00F055F93D49A5
:10126000884263D105F1100000F04EF906463A4974
:10127000083888425AD205F1080000F045F90121EA
:10128000039000B9039105F10C0000F03DF90496BC
:101290000290A88AADF81C0006F2FF104FEA502910
:1012A000FFF734FD00254FF4007A2DE041F20100F4
:1012B0002649284400F0C0F828B15746BE4200D85D
:1012C00037461DB10DE0FFF731FD2FE01F490498AF
:1012D00000F034F90028F6D008221C4905A8FFF7D1
:1012E0000BFD2046DFF86480002404E018F80410A9
:1012F000FFF728FE641C3946BC42F7D30446134866
:10130000FFF720FDF61B6D1C4D45CFD3FFF70EFDFB
:10131000054620460021FFF715FE0021FFF712FECB
:1013200001461EB9BDF81C00814203D0002008B060
:10133000BDE8F08705A8CDE90050DDE90320029B58
:10134000FFF71AFC0548FFF75BFAF0E708000020FA
:1013500044414F4C544F4F42F9FF15000802002002
:101360002DE9F05F04005FD0E07800285CD02078A1
:10137000032859D12D49802201F50070FFF7BCFCEC
:101380002B48FFF73DFA18B329482A4A01699142D0
:101390004AD162784169914246D1056A824605F296
:1013A000FF104FEA5029FFF7B1FC00244FF4007BF7
:1013B0002EE041F201001D49204400F03DF828B123
:1013C0005F46BD4200D82F461CB11BE0FFF7AEFCC4
:1013D0002AE01648164E804600F096F8B16A884218
:1013E0000DD108F1040000F08FF8F16A884206D1AF
:1013F0004146306A00F0A2F808B1012000E0002068
:101400000028E3D039460948FFF79CFCED1B641C1B
:101410004C45CED3FFF78AFC35B9DAF82410814267
:1014200002D10120BDE8F09F0020FBE7080000206A
:101430000802002056414C4470B50D460646002473
:101440002946304600F00AF808B1012070BDFFF7C8
:101450009DFC641C032CF3D3002070BD70B586B0D6
:101460000D00274C4FF0FF0201468DF80C2045D0AF
:10147000244A12781AB9B0F5000F3FD2490204ABE2
:10148000012200208DE80D0003461120FFF7CEFB5E
:1014900010B19DF8100048B1FFF778FC2EE003A9C9
:1014A000FF20FFF77FFC0028F6D0641E9DF80C009B
:1014B000FF2820D0002CEFD0C0B2FE28ECD10024B1
:1014C0004FF400762919FF20FFF76CFC0028E3D0C9
:1014D000641CB442F6D303A9FF20FFF763FC68B194
:1014E00003A9FF20FFF75EFC40B1FFF74FFC28B1D6
:1014F000012006B070BD002CD1D1CDE70020F8E767
:1015000000127A0000000020C178006861F31F60BB
:10151000704710B50368490003248C40A3438A40F8
:101520001A43026010BD10B5C368490003248C4003
:10153000A3438A401A43C26010BD000030B5C9B150
:10154000082817D3B0F5B01F14D80B4D4B684419B9
:10155000086823F00102A0F10051B1F5A02F09D8CD
:10156000400707D1D80705D0AA4203D3A24201D22F
:10157000012030BD002030BD00000208F0B5194D3B
:1015800000222B6843F480532B60BFF34F8F164E1D
:101590000123B36006E08318DC781B6864F31F63E3
:1015A0003360121D8B1A042BF5D28A4213D000230C
:1015B0004FF0FF34FF270BE007FA03FC24EA0C048A
:1015C00010F802C00CFA03FC521C4CEA0404083365
:1015D0008A42F1D334603068296821F4805129604F
:1015E000F0BD00003038024000300240024801687F
:1015F00041F470010160704788ED00E01CB5184CA3
:101600006846FFF71DFA00B39DF80000012802D1DB
:101610006846FEF7CFFEFEF717FF9DF8000003288F
:1016200011D16846FFF746F830B12046FFF710F8B1
:1016300010B12046FFF79EF82046FFF709F810B1D9
:101640002046FFF797F8FEF73DFF2046FFF700F82A
:1016500010B12046FFF78EF8FEF734FF30BFFDE7EC
:1016600000000108F1EE100A4FF6FF71C0F2C03120
:1016700020EA010040F04070E1EE100A70470000DF
:10168000A016000800000020080000003C0200082E
:10169000A816000808000020E00A00005C0200080C
:0816A000000000000000000042
:020000040801F1
:10000000434536344D4E4633030000008000000067
:1000100056414C44010000002C487E6A0000020852
:10002000D03402002D7D915E60FF04200903020898
:100030003C9251A2B3AE2AE5B522966A9E338F82D6
:100040007E87FF7CCDC5ECF0CBAB45E0CDBFA507EF
:1000500000000000000000000000000000000000A0
:100060000000000000000000000000000000000090
:100070000000000000000000000000007BDD2E31C9
:020000040802F0
:1000000060FF0420090302088BC00308F3A603085D
:1000100081C00308910E0208C5D903080000000042
:10002000000000000000000000000000CDC5030833
:10003000AD1503080000000095C0030871CB03084C
:1000400023030208230302082303020823030208F0
:10005000230302082303020823030208B916030836
:10006000D11603082D1703084517030823030208B8
:1000700075110308811103082513030829130308C8
:1000800059130308651303085D0C020823030208D3
:10009000230302082303020823030208811703082D
:1000A000D1CF030823030208230302082303020815
:1000B0008DD30308230302082303020809A70308BA
:1000C000FDA60308230302082303020823030208F2
:1000D00023030208D5D803082303020823030208D8
:1000E000B115030899C0030823030208230302087B
:1000F0002303020899D3030823030208AD1303085E
:10010000230302082303020823030208230302082F
:1001100011D703082303020823030208230302085C
:1001200041140308451403088D14030891140308AF
:1001300023030208230302082303020823030208FF
:1001400023030208230302082303020823030208EF
:10015000C9140308CD140308FD1403085DD903086E
:1001600023030208230302082303020823030208CF
:10017000230302082303020800000000000000001F
:1001800023030208230302082303020823030208AF
:1001900023030208230302080000000023030208CF
:1001A00023030208230302080000000000000000EF
:1001B00023030208000000000000000023030208DF
:1001C000230302082303020823030208230302086F
:1001D000230302082303020800F002F800F06AF883
:1001E0000AA090E8000C82448344AAF10107DA4592
:1001F00001D100F05FF8AFF2090EBAE80F0013F07A
:10020000010F18BFFB1A43F001031847EC3002003E
:100210000C3102000A444FF0000C10F8013B13F0BF
:10022000070408BF10F8014B1D1108BF10F8015B4F
:10023000641E05D010F8016B641E01F8016BF9D142
:1002400013F0080F1EBF10F8014BAD1C0C1B09D199
:100250006D1E58BF01F801CBFAD505E014F8016B0B
:1002600001F8016B6D1EF9D59142D6D3704700009D
:100270000023002400250026103A28BF78C1FBD8AF
:10028000520728BF30C148BF0B607047632900F098
:10029000F083732900F0F583002070471FB521F02B
:1002A000BEF99DE8030000F073FB00F020FA1FBDCB
:1002B00010B510BD00F050FC1146FFF7EFFF1FF026
:1002C0007FFD00F06EFC03B4FFF7F2FF03BC00F00B
:1002D0009FFC00000B49D1F800C04A685CF8043B61
:1002E0001068184442F8040B8C4528BFA1F1DC0CBF
:1002F0008A4228BFA1F1DC02C1F800C04A6020F0A8
:100300000040704788360120094880470948004767
:10031000FEE7FEE7FEE7FEE7FEE7FEE7FEE7FEE7B5
:10032000FEE7FEE704480549054A064B7047000012
:10033000C1CF0308D901020860F7042060FF042040
:1003400060FB042060FB042070B5064600F004FB4F
:10035000056806F10B0020F00704B4429CBF0020A2
:1003600070BD2B466A68BAB11068A04210D304F180
:10037000080188423CBF5068586007D35168101983
:1003800041601168091B016058601460101D70BD48
:1003900013465268002AE7D12146284600F0E4FAC5
:1003A0000028DED170BD70B50446051F00F0D4FAF8
:1003B0000068002C14BF446870BD002C18BFAC420C
:1003C0003CBF20466468F8D301680A18AA4218BFE7
:1003D000456003D12A680546114401602868411927
:1003E000A1421CBF6C6070BD6168696021680844EF
:1003F000286070BD53EA020C00F069802DE9F04BD3
:100400004FF00006002B1FBFB3FA83F503FA05F483
:1004100024FA05F65E4012BF1643B2FA82F502FADC
:1004200005F4C5F120051EBF22FA05FC44EA0C04C0
:10043000203556EA044C4FEA144418BF641C4FF0B0
:1004400000084FF00009904271EB030C39D30029EA
:1004500019BFB1FA81F701FA07F6B0FA80F700FA8E
:1004600007F6C7F120071EBF20FA07FC46EA0C0674
:100470002037B6FBF4FCA7EB0507103F07F01F0B76
:10048000CBF120060CFA0BFB2CFA06F644BFB34660
:100490000026202FA4BF5E464FF0000B5BEA060C3F
:1004A00008BF4FF0010B19EB0B09ABFB027C48EBCB
:1004B0000608C01B06FB02CC0BFB03CC71EB0C0146
:1004C000C1E70B46024641464846BDE8F08B13B5EE
:1004D0004FF000004FF00001AFF30080BDE81C407A
:1004E0007047B2F120030AD5C2F1200301FA02F1EC
:1004F00020FA03F300FA02F041EA0301704700FA20
:1005000003F14FF000007047B2F120030AD5C2F1A9
:10051000200320FA02F001FA03F321FA02F140EA83
:100520000300704721FA03F04FF00001704700000C
:100530000FB41CB50C0007AA009001D02044401E47
:10054000074B7B4469460190069800F068FA002C3E
:1005500003D06946002000F075FA1CBC5DF814FB5E
:100560000905000070B50C460546012A05D028781B
:10057000800600D5EA69002302E0012305E05B1C48
:10058000934202D2E05C0028F9D1A869E618C01AAB
:10059000A861286A184428622846AFF3008004E066
:1005A000D5E9012114F8010B9047B442F8D328464D
:1005B000AFF3008070BD2DE9F0474FF0000A894687
:1005C0000446C0F820A02046E1688847002876D07D
:1005D000252806D0D4E901219047206A401C2062DA
:1005E000F1E7E168204600258847C4F81CA00646CC
:1005F0000027C4F818A02A2E09D030461FF020F991
:1006000038B304EB8708303EC8F8186019E059F891
:10061000041B204604EB87029161E1688847012FA3
:10062000064618D1E069002820DA25F020051DE0F3
:10063000D8F8180000EB800006EB40003038C8F80E
:1006400018002046E168884706461FF0F9F80028A0
:10065000EED1012F0AD02E2E08D12046E16888471E
:100660007F1C0646022F45F02005C4DBA069002848
:1006700003DA404245F00105A061E80701D025F00A
:100680001005B6B1A6F14100192802D8203645F46C
:1006900000654A463146204625604D46FFF7F6FD87
:1006A00058B1012806D0ED1D25F0070000F108091A
:1006B00089E704E005F1040985E730468AE7206A06
:1006C000BDE8F0870B4910B5A1F17C020A4CC2E9E4
:1006D0003712372106E000EB104342F82130074B78
:1006E00000FB03400B1EA1F10101F4DC10BD012051
:1006F000E8E7000028360120E119D666CD0D01009B
:1007000010B5431C02E010F8011B71B18107FAD14A
:100710004FF0013202C88C1A8C4314EAC211F9D08E
:10072000C01A0A0603D0C01E10BDC01A10BD0A04AC
:1007300001D0801E10BD0902FCD0401E10BD032A4E
:1007400040F2308010F0030C00F0158011F8013BEE
:10075000BCF1020F624498BF11F801CB00F8013BD5
:1007600038BF11F8013BA2F1040298BF00F801CB99
:1007700038BF00F8013B11F0030300F06780083A2E
:10078000C0F0088051F8043B083A51F804CBA0E8C7
:100790000810F5E7121D5CBF51F8043B40F8043B1C
:1007A000AFF30080D20724BF11F8013B11F801CB51
:1007B00048BF11F8012B24BF00F8013B00F801CB22
:1007C00048BF00F8012B7047431A28BF9A427FF6B2
:1007D000B6AF032A1044114440F2268010F0030FF4
:1007E0001EBF11F8013D521E00F8013D10F0030F2D
:1007F0007FF4F6AF11F0030300F05A81083AC0F01D
:100800000B8051F8043D083A51F804CD40F8043DFE
:1008100040F804CDFFF7F3BF121D5CBF51F8043D53
:1008200040F8043DAFF30080D20724BF11F8013D2A
:1008300011F801CD48BF11F8012C24BF00F8013D8B
:1008400000F801CD48BF00F8012C704710B5203AE0
:10085000C0F00B80B1E81850203AA0E81850B1E879
:100860001850A0E81850BFF4F5AF5FEA027C24BF2F
:10087000B1E81850A0E8185044BF18C918C0BDE826
:1008800010405FEA827C24BF51F8043B40F8043BEF
:1008900008BF7047D20728BF31F8023B48BF11F8A4
:1008A000012B28BF20F8023B48BF00F8012B7047FE
:1008B00002F0FF0343EA032242EA024200F002B8D8
:1008C0004FF000020429C0F0128010F0030C00F079
:1008D0001B80CCF1040CBCF1020F18BF00F8012BF7
:1008E000A8BF20F8022BA1EB0C0100F00DB85FEAC5
:1008F000C17C24BF00F8012B00F8012B48BF00F891
:10090000012B70474FF0000200B5134694469646FF
:10091000203922BFA0E80C50A0E80C50B1F1200112
:10092000BFF4F7AF090728BFA0E80C5048BF0CC0C0
:100930005DF804EB890028BF40F8042B08BF70471E
:1009400048BF20F8022B11F0804F18BF00F8012B90
:1009500070477047704770470048704798360120CD
:10096000704770477047704738B504460A46002004
:100970006946AFF30080002808BF38BD02460099E1
:10098000204600F0C7F8012038BD012000F0DCB897
:10099000F8B5AFF30080054600200C46102000BFDC
:1009A0000646A819A0420DD9324669460020AFF389
:1009B0000080070008BF00F0C7F80098A04218BFE9
:1009C0000546C419FFF7C8FF05600746F01D20F073
:1009D00007004619284600F00AF8B44208BFF8BDDF
:1009E000A21B31463868BDE8F84000F093B80021FA
:1009F0000160C0E9011070471020704710B500F089
:100A000085F8006810BD10B5044600F07FF804605A
:100A100010BD000001694A1C02610878704700B5EA
:100A20008FB0CDE901310021059105497944CDE927
:100A3000031011466846FFF7BEFD0FB000BD000071
:100A4000E5FFFFFF0A6802F8010B0A607047D1E971
:100A500000239A4202D2531C0B601070704710B5ED
:100A6000436913B1AFF3008001E0FFF77BFD012084
:100A700010BD127800F124010A7000224A70012290
:100A8000EDE711684FF0FF32E9E7431A28BF9A42B9
:100A90007FF6DCAE104410F0030F11441EBF11F8B6
:100AA000013D521E00F8013D10F0030F7FF4F6AF38
:100AB000103AC0F00A8010B531E91850103A20E918
:100AC0001850BFF4F9AFBDE81040530724BF31E917
:100AD000081020E9081044BF51F8043D40F8043DD7
:100AE00012F0030F08BF7047D20728BF31F8023D4C
:100AF00048BF11F8012C28BF20F8023D48BF00F87C
:100B0000012C70470048704790360120004870471C
:100B100090360120034640688C46002818BF884262
:100B20003CBF03464068F8D318681844884207D091
:100B30000CF1030020F00700001D411A521A014673
:100B4000081D0A60FFF72FBC10B500F039F8BDE8AA
:100B5000104000F02FB870477546FFF7D3FFAE4640
:100B600005006946534620F00700854618B020B5B9
:100B7000FFF7D8FBBDE820404FF000064FF000071C
:100B80004FF000084FF0000B21F00701AC46ACE835
:100B9000C009ACE8C009ACE8C009ACE8C0098D46A2
:100BA000704710B50446AFF300802046BDE8104002
:100BB000FFF789BB002801D000F02AB87047000079
:100BC00010B5012805D0002103A000F027F801206E
:100BD00010BD09A1F8E7000053494752544D454D57
:100BE0003A204F7574206F662068656170206D65CE
:100BF0006D6F7279000000003A2048656170206DC9
:100C0000656D6F727920636F7272757074656400C0
:100C100001491820ABBEFEE72600020070B505466C
:100C20000C460A2000E06D1C00F011F835B1287860
:100C30000028F8D102E0641C00F009F814B1207813
:100C40000028F8D1BDE870400A20AFF3008008B555
:100C500069468DF800000320ABBE08BD104810B5F2
:100C600002680021116001688A6822F001028A602E
:100C70000068C06B46F2207180B2A0FB010147F60C
:100C8000FF72801841F100014FF6FF720023FFF759
:100C9000B1FB0146BDE8104002480EF0B9BF0000AC
:100CA000082B012090B90020464910B54A6822F46B
:100CB00040324A604A6843681A434A6001684A6899
:100CC00022F480724A6001684A68036942EA03229A
:100CD0004A6001684A6822F040724A6001684A68C6
:100CE00083681A434A6001688A6822F400628A6055
:100CF00001688A68C3681A438A60816A6FF070620B
:100D0000D14201688A6822F070628A6001688A684C
:100D10000CD0836A1A438A6001688A6822F04052C4
:100D20008A6001688A68C36A1A4301E022F040526F
:100D30008A6001688A6822F002028A6001688A6813
:100D4000037E42EA43028A6090F82010002901687D
:100D50004A680FD042F400624A6001684A6822F48F
:100D600060424A6001684A68174C436A04EB4333A7
:100D70001A4301E022F400624A600168CA6A22F460
:100D80007002CA620168CA6A838B104C04EB035379
:100D90001A43CA6201688A6822F400728A60016894
:100DA0008A6890F8303042EA43228A6001688A6893
:100DB00022F480628A6001688A68406942EA802081
:100DC000886010BD0023014000E0FFFF0000F0FF3D
:100DD00018B50023009303098DF8003000F00F00D0
:100DE0008DF8010000206C46235C0A2B01D23033C1
:100DF00000E037330B54401C0228F5DB0220108042
:100E0000002018BD1E4C08B5656812F02DFF11F0CA
:100E1000B3FB4FF0E0210020086148618861194868
:100E2000016841F02061016072B60020421E81001D
:100E300001F1E021C1F88021C1F88022401C08287E
:100E4000F5D31148016841F480410160006800F465
:100E5000804000900D48016821F0030101600168A5
:100E600041F0010101600748001D0460BFF34F8F8E
:100E7000BFF36F8F206880F3088862B6A847FEE74B
:100E80000000FF1F04ED00E044380240003801403C
:100E90000C2005F065FF0FF087FA000030B5002840
:100EA00034D0016A002931D01949B1F85E20002AF6
:100EB0002CD091F87D10002928D100F12801C06ABA
:100EC000420848688B6813448B608B68834206D362
:100ED0008B688C68B3FBF0F303FB104088608C6A6E
:100EE000C86AA41840F100008C62C8625FF000007C
:100EF00001EB800313F1180353E8004F144443E857
:100F00000045002DF8D1401C0328F1DB30BD000066
:100F1000702900202DE9F04F85B015461C460A4681
:100F20000646DDE91010DDE90E733762C6E90341BC
:100F3000C6E901250246B37706F128001EF047FDF9
:100F40006648DFF89C91006A38B1006828B1B9F8AA
:100F5000980201281DD002281BD000208046002DB9
:100F60007ED0DFF880A128684FEA074BF0B3F7B3D3
:100F700010F0A4FEB8F1000F0ED05B4A2968914230
:100F800001D0514508D1B9F898125848022902D029
:100F900002E00120E2E75648B0FBFBF1491C07FBE9
:100FA00001F2B0FBF2F0491E69600021401EC5E964
:100FB00002102846296114F04BF84B4928688842F2
:100FC00001D050452DD14B4A904215D0B0F1804F01
:100FD00012D0494A90420FD088420DD047498842EA
:100FE0000AD0504508D04649884201E019E016E091
:100FF00002D04449884214D114216846FFF782FC8C
:101000005FEA080000D007200090002001906946A8
:10101000284614F010FD20B110F01EFC01E0002065
:10102000B060ECB12068D8B1F7B310F047FEB8F16A
:10103000000F0BD02C4A2168914201D0514505D1B7
:10104000B9F898122948022900D14010B0FBFBF1F1
:10105000491C4F43B0FBF7F0491E0025401E00E03D
:1010600038E06160C4E902502046256113F0F0FFCA
:101070001D492068884201D050452BD11D4A90421D
:1010800014D0B0F1804F11D01B4A90420ED088424C
:101090000CD01A49884209D0504507D018498842D7
:1010A00004D01849884200E012E013D114216846A8
:1010B000FFF728FC5FEA080000D00720CDE9000513
:1010C0006946204614F0B7FC20B110F0C5FB01E0E2
:1010D0000020F06005B00020BDE8F08F40A60020A1
:1010E000709F0020000401400008004000881300A9
:1010F00000C409000000014000040040000C004052
:10110000004001400018004038B1406828B1006834
:1011100018B18168C90703D018E04FF0FF3070475D
:10112000816841F0010181600B490C4A0968B1FBFB
:10113000F2F1102901D20F2105E0B1F5006F03D9BA
:1011400000BF40F2FE7100BF491EFCD2816841F42D
:10115000800181600020704738060020400D0300A8
:1011600030B54FF0FF33A0B14168096889B1002262
:101170004CF250340FE08D68ED070AD01546521C32
:10118000A54208D9086820F0080008606FF0010047
:1011900030BD184630BD0D686D07ECD5CA6B828234
:1011A0000A6CC2824A6C02838A6C4283086820F00F
:1011B0000C000860002030BD00BF704770B50446C9
:1011C000006A002871D02046FFF7F6FF61684FF4EF
:1011D000885009684860E068016801B9A068006A41
:1011E00005684348296821F018012960296821F021
:1011F0000101296000E000BF2968C90701D0401E35
:10120000F9D22868C00702D06FF0010070BDEFF37B
:10121000108672B63748A8602069E860E06A400826
:101220006860002104F128001EF0E6FC3248854287
:1012300007D131494FF474602039086039201CF01F
:10124000CAFC06B962B6A068016879B3002048629A
:10125000A16809680A6922F001020A61E168096867
:1012600041B14862E0680068016921F00101016153
:10127000E06800E0A0680068C16841F48071C16066
:1012800060680068816840F201121143816028683B
:1012900040F019002860A168184A0868904206D1F9
:1012A000016A41F4805101620EE01EE016E0144A2A
:1012B000904210D1016A41F001010162A06800680A
:1012C000416C41F400414164A0680068016841F04C
:1012D0000101016002E0084614F046F8E068006889
:1012E00018B1016841F001010160002070BD0000EB
:1012F000400D03004C2001402864024000080040DB
:101300000000014070B504004FF000051CD060687B
:10131000D0B10068C0B1A06800F052F8E06820B118
:10132000A168884201D000F04BF8606800688168CD
:10133000204A11408160616841B3E06838B10268B9
:101340002AB1006A58B902E04FF0FF3070BDA068C2
:1013500018B102680AB1006A08B9886BB0B10068B8
:10136000A0B11549026822F018020260026822F05A
:101370000102026000E000BF0268D20701D0491EEE
:10138000F9D20168C90702D06FF001050AE00B49E4
:10139000884207D109494FF4746020390860392028
:1013A0001CF019FC60680068016821F01E010160F2
:1013B000284670BDFEFEBFBF400D030028640240FA
:1013C00000281CD00168002919D0CA6822F4807254
:1013D000CA6001680A6822F001020A60084A0168CE
:1013E000914203D10A6A22F4805205E0054A9142F3
:1013F00003D10A6A22F001020A6214F031B8704780
:101400000008004000000140002903D00844401EAD
:10141000491E884370472DE9FF4F81B01F4615468E
:10142000040010D000F0D4F904F5887100910298FE
:1014300000F03CFC060009D0204601F025F93046BA
:1014400005B0BDE8F08F4FF0FF30F9E7D4F8100198
:10145000416B006B00F0C3FD00287ED0D4F8100172
:10146000C16B806B00F0BBFD002876D0D4F8100172
:10147000416C006C00F0B3FD00286ED0D4F8100170
:1014800000F0C5F9002869D0002D67D0874265D3E8
:1014900005EB07080027C4F80871D4F810112E4690
:1014A000B946886D60B34D6D2021FFF7ADFF07464B
:1014B000B54253D305EB070AC2454FD8D4F81011F3
:1014C000C86DFF2804D98A6DC96983188B4205D974
:1014D000204601F0D9F86FF00300B1E7D4F81811F5
:1014E00001EB000B11462846FFF7EAF9D4F810018A
:1014F0005946826D2846FFF722F9A81B0744554636
:10150000D4F81001406B90B12021FFF77DFF2844F3
:1015100040455CD8C4F8D850D4F810110546871B54
:101520004A6BC4F8DC20096BC4F8E01005E0C4F88D
:10153000D890C4F8DC90C4F8E090D4F81001C06BE7
:10154000A8B12021FFF760FF284440453FD8C4F8E8
:10155000FC50D4F81011CA6B01E03EE037E0C4F84B
:101560000021896B0546871BC4F8041105E0C4F807
:10157000FC90C4F80091C4F80491D4F81001406CB8
:1015800090B12021FFF740FF284440451FD8C4F800
:10159000F050D4F810110546871B4A6CC4F8F420AB
:1015A000096CC4F8F81005E0C4F8F090C4F8F490A1
:1015B000C4F8F890D4F8D80078B1D4F8F00060B14D
:1015C000D4F81001A8EB0506C06A86420BD220466B
:1015D00001F05AF86FF0040032E7204601F054F8A9
:1015E0006FF007002CE72021FFF70EFF00EB070844
:1015F00004F59670814600F047FA482104F5B07072
:10160000FFF780F9D4F81001476917F4706F03D120
:10161000029900F078FB07434FF00110C4E9580726
:10162000C4E95A56D4F8D800C4F87001D4F8DC00E4
:10163000C4F87401D4F8FC00C4F87801D4F80001AF
:10164000C4F87C01D4F8F000C4F88001D4F8F400A8
:10165000C4F80881C4F884014946009800F070FA83
:10166000050004D0204600F0B3F82846E8E6012043
:1016700060800020E4E600000548006805498842D3
:1016800002D00549884201D10120704700207047EF
:10169000F4360120494145434B4F4D532DE9F05F4E
:1016A000444A4FF000084FF0FF361368FFF7E4FF9D
:1016B00000287CD04048834201D1012700E0002768
:1016C0004FF0000B91461046C2F820B0C2F818B097
:1016D000C2F81CB052688568384C022A02D36FF0F9
:1016E000010055E06FF0040A102D10D807B175B154
:1016F0000121104600F0E6FED8BBD4F8D80040B176
:10170000D4F8F01029B1D4F8DC10A94204D2504624
:101710003EE04FF0FF303BE0FFF7D2F8F4E93C0148
:10172000FFF7CEF8E068F03C18B1D4F80011FFF7ED
:10173000C7F85FB11F48D4F8D810243004E000BFC8
:1017400010F8012B01F8012B6D1EF9D21B4801F096
:10175000B5F8060000D40020D4F8F480B8F1100FDA
:1017600001D94FF01008134942463431D4F8F03013
:1017700004E00DE013F8015B01F8015B521EF9D2A1
:10178000B8F1040F04D3D4F8F0100968C9F81C109C
:10179000C9F80C00C9F81060D4F80C01C9F814009D
:1017A000C9F818800648C9F82000C9F800B0BDE89B
:1017B000F09F0000F436012049414543A8BC0020B9
:1017C000434541490149086070470000F036012057
:1017D00010B504000ED06088012806D1D4F810019D
:1017E00018B104F5887000F02AF92046BDE81040D1
:1017F00000F04ABF10BD012805D0022802D00328FE
:1018000003D000207047042070470120704770B556
:10181000040019D02021606BFFF7F6FD054620215A
:10182000E06BFFF7F1FD05442021606CFFF7ECFD54
:1018300005442021A06DFFF7E7FD05442021E06A63
:10184000FFF7E2FD284470BD002070BD10B500F028
:10185000E3FCA8B90D480168491C13D1007D88B983
:101860000024204600F062F938B1D0E90010084B9E
:10187000084A59405040014304D0641C022CF0D364
:10188000002010BD4FF4803010BD0000E0020020A9
:10189000474D49413233454370B500B10120134CE7
:1018A0000025207560B100F0B7FC70B1104801F060
:1018B00032F80F48FFF78CFF25756FF0070012E034
:1018C0000B4801F028F8256104E02068401C05D091
:1018D00000F0C4FDBDE8704000F03ABF044801F0DC
:1018E0001AF86FF001002061F4E70000E002002028
:1018F000A8BC002030B5184CC1B00546022802D360
:101900006FF0010005E01548B0F85E0018B16FF007
:101910000700206105E06A46284600F030F92061A2
:1019200020B1284600F0D9FE41B030BD2068A84261
:1019300008D109484FF4807269461830FEF786FFD7
:1019400000F08CFD284600F0C8FE2068A842EBD1CC
:1019500000F0FEFEE8E70000E00200207029002011
:1019600070B50546144C4FF0FF3604F11800FF2DFA
:1019700003D0022D08D3700018E04FF48071266068
:10198000FEF7C0FF002005E00146284600F0FCFA03
:1019900040B126602061094800F0BDFF0748FFF70D
:1019A00017FF04E0217D284600F08CFD2061BDE892
:1019B000704000F0CDBE0000E0020020A8BC002076
:1019C00010B500F029FC00280ED0084800F0A3FF55
:1019D0000648FFF7FDFE06480168491C02D06FF07B
:1019E000070101610021017510BD0000A8BC0020A5
:1019F000E002002001F0010252420A4203D0FF2916
:101A000001D9814202D36FF0030070470020704774
:101A100030B5002A0FD0084C11F8013B5840002384
:101A2000C50702D084EA500000E040085B1C082B88
:101A3000F6D3521EF0D130BD2083B8ED704718B1F7
:101A40008069002802D000474FF0FF30704708B58A
:101A5000694600F05BF810B16FF0010008BD009816
:101A600003C80FF06DFF0028F8D06FF0050008BD27
:101A7000012805D0022802D0032803D00020704797
:101A8000042070470120704710B504000DD03421A8
:101A9000FEF738FF4FF0011020600120606003481E
:101AA000A0600348E0600348206110BDA92A030834
:101AB000BD2503083D1A020818B1012804D00020F2
:101AC00070474FF4805070474FF490507047002893
:101AD00009D0806811B1096901B10846012803D015
:101AE000022804D0002070474FF4807070474FF4F4
:101AF0000060704708B5694600F008F808B100209A
:101B000008BD009803C8081A401C08BD09B1022886
:101B100002D36FF001007047034A00EB400002EB74
:101B20008000086000207047EC1D040808B5694675
:101B3000FFF7ECFF08B1002008BD0098006808BD61
:101B400010B58EB0040004D02069002803D021B164
:101B500007E04FF0FF300EB010BD6846FFF794FF6E
:101B600069460868B0F1011F02D14868012802D017
:101B70006FF00700EFE7226908469047EBE72DE991
:101B8000F74FADF5427D0C46C0A9C298FFF7BEFFE6
:101B900000280DD1C2981CB9FFF78EFF04000BD0AE
:101BA0006946204614F09AFF6FF0020B38B1584690
:101BB0000DF5457DBDE8F08F6FF00100F8E74FF4BB
:101BC0008072694680A8FEF741FE80A8C29900F0A5
:101BD000E1F80028ECD1C298FFF739FF0028E7D1DF
:101BE000C098879E4FF0FF39D0F800A006F2FF1092
:101BF000470A00252EE045B16019694614F06EFFD2
:101C000018B1C09800F040F8D1E74FF40070864258
:101C100000D8304680461DB102466946484606E077
:101C2000B8F5807F06D9A8F58072484640A9FFF72D
:101C3000EFFE81464246694650460FF031FF28B11B
:101C4000C09800F021F86FF00500B1E7C244A6EBA0
:101C500008066D1CBD42CED393996FEA09008142FC
:101C600005D0C09800F010F86FF00600A0E7C49906
:101C7000C29800F089F9040004D0C09800F004F87C
:101C8000204695E7002093E71CB5002100910191C3
:101C900048B10068082269460FF002FF002801D011
:101CA0006FF005001CBD4FF0FF301CBD38B50C00B7
:101CB000054623D06946FFF729FF00281DD10021E2
:101CC000284600F061F9002817D100980168C4E99E
:101CD000001500980268A2604268E2600A6A0AB1D0
:101CE00003681A44226102684B6A1A446261896A75
:101CF00039B100680844A061002038BD4FF0FF30C2
:101D000038BD0020F7E738B50A46040004D069461C
:101D10001046FFF7FBFE08B1002038BDA08A10F482
:101D20007060FAD121460098FFF7D1FE38BD30B47B
:101D300050B149B142693AB10B68B3F1011F06D005
:101D40006FF0070030BC70474FF0FF30FAE78B6848
:101D50006FF00404CBB10068CB68C56AAB4214D302
:101D6000436B23B10D6985B14D699D420DD3C36BA2
:101D700023B18D694DB1CD699D4206D3406C30B120
:101D80000B6A13B14B6A834201D22046DAE730BCBA
:101D9000084610472DE9F04FC1B00D46040016D09B
:101DA00040A92846FFF7B2FE002812D14098724E93
:101DB000724BD0E90021891A01F10108D4E9002110
:101DC000724059406FF003090A4371D104E04FF0AB
:101DD000FF3041B0BDE8F08FA1686FF00706012920
:101DE00069D1E168B1F1011F65D1A16C012962D10E
:101DF000216911B18068814264D1207DC00757D02C
:101E000029462046FFF77FFF054621464098FFF709
:101E10005EFE4FF40067B84201D14FF460600542A6
:101E200050D0681E05424DD14FF4007B4FF4807AAC
:101E30005D4504D0B5F5806F01D0BD421ED1206B49
:101E4000FFF716FE98B3616B89B3B1FBF0F200FBAC
:101E5000121272BB5D4502D100EB400006E0B5F501
:101E6000806F09D0BD4209D100EBC000B1FBF0F298
:101E700000FB1210E8B906E0C000F7E7554502D1B3
:101E8000606E40283DD2E06B0028A06B12D0FFF7B7
:101E9000EFFD60B1E16BB1FBF0F200FB121232B961
:101EA000C000B1FBF0F200FB121010B905E002E037
:101EB00049E026E008B130468BE74099A0690968FF
:101EC000884202D06FF0010083E7E069FF2818D94B
:101ED000404516D8A16D0546B1B1294A636D1A4433
:101EE000B2F5703F2FD2E56DFF2D2CD985422AD255
:101EF0005A18934205D8234B9A4202D8294481426A
:101F000006D96FF0040064E7616DE1B9E16DD1B904
:101F1000616AFFF76FFD0028CED1606AA84212D235
:101F2000216A09B1A9420ED2A06A08B1A8420AD218
:101F300019B1E069FFF75EFD28B9A16A29B1E0692E
:101F4000FFF758FD08B1484643E75546524621463B
:101F50006846FEF77BFC002014902A466946401E26
:101F6000FFF756FD216DC043814202D06FF006009D
:101F70002FE700202DE70000474D4941323345430C
:101F8000804BFFDF80740420F8B50D460646694695
:101F9000FFF7BCFD002818D10098314604682046A0
:101FA000FFF7F8FE002810D10098E26901684FF0B1
:101FB000FF3001F58071A2F58072FFF729FDE16C19
:101FC000C043814202D06FF00600F8BD2DB14FF43E
:101FD000807221462846FEF739FC0020F8BD00B586
:101FE00051B100280AD0FFF706FC30B1B1FBF0F286
:101FF00000FB121008B902E008B1002000BD01206A
:1020000000BD000070B5040022D0FFF71FFC02469F
:10201000B0F5703F00D900224FF470300D4D0059DB
:102020000119E960C5E901120B481DF0D0FC0B480D
:10203000844207D1D5E9010108440949884201D801
:10204000012000E000206875BDE8704000F006BA8D
:1020500070BD0000E002002050BE002080B40020CF
:1020600080740420002903D00844401E491E884380
:10207000704700002DE9F04105002DD01948417D41
:1020800051B3D0E901400619A86D6FF0040750B1B3
:10209000696D08442021FFF7E5FF696DA1421ED359
:1020A000B0421CD804462021686BFFF7DBFF0444D4
:1020B0002021E86BFFF7D6FF04442021686CFFF76E
:1020C000D1FF04442021E86AFFF7CCFF2044B0424E
:1020D00005D80020BDE8F0816FF00700FAE7384628
:1020E000F8E70000E002002070B504462021FEF76A
:1020F000E7FB3048314D008820802F48C18961803E
:10210000018AA180418AE18001892181418961811F
:102110008189A1810188E181418821828088608252
:10212000D5F800034FF6FF71A0FB010140F6E44231
:102130005310C018002641F100013346FEF75AF94A
:102140001F4BA082E68293ED000A1E4910EE100A92
:102150009FED1D1ADFED1D0A4FF04742884202DD58
:10216000B0EE410A05E010EE100A904201D9B0EE3F
:10217000600ABDEEC00A10EE100A208393ED010A3A
:1021800010EE100A884202DDB0EE410A05E010EEC2
:10219000100A904201D9B0EE600ABDEEC00A10EEFE
:1021A000100A6083D5F8F802A083D5F8F802000C75
:1021B000E08370BDC801002038B0002090B9002035
:1021C0004006002000FEFF4600FEFF46000000C75C
:1021D0007FB50E4800240294406803904FF48C7140
:1021E0000B48FEF78FFB0A48651E0123056000942B
:1021F00003AA02A90748019400F0FAFA054800F082
:102200008AFB04480565C0F80C417FBD041E040824
:10221000E0020020A8BC00200448406820B1D0F8AB
:10222000C00008B1012070470020704790B900201D
:102230000AB1084402E000207047801A9042FCD2A4
:10224000704712B900207047891A9142FCD2884227
:1022500001D3401A7047081A101A70472DE9F05F31
:102260000C465FEA000A93464FF0FF3824D0104630
:10227000FFF7C1FA00B3B4FBF0F100FB1141D9B98B
:10228000B4FBF0F5DDB372B628498B68284887683F
:102290004A68466862B6896B71B1806B60B1402A4A
:1022A0000AD3402E08D32348006828B12248D0F82A
:1022B0001001446E402C02D34046BDE8F09F4021FF
:1022C0001846FFF7BEFF8146324640213846FFF7E9
:1022D000B8FF202C01D2154E00E0154E02D300BFEE
:1022E000A4F12004A04600D2484672684FEA851146
:1022F000A1F14001FFF7A5FF0746002412E013E01B
:1023000007EB4801304600F091F803B222465946E7
:10231000504600F03BF9726840213846FFF788FFCD
:102320000746641CAC42EBD30020C6E750B0002047
:1023300090B0002090B10020A8BC00202DE9FF4FF4
:1023400089B00024169D09989A460E46671E60B112
:10235000BAF1000F09D045B10B98FFF74CFA20B144
:10236000B6FBF0F100FB116119B138460DB0BDE8C4
:10237000F08FB6FBF0F62EB37019401EB0FBF5F9E6
:1023800072B629498868D1F804B062B6896B19B170
:102390005946BBF1200F16D26846FFF7A5FE6F46DF
:1023A0000EE000BFB4FBF5F005FB104122461AF821
:1023B00001000B9937F91030099800F0E7F8641C18
:1023C000B442EFD32DE00A462021FFF73AFF4FEA4F
:1023D00049115A462039FFF734FF009000201DE0D4
:1023E00000270FE01AF80700009901EB40010E48A2
:1023F00000F01CF803B222460B99099800F0C6F8C9
:10240000641C7F1CAF4201D2B442EBD35A46202158
:102410000098FFF70DFF009008F101008046484545
:10242000DED30020A2E7000010B1002010B520B1DB
:10243000826B12B14368022B01D2002010BD4368A9
:10244000B1FBF3F003FB1010411CB1FBF3F403FBF1
:102450001411105C515C40EA012010BD70B51748A2
:1024600000F059FA1548FFF7B3F9154C6FF007055E
:102470002068401C607D07D020B1A06810B1FFF734
:10248000CBFE28B1256170BD0028FBD00025F9E7FF
:102490000B481830FFF7EEFD28B9D4E9023207489F
:1024A0002168FEF7B8FF20610028ECD1207D0028CC
:1024B000E9D0BDE87040014800F026BAA8BC002071
:1024C000E00200202DE9F0470E4628498046894663
:1024D000FFF75AFD254C05004FF0FF37A4F1180413
:1024E00002D0276025612EE0C4F80080FFF794FE3B
:1024F0000546607D10B1A06800B185B11C4800F0B0
:102500000AFA1B48FFF764F96FF007002061002EFC
:1025100003D0002D01D000212175BDE8F087484689
:10252000FFF7A8FD206130B9D4E9023210482168D4
:10253000FEF771FF206105000DD04FF48071484611
:102540002760FEF7DFF90A4800F0E5F90848FFF7D1
:102550003FF92846E1E7064826B100F0D5F9012009
:102560002075F6E700F0D7F9F3E70000F802002045
:10257000A8BC0020002806D0002904D00A46014645
:1025800001480DF0C3BA704790B90020012906D068
:1025900002290DD0032901D1190A8154704700EE98
:1025A000103A00EB8200B8EEC00A80ED000A7047D6
:1025B00020F8123070470000F8B5314C4FF0FF3072
:1025C00005466188012935D1D4F81021002A31D07F
:1025D000D4F8D81000292DD0D4F8DC10002929D047
:1025E000D4F814111046D834FFF78DFB074674E871
:1025F0003601FEF765F90826B7F5807F09D0B7F5F3
:10260000007F0DD0B7F5806F15D0B7F5006F10D1F2
:1026100018E0D83494E80700D83CFFF71FFE06E026
:102620000320D834009094E80700164B11E0050011
:1026300013D02846F8BDD834009694E80700114B13
:10264000103306E00920D834009094E807000D4BC1
:102650001833D83CFFF772FEE9E7D4F8FC0068B104
:10266000D4F8001151B1FEF72BF9FC340096054B5C
:1026700094E807000833FFF761FEF8BD0020F8BDBD
:10268000A8BC0020041E040810B504461C2100F557
:102690008870FEF737F9342104F59670FEF732F9A9
:1026A000482104F5B070FEF72DF900209CB104F12B
:1026B0009802C4F8D82003214023C4E93731C4E983
:1026C0003E10C4F800015032C4F804010823C4F8D5
:1026D0000801C4E93C23608010BD70B5CAB006464D
:1026E00028216846FEF70EF93046FFF71FFA054627
:1026F0003046FFF7FFF904460AA93046FFF744FCCD
:1027000018B30021AD228DF800209B228DF8012006
:102710008DF802608DF803100394CDE9010549B1ED
:10272000119804900F9805901F980690159807909F
:1027300017980890DA208DF824008DF825002621BE
:102740006846FFF717FF4AB070BD0121DAE70000C5
:1027500010B588B020216846FEF7D4F82249002041
:102760004A7D02B101200A68531C01D040F00200EA
:102770000B7D0BB140F004001C4B1C78A40701D565
:1027800040F008005B88012B01D140F01000AD2320
:102790008DF8003099238DF801308DF80200022A5F
:1027A00001D2D0B200E0FF208DF80300086901904B
:1027B0004868029088680D49039001F18000D1F8C3
:1027C000DC100491406F05900848D0F80C01069089
:1027D000DA208DF81C008DF81D001E216846FFF7D9
:1027E000C9FE08B010BD0000E0020020A8BC002017
:1027F0002DE9F05F9B46DDE90A8615460F46040089
:102800004FF0FF3A58D0EFB3E5B3FEF7E1FF207881
:102810004FF00009C00706D0D4F8E40018B1FDF766
:10282000C2FDC4F8E490A4F800903888A0807888AD
:10283000E080288820816888608184F854B0A4F8FA
:10284000568000201EB1404501DA315C00E00021D5
:102850002218401C11744028F4DB2046FFF714FFB7
:10286000402204F1980104F158001DF0B0F8002056
:1028700049462218401C82F898104028F9DB0020B5
:10288000221800E018E0401C82F8E8100828F7DB66
:10289000A08840B1E28832B15043FDF755FDC4F83D
:1028A000E40048B101E0C4F8E410208840F00100E1
:1028B00020800020BDE8F09F5046FBE770B5040083
:1028C00002D02078800702D44FF0FF3070BD0D4E4B
:1028D00075686088012807D019F0D1FB7068401B2B
:1028E000C4F80C01206D70BD04F5B07104F588705A
:1028F000FFF71DFA7168491BC4F80C110028F2DBC0
:10290000206570BD001000E0002803D0018841F070
:10291000020101807047002803D0018821F00201E4
:10292000018070471FB5234C206808B1002000E0EB
:1029300001204FF48071CDE902101F4B4A00CDE910
:1029400000231E4A1E491F4807F0E2FE00B3002183
:10295000052007F005FE402116480BF0A3FB0122DD
:102960001146052007F0AAFC206B00B31649174852
:102970000123828BC06892B2CDE90202CDE9001337
:1029800013481449D0E909231348FEF7C3FA1FBDC1
:102990000121052007F0E4FD052007F0E5FB08F024
:1029A000C7F814220D49074808F000F8DCE70021B9
:1029B000DDE7000090B10020000402400C3001204F
:1029C000502B012018C200200071020038F70420AB
:1029D00040A60020082B012090C2002024B0002037
:1029E00070B5164D287818B11548B0F8980208B19E
:1029F000002070BD287918B919F0E6FF0028F8D03A
:102A000019F0E5FF0028F4D000242C702C710D483B
:102A1000022180F8F012A0F8124319F0F3FE08B179
:102A20000EF01AFF0CF02CF9074808A10A680261A1
:102A3000898881828475012070BD00009801002082
:102A4000709F002090B90020980200204345363442
:102A5000535F000070B5144D2878002803D0FFF7AD
:102A6000BFFF08B1002070BD10480024B0F89802E4
:102A7000012816D00E48012180F8F012A0F8124368
:102A800019F09CFE08B10EF0E7FE0CF0F9F80948C9
:102A900009A10A6802618988818284752C700120ED
:102AA00070BD2C70DEE7000098010020709F0020B0
:102AB00090B900209802002043453634585F00004A
:102AC00070B5002100B10170114AD2E90243A3425E
:102AD0001BD9B3F5004F18D9D56CA54215D3A3F572
:102AE00000439C4211D21A1B0FD02B1B934200D9DA
:102AF000134608B10124047064245008E3FB040168
:102B00000023FDF777FCC0B270BDFF2070BD000050
:102B1000702900202DE9F047334E6FF0020906F5C9
:102B20004055D5F8340230B1816B21B1096811B13B
:102B30000020BDE8F087EFF3108772B618B1806B04
:102B400008B10068C0BB29490868C00709D1D5F899
:102B50003002C268120604D4D5F8382212F4A03F1D
:102B600002D04FF0FF303BE0C26822F08002C2602A
:102B70001F48426922F0800242611E4C4FF0006003
:102B80004FF00008C4E9001040200101A060C4E932
:102B90000381C4F81480C4F81880C4F81C80C4F8F9
:102BA00020802046C4F824800FF058FC28B16FF034
:102BB0000100C4F8008013E00FE00F488463A063B5
:102BC000462010F069FD304608F093FED5F8340237
:102BD00028B1806B18B1006808B1002000E04846B9
:102BE000002FA6D162B6A4E7082D0020B8640240E9
:102BF000001001408C3401201C2F01202DE9F041F0
:102C00008046454886B00025016841F00201016018
:102C1000016801F002010591016841F004010160C1
:102C20000068142100F0040005906846FDF76AFE74
:102C30004FF4804401260094CDE90165374F694681
:102C4000384603950FF030FE6000CDE90006032002
:102C5000CDE90250694638460FF026FE0122214692
:102C600038460FF01CFF2E48006808B919F044FDE3
:102C70002C4CD4F8B40218B94FF49640C4F8B402FE
:102C800084F8B9522649284808F03DF8274806F04C
:102C900016F9274806F013F92548322225497A38D3
:102CA000FDF74DFDB8F1000F07D064200FF086FC52
:102CB0001D4806F099FBE0B121E018481830016882
:102CC00041F480410160B4F8B00220F00800A4F89B
:102CD000B00204F52C7400F03BFA208820F080004C
:102CE000208054F87C0C0EF019F8208840F0020087
:102CF000208010483038016841F0020101600E4820
:102D0000C16841F02001C160C16821F40051C16077
:102D100006B0BDE8F08100003038024000080240F3
:102D20001C2F0120085D0020082D0020A064002039
:102D30003C600020A8020020001001402DE9F04175
:102D40000FF0B2FE2A4D064605F54054D4F8340281
:102D500018B1806B08B1006858B9D4F83002C06867
:102D6000000606D4D4F8380210F4A03F01D1FFF7D2
:102D7000D1FE05F580500746D0F80C0918B9D4F8F3
:102D80003802C00309D5284608F0A4FBD4F838025D
:102D9000C00302D5284608F0FBFAD7F80C0920B981
:102DA000D4F8380210F4A03000D00120B4F8B012EA
:102DB000090700D418B1BDE8F04100F0D1B9B4F86A
:102DC000B002C00604D40B48406928B1301A03D5BC
:102DD000BDE8F04100F0BCB907480068002804D104
:102DE0000648016841F400410160BDE8F08100003F
:102DF000082D00201802002090B100201808024081
:102E0000F0B5144EADF5017D044602281EDA4FF4EC
:102E1000007739466D4601A8FDF774FD0E483A4625
:102E20008068009004F191008DF80100DA208DF89F
:102E300002028DF80302094800EB4421A81CFDF7AB
:102E40007EFC3A1D6946304600F00AF80DF5017D1A
:102E5000F0BD0000082D0020001C040890B50020E3
:102E60002DE9F04115460F465FEA00084FF00004D7
:102E700001D007B12DBB4FF0FF30BDE8F0812E1B14
:102E8000142E00D9142639193246404602F07DFC32
:102E900010B16FF00100F0E7404608F01BFB401C4A
:102EA00006D0404608F036FC28B16FF00300E4E796
:102EB0006FF00200E1E73444AC4202D232200FF05E
:102EC0007DFBAC42DBD30020D7E7000070B5224881
:102ED000204DADF5816D8179E1B14FF40076324638
:102EE0001E4981A8FDF7B2FC1D4CA068CDF8040472
:102EF000218A41B10DF20442204604F02AFC10B1AF
:102F0000A068CDF80404E168DDF80404814206D924
:102F1000081A05E00121C1710DF5816D70BD002019
:102F2000C59031466C4601A8FDF7ECFC0D483246D1
:102F300081A940680090DA208DF802028DF8030222
:102F4000A01CFDF7FCFB4FF4017269462846FFF711
:102F500087FFE1E7082D00209801002090B10020B4
:102F600070290020001C04082DE9F0413D4800684C
:102F70003C49091D0968C0F3015101EB8101C0F30F
:102F8000034202EB4103C0F3023101EB8101C0F3C4
:102F9000032202EB4101C0F3021202EB820200F0B5
:102FA0000F0000EB42004FF4616213FB02F2C1EB31
:102FB000011102EB81010C182B48D0F8DC022C4DDA
:102FC00010F0020F29484FF0010100F1800602D0F5
:102FD00080F8211043E090F82120002AF8D0306BCF
:102FE000201A2844B0FBF5F105FB11004AF6C00198
:102FF000884232D21F48B0F8B012C9062DD4B0F8BA
:10300000B01240F60842114227D1D0F8381211F41C
:10301000844F22D1A0F50051D1F80C1900291CD100
:10302000D0F82412002918D1D0F88C17002914D117
:10303000D0F8F00B002810D10F4807460CF0BAFB6F
:103040000A2239460D4806F013FB40B114F1010481
:10305000B4FBF5F005FB10403063BDE8F0810C34A3
:10306000F6E700000028004090B9002098010020F9
:1030700080510100085D002006600020082D00201E
:103080000848D0F85C0100B90748D0F81011074A89
:10309000B1FBF2F20649A1F89E220089A1F8A20232
:1030A000704700007029002090B1002080841E002D
:1030B000085D002070B50E4604000DD004F54055A3
:1030C000D5F8340240B1006830B1204608F022FB48
:1030D00028B16FF0010070BD4FF0FF3070BD04F5F6
:1030E0008054D4F80C0920B9D5F8380217490842A1
:1030F00002D06FF0020070BDD5F8340258B1806B79
:1031000048B1006838B1416811B90068C00702D001
:103110006FF0030070BD0FF0C7FC044609E000BF6C
:103120000FF0C2FC001B142802D36FF0040070BD26
:1031300000BFD5F83402006800684006F0D516B12B
:1031400030460FF03BFA002070BD00002040010027
:103150000248016841F000410160704718080240D0
:1031600010B5FFF7F5FF0FF09FFC024932304861C0
:1031700010BD00001802002010B5044600F016F83B
:10318000002C12D0002810D0017B890702D541699C
:1031900001B12181017B490701D581696160017B12
:1031A000090702D5C069C4F8A40010BD10B50748CE
:1031B000074C084BD0E90021624059400A4302D134
:1031C0008168012900D0002010BD000000C0000867
:1031D00047464344323345430C4808B5016841F043
:1031E00080510160006800F08050009010F0CAFA31
:1031F000074A1021074810F0F6FF01221121054867
:1032000010F0F1FF10F0B2FA002008BD4038024083
:1032100007B032CEA42B01200A48416E826F01EB29
:10322000410189088A4204D3816F426ED2439142A0
:1032300006D30089012803D1012102481CF018BBE4
:103240007047000038C300207FB505460C460820B3
:1032500006F08AFF00F048F813480822CDE9000282
:103260002021CDE9020123462A461049104802F0E8
:10327000B9FD78B10021082007F072F9012211464A
:10328000082007F01BF80A4802F012FD4FF0FF304B
:1032900004B070BD0121082007F062F9082006F093
:1032A00063FF0020F4E7000000040240742C0120BA
:1032B00038C30020094810B5C06A4FF0FF3440B150
:1032C000074881698068FFF7BFFF002800D02046CB
:1032D00010BD044802F0ECFCF9E7000090B10020BA
:1032E00038F7042038C3002018F012BD2DE9F04152
:1032F0001CF0E6FA00252C4A2C462846D2F8042079
:1033000029469C2600EBC00306EB8303D3585D19C6
:103310004C41401C0628F5DB2846214600F050F8B9
:10332000074606F017FF02462048214B00785B1B3A
:10333000C0F340010020A04101D2012300E000239E
:103340001C48C66A06B901B105271B4E356074607A
:10335000B7600468F460C46A3461046B7461C06A65
:1033600000B1012040EA410040EA8300002A0AD06F
:103370004FF0000140EAC100F06107D14FF00000BA
:1033800019F0F6FC05E04FF00101F3E7384619F0BB
:103390003DFC19F0D7FD09480068B0610DF02AF82E
:1033A0000020BDE8F081000090B90020A8BC0020FA
:1033B0000068420090B10020A8A700203806002035
:1033C000124B00221B1A8A4101D300207047104B78
:1033D00000221B1A8A4101D3012070470D4B0022A5
:1033E0001B1A8A4101D3022070470B4B00221B1A83
:1033F0008A4101D303207047084B0022181A8A41E2
:1034000001D304207047052070470000A2170F0069
:10341000831F14001F2C1C00073F28008B5E3C00FC
:1034200010B504462DED028B403091ED000A0DF0F1
:103430007BFDB0EE408A84ED008A04F562700DF0E9
:1034400073FDA06A012820D0F0EE408A41F2387165
:10345000B0EE680A60180DF067FD84ED010A84ED96
:10346000048AC4ED058A002104F5D4500DF01AFE3B
:1034700041F6A820005DC0070AD0BDEC028B2046B3
:10348000BDE81040002100F003BEF0EEC08ADDE789
:10349000BDEC028B10BD704770B504462DED028B5C
:1034A0000D4691ED000A40300DF03EFD606A0128A6
:1034B00001D1B0EEC00A41F2F031F0EE408A60185E
:1034C0000DF032FD84ED000A95ED010A04F56270FD
:1034D0000DF02AFDA06A012834D0B0EE408A00BF6A
:1034E00041F23871B0EE480A60180DF01DFD84ED10
:1034F000010AC4ED048A84ED058A94ED000A0021D6
:1035000004F5D4500DF0CEFD41F6BC2094ED010A37
:10351000012120440DF0C6FD04F5805595F8A80A58
:10352000C00703D00021204600F0B2FD95F8E40A60
:10353000C0070AD0BDEC028B2046BDE870400121D7
:1035400000F0A6BDB0EEC08ACAE7BDEC028B70BD2C
:103550002DE9F04704462DED0A8B0D46403091EDE4
:10356000000A0DF0E1FC41F2F030F0EE408A204418
:103570000DF0DAFCB0EE409A95ED010A04F56270A8
:103580000DF0D2FC41F23870B0EE408A20440DF0CC
:10359000CBFC69EE090AF0EE409A48EEA80A10EE5C
:1035A000900A1DF0CBFF41EC100B1BF0C5FC51EC59
:1035B000100B1DF0DFF869EEA90A206048EE080A3A
:1035C00010EE900A1DF0BAFF41EC100B1BF0B4FC9A
:1035D00051EC100B1DF0CEF86060C4ED048A84ED50
:1035E000058A94ED000A002104F5D4500DF05AFD2F
:1035F00041F6BC2294ED010A0121A0180DF052FD04
:1036000004F58057002697F8A80AC00700D00126C5
:1036100018EE900A1DF092FF41EC1A0B19EE100AF9
:103620001DF08CFF41EC100BB0EE4A1AF0EE6A1A56
:103630001AF07EFC51EC100B1DF09CF809EE100AFC
:10364000E06A594D4FF0010890ED5D0AD0ED618AB6
:10365000B4EEC09AF1EE10FA02DA0026C5F808803E
:103660009FED52AB9FED53BBF4EEC08AF1EE10FA22
:1036700021D218EE900A1DF061FF53EC1A2B1DF0B9
:10368000ABF81DF077F808EE900AA86840001DF02E
:1036900058FB53EC1B2B1DF001FC41EC1C0B19EEED
:1036A000100A1DF04BFF53EC1C2B1DF095F81DF07C
:1036B00061F809EE100A4FF00009B4EEE89AF1EE55
:1036C00010FA03DB002000F0F3FC06E02EB100212D
:1036D000204600F0DDFCC5F8089097F8E40A0026C3
:1036E000C00700D0012618EE100A1DF027FF41EC9C
:1036F000180B19EE900A1DF021FF41EC100BB0EEF3
:10370000481AF0EE681A1AF013FC51EC100B1DF079
:1037100031F808EE900AE06A90ED5D0A90ED618A5A
:10372000F4EEC08AF1EE10FA02DA0026C5F80C8039
:10373000B4EEC08AF1EE10FA21D218EE100A1DF094
:10374000FDFE53EC1A2B1DF047F81DF013F808EEA0
:10375000100AE86840001DF0F4FA53EC1B2B1DF032
:103760009DFB41EC190B18EE900A1DF0E7FE53EC9F
:10377000192B1DF031F81CF0FDFF08EE900AF4EE55
:10378000C88AF1EE10FA06DB012000F091FCBDECD6
:103790000A8BBDE8F087002EF9D00121204600F009
:1037A00077FCC5F80C90F2E700000020112D44547E
:1037B000FB211940112D4454FB21094070B50446EA
:1037C0002DED028B0D4691ED000A40300DF0ACFB63
:1037D000606A012801D1B0EEC00A41F2F031F0EE8A
:1037E000408A60180DF0A0FB84ED000A95ED010AF7
:1037F00004F562700DF098FBA06A012830D0B0EE9D
:10380000408A00BF41F23871B0EE480A60180DF0EE
:103810008BFB84ED010AC4ED048A84ED058A94EDE6
:10382000000A002104F5D4500DF03CFC41F6BC2008
:1038300094ED010A012120440DF034FC04F5805080
:1038400090F8A81AC9070ED090F8E40AC0070AD069
:10385000BDEC028B2046BDE87040002100F018BC92
:10386000B0EEC08ACEE7BDEC028B70BD2DE9F05FF3
:1038700004462DED028B00F58059C162002004F54D
:103880000056C9F8F82A9FED3A8A93468846A6F86A
:103890002C030546824600BF04EB4507F88B20F455
:1038A0000060F883A08B052809D90BEB4520D0F8E0
:1038B00084100A2903D250F8841F18310160284669
:1038C00000F0F4FB2946204600F0D2F929462046B4
:1038D00000F054F804EB8501012007F58057486299
:1038E000A7F818AFA7F81CAFB6F82411C01EA8405F
:1038F0000140A6F82411B6F828110140A6F82811B5
:10390000002004EB052100BF01EB800202F500520C
:10391000401C82ED4B8A4028F6DB6D1C022DBBDB80
:10392000E06A90F840016083D8F87021D8F86C11F3
:10393000204600F017FAC4F82C80D8F8A400A08321
:10394000A4F822A0AD2189F8201FAE2189F8211FFB
:10395000DA2086F8220186F823010648E06306484B
:103960000068BDEC028BBDE8F05FFCF7ABBE000069
:103970000000000085410208282800402DE9F84396
:1039800006460F46C06A40F2E24108B1406B00B9FA
:10399000084680B2B0FBF1F1C7EB0710C0EBC000E6
:1039A00006EBC00505F5DA6005F5566404294AD032
:1039B00004DC012972D002292FD15AE0082915D040
:1039C00010292AD1DFF80081032308F14802A2F16F
:1039D0002401CDF800800DF0F7FA08F148022046E6
:1039E0000323A2F12401CDF8008014E0DFF8D88091
:1039F000032308F16C0808F14802A2F12401CDF874
:103A000000800DF0E1FA08F1480220460323A2F1FC
:103A10002401CDF800800DF0D7FA41F6F820805946
:103A200000EB472241F2F030291805F1400007F081
:103A300085FFC7EB071006EB8000BDE8F84300F5F3
:103A4000D4500DF0F7BADFF88080032308F1D808CE
:103A500008F14802A2F12401CDF800800DF0B4FA7B
:103A600008F1480220460323A2F12401CDF800808A
:103A7000D1E7DFF858800323A8F1FC0202F590712A
:103A8000CDF800800DF0A0FAA8F1FC022046032337
:103A900002F59071CDF80080BDE7FFE7DFF82C80DC
:103AA000032308F1480808F14802A2F12401CDF8E7
:103AB00000800DF089FA08F1480220460323A2F1A4
:103AC0002401CDF80080A6E7F81704083C19040883
:103AD0002DE9FC4789460446002500F5805600BFC5
:103AE00004EB8508D6F8F80AD8F8303000EB45200A
:103AF00001AA49469847C5EB0510C0EBC00004EB8E
:103B0000C00000F5DA6007469DED010A0DF00CFAE1
:103B100088ED020AD6F8F80A6A4600EB45204946C5
:103B20000DF02FF938469DED000A0DF0FDF96D1CE2
:103B30008DED000A022DD3DB208B618B884227D1CB
:103B400000202083014604F5005000BF04EB012251
:103B5000B0F82C339DED000A02EB830202F500520F
:103B6000491C82ED4B0A0229F0DB90F82C13491C0A
:103B700001F03F01A0F82C1304F10801A26B0D46DF
:103B800020469047E26B294620469047BDE8FC87D7
:103B9000401C2083FAE710B500F5D8510446D1E95E
:103BA0000223521E43F1FF33C1E90223D14371EADC
:103BB000030107D100F008F82046BDE810400021BD
:103BC00000F066BA10BD00002DE9F04100252DED92
:103BD000028BC16A09B1496B09B940F2E2418FB267
:103BE00000F5D854FCF776FB00EE100ADFED170A5B
:103BF000D4E90060B8EEC00A801B60EE200A00EE37
:103C0000100AB8EE400A20EE800A10EE100A1DF0ED
:103C10004DFD36184D4138461DF0AAF89FED0C1B9E
:103C200053EC112B1CF094FE41EC180B3046294646
:103C30001DF0B2F853EC182B1DF030F91DF0FAFC12
:103C4000C4E90201BDEC028BBDE8F0810000003048
:103C5000000000000000244004498A8E22F48052B3
:103C600042F400528A860AF06BBC000098010020E2
:103C70002DE9F043C56A85B00E4604464FF00009B1
:103C80000DB1686B08B940F2E2401FFA80F841F6C6
:103C9000F820678B005900EB462104EB860030309A
:103CA0000DF09CF805EB860006F0FF0CD0F8E8302C
:103CB000D0F8D82050F8A81F0DF1040E8EE80E1091
:103CC0000169009190ED160A016C016B01680069B1
:103CD000D5F8FC30D5F8F820C6EB061004EB8000D0
:103CE000414600F5D4500DF0ABF931462046FFF7C0
:103CF00045FEE06AD0F8A40080B2A0836783A4F8F0
:103D00001890082809D2DFE800F004060F111315F7
:103D100017190B4800E00B48A0630B48006805B07A
:103D2000BDE8F043FCF7CEBC0848F5E70848F3E7E8
:103D30000848F1E70848EFE70848EDE70848EBE7EF
:103D400097340208A93D0208282800409934020847
:103D500021340208BD370208973B02080D3E0208D5
:103D60005135020800F5805303F5306306C3FFF7B1
:103D70002BBF000030B442F22412002311521A4625
:103D80005FF0010505FA02F40C4200D00123521C39
:103D9000022AF7DB1BB10349C16330BC704730BC5A
:103DA00000F0CEB9B940020810B504462DED028BE3
:103DB000403091ED000A0DF0B7F8606A01281ED07E
:103DC000B0EE408A41F2F031B0EE480A60180DF0D2
:103DD000ABF884ED000A84ED048A002104F5D45088
:103DE0000DF060F941F6A820005DC0070AD0BDECD7
:103DF000028B2046BDE81040002100F049B9B0EE2A
:103E0000C08ADFE7BDEC028B10BD000070B5044630
:103E10002DED068B403091ED000A0DF085F841F252
:103E2000F030B0EE408A20440DF07EF8B0EE409ABB
:103E300069EE090A48EE080A10EE900A1DF07EFBB2
:103E400041EC100B1BF078F851EC100B1CF092FCBD
:103E5000206084ED048A18EE100A1DF06FFB41EC1F
:103E60001A0B19EE100A1DF069FB41EC100BB0EEB5
:103E70004A1AF0EE6A1A1AF05BF851EC100B1CF0BB
:103E800079FC08EE900A18EE100A1DF057FB41EC81
:103E90001A0B19EE100A1DF051FB41EC100BB0EE9D
:103EA0004A1AF0EE6A1A1AF043F89FED311B51ECF2
:103EB000100B53EC112B1CF04BFD9FED2F9B53EC83
:103EC000192B1CF0EBFF53EC192B1CF085FC1CF09C
:103ED00051FC6060606194ED000A002104F5D4504B
:103EE0000DF0E0F841F6A8200025005DC00700D0E5
:103EF0000125E06A90ED5D9A90ED618AB4EEC98A81
:103F0000F1EE10FA0DD218EE100A1DF017FB9FED1E
:103F10001C1B53EC112B1CF05FFC1CF02BFC08EE5F
:103F2000100A194E35B1F4EEC98AF1EE10FA01DB30
:103F3000C6ED018AD6ED010AB0EE680A1CF0AEFBB0
:103F4000B4EEC80A86ED010AF1EE10FA05DB002096
:103F500000F0AEF8BDEC068B70BD002DFAD0BDECC4
:103F6000068B20460021BDE8704000F091B80000AB
:103F7000112D4454FB21094000000000004CCD40AD
:103F8000112D4454FB2119400000002010B5838BF3
:103F900000F5D45141F6BC244FF400622044082BB4
:103FA00006D2DFE803F005040606060404068A626A
:103FB00010BD8A62826210BD0348818E21F40051D7
:103FC00041F48051818670479801002070B52B4CD8
:103FD0000500208E02D0012D06D102E040F0010044
:103FE00001E040F0040020862548D0F8A000012818
:103FF0003ED10EF059FD234B002153F82520861A9F
:1040000071EB01060E4606D2821A66EB0101521EC2
:1040100041F1000102E0821A66EB010143F825003C
:104020000A2300209A1A884122D217484188012980
:104030000DD1007880070AD5FEF7BEFA18B91248EC
:10404000FEF73CFC18B1208E40F400600FE0208E9B
:1040500020F4006020860120A840C1B20B480BF07C
:10406000CBF835B1012D03D1208E40F00800208619
:1040700070BD208E40F00200F9E70000980100209A
:1040800090B1002098020020A8BC0020706F002092
:1040900010B500F500500123B0F826218B401A43DB
:1040A000A0F826210846FFF791FF10BD00BF70471A
:1040B00000BF704700BF704730B51F4900F5805200
:1040C0000C88B2F8183F641CA4B20C80022C32D1C8
:1040D00000240C8090ED020A00EB430404F58054A8
:1040E000BDEEC00A10EE101AA4F8181B00F500511E
:1040F00091F82641E4071AD0B2F81C4F651CA2F8CB
:104100001C5F802C13D3B1F8264124F00104A1F8E0
:104110002641B1F8244124F00104A1F82441074CC0
:10412000C463B1F8280140F00100A1F828015B1C2C
:10413000D8B2A2F8180F30BD000000208541020857
:1041400070B50F490022C1631346951E00F500515A
:1041500000EB420404F58054A4F8183FA4F81C3F77
:10416000B1F8246105FA02F42640A1F82461B1F8FF
:104170002861521C2640A1F82861022AE8DB70BDA4
:104180008541020800BF70472DE9F04100F5005558
:10419000044695F828010026012710F0010F2BD0C6
:1041A00004F580510022B1F8180FA1F8182FA1F8DA
:1041B0001C2F114604EB462202EB400304EB410C9A
:1041C00003F580530CF5805C401CB3F8183B491C88
:1041D000ACF8223FC0B2FF29EEDD4FF4017204F5C6
:1041E000F951304600F00CF8B5F82801B740B84353
:1041F000A5F828010148E063BDE8F081B940020854
:10420000084810B5D0F8DC0200F00200401C07D0CE
:10421000054807F029F8BDE81040034807F05AB9EF
:1042200010BD000090B90020082D00202DE9F04FAE
:10423000FB48DFF8F4B3FD4F2DED088BADF5137D92
:10424000F6EE008A8690F74800F5C0599FEDF88A8F
:104250009FEDF89AF84E00F5DA6A00F58058B4E25E
:104260000EF022FCF54DC5F8E802849C20788A28DF
:1042700075D04CDC312873D024DC142871D010DCCC
:104280000528ECD006DC01286CD002286BD003286E
:10429000E5D1EDE0112867D0122877D01328DED1C0
:1042A0006BE1212873D006DC152871D01828D6D0F0
:1042B0002028D4D1CCE122286BD023286AD0302802
:1042C000CDD180E251287DD010DC41287BD006DCA6
:1042D000322879D0332878D04028C0D1B9E242289A
:1042E00074D0432873D05028B9D1F6E281286FD01A
:1042F00006DC60286DD061286CD08028AFD10CE33B
:10430000822868D0842867D08928A8D183E39E2892
:104310007BD017DCA0F18C001228A0D2DFE810F0CF
:10432000F903330455020A05C305C605C805CC05C3
:104330001A0627062F0644064D065606550259064C
:1043400055026806B8287DD016DCAB287BD00CDC83
:104350009F2884D0A02877D0A12899D1FDE3A5E398
:1043600034E21BE11EE051E0B1E0AC286DD0AD2895
:104370006CD0AE288CD1F1E3F12868D00BDCBA28E0
:1043800066D0BB2871D0F02889D1E8E3E5E07EE172
:1043900025E1A1E1DAE1F22868D0F32867D0F4281A
