:020000040800F2
:10000000780C0020B5020008BD020008BF020008FD
:10001000C1020008C3020008C50200080000000079
:10002000000000000000000000000000C7020008FF
:10003000C902000800000000CB020008CD02000841
:10004000CF020008CF020008CF020008CF0200084C
:10005000CF020008CF020008CF020008CF0200083C
:10006000CF020008CF020008CF020008CF0200082C
:10007000CF020008CF020008CF020008CF0200081C
:10008000CF020008CF020008CF020008CF0200080C
:10009000CF020008CF020008CF020008CF020008FC
:1000A000CF020008CF020008CF020008CF020008EC
:1000B000CF020008CF020008CF020008CF020008DC
:1000C000CF020008CF020008CF020008CF020008CC
:1000D000CF020008CF020008CF020008CF020008BC
:1000E000CF020008CF020008CF020008CF020008AC
:1000F000CF020008CF020008CF020008CF0200089C
:10010000CF020008CF020008CF020008CF0200088B
:10011000CF020008CF020008CF020008CF0200087B
:10012000CF020008CF020008CF020008CF0200086B
:10013000CF020008CF020008CF020008CF0200085B
:10014000CF020008CF020008CF020008CF0200084B
:10015000CF020008CF020008CF020008CF0200083B
:10016000CF020008CF020008CF020008CF0200082B
:10017000CF020008CF0200080000000000000000CD
:10018000CF020008CF020008CF020008CF0200080B
:10019000CF020008CF02000800000000CF020008D4
:1001A000CF020008CF02000800000000000000009D
:1001B000CF0200080000000000000000CF0200088D
:1001C000CF020008CF020008CF020008CF020008CB
:1001D000CF020008CF02000800F002F800F052F849
:1001E00014A696E8000CB244B344DA4501D100F0FD
:1001F00049F8BAE80F000FA696E83000A5EB040511
:1002000004EB0607AAEB0704A7F101074FEA15154F
:100210004FEA3414A4F10104AC4201D300F032F8E7
:1002200013F0010F18BFFB1A43F0010300F001F8AF
:10023000DBE71847401A0000701A0000103A24BF8C
:1002400078C878C1FAD8520724BF30C830C144BF3B
:1002500004680C6070470000704700000023002411
:1002600000250026103A28BF78C1FBD8520728BFC6
:1002700030C148BF0B6070471FB501F0EDFC1FBDDA
:1002800010B510BD00F060F81146FFF7F5FF01F062
:100290007BFC00F07EF803B4FFF7F2FF03BC00F034
:1002A00085F8000080F3088862B6084780F3088864
:1002B00062B608470948804709480047FEE7FEE75D
:1002C000FEE7FEE7FEE7FEE7FEE7FEE7FEE7FEE706
:1002D00004480549054A064B70470000791B000891
:1002E000D901000878040020780C0020780800204C
:1002F000780800204FF0000200B513469446964659
:10030000203922BFA0E80C50A0E80C50B1F1200128
:10031000BFF4F7AF090728BFA0E80C5048BF0CC0D6
:100320005DF804EB890028BF40F8042B08BF704734
:1003300048BF20F8022B11F0804F18BF00F8012BA6
:100340007047704770477047754600F02BF8AE460F
:1003500005006946534620F00700854618B020B5D1
:10036000FFF7B6FFBDE820404FF000064FF0000752
:100370004FF000084FF0000BAC46ACE8C009ACE809
:10038000C009ACE8C009ACE8C00921F007018D46FE
:10039000704710B50446AFF300802046BDE810401A
:1003A000FFF779BF00487047180400200149182062
:1003B000ABBEFEE726000200704740F2950CC2F289
:1003C000000C604740F2490CC2F2000C604740F25A
:1003D0002F0CC2F2000C604740F2870CC2F2000CF6
:1003E000604740F2DB0CC2F2000C604740F24D1C4B
:1003F000C2F2000C604708B500218DF80010694674
:1004000000F0EAFC20B19DF8000008B1012008BD11
:10041000002008BD30B5A1B004461E4D80216846BD
:10042000FFF768FF94B3E07880B31C491A48CDE920
:100430000001032002908020039019480490607806
:10044000059001200690284600F01AF920B1A8690D
:10045000411C01D0401C06901248079008200890CB
:100460002079A17840EA012014907C21684601F0AF
:100470007BF91F90FFF7A1FF40B1684600F0D4F967
:1004800020B1284600F0FCF821B030BDFFE7002085
:10049000FAE7000000000108434536344D4E46336C
:1004A000494E5354000002080C48016841F0805145
:1004B0000160BFF34F8F0A48016841F48071016009
:1004C000BFF34F8F074A00211160121D1160BFF367
:1004D0004F8F016821F480710160704740380240FD
:1004E000007000409028004010B5040013D00B4964
:1004F000206988420FD1204600F0C2F858B1FFF7BA
:100500005CFF40B1204600F08FF920B1BDE81040FB
:10051000034800F0B5B8002010BD000056414C441F
:1005200000000108134C00F0DBF800F03BFA00F08B
:10053000FFF91148016841F480410160BFF34F8F1A
:100540000E48016821F003010160016841F00101DA
:1005500001600B480460002080F31488BFF36F8FA4
:10056000BFF34F8FBFF36F8FD4E90001FFF79AFEFF
:1005700030BFFDE70000FF1F443802400038014053
:1005800008ED00E070B50446154D00F079F820B391
:1005900014492069884220D1A16A286881421CD16F
:1005A000E36A6A68934218D1A0F10051B1F5A02F17
:1005B00013D8400711D1216A22F001004B19D2074C
:1005C0000BD0A84209D3984207D2284601F0CCF8B4
:1005D000616A884201D1012070BD002070BD000019
:1005E0000000020856414C4408B5694600F0F4FB8F
:1005F00008BD0000044600F0D5F900F099F90A4959
:1006000008480860002080F31488BFF36F8FBFF3A1
:100610004F8FBFF36F8FD4E90A01FFF743FE30BF5E
:10062000FDE700000000020808ED00E03CB50324EF
:100630008DF80040B02403468DF8014032248DF837
:1006400002408DF80430CE248DF805108DF8062078
:10065000FF208DF8034000226C460723A15C484030
:100660000021050602D583EA400000E04000491C55
:10067000C0B20829F5D3521C072AEFD33CBD0000B5
:1006800010B5040024D0D4E90010124B124A59408E
:10069000504001431CD1A068032819D1E06880288C
:1006A00016D16069A0B1A06990B10C49E069884297
:1006B0000ED1206A08280BD3B0F5901F08D87C21F2
:1006C000204601F051F8E16F814201D1012010BDB7
:1006D000002010BD434536344D4E4633000002081D
:1006E000194808B5016841F007010160BFF34F8F59
:1006F000174816498161174A4FEAB1111160164A2D
:100700004FF4404111600168144A1140144A1143EA
:100710000160104918390868124A10400B4A0C321F
:10072000104308600C491839086820F0704040F008
:10073000A0400860002000900B4800BF0099491CB1
:1007400000918142F9D308BD303802400400000115
:10075000000002401804024018080240CFFFFCFFCE
:1007600010000100CFFFFFFC007102002DE9F047EF
:1007700016465FEA01080CD05EB1B0F5901F08D8AC
:10078000C0F59011B14204D3254900EB010980075F
:1007900002D00020BDE8F087FFF714FE0028F9D052
:1007A000DFF880A0DAF8000040F27F32904340F298
:1007B00001221043CAF80000002525E000204FF078
:1007C000FF34FF230AE0C10003FA01F718F8022002
:1007D000BC438A401443401C042802D22A18B24267
:1007E000F1D309EB05073C60FFF7F1FD10B1386864
:1007F000A04208D0DAF8001021F00101CAF8001078
:10080000FFF7EAFDC5E72D1DB542D7D3DAF8001092
:1008100021F00101CAF80010FFF7DEFD0120B9E761
:1008200000000208103C02402DE9F04105461C4E34
:100830002027FFF7C7FD002822D0DFF86880D8F80E
:10084000000040F27F32904340F201221043C8F88A
:100850000000002455F8240046F82400FFF7B7FDF7
:1008600028B156F8240055F8241088420AD0D8F848
:10087000001021F00101C8F80010FFF7ADFD0020C5
:10088000BDE8F081641CBC42E4D3D8F8001021F02C
:100890000101C8F80010FFF79FFD0120F0E70000FC
:1008A00000000108103C0240F0B5040013D00026FF
:1008B000267001256570A6701B48E67026710168D8
:1008C000001D0068194A914201D1012805D0174A3C
:1008D000121F914206D00020F0BD03202070E57069
:1008E00025711EE0C3B2C0F307212370C0F3074295
:1008F0006170070EA2701846FFF798FEB8420DD13E
:100900002078012803D002280AD0032806D1607875
:10091000012805D0022803D0032801D02670DAE789
:10092000E5700120F0BD00009028004007B032CEF5
:10093000194A10B517491368084643F001031360BC
:1009400000E0401E13689B0701D40028F9D112482B
:10095000083003684FF6F344A343036000E0491EE8
:10096000036813F00C0F01D00029F8D110680B496F
:100970000840106008490A48091D0860064900201F
:100980000C31086004483030016821F48051016066
:1009900010BD0000006A180000380240FFFFF6FE9C
:1009A0001030002472B600204FF0E0210861486149
:1009B00088610A494FF0206008600020421E8100D3
:1009C00001F1E021C1F88021C1F88022401C0828F3
:1009D000F5D3BFF34F8FBFF36F8F704704ED00E087
:1009E0003FB581B080230A9D0091294A0021084625
:1009F0005054491C9942FBD3254C27492548C4E94A
:100A000000010320A0608020E060244820610120D4
:100A100060610398A0612248E06101982062099812
:100A20006062284600F032FEA062281D00F02EFE13
:100A3000E0620898042240F00100206503A904F157
:100A4000300000F095F8042204A904F1340000F00D
:100A50008FF8042201A904F1380000F089F804227B
:100A6000694604F13C0000F083F8042209A904F16E
:100A7000400000F07DF8042208A904F1440000F0D1
:100A800077F87C21204600F06FFEE06705B030BDAE
:100A900098030020434536344D4E463356414C446E
:100AA000000002082DE9F84F1D46DDE90A690C9F98
:100AB00092460C468046D7B306B1C5B300F0A2F803
:100AC000A8B32A494FF48020886148F04000694665
:100AD00000F0A4F850B3200E694600F09FF828B348
:100AE0006946C4F3074000F099F8F8B16946C4F3C9
:100AF000072000F093F8C8B1E0B2694600F08EF824
:100B0000A0B16946504600F089F878B1FF208DF811
:100B1000000000246946FF2000F080F830B19DF805
:100B20000000000607D5641C202CF3D314E0FFE777
:100B30000020BDE8F88F9DF800003870002405E023
:100B40002919FF2000F06AF830B1641CB442F7D3D1
:100B5000B9F1000F03D006E000F054F8E8E700F028
:100B600051F80028E5D00120E3E700000000024032
:100B700010B5002302E0CC5CC4545B1C9342FAD352
:100B800010BD00000548016841F480510160BFF3C9
:100B90004F8F0349012088607047000030380240C1
:100BA000003002400348006803490A6822F480527A
:100BB0000A60704700300240303802402DE9F043AF
:100BC00000244FF0FF384FF0FF0CDFF8349012E0B4
:100BD0004346002209E0D6000CFA06F7455DBB4308
:100BE000B5402B43521C042A02D2A5188D42F2D3E1
:100BF000C9F80030241D8C42EAD3BDE8F083000020
:100C000000300240044908B5042088616946FF208D
:100C100000F004F808BD000000000240F8B5144BD5
:100C20000D461A46134C00E0521EA168890702D4F3
:100C3000002AF9D117E0B2B1207300E05B1EA06872
:100C4000C0070ED07BB1267B00F070FD00280BD0D2
:100C500005B12E70A068400607D5E068A068009036
:100C600001E0002BEAD10020F8BD0120F8BD000012
:100C700040420F00003001402DE9F04387B0FF20D3
:100C80008DF80C00514804278761002406A9FF2035
:100C9000FFF7C4FF00287CD0641C142CF6D300247A
:100CA000254603A80095CDE9015000239522194659
:100CB0001846FFF7F7FE18B19DF80C00012806D082
:100CC000641C102CEDD39DF80C00012865D103AEF7
:100CD0000097CDE9015604AB87224FF4D571082067
:100CE000FFF7E0FE90B39DF80C00012855D19DF868
:100CF0001200012851D19DF81300AA284DD10024DB
:100D00004FF0804944F620680095CDE90156002354
:100D1000012219463720FFF7C5FEB8B19DF80C0037
:100D200008B1012839D10095CDE9015600230122EF
:100D300049462920FFF7B6FE00282FD09DF80C0069
:100D400028B1012829D1641C4445DDD325E0009752
:100D5000CDE9015605AB012200213A20FFF7A2FEA2
:100D6000D8B19DF80C00C0B905989DF8171000BACD
:100D700008431749C0F38070087090B90095CDE919
:100D800001560122002351021020FFF78BFE20B1F3
:100D900000E003E09DF80C0018B1002007B0BDE8AA
:100DA000F08300F0C3FC70B10A48016821F07801BB
:100DB0000160C268826821F0380141F04001009270
:100DC00001600120EAE72846E8E700000000024051
:100DD00090010020003001402DE9F05F4FF0000944
:100DE0000F0005464C4600D03C7000F091F90028F9
:100DF0003BD0FFF741FFD0B3284600F069FBB0B30A
:100E000001282FD04048016841F004010160BFF380
:100E10004F8F3E484FF4005101603C4E0122183E76
:100E20000D21304600F037FC00220D21304600F045
:100E30003CFC3748016841F08071016035484460EE
:100E4000016841F0010101604168334841600121BE
:100E50004170284600F020FAD0B300F0D7F858B11E
:100E600000F02EFC00F00AF90120BDE8F09FFFE73A
:100E700000F004F90020F8E72846FFF7CBFA38B372
:100E8000FFF7AFFA20B3DFF894A000244FF4007B03
:100E9000DAF8205005F2FF104FEA502814E041F232
:100EA00001001F49204400F089FB88B15E46B5422D
:100EB00000D82E46600232461949FFF757FC38B178
:100EC000AD1BFFF793FA641C4445E8D325B115E048
:100ED000FFE700F0F5FBCBE754461248DAF82010A4
:100EE00000F042FC616A884208D10C48FFF7FCFA26
:100EF00020B14FF001090FB10120387000F0E0FB84
:100F000000F0BCF84846B0E730380240180802400C
:100F1000FCED00E0001000E09001002098030020AC
:100F2000980100200000020841F4807141F2210282
:100F300040004900CB0500D5401CC30300D55040FC
:100F4000CB03F5D580B270472DE9F0471E46DDE9A9
:100F500008A790468946040049D0B9F1000F46D051
:100F6000B8F1000F43D0EEB35FEA0A003FD0CFB331
:100F7000204600F08BFB2049884238D1201D00F02C
:100F800085FB1E49884232D104F1100000F07EFB3F
:100F900005461B490838884229D204F1080000F0B0
:100FA00075FB306008B90120306004F10C0000F0DE
:100FB0006DFB1449CAF80000884218D1C9F80050E6
:100FC000A08AA8F800000020386004F11C0000F09E
:100FD0005DFB0D4988420DD104F1180000F056FB6D
:100FE000642100E003E03860B1EB106F02D0002014
:100FF000BDE8F0870120FBE744414F4C544F4F427E
:10100000F9FF1100434536344336344610B5194CC8
:101010002046FFF7B7FA50B3174861694269914219
:1010200025D1A1698269914221D1216A026A914246
:101030001DD1616A426A914219D1A16A826A9142C4
:1010400015D1E16AC26A914211D1216D006D8142D0
:101050000DD1084A0849303230310020135C0C5C55
:10106000A34204D1401C2028F8D3012010BD002049
:1010700010BD0000000001089803002070B5204D4D
:101080001E490420A8611F4A00E0491E906800061E
:1010900001D50029F9D1106820F0400010601A48ED
:1010A000016841F480510160BFF34F8F016821F462
:1010B0008051016014482030016821F480510160A2
:1010C000124980060860052403222146284600F0C4
:1010D000E2FA00222146284600F0E7FA641C072CB9
:1010E000F2D903220221284600F0D5FA2846BDE8AD
:1010F00070400022022100F0D8BA000040420F00E8
:101100000000024000300140243802401804024030
:101110002DE9F0475849574F08683C4640F0010018
:1011200008604FF0000900E0641E0868800702D4E0
:10113000002CF9D199E0002C0FD04F4808300268FC
:101140004FF6F3439A4302603E4600E0761E026883
:1011500012F00C0F02D0002EF8D186E0002E7DD0C8
:101160000868464A1040086043483030016841F042
:1011700003010160BFF34F8F424D4148A861424CCB
:101180004FEAB010206001220221284600F083FAC5
:1011900001220821284600F07EFA3B4E0122183E2B
:1011A0000221304600F077FA01220C21304600F08F
:1011B00072FA01220221284600F077FA3349002012
:1011C00000BF401C8842FBD34FF4805020600020B9
:1011D00000BF401CB842FBD305244FF00F08032684
:1011E000E20805EB8203052061071A6AC90E08FAB6
:1011F00001F7BA438840104318620222214628466C
:1012000000F049FAA968620006FA02F08143084337
:10121000A860062C2BD000222146284600F045FA73
:10122000641C072CDCD914484430016841F4805117
:10123000016011482430016841F480510160BFF31E
:101240004F8F016821F4805101601149C1F81C9051
:10125000C1F804904FF45F720A6000E005E00D49A8
:10126000012081F80090BDE8F0870020FBE7012213
:10127000D2E70000006A180000380240FFFFF6FEC7
:1012800004000001000002401804024000E20400D3
:10129000003001409001002010B5040022D0E07819
:1012A00000B3207803281DD112494FF4805000F07C
:1012B00085F9B8B10F49802201F50070FFF758FC9D
:1012C0000D48FFF7DDF978B10B480C4A01699142EE
:1012D0000AD140696178884206D12046BDE81040B5
:1012E00000F088B8002010BD2046BDE8104000F096
:1012F00007B80000980100209803002056414C4494
:101300002DE9F04700248AB000285CD040780128FD
:1013100059D108A907A8CDE9000106AB09AA05A97A
:101320003248FFF711FEE8B3059E06F2FF104FEAC0
:101330005029FFF727FC00254FF4007A2FE041F2F7
:1013400001002A49284400F039F928B15746BE4225
:1013500000D837461DB10DE0FFF724FC33E02349E8
:10136000059800F0C3F90028F6D008221F4903A809
:10137000FFF7FEFB2046DFF87480002404E018F835
:101380000410FFF7D1FD641C3946BC42F7D3044674
:101390001648FFF713FCF61BFFF728F86D1C4D45A8
:1013A000CDD300E00FE0FFF7FDFB0546204600210E
:1013B000FFF7BAFD0021FFF7B7FD01461EB9BDF8E2
:1013C0002400814203D000200AB0BDE8F087089ACB
:1013D00003A80092CDE9015005AC94E80D00FFF799
:1013E000FFFA0348FFF74CF9EEE7000098010020F0
:1013F000980300202DE9F05F040061D0E078002818
:101400005ED0207803285BD12E49802201F5007040
:10141000FFF7AEFB2C48FFF733F918B32A482B4AE5
:10142000016991424CD162784169914248D1056A83
:10143000824605F2FF104FEA5029FFF7A3FB002474
:101440004FF4007B30E041F201001E49204400F0DF
:10145000B5F828B15F46BD4200D82F461CB11BE04D
:10146000FFF7A0FB2CE01748174E804600F00EF95E
:10147000B16A88420DD108F1040000F007F9F16A61
:10148000884206D14146306A00F030F908B10120A7
:1014900000E000200028E3D039460A48FFF78EFB21
:1014A000ED1BFEF7A3FF641C4C45CCD3FFF77AFB82
:1014B00035B9DAF82410814202D10120BDE8F09F4D
:1014C0000020FBE7980100209803002056414C447F
:1014D00030B5364C87B0050066D0E878002863D078
:1014E0002878032860D132494FF4805000F066F824
:1014F000E8B32F49802201F50070FFF739FB2D4832
:10150000FFF7BEF880B12B482B4A016991420BD1FD
:1015100040696978884207D1FFF778FD10B1012052
:1015200007B030BD0220FBE7687801283CD102A952
:1015300005A8CDE9000104AB06AA03A91C48FFF7E2
:1015400003FDA0B12046FFF71DF80028EAD0206D6A
:10155000C107E7D061690129E4D1A169049A9142E8
:10156000E0D1216A039A9142DCD1029900E01BE0AC
:1015700041F001018842D5D10C48343000F086F8A2
:1015800005998842CED109483C3000F07FF8BDF87B
:10159000181080B28842C5D10448443000F076F873
:1015A00002998842BED1BAE70020B9E700000108DD
:1015B000980100209803002056414C4470B50D4618
:1015C000064600242946304600F00AF808B10120FA
:1015D00070BDFFF717FB641C032CF3D3002070BD14
:1015E00070B586B00D00274C4FF0FF0201468DF814
:1015F0000C2045D0244A12781AB9B0F5000F3FD21A
:10160000490204AB012200208DE80D0003461120A1
:10161000FFF748FA10B19DF8100048B1FFF7F2FA51
:101620002EE003A9FF20FFF7F9FA0028F6D0641E88
:101630009DF80C00FF2820D0002CEFD0C0B2FE286F
:10164000ECD100244FF400762919FF20FFF7E6FAC9
:101650000028E3D0641CB442F6D303A9FF20FFF7AF
:10166000DDFA68B103A9FF20FFF7D8FA40B1FFF710
:10167000C9FA28B1012006B070BD002CD1D1CDE748
:101680000020F8E700127A0090010020C17800687D
:1016900061F31F60704710B50368490003248C4054
:1016A000A3438A401A43026010BD10B5C3684900C5
:1016B00003248C40A3438A401A43C26010BD00003B
:1016C00010B5084C607848B107494FF000500860E9
:1016D000054803220D211838FFF7DDFF0020607058
:1016E00010BD0000900100201808024030B5C9B1BB
:1016F000082817D3B0F5901F14D80B4D4B68441928
:10170000086823F00102A0F10051B1F5A02F09D81B
:10171000400707D1D80705D0AA4203D3A24201D27D
:10172000012030BD002030BD000002080C490D4AE8
:10173000084600E0401E93689B0702D40028F9D1B8
:101740000BE050B100E0491E9068000602D5002968
:10175000F9D102E009B10120704700207047000074
:1017600040420F00003001402DE9F041DFF8708069
:101770000E460546D8F80010002441F48051C8F800
:101780000010BFF34F8F174F0120B8600AE02819EF
:10179000C178006861F31F603860241DA00501D185
:1017A000FEF724FE301B0428F1D2B4420FD00020F3
:1017B0004FF0FF31FF2307E003FA00F291432A5D67
:1017C000824011430830641CB442F5D33960386854
:1017D000D8F8002022F48052C8F80020BDE8F0813B
:1017E000303802400030024010280CD011280DD0B3
:1017F00012280ED013280FD014280DD015280BD086
:1018000016280CD00DE002290DD00AE004290AD0D8
:1018100007E0032907D004E0402904D001E00129B2
:1018200001D0002070470120704718B1016AB1F55E
:10183000901F01D900207047FEF7A4BE044672B67F
:1018400000204FF0E02108614861886114494FF0A1
:10185000206008600021481E8A0002F1E022C2F8E0
:101860008001C2F88002491C0829F5D3BFF34F8FCD
:10187000BFF36F8F00F04EF809490A48091D086050
:10188000002080F31488BFF36F8FBFF34F8FBFF337
:101890006F8FD4E90A01FEF709FD30BFFDE70000B4
:1018A00004ED00E0000214082DE9F041040011D01D
:1018B000FEF7FAFF10B10120BDE8F0810025257088
:1018C00001266670A5701148E57025710068104901
:1018D000884201D00020EFE70C48001D0068C3B229
:1018E000C0F307212370C0F307426170070EA27096
:1018F0001846FEF79BFEB84206D161782078FFF7C4
:1019000073FF08B1E670D6E72570E3E79028004042
:1019100003B032CE194A10B517491368084643F090
:101920000103136000E0401E13689B0701D40028E8
:10193000F9D11248083003684FF6F344A34303601B
:1019400000E0491E036813F00C0F01D00029F8D104
:1019500010680B490840106008490A48091D0860D2
:10196000064900200C31086004483030016821F439
:101970008051016010BD0000006A1800003802406C
:10198000FFFFF6FE103000242DE9F041374E0446EB
:101990003546102915D0112915D0122915D0132933
:1019A00015D0142915D0152915D00020F4B3E8B3AB
:1019B000D4E900212E4F2F4B7A4059400A4352D18F
:1019C0000BE00120F2E70220F0E70420EEE7082018
:1019D000ECE71020EAE72020E8E7A168042942D1DB
:1019E000E16880293FD1244A216991423BD1616954
:1019F000402938D1A169C9B1E169B14233D1216A25
:101A0000082930D31D4A91422DD8216D01422AD098
:101A10007C212046FFF7A8FEE16F814223D1A16A15
:101A2000286881421FD1E16A6A6800E01BE09142A8
:101A300019D1A0F10051B1F5A02F14D8400712D14F
:101A4000216A22F001008B19D2070CD0B0420AD3D0
:101A5000984208D23046FFF787FE616A884202D179
:101A60000120BDE8F0810020FBE70000000214081F
:101A7000434536345352563456414C4400FE03001D
:101A800070B5040036D0E07898B361782078FFF71D
:101A9000ABFE70B3A27821787E20FEF7C7FD2178D7
:101AA000A278090241EA024141EA0060124940F08D
:101AB0007E000A6842F080520A60BFF34F8F0F49E0
:101AC0000A6842F480720A60BFF34F8F0D4B0C4AD4
:101AD0001A601C1D2060BFF34F8F0D6825F48075C0
:101AE0000D601968914205D12168814202D101201F
:101AF00070BDFFE70020FBE7403802400070004067
:101B000003B032CE902800401CB5044603208DF867
:101B10000000012200218DF801208DF802108DF8BF
:101B200003208DF804106846FEF765FC2046FFF799
:101B30007CFE002802D02046FEF75CFD1CBD1CB5D3
:101B400004468DF8001040208DF8010000228DF829
:101B5000022001208DF803008DF804202046FFF7B5
:101B600013FF30B16846FFF78BFF10B12046FFF737
:101B700065FE00201CBD00000248016841F47001B0
:101B80000160704788ED00E01CB5314C314D68466E
:101B9000FFF78AFEF0B39DF8000016280BD1FEF780
:101BA00083FC2046FFF7B0FF15212846FFF7C7FF4B
:101BB00008B9FEF7B7FC9DF80010102909D01129CB
:101BC00007D0122905D0132903D0142901D01529D3
:101BD0000ED12846FFF7D8FE30B16846FFF750FF18
:101BE00010B12846FFF72AFEFEF75EFCFEF79AFCCE
:101BF0009DF80000012802D16846FEF70BFCFEF7B5
:101C000053FC9DF8000003280BD16846FEF7ECFC5E
:101C1000204600E007E0FFF708FE10B12046FEF77F
:101C2000E9FCFEF77FFC2046FFF7FFFD18B1142109
:101C30002846FFF784FF2046FFF766FF1521284658
:101C4000FFF77DFF08B9FEF76DFC30BFFDE7000030
:101C50000000010800001408F1EE100A4FF6FF71B1
:101C6000C0F2C03120EA010040F04070E1EE100AFD
:101C700070470000A81C0008000000209001000030
:101C80003C020008381E00089001002008000000F7
:101C90003C020008401E000898010020E00A0000F5
:101CA0005C0200080000000070B54E4C4E4D07E08D
:101CB0002046641E8005B0F5800F01D100F09AF82F
:101CC0002868C00302D5002CF2D102E00CB101203B
:101CD00070BD002070BD10B5FFF7E6FF20B142488F
:101CE000006810F4F97F01D0002010BD012010BD64
:101CF00010B5FFF7D9FFB0B13B48001D01680029BE
:101D000005DA3949394A08390A60394A0A600068EF
:101D1000C017401C07D0344840F2F311016000683E
:101D200010F4F97F01D0002010BD012010BD2E4815
:101D3000001D016841F000410160704710B5FFF7D8
:101D4000D7FF002818D0284C241D206840F27F318E
:101D5000884340F2222108432060206840F480300C
:101D60002060FFF7B8FF0028206820F00200206004
:101D700003D0FFF7DCFF012010BDFFF7D8FF0020E4
:101D800010BD2DE9F047FFF7B3FF002823D0164F11
:101D9000052440F2F31640F27F3840F202293D1D3F
:101DA0003E60286820EA080040EAC40040EA0900D2
:101DB0002860286840F480302860FFF78CFF0028F6
:101DC000286820F00200286007D0641C0D2CE7D999
:101DD000FFF7ADFF0120BDE8F087FFF7A8FF002067
:101DE000F9E700000024F4000C3C024023016745A1
:101DF000AB89EFCD0B494878002812D00A484068DB
:101E00004A680A4B821A9A420BD3094A1268930411
:101E1000084A02D54FF0005301E04FF4005313601D
:101E20004860704790010020001000E080841E0090
:101E300014080240180802400000000000000000E2
:020000040801F1
:10000000434536344D4E4633030000008000000067
:1000100056414C440100000098B3C3780000020828
:10002000C02B040019A503A980320020390302085F
:1000300068C60B8C66298AEB9F68AA074733F6448B
:100040002CA14B69B3561F395BFC367F3CE966EC4B
:10005000200200640000000000000000000000001A
:100060000000000000000000000000000000000090
:1000700000000000000000000000000088779CBB2A
:020000040802F0
:100000008032002039030208B38304082168040801
:10001000A9830408510B0208C59D040800000000D4
:1000200000000000000000000000000091880408AB
:100030005DD4030800000000BD8304085D8E040841
:100040005303020853030208530302085303020830
:10005000530302085303020853030208D5D50308CB
:10006000E9D5030829D6030841D60308530302083B
:10007000B9CF0308C5CF0308B5D10308B9D1030828
:10008000E9D10308F5D103081D090208530302084A
:100090005303020853030208530302087DD60308E2
:1000A000A9930408530302085303020853030208E8
:1000B00079970408530302085303020839680408B7
:1000C0002D6804085303020853030208530302086F
:1000D00053030208C19C0408530302085303020897
:1000E00061D40308C18304085303020853030208C0
:1000F0005303020885970408530302083DD20308FE
:10010000530302085303020853030208530302086F
:10011000FD9A04085303020853030208530302081C
:10012000F1D20308F5D203083DD3030841D30308F5
:10013000530302085303020853030208530302083F
:10014000530302085303020853030208530302082F
:1001500079D303087DD30308ADD303085D9D04085C
:10016000530302085303020853030208530302080F
:1001700053030208530302080000000000000000BF
:1001800053030208530302085303020853030208EF
:10019000530302085303020800000000530302083F
:1001A000530302085303020800000000000000008F
:1001B000530302080000000000000000530302087F
:1001C00053030208530302085303020853030208AF
:1001D000530302085303020800F002F800F082F80B
:1001E00014A696E8000CB244B344DA4501D100F0FD
:1001F00079F8BAE80F000FA696E83000A5EB0405E1
:1002000004EB0607AAEB0704A7F101074FEA15154F
:100210004FEA3414A4F10104AC4201D300F062F8B7
:1002200013F0010F18BFFB1A43F0010300F001F8AF
:10023000DBE71847F4260400C42704000A444FF003
:10024000000C10F8013B13F0070408BF10F8014B35
:100250001D1108BF10F8015B641E05D010F8016B7A
:10026000641E01F8016BF9D113F0080F1EBF10F8DE
:10027000014BAD1C0C1B09D16D1E58BF01F801CB01
:10028000FAD505E014F8016B01F8016B6D1EF9D584
:100290009142D6D370470000103A24BF78C878C185
:1002A000FAD8520724BF30C830C144BF04680C607C
:1002B000704700007047000000230024002500263E
:1002C000103A28BF78C1FBD8520728BF30C148BFB9
:1002D0000B6070471FB52EF0B0F900F038F91FBD64
:1002E00010B510BD00F0E4FA1146FFF7F3FF2CF053
:1002F00063FC00F002FB03B4FFF7F2FF03BC00F065
:1003000005FB00000B49D1F800C04A685CF8043BCB
:100310001068184442F8040B8C4528BFA1F1DC0C8E
:100320008A4228BFA1F1DC02C1F800C04A6020F077
:10033000004070477C290020094880470948004751
:10034000FEE7FEE7FEE7FEE7FEE7FEE7FEE7FEE785
:10035000FEE7FEE704480549034A054B70470000E5
:1003600099930408D9010208502A00208032002005
:10037000502A002053EA020C00F069802DE9F04B6E
:100380004FF00006002B1FBFB3FA83F503FA05F404
:1003900024FA05F65E4012BF1643B2FA82F502FA5D
:1003A00005F4C5F120051EBF22FA05FC44EA0C0441
:1003B000203556EA044C4FEA144418BF641C4FF031
:1003C00000084FF00009904271EB030C39D300296B
:1003D00019BFB1FA81F701FA07F6B0FA80F700FA0F
:1003E00007F6C7F120071EBF20FA07FC46EA0C06F5
:1003F0002037B6FBF4FCA7EB0507103F07F01F0BF7
:10040000CBF120062CFA06F60CFA0BFB44BFB346E0
:100410000026202FA4BF5E464FF0000B5BEA060CBF
:1004200008BF4FF0010B19EB0B0948EB0608ABFBBB
:10043000027C06FB02CC0BFB03CCC01B71EB0C0156
:10044000C1E70B46024641464846BDE8F08B13B56E
:10045000084318BF4FF0FF300146AFF30080BDE8FE
:100460001C407047B2F120030AD5C2F1200301FA03
:1004700002F120FA03F341EA030100FA02F07047A7
:1004800000FA03F14FF000007047B2F120030AD5E3
:10049000C2F1200320FA02F001FA03F340EA03005C
:1004A00021FA02F1704721FA03F04FF00001704782
:1004B00053EA020C23D010B54C1084EA530404D53F
:1004C0004042C1F1000138BF491E1B4204D55242CF
:1004D000C3F1000338BF5B1EFFF74CFF14F0804FE1
:1004E00004D04042C1F1000138BF491E14F0004F52
:1004F00004D05242C3F1000338BF5B1E10BD13B5D8
:1005000040424FF0000070EB0104B8BF012001F041
:10051000004100281CBF6FF000414FF0FF30AFF3E7
:1005200000801CBD0B4910B5A1F17C020A4CC2E948
:100530003712372106E000EB104342F82130074B19
:1005400000FB03400B1EA1F10101F4DC10BD0120F2
:10055000E8E700001C290020E119D666CD0D010056
:1005600040EA010310B59B070FD1042A0DD310C830
:1005700008C9121F9C42F8D020BA19BA884201D982
:10058000012010BD4FF0FF3010BD1AB1D30703D0CA
:10059000521C07E0002010BD10F8013B11F8014B80
:1005A0001B1B07D110F8013B11F8014B1B1B01D19C
:1005B000921EF1D1184610BD10B5431C02E010F890
:1005C000011B71B18107FAD14FF0013202C88C1AB8
:1005D0008C4314EAC211F9D0C01A0A0603D0C01E17
:1005E00010BDC01A10BD0A0401D0801E10BD090242
:1005F000FCD0401E10BD032A40F2308010F0030CE6
:1006000000F0158011F8013BBCF1020F624498BF65
:1006100011F801CB00F8013B38BF11F8013BA2F102
:10062000040298BF00F801CB38BF00F8013B11F07D
:10063000030300F06780083AC0F0088051F8043BDB
:10064000083A51F804CBA0E80810F5E7121D5CBF8A
:1006500051F8043B40F8043BAFF30080D20724BFBD
:1006600011F8013B11F801CB48BF11F8012B24BF51
:1006700000F8013B00F801CB48BF00F8012B7047A0
:10068000431A28BF9A427FF6B6AF10441144032A9A
:1006900040F2268010F0030F1EBF11F8013D521EDC
:1006A00000F8013D10F0030F7FF4F6AF11F00303E3
:1006B00000F06D80083AC0F00B8051F8043D083A14
:1006C00051F804CD40F8043D40F804CDFFF7F3BFE6
:1006D000121D5CBF51F8043D40F8043DAFF30080AB
:1006E000D20724BF11F8013D11F801CD48BF11F820
:1006F000012C24BF00F8013D00F801CD48BF00F8EF
:10070000012C704710B5203AC0F00B80B1E81850AA
:10071000A0E81850B1E81850A0E81850203ABFF4EB
:10072000F5AF5FEA027C24BFB1E81850A0E818508A
:1007300044BF18C918C0BDE810405FEA827C24BFDE
:1007400051F8043B40F8043B08BF7047D20728BF6C
:1007500031F8023B48BF11F8012B28BF20F8023BBB
:1007600048BF00F8012B7047431A28BF9A427FF612
:10077000C9AF1044114410F0030F1EBF11F8013D22
:10078000521E00F8013D10F0030F7FF4F6AF103A4F
:10079000C0F00A8010B531E9185020E91850103A1D
:1007A000BFF4F9AFBDE81040530724BF31E908108A
:1007B00020E9081044BF51F8043D40F8043D12F010
:1007C000030F08BF7047D20728BF31F8023D48BF6A
:1007D00011F8012C28BF20F8023D48BF00F8012C79
:1007E000704702F0FF0343EA032242EA024200F0AC
:1007F00002B84FF000020429C0F0128010F0030C80
:1008000000F01B80CCF1040CBCF1020F18BF00F803
:10081000012BA8BF20F8022BA1EB0C0100F00DB8B2
:100820005FEAC17C24BF00F8012B00F8012B48BF10
:1008300000F8012B70474FF0000200B513469446B4
:100840009646203922BFA0E80C50A0E80C50B1F128
:100850002001BFF4F7AF090728BFA0E80C5048BF3C
:100860000CC05DF804EB890028BF40F8042B08BFDA
:10087000704748BF20F8022B11F0804F18BF00F8D6
:10088000012B704770477047704710B500F008F8AB
:10089000006810BD10B5044600F002F8046010BDF9
:1008A00000487047842900200048704784290020B0
:1008B0007546FFF7F9FFAE4605006946534620F03E
:1008C0000700854618B020B5FFF744FDBDE820407D
:1008D0004FF000064FF000074FF000084FF0000BFC
:1008E000AC46ACE8C009ACE8C009ACE8C009ACE86B
:1008F000C00921F007018D46704710B50446AFF3DB
:1009000000802046BDE81040FFF7F5BC01491820E3
:10091000ABBEFEE72600020070470000104810B58D
:1009200002680021116001688A6822F001028A6071
:100930000068C06B43F2903180B2A0FB010147F622
:10094000FF72801841F100014FF6FF720023FFF79C
:1009500011FD0146BDE81040024818F063BD0000DB
:1009600050F80420081A0020464910B54A6822F4BD
:1009700040324A604A6843681A434A6001684A68DC
:1009800022F480724A6001684A68036942EA0322DD
:100990004A6001684A6822F040724A6001684A6809
:1009A00083681A434A6001688A6822F400628A6098
:1009B00001688A68C3681A438A60816A6FF070624E
:1009C000D14201688A6822F070628A6001688A6890
:1009D0000CD0836A1A438A6001688A6822F0405208
:1009E0008A6001688A68C36A1A4301E022F04052B3
:1009F0008A6001688A6822F002028A6001688A6857
:100A0000037E42EA43028A6090F8201000290168C0
:100A10004A680FD042F400624A6001684A6822F4D2
:100A200060424A6001684A68174C436A04EB4333EA
:100A30001A4301E022F400624A600168CA6A22F4A3
:100A40007002CA620168CA6A838B104C04EB0353BC
:100A50001A43CA6201688A6822F400728A600168D7
:100A60008A6890F8303042EA43228A6001688A68D6
:100A700022F480628A6001688A68406942EA8020C4
:100A8000886010BD0023014000E0FFFF0000F0FF80
:100A900018B50023009303098DF8003000F00F0013
:100AA0008DF8010000206C46235C0A2B01D2303304
:100AB00000E037330B54401C0228F5DB0220108085
:100AC000002018BD1E4C08B565681FF043F91DF0E5
:100AD0001BFD4FF0E0210020086148618861194842
:100AE000016841F02061016072B60020421E810061
:100AF00001F1E021C1F88021C1F88022401C0828C2
:100B0000F5D31148016841F480410160006800F4A8
:100B1000804000900D48016821F0030101600168E8
:100B200041F0010101600748001D0460BFF34F8FD1
:100B3000BFF36F8F206880F3088862B6A847FEE78E
:100B40000000FF1F04ED00E044380240003801407F
:100B50000C200AF02BF81BF0FDF8000010B5040083
:100B600015D0206A002812D00948B0F85E1000297C
:100B70000DD090F87D00002809D1204600F096FBAA
:100B8000E06A41082046BDE8104000F08FB910BD72
:100B9000300300202DE9F04F85B015460646DDE90B
:100BA0001080DDE90E723762C6E90115C6E9033827
:100BB0001C46B27700F072FB81460246414606F1C0
:100BC00028002BF013FFB9F1000F05D0B8F1000F8A
:100BD00002D05FEA887004D04FF0FF3005B0BDE866
:100BE000F08F694908680A8952085043674A904261
:100BF00000D210468146086888B187B1B9FBF7F189
:100C000007FB119058B96248006A40B1006830B1E2
:100C10006048B0F8980201285BD0022859D0002023
:100C20008046002D7ED0DFF870A128684FEA074B80
:100C3000F0B3F7B31CF0A0FFB8F1000F06D0574A8D
:100C40002968914201D0514500D14846B0FBFBF1E3
:100C5000491C07FB01F2B0FBF2F0491E696000215C
:100C6000401EC5E902102846296120F0A9FA4B4927
:100C70002868884201D050452FD1494A904212D06D
:100C8000B0F1804F0FD0474A90420CD088420AD032
:100C90004549884207D0504505D04449884202D092
:100CA0004349884219D114216846FFF7C4FD01E089
:100CB00013E010E05FEA080000D007200090002059
:100CC00001906946284620F06EFF30B11CF022FDED
:100CD00003E00120A4E70020B0601CB3206808B343
:100CE000F7B31CF049FFB8F1000F06D02B4A21687A
:100CF000914201D0514500D14846B0FBFBF1491C5F
:100D00004F43B0FBF7F0491E0025401E6160C4E967
:100D100002502046256120F053FA2049206888427D
:100D200003D000E02DE050452BD11D4A904212D057
:100D3000B0F1804F0FD01B4A90420CD088420AD0AD
:100D40001949884207D0504505D01849884202D039
:100D50001749884215D114216846FFF76CFD00E061
:100D60000DE05FEA080000D00720CDE900056946E4
:100D7000204620F018FF20B11CF0CCFC01E0002040
:100D8000F06000202AE700000812002000E20400C2
:100D9000B006002050ED042000040140000800408F
:100DA0000000014000040040000C004000400140F1
:100DB0000018004038B1406828B1006818B1816857
:100DC000C90703D018E04FF0FF307047816841F049
:100DD000010181600D490E4A0968B1FBF2F1102949
:100DE00001D20F2105E0B1F5006F03D900BF40F239
:100DF000FE7100BF491EFCD2016821F004010160B0
:100E0000816841F48001816000207047F4740420FF
:100E1000400D030030B54FF0FF33A0B141680968C1
:100E200089B100224CF250340FE08D68ED070AD0F2
:100E30001546521CA54208D9086820F00800086031
:100E40006FF0010030BD184630BD0D686D07ECD560
:100E5000CA6B82820A6CC2824A6C02838A6C4283A9
:100E6000086820F00C000860002030BD00BF70470B
:100E7000416809680A6922F0E06242F080720A6102
:100E80004FF480228A6300224A618B6823F4401366
:100E90008B600549D1F8043323F44003C1F80433CF
:100EA00002808283704700000020014070B50D462B
:100EB0000446EFF31086006BE16A2844814201D8B2
:100EC000E16A401A72B62063226D606D521940F1DA
:100ED000000022656065A26DE36D206D616D00F01C
:100EE0006BF8206486F310885FF0010004EB80014A
:100EF00011F1400151E8002F2A4441E80023002B62
:100F0000F8D1401C0328F1D370BD2DE9F041056BE9
:100F10000646C46A0F464FF0FF385CB1204600F029
:100F2000BDF9A04206D1A54204D2E80702D1B7EB31
:100F3000540F01D941460BE0794204EB4100A04235
:100F400000D10020A84201D3411B01E0611B0144F4
:100F50003288481C6FF001070FD059B36818A042BF
:100F600000D3001BCAB1531EB3EB540F15D253006C
:100F70009B1EAB4204D35B1B04E03846BDE8F08106
:100F8000651B2B448B4208D2336907EB42029D5A02
:100F900045F001059D5200223280326900B9204699
:100FA00020F00100801E105A20F00F00B083304660
:100FB000FFF77CFF0020E1E710B5141A73EB010482
:100FC00003D2801A61EB030101E0002001460022F8
:100FD000D0F1FF338A4101D24FF0FF3010BD000045
:100FE0002DE9F34F050085B04FF000009B4E4FF008
:100FF0000801814603907CD006980028FBD06868E1
:101000000028F8D0DFF858A20468544571D1A868C8
:101010000028F0D00068934A9042F7D1E868002891
:10102000E9D0DFF844C203686345EFD18F4B286AEB
:101030009842EBD128880028E8D128690028DAD026
:101040008B4BB3F85E70002FD5D093F87D30002B1A
:10105000DCD100BFEFF30583002BD7D1EFF3108372
:10106000002BD3D1834B1B68DB07C4D0A768824B0E
:101070003B40012BCAD1A36BB3EBC13FC6D1616822
:101080007E4B1942C2D1E16A002932D1616B00293D
:101090002FD13168C9072CD0B168714B4C339942BC
:1010A00027D1F168814224D1DFF8B88108F12C08FA
:1010B000D8F800006C492C310968884219D1A8F190
:1010C00004000068684928310968884211D16548E0
:1010D00008300068644908310968884209D11068FD
:1010E000C00706D0DCF80000C00702D01EF0DAFE10
:1010F00000E099E0DAF80413C1F30141491C49000A
:10110000B0FBF1F1206900F007025D4830F81230C1
:101110002269C2F3026230F81200524A4032126869
:10112000D8F800C00C300CF1010CCDE9000CDFF850
:10113000548102922A6A0C33D8F8000000F07AF940
:101140005FEA000B70D0E86A400801907068009078
:101150000146019800F0BFF94B4A0100106863D0C6
:10116000414B24331B6883425ED1126882425BD1BB
:10117000404842680492D8F8002044F62063B2FB4D
:10118000F3F847F4800202926FF00C02226000270D
:101190008246380705D1DAF804200498121A42452D
:1011A00042D2DAF80400524623689B0703D44FF07A
:1011B0000109039035E0B9F1000F32D0EFF3108050
:1011C00072B65268039BD31A5B4510D27368009ABB
:1011D00093420CD12268920709D5029AA260298015
:1011E00080F31088DAF804205146002020E080F3D4
:1011F00010881F484FF0000990F87D00A0B9706872
:1012000000900146019800F066F91F4B01001A6832
:101210000AD0154824300068904205D118689042E1
:1012200002D17F1CFF2FB4D9012007B0BDE8F08F99
:1012300023685B0707D5E06B069908806FF00C0008
:1012400020600020F1E74B689D1A454502D2401C02
:10125000FF28EDD94FF0FF30E7E700002864024097
:10126000002001400008004000040140007102001D
:1012700030030020001000E001003000A00400074F
:1012800024080508F4740420240800404FF4FE31BB
:10129000884200D908466FF3090070474FF4FE31C9
:1012A000884200D908466FF30900704770B5016B9A
:1012B0004D08C16A8B080188EE1802696FF00103BE
:1012C00003EB4604145B24F00F04848300290CD044
:1012D0004C1EAC4209D3A64207D903EB4101535A35
:1012E00043F0010353520021018070BD70B50446E4
:1012F000EFF3108572B6406BE16A00F50070814231
:1013000001D8E16A401A6063A06DE26D4FF400718C
:10131000411842F10000A165E065A26DE36D206D0A
:10132000616DFFF749FE206485F3108870BD0000F1
:101330002DE9F047016CB1F5007F64D2EFF3108620
:1013400072B6056D416D826DC36D046BDFF8E0A070
:10135000DAF80080364F2C373F68DFF8D4C00CF144
:10136000280CDCF800C00CF00109DAF800C04CEAE7
:10137000080C86F310881CF4507F4FF0FF3A1BD105
:101380001CF4406F3DD1AE1A71EB030609D3AE1ABF
:1013900061EB030C4FF40078B6EB08067CF1000615
:1013A00031D2B9F1000F2CD0C66AB7EB560F03D873
:1013B0002CB1B4EB560F02D05046BDE8F0877F4207
:1013C00006EB4707B74200D10027A74201D33C1BD9
:1013D00001E0341B3C44B4EB560F12D2102C10D950
:1013E000103C2C1941F10001A51A71EB030508D33B
:1013F000A21A61EB03014FF40073D21A71F10001DC
:1014000001D20220D9E7018879B10188426B491ED7
:101410005208914209D38A1AFF2A06D8006930F887
:10142000112042F0010220F811200020C5E7000041
:10143000006402402DE9F05F0C46DDE90B6B5FEACA
:10144000000846D0F4B3EAB3E6B3B34541D2084648
:10145000401E002141F1FF3181468A46E3FB08012D
:10146000B8FBF2F522460023FEF784FF0A9A0746EE
:1014700048465146121DE2FB080122460023FEF7B2
:1014800079FF0446AF4224D204EB4700B0EB450F8E
:101490001FD2A6EB0B00A5FB000132460023FEF78E
:1014A00069FF874215D0411C8F4212D0B84200D844
:1014B000284469007A4201EB4201C01B091B8142AA
:1014C00002D200E005E00846202802D92038BDE815
:1014D000F09F0020FBE7A0F140024FF6BF739A4255
:1014E00010D2C2070ED169B181420BD84208401A0E
:1014F000904201D3811A00E00146082902D310313D
:10150000914201D300207047801C80B270470000D8
:101510002DE9FF5F4FF0000A8B465646D04600F09B
:1015200069FFC48B00F066FF808B251A00246D1CB8
:1015300000F060FF00EBC4020020C2E90E00641C52
:10154000102CF5D300F056FF848B2EE000F052FFF4
:10155000D0F88C0130F8247000F04CFFD0F88C01EA
:10156000022101EB8401405A17FB07F110FB001721
:1015700000F040FF808B201A0001B0FBF5F9B9F1B3
:10158000100F01D34FF00F0900F034FF00EBC9003A
:10159000D0E90E31DB1941F10001C0E90E315745A8
:1015A00002D90098BA460480641C00F023FFC08B67
:1015B000A042CBD25FF0000404FB05F00109601CDF
:1015C0006843D1EB10173AD000F014FF00EBC401D0
:1015D0003A46D1E90E010023FEF7CCFE00F025FBD0
:1015E000074600F007FF204480F8907100F002FFEA
:1015F000204490F89001064400F0FCFE204490F84E
:101600009011414504D900F0F5FE204490F89081F6
:10161000641C102CD0D3504600F007FB8BF8000060
:10162000A6EB08000F21B0FBF1F00299C0B20870E0
:101630009BF80010814204D9081AC0B202E00020D1
:10164000CCE7002003990870BDE8FF9F3EB50D462A
:10165000044600F0CFFE002860D0002C5ED00C2D98
:101660005CD36078042859D1A07800F003008DF88D
:101670000000E0788DF8010020798DF80200607993
:101680008DF80300A079E17940EA0121ADF804105A
:10169000207A627A40EA0220ADF80600A27AE37A64
:1016A000002442EA03229DF80130ADF80820102BF7
:1016B00034D19DF8023093B3012B2FD19DF8033024
:1016C000402B2BD2002929D0402827D2814225D86F
:1016D000642A23D3B2F57A7F20D8012500F08AFE50
:1016E0000A2269461830FFF70DF800F083FE80F8F3
:1016F0002B5200F07FFE0021C0E90A1100F07AFEB3
:1017000080F8244200F076FEA0F8204200F072FE3D
:1017100080F8264200F06EFEC0F8F0413EBDFFE7C3
:101720009DF80330002BCDD0F8E72DE9F0471546A2
:101730001C465FEA000A18D0DAF800005FEA0009E8
:1017400013D0D9F8380080B19AF8140068B950461F
:1017500000F06AFE48B1D9F80410B1EB400F04D391
:101760000022291A74EB020102D20020BDE8F087A2
:10177000D9F80460281A64EB020132460023FEF710
:10178000F9FD14460027601CD9F83810B04200D388
:101790000020085C095D41EA0028384600F0E0F9C5
:1017A000A8F5004800FB08F500F024FED0F88811E9
:1017B000002D02DB05F5804501E0A5F58045E81325
:1017C00021F81700DAF80C000444B44200D3A41B3B
:1017D0007F1C802FD7D30120C8E7B0F51C7F0CD920
:1017E00040F27121B0FBF1F201FB12022AB9B0FB09
:1017F000F1F0202801D8C0B27047002070472DE9D1
:10180000F04114461F460546069E00F0F3FD4021B8
:10181000C830FFF710F800F0EDFD802100F584706E
:10182000FFF709F800F0E6FD0021C0E92E1100F0F5
:10183000E1FD01460020C1E9300000F0DBFDC0E918
:101840000C4700F0D7FD0024A0F8204200F0D2FDA4
:10185000A0F8224200F0CEFD80F8254200F0CAFD3B
:1018600080F8264200F0C6FDC0F8F04100F0C2FD4D
:1018700080F8246200F0BEFD697DAA7D02B180225D
:10188000114380F82712BDE8F08100002DE9FC5FCC
:1018900017461C46050043D0286800900028FAD05F
:1018A000806B0028F7D02869FFF797FF5FEA0008F0
:1018B000F1D000984668E868B6EB800F30D3687DB9
:1018C000A97D01B1802140EA010900F093FD90F863
:1018D000241241451DD100F08DFD90F82712494595
:1018E00017D100F087FD0146D1E90C01381A74EBDD
:1018F00001000ED300F07EFDD0E90C107B1A64EBE2
:101900000001E868404206EB40020020D21A8841FC
:1019100007D23A4623462846CDF80080FFF76FFFEE
:1019200019E100F067FD90F8260210B10120BDE832
:10193000FC9F00F05FFD01460023D1E90C02381A3C
:1019400064EB0201EA68FEF715FD8346802804D99E
:101950004FF0800B4FF0000A01E00020F7E000F0AC
:1019600049FD01463246D1E90C010023FEF702FD94
:10197000687D02EB400400F03DFD90F82592B442F2
:1019800000D3A41B601CB04200D3801B0099896B5C
:101990000A5D085C42EA002004B2A87D00B1640040
:1019A000B4F5004F02DB47F6FF7403E06B48844256
:1019B00000DA044600F01EFD00F1B80700F01AFD41
:1019C00000EB4900B0F9C800221AD7E9000310184B
:1019D00043EBE271C7E9000100F00CFD00EB4900A8
:1019E000A0F8C84000F006FDC030019000F002FDF4
:1019F000D0E92E7400F0FEFC00EB8900D0F808015D
:101A00003A1A64EBE0740198D0E90010511844418F
:101A10000198C0E9001400F0EDFCD0F8B84000F0E7
:101A2000E9FC00EB8900C0F8084100F0E3FCD0E9D4
:101A30000C42EB68E31842F10002C0E90C3200F0FE
:101A4000D9FCB0F82212B1EB480F06D200F0D2FC5C
:101A5000B0F82212491CA0F8221209F1010000F08E
:101A6000FF09C1456DD318FB08F44FF0000900F0E1
:101A7000C1FCB0F82212B1EB480F62D300F0BAFCFF
:101A8000D0F8C40000280ADB00F0B4FCD0E9302113
:101A900004EBD4704010C317101859410AE000F04D
:101AA000A9FCD0E9302104EBD4704010C317101A00
:101AB00061EB03012246E317FEF7FAFC044647F602
:101AC000FF720020121B884102DA47F6FF740021E2
:101AD0002248201A71F1FF3000DA204C00F08AFC15
:101AE000B0F8200268B900F085FC01460023D1E976
:101AF0000C01EA68FEF73EFC471E00F07BFCC0F8D4
:101B0000F47100F077FC00F508700190078800F090
:101B100071FCD0F8880100EB470101987F1C078019
:101B20000C8000F067FCB0F82002802809D300F098
:101B300061FC012180F8261200F05CFC80F82592FF
:101B4000F4E600F057FC80F825920AF10100824685
:101B50005845FFF401AF0020E9E600000080FFFFD8
:101B6000402801D3C0F17F00024901EB0010B0F919
:101B70000000704740EA040870B50C46054602F0C4
:101B800005FA002835D0002D33D000F045FCA042E6
:101B90002FD895F82905184E05F5407438B1D4F8BA
:101BA0001802B04203D1D4F81C02A84221D04FF44D
:101BB0000C712046FEF73FFE05F58070C4E96250C7
:101BC000102000216076A176E176A0833F20E0839B
:101BD000C82020840A460123802120462AF004FDE3
:101BE00040B1002084F82802E4E986650120607491
:101BF000E07470BD0120F5E73443505310B500F098
:101C0000F9FB80B190F8291269B190F82B1251B10B
:101C1000D0F8881139B1D0F88C1121B1007EC007FD
:101C200001D0012010BD002010BD002813D0B0FA53
:101C300080F1C1F11F01042902D30A1FD04002E044
:101C4000C1F10402904000F00F00C90001EB500008
:101C5000FF2801D9FF207047C0B270472DE9F05F1F
:101C60009846DDE90CB4DDE90A9A16460D460746AA
:101C700084B318212046FEF7DEFD00F0BBFB807E1A
:101C800070B9BAF1000F0BD057B1B8F1000F07D0FF
:101C9000276002206760C4E90308002020752EE059
:101CA00000F0A8FB807E01282CD1BBF1000F29D0C9
:101CB000B9F1000F26D06DB166B100F09BFBC07E7C
:101CC000202801D3012000E00020A075002802D0C8
:101CD000304601E016E02846C4E9000500D135464B
:101CE0004FF04000C4F81090C4E902504FF00100DA
:101CF000207500F07FFBC07E00F01F0060750120A2
:101D0000BDE8F09F0020FBE710B586B002F03EF979
:101D10003B4CE0B300F06EFB002853D000F06AFBB0
:101D200090F8290200284DD0D4F80C01002849D1A0
:101D300000F060FB00F5D074AD2020709A20607038
:101D40000420A07000F056FB007EE07000F052FB13
:101D5000407E207100F04EFB807E607100F04AFBF7
:101D6000C07EA07100F046FB818BE01D00F061FB9E
:101D700000F040FBC18B04F1090000F05AFB00F0B9
:101D800039FB018C04F10B0000F053FB00E006E08E
:101D900000F030FB90F82802B0B1872015E0142243
:101DA00018A16846FEF7AEFCD4F80C01002809D152
:101DB00012226946184806F0B1FE002802D11648E2
:101DC00010F092F806B010BD0720607300F012FB0F
:101DD000B0F8E80181B204F10E0000F02AFBDA202D
:101DE00020746074122221460B4806F097FE0028EA
:101DF000E8D106B00848BDE8104010F075B8000002
:101E0000E8AC0420AD9A040010000010003F00C8A8
:101E100000070000DADA0000E89C04202DE9FF4FFB
:101E200081B09846934600F0E5FA00F5D07400F0D2
:101E3000E1FA00F5DA7600F0DDFA00F2C71500F0FD
:101E4000D9FA807E012811D05FF0000700F0D2FAA5
:101E5000D0F8DC0100905348B0F8B002C0067DD540
:101E60005148D0F80C01002878D106E000F0C2FA01
:101E7000C07E401C4006070EE8E700F0BBFA90F871
:101E80002A0208B147F001074FF0AD0984F800902D
:101E9000B02060704FF0040A84F802A0E770201DA3
:101EA000009900F0CAFA04F10800019900F0C5FA9F
:101EB00004F10C00029900F0BCFA84F80EB084F82A
:101EC0000F800E98207400F095FAD0F8E001B0F57C
:101ED0007F3F01D9FF2005E000F08CFAD0F8E00147
:101EE000C0F387206074DA27A774E77486F800903F
:101EF0004FF0B10B86F801B086F802A0F01C0099F3
:101F000000F09BFA0020F0714FF0080886F8088076
:101F100000F070FAD0F89011C6F80910D0F89401CA
:101F2000C6F80D007774B77485F8009085F801B095
:101F300085F802A0E81C009900F07FFA85F8078078
:101F400085F8088000F056FAD0F89811C5F8091005
:101F5000D0F89C01C5F80D006F7400E012E0AF747A
:101F600014222146114806F0D9FD58B913223146F2
:101F70000E4806F0D3FD28B9132229460B4806F077
:101F8000CDFD48B100F036FAD0F8EC11491CC0F88C
:101F9000EC1105B0BDE8F08F05B00448BDE8F04F86
:101FA0000FF0A2BFE8BC0420E8AC0420E89C0420A9
:101FB0002DE9FF4F8FB04FF00009DDE91D65984610
:101FC00092468B461C9FADF81890FFF717FE00282D
:101FD00063D008A8CDE90250CDE9007643465246C9
:101FE00059460F98FFF73AFEE0B30898D0B3099826
:101FF000C0B30898806BA8B300F0FCF9D0F8880152
:1020000080B300F0F7F9D0F88C0158B300F0F2F982
:1020100090F8280230B300F0EDF9018CDDE90B03F4
:10202000A3FB0034A1FB0305002202FB035201FBCA
:1020300004214FF47A720023FEF79CF982468B4606
:1020400008432AD009982AF0C3FC05460C4600F044
:10205000D1F9007E800706D5D5480068C00702D0B8
:10206000012001E014E0002080469DF834000128A2
:1020700016D008A800F0D8F9060009D008984068E2
:10208000B0EB460F04D30027A81B74EB07005CD20B
:1020900000F0B0F90021C0E90A1113B0BDE8F08FDB
:1020A0000C98FFF79AFB0028F7D0089840680B9926
:1020B000B0EB810FF1D30A9818B14068B0EB810FF3
:1020C000EBD31F980028E8D1B8F1000F02D0B84830
:1020D000D0F804902A46234608A8FFF7D7FB064607
:1020E000B8F1000F09D000F085F9B149D0F8F0211E
:1020F0004B68A3EB0901114402E000F07BF90021D9
:10210000C0F8F011002EC8D000F074F9D0E90A1020
:10211000014315D000F06EF9D0E90A10691A74EB8A
:1021200000000DD200F066F90024A0F8204200F073
:1021300061F980F8264200F05DF9C0F8F041ACE7A3
:1021400000F058F9D0F8F40116E000F053F9014618
:10215000D1E90A01084315D000F04CF90146D1E954
:102160000A01281A74EB010097D3A81B0B9A64EBA1
:1021700007010023FEF7FEF80790DDE91F01084381
:1021800064D108E000F036F915EB0A0144EB0B04CA
:10219000C0E90A1481E7089880690899496801EB49
:1021A0004101B0EB910F51D20A9838B180690A9978
:1021B000496801EB4101B0EB910F76D27D48B0F850
:1021C000B002C00671D57C48D0F80C01F0BBB8F164
:1021D000000F02D07648D0F804909DF83400012812
:1021E00006D02A46234608A8FFF79FFA70B31DE0E1
:1021F0005FF0000600F0FEF8D0F8880130F81670A5
:102200003046FFF7ADFC17FB00F700F0F3F8D0F80D
:102210008811002F02DB07F5804701E0A7F5804712
:10222000F81321F81600761C802EE3D300F0E2F8B4
:10223000D0F88C7100F0DEF8D0F8886100F0DAF8A0
:102240003A4631462AF034FA0EAB00E02DE004AAFB
:1022500005A906A8FFF75CF9B8F1000F3AD09DF880
:102260003400012831D0002051494A68A2EB09010D
:10227000461800F0BFF8C0F8E06100F0BBF8D0F8F5
:10228000E06100F0B7F8D0F8E401864207D900F029
:10229000B1F8D0F8E06100F0ADF8C0F8E46100F00A
:1022A000A9F8012180F82A121DE000F0A3F8D0F867
:1022B000E811491CC0F8E81100F09CF8D0F8E8419A
:1022C00000F098F8C0F80442E7E600F093F8D0F880
:1022D000F001C9E700F08EF80026C0F8E06100F0D8
:1022E00089F880F82A6200F085F815EB0A0144EBC2
:1022F0000B04C0E90A149DF8340001280CD100F049
:1023000079F80024A0F8204200F074F880F8264202
:1023100000F070F8C0F8F04100F06CF8D0F8E0413F
:1023200000F068F8C0F8F84100F064F8D0F8E44133
:1023300000F060F8C0F8FC4100F05CF8D0F8001242
:10234000491CC0F8001200F055F8D0F8EC4100F03C
:1023500051F8C0F8084200F04DF808994968C0F8F3
:102360000C1200F047F80799C0F8101200F042F87C
:102370009DF83410012917D0DDF83010C0F8141280
:102380009DF8380000909DF810309DF81420BDF89D
:1023900018100798FFF742FD00F02CF8D0F8DC1178
:1023A000491CC0F8DC1178E640F27121E6E7000034
:1023B000001000E0E8BC0420E8AC042010B504469E
:1023C00000F018F8002814D090F82912002910D035
:1023D0000CB1012100E0002180F82B120021C0E99E
:1023E0000A1180F82412A0F8201280F82612C0F8F2
:1023F000F01110BD10B5074C206848B101F0C6FDC2
:1024000030B114F0EBFD2168084400F5407010BDB8
:10241000002010BD3079042010B501F0B7FD002870
:1024200001D04FF4006010BD002801D0C068C00189
:1024300070470170090A4170704701700A0A4270C2
:102440000A0C8270090EC170704700002DE9F0413E
:1024500004006FF001075CD06068002859D0006864
:10246000002856D0206A00287ED0E06AF0B32069A8
:10247000E0B3E06AFEF712FFE16A884249D12046E4
:10248000FEF7F4FC2046FEF7F3FC60680068406845
:1024900010F0407F3DD11DF005FD5849D1F80413DF
:1024A000226AC1F30141491C4900B0FBF1F06168A7
:1024B0000B681969524D01F00701002635F811101B
:1024C000A2B199B14F4DA84223D80E31A1FB0221F0
:1024D000101AB1411DD24FF488505860E06801686D
:1024E00001B9A068006A0568474800E011E0296862
:1024F00021F018012960296821F00101296000E01C
:1025000000BF2968C90701D0401EF9D22868C0075A
:1025100002D03846BDE8F081EFF3108772B6374835
:102520004C30A8602069E860E06A400868600021DB
:1025300004F128002AF066FA3448854207D133496D
:102540004FF4746020390860392027F044FD07B942
:1025500062B6A068006878B34662A0680068016946
:1025600021F00101016100E045E0E068006840B150
:102570004662E0680068016921F001010161E068DC
:1025800000E0A0680068C16841F48071C1606068C3
:102590000068816840F2011211438160286840F0B0
:1025A00019002860A1681A4A0868904205D1016A9A
:1025B00041F4805101620DE016E0164A904210D1BC
:1025C000016A41F001010162A0680068416C41F4B8
:1025D00000414164A0680068016841F001010160A8
:1025E00002E008461EF078FFE068006818B1016854
:1025F00041F00101016000208CE700000020014053
:102600002408050800512502400D030028640240FB
:1026100000080040000001402DE9F04104004FF0A7
:1026200000051CD06068D0B10068C0B1A06800F09F
:102630007DF8E06820B1A168884201D000F076F80A
:10264000606800688168354A11408160616869B3DB
:10265000E06840B1026832B1006A60B903E04FF04F
:10266000FF30BDE8F081A06818B102680AB1006AC5
:1026700008B9886BD0B10068C0B10168036801F087
:102680000102274923F018030360036823F00103C4
:10269000036000E000BF0368DB0701D0491EF9D2E8
:1026A00001686FF00107C90701D03D462EE01D49C2
:1026B00088422BD1BFF35F8F02B3216AF1B11A4E6A
:1026C000B6F85E10D1B196F87D10B9B11549283928
:1026D00009684269C2F3C202042A0BD111F4507F87
:1026E00008D1C1F38121032904D041682046FEF7B7
:1026F0000CFC18B1012086F840003D4609494FF412
:10270000746020390860392027F065FC6068006833
:10271000016821F01E0101602846A2E7FEFEBFBF4E
:10272000400D0300286402403003002000281CD024
:102730000168002919D0CA6822F48072CA60016851
:102740000A6822F001020A60084A0168914203D136
:102750000A6A22F4805205E0054A914203D10A6ACE
:1027600022F001020A621EF033BF704700080040E9
:1027700000000140002903D00844401E491E884340
:1027800070472DE9FF4F81B01F461546040010D059
:1027900000F0E6F904F586710091029800F074FCEF
:1027A000060009D0204601F069F9304605B0BDE8C1
:1027B000F08F4FF0FF30F9E7D4F80C01416B006B5C
:1027C00000F0FBFD00287ED0D4F80C01C16B806BBB
:1027D00000F0F3FD002876D0D4F80C01416C006CB9
:1027E00000F0EBFD00286ED0D4F80C0100F0D7F912
:1027F000002869D0002D67D0874265D305EB070814
:102800000027C4F80471D4F80C112E46B946886D1F
:1028100060B34D6D2021FFF7ADFF0746B54253D39E
:1028200005EB070AC2454FD8D4F80C11C86DFF2834
:1028300004D98A6DC96983188B4205D9204601F0F5
:102840001DF96FF00300B1E7D4F8141101EB000B90
:1028500011462846FDF7CDFFD4F80C015946826D8C
:102860002846FDF7C8FEA81B07445546D4F80C01BE
:10287000406B90B12021FFF77DFF284440455CD894
:10288000C4F8D850D4F80C110546871B4A6BC4F81D
:10289000DC20096BC4F8E01005E0C4F8D890C4F857
:1028A000DC90C4F8E090D4F80C01C06BA8B12021F2
:1028B000FFF760FF284440453FD8C4F8F850D4F8EB
:1028C0000C11CA6B01E03EE037E0C4F8FC20896BD4
:1028D0000546871BC4F8001105E0C4F8F890C4F859
:1028E000FC90C4F80091D4F80C01406C90B1202108
:1028F000FFF740FF284440451FD8C4F8EC50D4F8F7
:102900000C110546871B4A6CC4F8F020096CC4F80A
:10291000F41005E0C4F8EC90C4F8F090C4F8F4901A
:10292000D4F8D80078B1D4F8EC0060B1D4F80C0138
:10293000A8EB0506C06A86420BD2204601F09EF83D
:102940006FF0040032E7204601F098F86FF00700BE
:102950002CE72021FFF70EFF00EB070804F5947029
:10296000814600F063FA482104F5AE70FDF763FF7D
:10297000D4F80C01476917F4706F03D1029900F085
:10298000B0FB07434FF00110C4E95707C4E959569B
:10299000D4F8D800C4F86C01D4F8DC00C4F8700195
:1029A000D4F8F800C4F87401D4F8FC00C4F8780135
:1029B000D4F8EC00C4F87C01D4F8F000C4F8048129
:1029C000C4F880014946009800F08CFA050004D054
:1029D000204600F0C5F82846E8E601206080002087
:1029E000E4E60000054800680549884202D0054930
:1029F000884201D1012070470020704714770420DD
:102A0000494145434B4F4D530548006805498842AD
:102A100002D00549884201D100F008B87047000093
:102A200014770420494145434B4F4D532DE9F05F46
:102A3000444A4FF000084FF0FF361368FFF7D2FF0B
:102A400000287CD04048834201D1012700E00027C4
:102A50004FF0000B91461046C2F820B0C2F818B0F3
:102A6000C2F81CB052688568384C022A02D36FF055
:102A7000010055E06FF0040A102D10D807B175B1B0
:102A80000121104600F018FFD8BBD4F8D80040B19F
:102A9000D4F8EC1029B1D4F8DC10A94204D2504685
:102AA0003EE04FF0FF303BE0FDF7A3FEF4E93B01D1
:102AB000FDF79FFEE068EC3C18B1D4F8FC10FDF780
:102AC00098FE5FB11F48D4F8D810243004E000BF4E
:102AD00010F8012B01F8012B6D1EF9D21B4801F0F3
:102AE000D7F8060000D40020D4F8F080B8F1100F19
:102AF00001D94FF01008134942463431D4F8EC3074
:102B000004E00DE013F8015B01F8015B521EF9D2FD
:102B1000B8F1040F04D3D4F8EC100968C9F81C10FC
:102B2000C9F80C00C9F81060D4F80801C9F81400FD
:102B3000C9F818800648C9F82000C9F800B0BDE8F7
:102B4000F09F00001477042049414543201D0020D8
:102B5000434541490149086070470000107704204F
:102B600010B504000ED06088012806D1D4F80C01FD
:102B700018B104F5867000F034F92046BDE8104025
:102B800000F07CBF10BD012805D0022802D0032828
:102B900003D000207047042070470120704770B5B3
:102BA000040019D02021606BFFF7E4FD05462021C9
:102BB000E06BFFF7DFFD05442021606CFFF7DAFDD5
:102BC00005442021A06DFFF7D5FD05442021E06AD2
:102BD000FFF7D0FD284470BD002070BD10B500F097
:102BE00007FDA8B90D480168491C13D1007D88B9BB
:102BF0000024204600F06CF938B1D0E90010084BF1
:102C0000084A59405040014304D0641C022CF0D3C0
:102C1000002010BD4FF4803010BD000018000020CF
:102C2000474D49413233454370B500B10120134C43
:102C30000025207560B100F0DBFC70B1104801F098
:102C400054F80F48FFF78CFF25756FF0070012E06E
:102C50000B4801F04AF8256104E02068401C05D0CB
:102C600000F0F6FDBDE8704000F06CBF044801F0D4
:102C70003CF86FF001002061F4E70000180000202C
:102C8000201D002070B51D4C0546022802D36FF0B0
:102C9000010013E01A4AB2F85E0068B992F87C00AD
:102CA00050B9907C40B9D07C30B9B2F86C0138B1E1
:102CB000B2F86C01012803D06FF00700206105E035
:102CC0000022284600F02EF9206120B12846BDE8F8
:102CD000704000F0FCBE2068A84204D1217D284647
:102CE00000F0EAFD2061284600F0F1FE2068A842CD
:102CF00003D1BDE8704000F025BF70BD1800002072
:102D00003003002070B50546144C4FF0FF3604F137
:102D10001800FF2D03D0022D08D3700018E04FF4E7
:102D200080712660FDF787FD002005E001462846FA
:102D300000F018FB40B126602061094800F0D5FF83
:102D40000748FFF70DFF04E0217D284600F0B4FDA1
:102D50002061BDE8704000F0F5BE000018000020C2
:102D6000201D002010B500F043FC00280ED00848BC
:102D700000F0BBFF0648FFF7F3FE06480168491C58
:102D800002D06FF0070101610021017510BD000044
:102D9000201D00201800002001F0010252420A42CA
:102DA00003D0FF2901D9814202D36FF0030070479D
:102DB0000020704730B5002A0FD0084C11F8013BB5
:102DC00058400023C50702D084EA500000E04008C4
:102DD0005B1C082BF6D3521EF0D130BD2083B8ED1A
:102DE000704718B18069002802D000474FF0FF30CB
:102DF000704708B5694600F05BF810B16FF001004C
:102E000008BD009803C81AF0F9FC0028F8D06FF04C
:102E1000050008BD012805D0022802D0032803D0F0
:102E200000207047042070470120704710B504004F
:102E30000DD03421FDF7FFFC4FF001102060012080
:102E400060600348A0600348E0600348206110BD53
:102E500039EA03084DE50308E12D020818B10128FD
:102E600004D0002070474FF4805070474FF49050CA
:102E70007047002809D0806811B1096901B108467E
:102E8000012803D0022804D0002070474FF480703E
:102E900070474FF40060704708B5694600F008F8C5
:102EA00008B1002008BD009803C8081A401C08BDDE
:102EB00009B1022802D36FF001007047034A00EB0A
:102EC000400002EB8000086000207047A8F504086D
:102ED00008B56946FFF7ECFF08B1002008BD00986F
:102EE000006808BD10B58EB0040004D02069002829
:102EF00003D021B107E04FF0FF300EB010BD68469F
:102F0000FFF794FF69460868B0F1011F02D14868D5
:102F1000012802D06FF00700EFE7226908469047CA
:102F2000EBE700002DE9F74FC2B04D484090A0F507
:102F3000BA700C46B0F85E1069B990F87C1051B9BF
:102F4000817C41B9C17C31B9B0F86C1141B1B0F8A4
:102F50006C01012804D06FF0070045B0BDE8F08F88
:102F600041A94298FFF7A4FF0028F6D142981CB966
:102F7000FFF774FF040008D0204640991FF0ECFFD3
:102F80006FF0020B20B15846E7E76FF00100E4E76D
:102F90004FF4807268464099FDF72DFB68464299D0
:102FA00000F0E6F80028D8D14298FFF722FF002869
:102FB000D3D14198079E4FF0FF39D0F800A006F218
:102FC000FF10470A002530E045B1601940991FF015
:102FD000C3FF18B1419800F045F8D4E74FF40070F2
:102FE000864200D8304680461DB102464846409988
:102FF00008E0B8F5807F08D94099A8F58072484666
:1030000001F58071FFF7D6FE814642465046409951
:103010001AF0A4FC28B1419800F024F86FF00500E4
:103020009BE7C244A6EB08066D1CBD42CCD31399A6
:103030006FEA0900814205D0419800F013F86FF063
:1030400006008AE74499429800F08CF9040004D005
:10305000419800F007F820467FE700207DE7000058
:10306000A40400201CB500210091019148B1006822
:10307000082269461AF072FC002801D06FF00500A2
:103080001CBD4FF0FF301CBD38B50C00054623D0E9
:103090006946FFF70DFF00281DD10021284600F0EA
:1030A00061F9002817D100980168C4E9001500985B
:1030B0000268A2604268E2600A6A0AB103681A44C0
:1030C000226102684B6A1A446261896A39B10068F8
:1030D0000844A061002038BD4FF0FF3038BD00200B
:1030E000F7E738B50A46040004D069461046FFF7F2
:1030F000DFFE08B1002038BDA08A10F47060FAD15C
:1031000021460098FFF7B5FE38BD30B450B149B143
:1031100042693AB10B68B3F1011F06D06FF00700A6
:1031200030BC70474FF0FF30FAE78B686FF0040453
:10313000CBB10068CB68C56AAB4214D3436B23B1F3
:103140000D6985B14D699D420DD3C36B23B18D6966
:103150004DB1CD699D4206D3406C30B10B6A13B1BD
:103160004B6A834201D22046DAE730BC084610475A
:103170002DE9F04FC1B00D46040016D040A92846F5
:10318000FFF796FE002812D14098724E724BD0E99C
:103190000021891A01F10108D4E900217240594047
:1031A0006FF003090A4371D104E04FF0FF3041B0E2
:1031B000BDE8F08FA1686FF00706012969D1E168C9
:1031C000B1F1011F65D1A16C012962D1216911B151
:1031D0008068814264D1207DC00757D029462046AF
:1031E000FFF77FFF054621464098FFF742FE4FF468
:1031F0000067B84201D14FF46060054250D0681EAC
:1032000005424DD14FF4007B4FF4807A5D4504D0E8
:10321000B5F5806F01D0BD421ED1206BFFF7FAFDDE
:1032200098B3616B89B3B1FBF0F200FB121272BB71
:103230005D4502D100EB400006E0B5F5806F09D096
:10324000BD4209D100EBC000B1FBF0F200FB12104F
:10325000E8B906E0C000F7E7554502D1606E4028A6
:103260003DD2E06B0028A06B12D0FFF7D3FD60B118
:10327000E16BB1FBF0F200FB121232B9C000B1FBFE
:10328000F0F200FB121010B905E002E049E026E080
:1032900008B130468BE74099A0690968884202D09E
:1032A0006FF0010083E7E069FF2818D9404516D880
:1032B000A16D0546B1B1294A636D1A44B2F5703F5C
:1032C0002FD2E56DFF2D2CD985422AD25A18934270
:1032D00005D8234B9A4202D82944814206D96FF07F
:1032E000040064E7616DE1B9E16DD1B9616AFFF78E
:1032F00053FD0028CED1606AA84212D2216A09B1DA
:10330000A9420ED2A06A08B1A8420AD219B1E06956
:10331000FFF742FD28B9A16A29B1E069FFF73CFD3A
:1033200008B1484643E75546524621466846FDF7F0
:10333000E9F9002014902A466946401EFFF73AFD3D
:10334000216DC043814202D06FF006002FE70020BC
:103350002DE70000474D494132334543804BFFDFA5
:1033600080740420F8B50D4606466946FFF7A0FDB7
:10337000002818D10098314604682046FFF7F8FE6F
:10338000002810D10098E26901684FF0FF3001F584
:103390008071A2F58072FFF70DFDE16CC0438142A0
:1033A00002D06FF00600F8BD2DB14FF480722146B7
:1033B0002846FDF7A7F90020F8BD00B551B1002857
:1033C0000AD0FFF7E0FB30B1B1FBF0F200FB1210C6
:1033D00008B902E008B1002000BD012000BD0000D6
:1033E00070B5050024D0FFF7F9FB0446B0F5882F2F
:1033F00000D9002413F0F2FD0646FFF70DF831184E
:103400004FF48820405928440D1817F090FA2918D5
:10341000084D01F580612246E960C5E901140648BE
:1034200029F0E4FA00206875BDE8704000F010BA99
:1034300070BD00001800002020F40420002903D0F3
:103440000844401E491E8843704700002DE9F041A2
:1034500005002DD01948417D51B3D0E9014006192E
:10346000A86D6FF0040750B1696D08442021FFF783
:10347000E5FF696DA1421ED3B0421CD8044620214D
:10348000686BFFF7DBFF04442021E86BFFF7D6FFF2
:1034900004442021686CFFF7D1FF04442021E86A2E
:1034A000FFF7CCFF2044B04205D80020BDE8F081F2
:1034B0006FF00700FAE73846F8E700001800002030
:1034C00070B504462021FDF794F93048314D00884D
:1034D00020802F48C1896180018AA180418AE180D2
:1034E00001892181418961818189A1810188E181ED
:1034F0004188218280886082D5F800034FF6FF71F1
:10350000A0FB010140F6E4425310C018002641F12F
:1035100000013346FCF72EFF1F4BA082E68293ED9D
:10352000000A1E4910EE100A9FED1D1ADFED1D0A5C
:103530004FF04742884202DDB0EE410A05E010EE4E
:10354000100A904201D9B0EE600ABDEEC00A10EE3A
:10355000100A208393ED010A10EE100A884202DD62
:10356000B0EE410A05E010EE100A904201D9B0EE2B
:10357000600ABDEEC00A10EE100A6083D5F8F802AA
:10358000A083D5F8F802000CE08370BD58780420C1
:10359000B2100020081A0020A079042000FEFF4687
:1035A00000FEFF46000000C77FB50E4800240294CD
:1035B000406803904FF48C710B48FDF73CF90A48C2
:1035C000651E01230560009403AA02A9074801941F
:1035D00000F008FB054800F088FB04480565C0F8CA
:1035E00008417FBDC0F5040818000020201D002000
:1035F0000448406820B1D0F8C00008B101207047ED
:1036000000207047081A00200AB1084402E0002098
:103610007047801A9042FCD2704712B90020704760
:10362000891A9142FCD2884201D3401A7047081A85
:10363000101A70472DE9F74F0C465FEA000B4FF068
:10364000FF3A33D00298FFF79EFA78B3B4FBF0F15B
:1036500000FB114151BBB4FBF0F6002E5ED0EFF33E
:10366000108272B62E4BD3F80890986AD96A5F68B8
:103670002C4C656882F310889A6BBAB1A26BAAB120
:10368000402F13D3402D11D3274A126872B1AF4295
:1036900001D14A4603E02A460023FCF76BFE23488B
:1036A0009046D0F80C01446E402C02D35046BDE841
:1036B000FE8F3A4640214846FFF7AFFF07462A46AD
:1036C00040214046FFF7A9FF202C01D2144D00E015
:1036D000144D01D3A4F12004A04600D238466A68F4
:1036E0004FEA8611A1F14001FFF797FF074600243A
:1036F00012E000BF07EB4801284600F091F803B242
:1037000022465846029900F03BF96A684021384643
:10371000FFF77AFF0746641CB442EBD30020C6E7EC
:10372000C81000200811002008120020201D0020D1
:103730002DE9FF4F89B00024169D09989A460E4640
:10374000671E60B1BAF1000F09D045B10B98FFF7C1
:103750001AFA20B1B6FBF0F100FB116119B138463D
:103760000DB0BDE8F08FB6FBF0F62EB37019401E19
:10377000B0FBF5F972B629498868D1F804B062B691
:10378000896B19B15946BBF1200F16D26846FFF775
:1037900097FE6F460EE000BFB4FBF5F005FB10414D
:1037A00022461AF801000B9937F91030099800F0F9
:1037B000E7F8641CB442EFD32DE00A462021FFF75E
:1037C0002CFF4FEA49115A462039FFF726FF009097
:1037D00000201DE000270FE01AF80700009901EB18
:1037E00040010E4800F01CF803B222460B990998DC
:1037F00000F0C6F8641C7F1CAF4201D2B442EBD388
:103800005A4620210098FFF7FFFE009008F10100C2
:1038100080464845DED30020A2E700008811002042
:1038200010B520B1826B12B14368022B01D2002087
:1038300010BD4368B1FBF3F003FB1010411CB1FB5A
:10384000F3F403FB1411105C515C40EA012010BD3D
:1038500070B5174800F049FA1548FFF781F9154C83
:103860006FF007052068401C607D07D020B1A0687C
:1038700010B1FFF7BDFE28B1256170BD0028FBD057
:103880000025F9E70B481830FFF7E0FD28B9D4E927
:10389000023207482168FEF774FF20610028ECD14E
:1038A000207D0028E9D0BDE87040014800F016BA3C
:1038B000201D0020180000202DE9F0470E46284961
:1038C00080468946FFF74EFD254C05004FF0FF3737
:1038D000A4F1180402D0276025612EE0C4F800800E
:1038E000FFF786FE0546607D10B1A06800B185B186
:1038F0001C4800F0FAF91B48FFF732F96FF0070097
:103900002061002E03D0002D01D000212175BDE8DB
:10391000F0874846FFF79AFD206130B9D4E90232BA
:1039200010482168FEF72DFF206105000DD04FF4EF
:10393000807148462760FCF77EFF0A4800F0D5F901
:103940000848FFF70DF92846E1E7064826B100F0E0
:10395000C5F901202075F6E700F0C7F9F3E700008C
:1039600030000020201D0020002806D0002904D0AF
:103970000A460146014815F0A5BC7047081A002008
:10398000012906D002290DD0032901D1190A815439
:10399000704700EE103A00EB8200B8EEC00A80EDEE
:1039A000000A704720F8123070470000F8B5314C1B
:1039B0004FF0FF3005466188012935D1D4F80C213C
:1039C000002A31D0D4F8D81000292DD0D4F8DC103A
:1039D000002929D0D4F810111046D834FFF781FB04
:1039E000074674E83601FCF704FF0826B7F5807F28
:1039F00009D0B7F5007F0DD0B7F5806F15D0B7F5BA
:103A0000006F10D118E0D83494E80700D83CFFF7D5
:103A100011FE06E00320D834009094E80700164B0E
:103A200011E0050013D02846F8BDD834009694E87C
:103A30000700114B103306E00920D834009094E8B9
:103A400007000D4B1833D83CFFF772FEE9E7D4F8B6
:103A5000F80068B1D4F8FC1051B1FCF7CAFEF83494
:103A60000096054B94E807000833FFF761FEF8BDA8
:103A70000020F8BD201D0020C0F5040810B5044644
:103A80001C2100F58670FCF7D6FE342104F59470F5
:103A9000FCF7D1FE482104F5AE70FCF7CCFE002007
:103AA0009CB104F19802C4F8D82003214023C4E952
:103AB0003731C4E93D10C4F8FC004C32C4F80001B1
:103AC0000823C4F80401C4E93B23608010BD70B52D
:103AD000CAB0064628216846FCF7ADFE3046FFF71F
:103AE000F7F905463046FFF7D7F904460AA93046EC
:103AF000FFF738FC18B30021AD228DF800209B227F
:103B00008DF801208DF802608DF803100394CDE943
:103B1000010549B1119804900F9805901F980690DF
:103B20001598079017980890DA208DF824008DF8E2
:103B3000250026216846FFF717FF4AB070BD012116
:103B4000DAE7000010B588B020216846FCF773FE64
:103B5000224900204A7D02B101200A68531C01D08D
:103B600040F002000B7D0BB140F004001C4B1C78B0
:103B7000A40701D540F008005B88012B01D140F07B
:103B80001000AD238DF8003099238DF801308DF8A9
:103B90000200022A01D2D0B200E0FF208DF803001B
:103BA000086901904868029088680D49039001F106
:103BB0008000D1F8DC100491006F05900848D0F81F
:103BC00008010690DA208DF81C008DF81D001E21DA
:103BD0006846FFF7C9FE08B010BD000018000020BD
:103BE000201D00202DE9F05F9B46DDE90A86154681
:103BF0000F4604004FF0FF3A41D0EFB3E5B3FEF7B4
:103C0000AFFF4FF00009A4F800903888A0807888B2
