:020000040800F2
:10000000E80A0020B5020008BD020008BF0200088F
:10001000C1020008C3020008C50200080000000079
:10002000000000000000000000000000C7020008FF
:10003000C902000800000000CB020008CD02000841
:10004000CF020008CF020008CF020008CF0200084C
:10005000CF020008CF020008CF020008CF0200083C
:10006000CF020008CF020008CF020008CF0200082C
:10007000CF020008CF020008CF020008CF0200081C
:10008000CF020008CF020008CF020008CF0200080C
:10009000CF020008CF020008CF020008CF020008FC
:1000A000CF020008CF020008CF020008CF020008EC
:1000B000CF020008CF020008CF020008CF020008DC
:1000C000CF020008CF020008CF020008CF020008CC
:1000D000CF020008CF020008CF020008CF020008BC
:1000E000CF020008CF020008CF020008CF020008AC
:1000F000CF020008CF020008CF020008CF0200089C
:10010000CF020008CF020008CF020008CF0200088B
:10011000CF020008CF020008CF020008CF0200087B
:10012000CF020008CF020008CF020008CF0200086B
:10013000CF020008CF020008CF020008CF0200085B
:10014000CF020008CF020008CF020008CF0200084B
:10015000CF020008CF020008CF020008CF0200083B
:10016000CF020008CF020008CF020008CF0200082B
:10017000CF020008CF0200080000000000000000CD
:10018000CF020008CF020008CF020008CF0200080B
:10019000CF020008CF02000800000000CF020008D4
:1001A000CF020008CF02000800000000000000009D
:1001B000CF0200080000000000000000CF0200088D
:1001C000CF020008CF020008CF020008CF020008CB
:1001D000CF020008CF02000800F002F800F052F849
:1001E00014A696E8000CB244B344DA4501D100F0FD
:1001F00049F8BAE80F000FA696E83000A5EB040511
:1002000004EB0607AAEB0704A7F101074FEA15154F
:100210004FEA3414A4F10104AC4201D300F032F8E7
:1002200013F0010F18BFFB1A43F0010300F001F8AF
:10023000DBE718472C1800004C180000103A24BFC8
:1002400078C878C1FAD8520724BF30C830C144BF3B
:1002500004680C6070470000704700000023002411
:1002600000250026103A28BF78C1FBD8520728BFC6
:1002700030C148BF0B6070471FB501F0E3FB1FBDE5
:1002800010B510BD00F060F81146FFF7F5FF01F062
:1002900065FB00F07EF803B4FFF7F2FF03BC00F04B
:1002A00085F8000080F3088862B6084780F3088864
:1002B00062B608470948804709480047FEE7FEE75D
:1002C000FEE7FEE7FEE7FEE7FEE7FEE7FEE7FEE706
:1002D00004480549054A064B704700004D190008BF
:1002E000D9010008E8020020E80A0020E806002002
:1002F000E80600204FF0000200B5134694469646EB
:10030000203922BFA0E80C50A0E80C50B1F1200128
:10031000BFF4F7AF090728BFA0E80C5048BF0CC0D6
:100320005DF804EB890028BF40F8042B08BF704734
:1003300048BF20F8022B11F0804F18BF00F8012BA6
:100340007047704770477047754600F02BF8AE460F
:1003500005006946534620F00700854618B020B5D1
:10036000FFF7B6FFBDE820404FF000064FF0000752
:100370004FF000084FF0000BAC46ACE8C009ACE809
:10038000C009ACE8C009ACE8C00921F007018D46FE
:10039000704710B50446AFF300802046BDE810401A
:1003A000FFF779BF004870478802002001491820F4
:1003B000ABBEFEE7260002007047000030B5A1B0DA
:1003C00004461E4D80216846FFF794FF94B3E07801
:1003D00080B31C491A48CDE9000103200290802017
:1003E00003901948049060780590012006902846F3
:1003F00000F00AFA20B1A869411C01D0401C069007
:1004000012480790082008902079A17840EA01203E
:1004100014907C21684601F0B5F81F9000F0BCF8FC
:1004200040B1684600F0CAFA20B1284600F0ECF965
:1004300021B030BDFFE70020FAE70000000001080E
:10044000434536344D4E4633494E5354000002085E
:100450000C48016841F080510160BFF34F8F0A489A
:10046000016841F480710160BFF34F8F074A00219A
:100470001160121D1160BFF34F8F016821F480716C
:1004800001607047403802400070004090280040F2
:1004900010B5040013D00B49206988420FD12046C3
:1004A00000F0B2F958B100F077F840B1204600F002
:1004B00085FA20B1BDE81040034800F0A5B900203E
:1004C00010BD000056414C4400000108134C00F0E0
:1004D000CBF900F037FB00F0FBFA1148016841F45A
:1004E00080410160BFF34F8F0E48016821F0030186
:1004F0000160016841F0010101600B4804600020C7
:1005000080F31488BFF36F8FBFF34F8FBFF36F8FEC
:10051000D4E90001FFF7C6FE30BFFDE70000FF1F72
:10052000443802400038014008ED00E02DE9F04772
:1005300000F07AF840B300F063F828B3154F0524B3
:1005400040F2F31640F27F3840F202293D1D3E6032
:10055000286820EA080040EAC40040EA0900286050
:10056000286840F48030286000F05EF80028286891
:1005700020F00200286009D0641C0D2CE7D900F09F
:1005800037F80120BDE8F0870020FBE700F030F8E5
:10059000FAE700000C3C024010B500F045F8F8B155
:1005A00000F02EF8E0B1114940F2F31008600C1D84
:1005B000206840F27F31884340F2222108432060C6
:1005C000206840F48030206000F02EF80028206879
:1005D00020F00200206005D000F00AF8012010BDD4
:1005E000002010BD00F004F8FAE700000C3C0240C7
:1005F0000248016841F0004101607047103C024030
:1006000006480168002905DA0449054A0C390A60E0
:10061000044A0A600068C017401C7047103C024042
:1006200023016745AB89EFCD09480A4900E0401E28
:100630000A68D20302D50028F9D104E018B108688D
:1006400010F4F97F01D000207047012070470000AE
:100650000024F4000C3C024030B50446154D00F077
:10066000D3F820B314492069884220D1A16A2868B0
:1006700081421CD1E36A6A68934218D1A0F100510B
:10068000B1F5A02F13D8400711D1216A22F0010043
:100690004B19D2070BD0A84209D3984207D228465B
:1006A00000F070FF616A884201D1012030BD002056
:1006B00030BD00000000020856414C442DE9F05FB7
:1006C00004464FF0000800F0CFFC00280CD000F0EA
:1006D00095FBA8B3204600F07FFD88B300F046FCF0
:1006E00020B100F077FC0120BDE8F09F2046FFF725
:1006F00065FE28B3FFF71AFF10B3DFF874904FF4CC
:10070000007A41F2010BD9F8205005F2FF10470A98
:10071000002411E0174904EB0B0000F091FE78B1C2
:100720005646B54200D82E4660023246114900F0C6
:10073000E1F828B1AD1B641CBC42EBD32DB113E032
:10074000FFE700F047FC0020CEE74C460A48D9F806
:10075000201000F017FF616A884205D10448FFF7B6
:1007600097FE08B14FF0010800F034FC4046BBE7AB
:10077000080200200800002000000208044600F0E3
:10078000E1F900F0A5F90A4908480860002080F363
:100790001488BFF36F8FBFF34F8FBFF36F8FD4E910
:1007A0000A01FFF77FFD30BFFDE7000000000208EF
:1007B00008ED00E03CB503248DF80040B02403466A
:1007C0008DF8014032248DF802408DF80430CE249B
:1007D0008DF805108DF80620FF208DF803400022CB
:1007E0006C460723A15C48400021050602D583EA38
:1007F000400000E04000491CC0B20829F5D3521C5B
:10080000072AEFD33CBD000010B5040024D0D4E982
:100810000010124B124A5940504001431CD1A068AD
:10082000032819D1E068802816D16069A0B1A069B9
:1008300090B10C49E06988420ED1206A08280BD398
:10084000B0F5901F08D87C21204600F09BFEE16F98
:10085000814201D1012010BD002010BD4345363436
:100860004D4E463300000208194808B5016841F0B2
:1008700007010160BFF34F8F174816498161174A7E
:100880004FEAB1111160164A4FF4404111600168FE
:10089000144A1140144A114301601049183908687C
:1008A000124A10400B4A0C32104308600C491839A8
:1008B000086820F0704040F0A040086000200090E0
:1008C0000B4800BF0099491C00918142F9D308BD33
:1008D00030380240040000010000024018040240C9
:1008E00018080240CFFFFCFF10000100CFFFFFFC03
:1008F000007102002DE9F04716465FEA010824D096
:100900001EB3B0F5901F20D8C0F59011B1421CD392
:10091000284900EB0109800717D1FFF785FEA0B138
:10092000FFF76EFE88B1244940F2F310086001F130
:10093000040ADAF8000040F27F32904340F20122CC
:100940001043CAF80000002528E00020BDE8F08729
:1009500000204FF0FF34FF230AE0C10003FA01F743
:1009600018F80220BC438A401443401C042802D2D9
:100970002A18B242F1D309EB05073C60FFF754FE99
:1009800010B13868A04208D0DAF8001021F0010157
:10099000CAF80010FFF72CFED7E72D1DB542D7D3BC
:1009A000DAF8001021F00101CAF80010FFF720FE6C
:1009B0000120CBE7000002080C3C02402DE9F04189
:1009C00005461F4E2027FFF72FFE40B3FFF718FE06
:1009D00028B31C4940F2F310086001F10408D8F86C
:1009E000000040F27F32904340F201221043C8F8E9
:1009F0000000002455F8240046F82400FFF714FEF8
:100A000028B156F8240055F8241088420AD0D8F8A6
:100A1000001021F00101C8F80010FFF7E9FD0020E7
:100A2000BDE8F081641CBC42E4D3D8F8001021F08A
:100A30000101C8F80010FFF7DBFD0120F0E700001E
:100A4000000001080C3C0240F0B5040013D0002661
:100A5000267001256570A6701B48E6702671016836
:100A6000001D0068194A914201D1012805D0174A9A
:100A7000121F914206D00020F0BD03202070E570C7
:100A800025711EE0C3B2C0F307212370C0F30742F3
:100A90006170070EA2701846FFF78CFEB8420DD1A8
:100AA0002078012803D002280AD0032806D16078D4
:100AB000012805D0022803D0032801D02670DAE7E8
:100AC000E5700120F0BD00009028004007B032CE54
:100AD000194A10B517491368084643F0010313601B
:100AE00000E0401E13689B0701D40028F9D112488A
:100AF000083003684FF6F344A343036000E0491E47
:100B0000036813F00C0F01D00029F8D110680B49CD
:100B10000840106008490A48091D0860064900207D
:100B20000C31086004483030016821F480510160C4
:100B300010BD0000006A180000380240FFFFF6FEFA
:100B40001030002472B600204FF0E02108614861A7
:100B500088610A494FF0206008600020421E810031
:100B600001F1E021C1F88021C1F88022401C082851
:100B7000F5D3BFF34F8FBFF36F8F704704ED00E0E5
:100B80007FB582B0802300910B9D254A0021084645
:100B90005054491C9942FBD3214C23492148C4E9B4
:100BA00000010320A0608020E06020480126C4E905
:100BB00004060498A0611E48E061029820620A9829
:100BC0006062284600F0A4FCA062281D00F0A0FC92
:100BD0002665E062042204A904F1300000F090F8D8
:100BE000042205A904F1340000F08AF8042202A9C5
:100BF00004F1380000F084F80422694604F13C0056
:100C000000F07EF804220AA904F1400000F078F810
:100C10007C21204600F0B6FCE06706B070BD000005
:100C200008020020434536344D4E463356414C446D
:100C3000000002082DE9F84F1D46DDE90A690C9F06
:100C400092460C468046D7B306B1C5B300F0A2F871
:100C5000A8B32A494FF48020886148F040006946D3
:100C600000F0A4F850B3200E694600F09FF828B3B6
:100C70006946C4F3074000F099F8F8B16946C4F337
:100C8000072000F093F8C8B1E0B2694600F08EF892
:100C9000A0B16946504600F089F878B1FF208DF880
:100CA000000000246946FF2000F080F830B19DF874
:100CB0000000000607D5641C202CF3D314E0FFE7E6
:100CC0000020BDE8F88F9DF800003870002405E092
:100CD0002919FF2000F06AF830B1641CB442F7D340
:100CE000B9F1000F03D006E000F054F8E8E700F097
:100CF00051F80028E5D00120E3E7000000000240A1
:100D000010B5002302E0CC5CC4545B1C9342FAD3C0
:100D100010BD00000548016841F480510160BFF337
:100D20004F8F03490120886070470000303802402F
:100D3000003002400348006803490A6822F48052E8
:100D40000A60704700300240303802402DE9F0431D
:100D500000244FF0FF384FF0FF0CDFF8349012E022
:100D60004346002209E0D6000CFA06F7455DBB4376
:100D7000B5402B43521C042A02D2A5188D42F2D34F
:100D8000C9F80030241D8C42EAD3BDE8F08300008E
:100D900000300240044908B5042088616946FF20FC
:100DA00000F004F808BD00000000024038B5114B07
:100DB000114C1A4600E0521EA568AD0702D4002A65
:100DC000F9D113E092B1207300E05B1EA068C00768
:100DD0000AD05BB1207B01B10870A068400607D53E
:100DE000E068A068009001E0002BEED1002038BD43
:100DF000012038BD40420F00003001402DE9F04392
:100E000087B0FF208DF80C004D480427876100242F
:100E100006A9FF20FFF7CAFF00287CD0641C142C11
:100E2000F6D30024254603A80095CDE90150002300
:100E3000952219461846FFF7FDFE18B19DF80C00E3
:100E4000012806D0641C102CEDD39DF80C0001285D
:100E500065D103AE0097CDE9015604AB87224FF46C
:100E6000D5710820FFF7E6FE90B39DF80C0001282D
:100E700055D19DF81200012851D19DF81300AA28E0
:100E80004DD100244FF0804944F620680095CDE90B
:100E900001560023012219463720FFF7CBFEB8B1D7
:100EA0009DF80C0008B1012839D10095CDE9015613
:100EB0000023012249462920FFF7BCFE00282FD03D
:100EC0009DF80C0028B1012829D1641C4445DDD3CC
:100ED00025E00097CDE9015605AB012200213A201B
:100EE000FFF7A8FED8B19DF80C00C0B905989DF891
:100EF000171000BA08431349C0F38070087090B906
:100F00000095CDE901560122002351021020FFF780
:100F100091FE20B100E003E09DF80C0018B1002024
:100F200007B0BDE8F0830849086820F07800086041
:100F300020F0380040F0400008600120F0E7000099
:100F400000000240000000200030014041F48071A8
:100F500041F2210240004900CB0500D5401CC303EB
:100F600000D55040CB03F5D580B2704710B5174C73
:100F70002046FFF771FB30B3154861694269914221
:100F800021D1A169826991421DD1216A026A9142EF
:100F900019D1616A426A914215D1A16A826A91426D
:100FA00011D1E16AC06A81420DD1084A0849303244
:100FB00030310020135C0C5CA34204D1401C20287B
:100FC000F8D3012010BD002010BD00000000010872
:100FD0000802002070B5204D1E490420A8611F4A58
:100FE00000E0491E9068000601D50029F9D110687B
:100FF00020F0400010601A48016841F480510160FF
:10100000BFF34F8F016821F48051016014482030F4
:10101000016821F4805101601249800608600524AE
:1010200003222146284600F078FA0022214628466D
:1010300000F07DFA641C072CF2D903220221284615
:1010400000F06BFA2846BDE870400022022100F053
:101050006EBA000040420F00000002400030014024
:1010600024380240180402402DE9F0475349524FFA
:1010700008683C4640F0010008604FF0000900E0BD
:10108000641E0868800702D4002CF9D18FE0002C80
:101090000FD04A48083002684FF6F3439A43026083
:1010A0003E4600E0761E026812F00C0F02D0002EC1
:1010B000F8D17CE0002E7AD00868414A10400860E0
:1010C0003E483030016841F003010160BFF34F8FAB
:1010D0003D4D3C48A8613D4A4FF4822111600122F8
:1010E0000221284600F019FA01220821284600F0C2
:1010F00014FA364C0122183C0221204600F00DFA69
:1011000001220C21204600F008FA01220221284683
:1011100000F00DFA002000BF401CB842FBD30524AC
:101120004FF00F080326E20805EB82030520610754
:101130001A6AC90E08FA01F7BA43884010431862C8
:1011400002222146284600F0E8F9A968620006FA62
:1011500002F081430843A860062C2AD000222146D1
:10116000284600F0E4F9641C072CDCD9134844300D
:10117000016841F48051016010482430016841F455
:1011800080510160BFF34F8F016821F480510160ED
:101190000F49C1F81C90C1F804904FF45F720A60C7
:1011A0000C49012081F80090BDE8F087FFE700209E
:1011B000FAE70122D3E70000006A18000038024075
:1011C000FFFFF6FE04000001000002401804024088
:1011D000003001400000002010B5040022D0E0786B
:1011E00000B3207803281DD112494FF4805000F03D
:1011F00027F9B8B10F49802201F50070FFF780FD93
:101200000D48FFF701FB78B10B480C4A0169914288
:101210000AD140696178884206D12046BDE8104075
:1012200000F0A2B8002010BD2046BDE8104000F03C
:1012300007B80000080000200802002056414C4476
:101240002DE9F047002488B0002873D040780128A9
:1012500070D1404D284600F05BF93F49884269D182
:10126000281D00F055F93D49884263D105F1100071
:1012700000F04EF906463A49083888425AD205F13C
:10128000080000F045F90121039000B9039105F130
:101290000C0000F03DF904960290A88AADF81C00FD
:1012A00006F2FF104FEA5029FFF734FD00254FF4F6
:1012B000007A2DE041F201002649284400F0C0F8F0
:1012C00028B15746BE4200D837461DB10DE0FFF7A2
:1012D00031FD2FE01F49049800F034F90028F6D0C2
:1012E00008221C4905A8FFF70BFD2046DFF86480A3
:1012F000002404E018F80410FFF728FE641C3946A7
:10130000BC42F7D304461348FFF720FDF61B6D1CC3
:101310004D45CFD3FFF70EFD054620460021FFF7D0
:1013200015FE0021FFF712FE01461EB9BDF81C0094
:10133000814203D0002008B0BDE8F08705A8CDE9C0
:101340000050DDE90320029BFFF71AFC0548FFF778
:101350005BFAF0E70800002044414F4C544F4F42E5
:10136000F9FF1100080200202DE9F05F04005FD0B2
:10137000E07800285CD02078032859D12D498022BC
:1013800001F50070FFF7BCFC2B48FFF73DFA18B3DE
:1013900029482A4A016991424AD1627841699142B9
:1013A00046D1056A824605F2FF104FEA5029FFF741
:1013B000B1FC00244FF4007B2EE041F201001D49F6
:1013C000204400F03DF828B15F46BD4200D82F46CA
:1013D0001CB11BE0FFF7AEFC2AE01648164E804613
:1013E00000F096F8B16A88420DD108F1040000F0CF
:1013F0008FF8F16A884206D14146306A00F0A2F8BF
:1014000008B1012000E000200028E3D03946094857
:10141000FFF79CFCED1B641C4C45CED3FFF78AFC08
:1014200035B9DAF82410814202D10120BDE8F09FDD
:101430000020FBE7080000200802002056414C4431
:1014400070B50D46064600242946304600F00AF8DD
:1014500008B1012070BDFFF79DFC641C032CF3D381
:10146000002070BD70B586B00D00274C4FF0FF0214
:1014700001468DF80C2045D0244A12781AB9B0F5EF
:10148000000F3FD2490204AB012200208DE80D007D
:1014900003461120FFF7CEFB10B19DF8100048B1B4
:1014A000FFF778FC2EE003A9FF20FFF77FFC002860
:1014B000F6D0641E9DF80C00FF2820D0002CEFD041
:1014C000C0B2FE28ECD100244FF400762919FF2089
:1014D000FFF76CFC0028E3D0641CB442F6D303A9E8
:1014E000FF20FFF763FC68B103A9FF20FFF75EFC54
:1014F00040B1FFF74FFC28B1012006B070BD002CB1
:10150000D1D1CDE70020F8E700127A0000000020DA
:10151000C178006861F31F60704710B50368490027
:1015200003248C40A3438A401A43026010BD10B5C7
:10153000C368490003248C40A3438A401A43C26015
:1015400010BD000030B5C9B1082817D3B0F5901F01
:1015500014D80B4D4B684419086823F00102A0F120
:101560000051B1F5A02F09D8400707D1D80705D001
:10157000AA4203D3A24201D2012030BD002030BDD7
:1015800000000208F0B5194D00222B6843F4805387
:101590002B60BFF34F8F164E0123B36006E0831814
:1015A000DC781B6864F31F633360121D8B1A042BF5
:1015B000F5D28A4213D000234FF0FF34FF270BE00F
:1015C00007FA03FC24EA0C0410F802C00CFA03FC2E
:1015D000521C4CEA040408338A42F1D33460306868
:1015E000296821F480512960F0BD000030380240A4
:1015F0000030024010280CD011280DD012280ED037
:1016000013280FD014280DD015280BD016280CD075
:101610000DE002290DD00AE004290AD007E00329D1
:1016200007D004E0402904D001E0012901D00020C6
:1016300070470120704718B1016AB1F5901F01D9B8
:1016400000207047FFF708B8044672B600204FF03C
:10165000E02108614861886114494FF0206008600A
:101660000021481E8A0002F1E022C2F88001C2F87F
:101670008002491C0829F5D3BFF34F8FBFF36F8F4A
:1016800000F04EF809490A48091D0860002080F35F
:101690001488BFF36F8FBFF34F8FBFF36F8FD4E901
:1016A0000A01FEF703FE30BFFDE7000004ED00E095
:1016B000000214082DE9F041040011D0FFF7C4F92D
:1016C00010B10120BDE8F08100252570012666706B
:1016D000A5701148E570257100681049884201D055
:1016E0000020EFE70C48001D0068C3B2C0F30721DB
:1016F0002370C0F307426170070EA2701846FFF70F
:1017000059F8B84206D161782078FFF773FF08B125
:10171000E670D6E72570E3E79028004003B032CEAC
:10172000194A10B517491368084643F001031360BE
:1017300000E0401E13689B0701D40028F9D112482D
:10174000083003684FF6F344A343036000E0491EEA
:10175000036813F00C0F01D00029F8D110680B4971
:101760000840106008490A48091D08600649002021
:101770000C31086004483030016821F48051016068
:1017800010BD0000006A180000380240FFFFF6FE9E
:10179000103000242DE9F041374E0446354610291B
:1017A00015D0112915D0122915D0132915D01429B7
:1017B00015D0152915D00020F4B3E8B3D4E90021E1
:1017C0002E4F2F4B7A4059400A4352D10BE0012053
:1017D000F2E70220F0E70420EEE70820ECE7102013
:1017E000EAE72020E8E7A168042942D1E1688029DE
:1017F0003FD1244A216991423BD16169402938D1C6
:10180000A169C9B1E169B14233D1216A082930D354
:101810001D4A91422DD8216D01422AD07C212046BB
:10182000FFF7B0FEE16F814223D1A16A28688142AF
:101830001FD1E16A6A6800E01BE0914219D1A0F172
:101840000051B1F5A02F14D8400712D1216A22F01F
:1018500001008B19D2070CD0B0420AD3984208D2AB
:101860003046FFF78FFE616A884202D10120BDE851
:10187000F0810020FBE700000002140843453634E5
:101880005352563456414C4400FE03001CB50446E6
:101890008DF8001040208DF8010000228DF8022004
:1018A00001208DF803008DF804202046FFF772FF19
:1018B00030B1684600F006F810B12046FFF7C4FECC
:1018C00000201CBD70B5040036D0E07898B3617874
:1018D0002078FFF78FFE70B3A27821787E20FEF784
:1018E00069FF2178A278090241EA024141EA0060D9
:1018F000124940F07E000A6842F080520A60BFF34D
:101900004F8F0F490A6842F480720A60BFF34F8F0D
:101910000D4B0C4A1A601C1D2060BFF34F8F0D68E1
:1019200025F480750D601968914205D121688142C6
:1019300002D1012070BDFFE70020FBE740380240E4
:101940000070004003B032CE902800400248016889
:1019500041F470010160704788ED00E01CB5374C20
:10196000374D6846FFF7A6FE002851D09DF80000CD
:1019700016280FD1FEF76CFD2046FFF75CFE10B174
:101980002046FEF7FBFE15212846FFF77FFF08B92A
:10199000FEF79CFD9DF80010102909D0112907D0F1
:1019A000122905D0132903D0142901D015290ED1ED
:1019B0002846FFF7EFFE30B16846FFF783FF10B10E
:1019C0002846FFF741FEFEF743FDFEF77FFD9DF839
:1019D0000000012802D16846FEF7F0FCFEF738FD52
:1019E0009DF80000032811D16846FEF767FE30B16C
:1019F0002046FFF720FE10B12046FEF7BFFE20462E
:101A0000FFF719FE10B12046FEF7B8FEFEF75EFDA7
:101A10002046FFF710FE40B114212846FFF736FF9D
:101A200050B92046FEF7AAFE06E015212846FFF72A
:101A30002DFF08B9FEF74AFD30BFFDE700000108A1
:101A400000001408F1EE100A4FF6FF71C0F2C03129
:101A500020EA010040F04070E1EE100A70470000FB
:101A6000801A000800000020080000003C02000866
:101A7000881A000808000020E00A00005C02000844
:081A800000000000000000005E
:020000040801F1
:10000000434536344D4E4633030000008000000067
:1000100056414C4401000000514C876A0000020820
:10002000105802005DD4650178B400205103020825
:100030007D5A6F34EE3EC6C9346EFE25DC706A2BE5
:1000400035485A1B26BEF5525A1F8B064CDBFC2145
:1000500000000000000000000000000000000000A0
:100060000000000000000000000000000000000090
:10007000000000000000000000000000B939C0EDE1
:020000040802F0
:1000000078B40020510302085BE203086BC70308C1
:1000100051E20308310F0208B5FB0308000000009D
:1000200000000000000000000000000095E7030849
:10003000693603080000000065E203085DED03086F
:100040006B0302086B0302086B0302086B030208D0
:100050006B0302086B0302086B0302086137030895
:1000600079370308D5370308ED3703086B03020817
:100070003932030845320308E1330308E533030846
:100080001534030821340308FD0C02086B03020831
:100090006B0302086B0302086B030208293803088C
:1000A000C9F103086B0302086B0302086B03020823
:1000B0007DF503086B0302086B03020881C7030880
:1000C00075C703086B0302086B0302086B03020881
:1000D0006B030208C5FA03086B0302086B030208EE
:1000E0006D36030869E203086B0302086B0302081C
:1000F0006B03020889F503086B03020869340308DF
:100100006B0302086B0302086B0302086B0302080F
:1001100001F903086B0302086B0302086B03020872
:10012000FD34030801350308493503084D3503083C
:100130006B0302086B0302086B0302086B030208DF
:100140006B0302086B0302086B0302086B030208CF
:100150008535030889350308B93503084DFB0308C5
:100160006B0302086B0302086B0302086B030208AF
:100170006B0302086B03020800000000000000008F
:100180006B0302086B0302086B0302086B0302088F
:100190006B0302086B030208000000006B030208F7
:1001A0006B0302086B03020800000000000000005F
:1001B0006B03020800000000000000006B0302084F
:1001C0006B0302086B0302086B0302086B0302084F
:1001D0006B0302086B03020800F002F800F08EF8CF
:1001E00014A696E8000CB244B344DA4501D100F0FD
:1001F00085F8BAE80F000FA696E83000A5EB0405D5
:1002000004EB0607AAEB0704A7F101074FEA15154F
:100210004FEA3414A4F10104AC4201D300F06EF8AB
:1002200013F0010F18BFFB1A43F0010300F001F8AF
:10023000DBE718477C530200FC5302000A444FF0EE
:10024000000C10F8013B13F0070408BF10F8014B35
:100250001D1108BF10F8015B641E05D010F8016B7A
:10026000641E01F8016BF9D113F0080F1EBF10F8DE
:10027000014BAD1C0C1B09D16D1E58BF01F801CB01
:10028000FAD505E014F8016B01F8016B6D1EF9D584
:100290009142D6D370470000103A24BF78C878C185
:1002A000FAD8520724BF30C830C144BF04680C607C
:1002B000704700007047000000230024002500263E
:1002C000103A28BF78C1FBD8520728BF30C148BFB9
:1002D0000B607047632900F01B84732900F02084B1
:1002E000002070471FB523F0F0FA9DE8030000F0EE
:1002F000A5FB00F026FA1FBD10B510BD00F07CFC78
:100300001146FFF7EFFF21F069FE00F09AFC03B4FD
:10031000FFF7F2FF03BC00F0CBFC00000B49D1F863
:1003200000C04A685CF8043B1068184442F8040BAB
:100330008C4528BFA1F1DC0C8A4228BFA1F1DC0268
:10034000C1F800C04A6020F000407047E4FF04207C
:100350000948804709480047FEE7FEE7FEE7FEE759
:10036000FEE7FEE7FEE7FEE7FEE7FEE70448054995
:10037000054A064B70470000B9F10308D90102088D
:1003800078AC002078B4002078B0002078B000204D
:1003900070B5064600F036FB056806F10B0020F04C
:1003A0000704B4429CBF002070BD2B466A68BAB1F6
:1003B0001068A04210D304F1080188423CBF506885
:1003C000586007D35168101941601168091B01601A
:1003D00058601460101D70BD13465268002AE7D1A2
:1003E0002146284600F016FB0028DED170BD70B50E
:1003F0000446051F00F006FB0068002C14BF44688B
:1004000070BD002C18BFAC423CBF20466468F8D3D6
:1004100001680A18AA4218BF456003D12A68054638
:100420001144016028684119A1421CBF6C6070BD75
:100430006168696021680844286070BD53EA020C55
:1004400000F069802DE9F04B4FF00006002B1FBF34
:10045000B3FA83F503FA05F424FA05F65E4012BFF9
:100460001643B2FA82F502FA05F4C5F120051EBF63
:1004700022FA05FC44EA0C04203556EA044C4FEA03
:10048000144418BF641C4FF000084FF0000990425C
:1004900071EB030C39D3002919BFB1FA81F701FAC6
:1004A00007F6B0FA80F700FA07F6C7F120071EBF7B
:1004B00020FA07FC46EA0C062037B6FBF4FCA7EB53
:1004C0000507103F07F01F0BCBF120062CFA06F6AC
:1004D0000CFA0BFB44BFB3460026202FA4BF5E4698
:1004E0004FF0000B5BEA060C08BF4FF0010B19EB55
:1004F0000B0948EB0608ABFB027C06FB02CC0BFBAE
:1005000003CCC01B71EB0C01C1E70B460246414610
:100510004846BDE8F08B13B5084318BF4FF0FF30D5
:100520000146AFF30080BDE81C407047B2F12003E4
:100530000AD5C2F1200301FA02F120FA03F341EADD
:10054000030100FA02F0704700FA03F14FF00000D7
:100550007047B2F120030AD5C2F1200320FA02F05D
:1005600001FA03F340EA030021FA02F1704721FA8D
:1005700003F04FF0000170470FB41CB50C0007AA40
:10058000009007D04142A14202D32044401E01E026
:100590004FF0FF30074B7B4469460190069800F00E
:1005A00092FA0020002C01D0009908701CBC5DF864
:1005B00014FB00005305000070B50C460546012AE7
:1005C00005D02878800600D5EA69002302E00123DF
:1005D00005E05B1C934202D2E05C0028F9D1A869D7
:1005E000E618C01AA861286A184428622846AFF3A2
:1005F000008004E0D5E9012114F8010B9047B442D2
:10060000F8D32846AFF3008070BD2DE9F0474FF0D6
:10061000000A89460446C0F820A02046E1688847C1
:10062000002876D0252806D0D4E901219047206AF9
:10063000401C2062F1E7E168204600258847C4F8A5
:100640001CA006460027C4F818A02A2E09D0304660
:1006500021F002FA38B304EB8708303EC8F818607E
:1006600019E059F8041B204604EB87029161E16808
:100670008847012F064618D1E069002820DA25F0C6
:1006800020051DE0D8F8180000EB800006EB4000C4
:100690003038C8F818002046E1688847064621F03F
:1006A000DBF90028EED1012F0AD02E2E08D12046EA
:1006B000E16888477F1C0646022F45F02005C4DB11
:1006C000A069002803DA404245F00105A061E8076F
:1006D00001D025F01005B6B1A6F14100192802D8C5
:1006E000203645F400654A463146204625604D4691
:1006F000FFF7F0FD58B1012806D0ED1D25F00700E9
:1007000000F1080989E704E005F1040985E73046AE
:100710008AE7206ABDE8F0870B4910B5A1F17C0299
:100720000A4CC2E93712372106E000EB104342F8C9
:100730002130074B00FB03400B1EA1F10101F4DC4B
:1007400010BD0120E8E7000084FF0420E119D6660F
:10075000CD0D010040EA010310B59B070FD1042A1B
:100760000DD310C808C9121F9C42F8D020BA19BA7C
:10077000884201D9012010BD4FF0FF3010BD1AB1E1
:10078000D30703D0521C07E0002010BD10F8013B36
:1007900011F8014B1B1B07D110F8013B11F8014B5D
:1007A0001B1B01D1921EF1D1184610BD10B5431C80
:1007B00002E010F8011B71B18107FAD14FF001324C
:1007C00002C88C1A8C4314EAC211F9D0C01A0A0666
:1007D00003D0C01E10BDC01A10BD0A0401D0801E77
:1007E00010BD0902FCD0401E10BD032A40F230802B
:1007F00010F0030C00F0158011F8013BBCF1020F62
:10080000624498BF11F801CB00F8013B38BF11F8E2
:10081000013BA2F1040298BF00F801CB38BF00F8F9
:10082000013B11F0030300F06780083AC0F0088034
:1008300051F8043B083A51F804CBA0E80810F5E75A
:10084000121D5CBF51F8043B40F8043BAFF300803D
:10085000D20724BF11F8013B11F801CB48BF11F8B2
:10086000012B24BF00F8013B00F801CB48BF00F882
:10087000012B7047431A28BF9A427FF6B6AF104447
:100880001144032A40F2268010F0030F1EBF11F816
:10089000013D521E00F8013D10F0030F7FF4F6AF4A
:1008A00011F0030300F05381083AC0F00B8051F8B7
:1008B000043D083A51F804CD40F8043D40F804CD19
:1008C000FFF7F3BF121D5CBF51F8043D40F8043D33
:1008D000AFF30080D20724BF11F8013D11F801CD1C
:1008E00048BF11F8012C24BF00F8013D00F801CDEC
:1008F00048BF00F8012C704710B5203AC0F00B80BB
:10090000B1E81850A0E81850B1E81850A0E8185005
:10091000203ABFF4F5AF5FEA027C24BFB1E818507B
:10092000A0E8185044BF18C918C0BDE810405FEADD
:10093000827C24BF51F8043B40F8043B08BF704759
:10094000D20728BF31F8023B48BF11F8012B28BF5E
:1009500020F8023B48BF00F8012B704702F0FF036C
:1009600043EA032242EA024200F002B84FF00002DA
:100970000429C0F0128010F0030C00F01B80CCF1B1
:10098000040CBCF1020F18BF00F8012BA8BF20F81F
:10099000022BA1EB0C0100F00DB85FEAC17C24BF73
:1009A00000F8012B00F8012B48BF00F8012B70471D
:1009B0004FF0000200B5134694469646203922BFF8
:1009C000A0E80C50A0E80C50B1F12001BFF4F7AF43
:1009D000090728BFA0E80C5048BF0CC05DF804EB25
:1009E000890028BF40F8042B08BF704748BF20F893
:1009F000022B11F0804F18BF00F8012B7047704791
:100A000070477047004870471CAC00207047704723
:100A10007047704738B504460A4600206946AFF370
:100A20000080002808BF38BD02460099204600F02B
:100A3000C1F8012038BD012000F0D6B8F8B5AFF3F9
:100A40000080054600200C460C2000BF0646A81971
:100A5000A0420DD9324669460020AFF3008007005E
:100A600008BF00F0C1F80098A04218BF0546C4199D
:100A7000FFF7C8FF05600746F01D20F00700461984
:100A8000284600F00AF8B44208BFF8BDA21B314660
:100A90003868BDE8F84000F08DB800210160416081
:100AA00070470C20704710B500F080F8006810BD4A
:100AB00010B5044600F07AF8046010BD01694A1CC4
:100AC00002610878704700B58FB0CDE9013100218F
:100AD000059105497944CDE9031011466846FFF7B1
:100AE00094FD0FB000BD0000E5FFFFFFD1E900233A
:100AF0009A4202D2531C0B601070704710B54369C4
:100B000013B1AFF3008001E0FFF756FD012010BDE7
:100B1000127800F124010A7000224A700122EDE7E8
:100B200011684FF0FF32E9E7431A28BF9A427FF677
:100B3000E3AE1044114410F0030F1EBF11F8013D45
:100B4000521E00F8013D10F0030F7FF4F6AF103A8B
:100B5000C0F00A8010B531E9185020E91850103A59
:100B6000BFF4F9AFBDE81040530724BF31E90810C6
:100B700020E9081044BF51F8043D40F8043D12F04C
:100B8000030F08BF7047D20728BF31F8023D48BFA6
:100B900011F8012C28BF20F8023D48BF00F8012CB5
:100BA000704700000048704714AC002000487047B0
:100BB00014AC0020034640688C46002818BF8842C9
:100BC0003CBF03464068F8D318681844884207D0F1
:100BD0000CF1030020F00700001D411A521A0146D3
:100BE000081D0A60FFF703BC10B500F039F8BDE836
:100BF000104000F02FB870477546FFF7D3FFAE46A0
:100C000005006946534620F00700854618B020B518
:100C1000FFF7ACFBBDE820404FF000064FF00007A7
:100C20004FF000084FF0000BAC46ACE8C009ACE850
:100C3000C009ACE8C009ACE8C00921F007018D4645
:100C4000704710B50446AFF300802046BDE8104061
:100C5000FFF75DBB002801D000F02AB87047000004
:100C600010B5012805D0002103A000F027F80120CD
:100C700010BD09A1F8E7000053494752544D454DB6
:100C80003A204F7574206F662068656170206D652D
:100C90006D6F7279000000003A2048656170206D28
:100CA000656D6F727920636F727275707465640020
:100CB00001491820ABBEFEE72600020070B50546CC
:100CC0000C460A2000E06D1C00F011F835B12878C0
:100CD0000028F8D102E0641C00F009F814B1207873
:100CE0000028F8D1BDE870400A20AFF3008008B5B5
:100CF00069468DF800000320ABBE08BD104910B551
:100D00000A68002010600868826822F00102826090
:100D10000868C06B43F2903180B2A0FB010147F636
:100D2000FF72801841F100014FF6FF720023FFF7B8
:100D300085FB0146BDE81040024810F035BF0000B9
:100D400030A50020A0F40420464910B54A6822F4DA
:100D500040324A604A6843681A434A6001684A68F8
:100D600022F480724A6001684A68036942EA0322F9
:100D70004A6001684A6822F040724A6001684A6825
:100D800083681A434A6001688A6822F400628A60B4
:100D900001688A68C3681A438A60816A6FF070626A
:100DA000D14201688A6822F070628A6001688A68AC
:100DB0000CD0836A1A438A6001688A6822F0405224
:100DC0008A6001688A68C36A1A4301E022F04052CF
:100DD0008A6001688A6822F002028A6001688A6873
:100DE000037E42EA43028A6090F8201000290168DD
:100DF0004A680FD042F400624A6001684A6822F4EF
:100E000060424A6001684A68174C436A04EB433306
:100E10001A4301E022F400624A600168CA6A22F4BF
:100E20007002CA620168CA6A838B104C04EB0353D8
:100E30001A43CA6201688A6822F400728A600168F3
:100E40008A6890F8303042EA43228A6001688A68F2
:100E500022F480628A6001688A68406942EA8020E0
:100E6000886010BD0023014000E0FFFF0000F0FF9C
:100E700018B50023009303098DF8003000F00F002F
:100E80008DF8010000206C46235C0A2B01D2303320
:100E900000E037330B54401C0228F5DB02201080A1
:100EA000002018BD1E4C08B5656814F081FF13F0D2
:100EB000B3FB4FF0E02100200861486188611948C8
:100EC000016841F02061016072B60020421E81007D
:100ED00001F1E021C1F88021C1F88022401C0828DE
:100EE000F5D31148016841F480410160006800F4C5
:100EF000804000900D48016821F003010160016805
:100F000041F0010101600748001D0460BFF34F8FED
:100F1000BFF36F8F206880F3088862B6A847FEE7AA
:100F20000000FF1F04ED00E044380240003801409B
:100F30000C2006F0FBFC11F00DFA000030B5002883
:100F400032D0016A00292FD01849B1F85E20002A5A
:100F50002AD091F87D10002926D100F12801C06A1D
:100F60004A6844088868204488608868904206D3AC
:100F700088688B68B0FBF2F000FB123088608A6AE8
:100F8000C86A121940F100008A62C862002001EBB1
:100F90008002183252E8003F234442E80035002D19
:100FA000F8D1401C0328F2DB30BD0000B002002065
:100FB0002DE9F04F85B015461C460A460646DDE988
:100FC0001010DDE90E733762C6E90341C6E9012559
:100FD0000246B37706F1280020F006FE694908684A
:100FE0000A8952085043684A904200D2104681460E
:100FF000086888B187B1B9FBF7F107FB119058B9C0
:101000006248006A40B1006830B16148B0F89802A7
:1010100001285BD0022859D000208046002D7DD0C9
:10102000DFF870A128684FEA074BE0B3E7B312F08E
:101030005DFEB8F1000F06D0574A2968914201D0F1
:10104000514500D14846B0FBFBF1491C07FB01F2BA
:10105000B0FBF2F0491E69600021401EC5E9021094
:101060002846296116F088F84B492868884201D043
:1010700050452FD1494A904212D0B0F1804F0FD045
:10108000474A90420CD088420AD04649884207D04D
:10109000504505D04449884202D04449884219D17C
:1010A0001421684601E015E012E0FFF781FC5FEAD9
:1010B000080000D0072000900020019069462846D3
:1010C00016F03DFD30B112F0E1FB03E00120A4E792
:1010D0000020B06014B3206800B3E7B312F006FE3E
:1010E000B8F1000F06D02C4A2168914201D0514539
:1010F00000D14846B0FBFBF1491C4F43B0FBF7F071
:10110000491E0025401E6160C4E902502046256149
:1011100016F032F820492068884200E02EE001D025
:1011200050452BD11D4A904212D0B0F1804F0FD0C4
:101130001B4A90420CD088420AD01A49884207D0F4
:10114000504505D01849884202D01849884215D127
:101150001421684600E00FE0FFF72AFC5FEA080070
:1011600000D00720CDE900056946204616F0E7FCCF
:1011700020B112F08BFB01E00020F06005B00020F0
:10118000BDE8F08FA0EC042000E2040050E1042050
:101190002836002000040140000800400000014003
:1011A00000040040000C00400040014000180040D6
:1011B00038B1406828B1016819B18868C00703D008
:1011C00018E04FF0FF307047886840F001008860F9
:1011D0000D480E4A0068B0FBF2F0102801D2102032
:1011E00006E04FF40062904202D9104600E000BFD2
:1011F000401EFCD2086820F004000860886840F4B3
:101200008000886000207047947B0420400D03001C
:1012100030B54FF0FF35A0B14168096889B10022AF
:101220004CF250340FE08B68DB070AD01346521C97
:10123000A34208D9086820F0080008606FF0010098
:1012400030BD284630BD0B685B07ECD5CA6B828287
:101250000A6CC2824A6C02838A6C4283086820F05E
:101260000C000860002030BD00BF704770B5044618
:10127000006A002871D02046FFF7F6FF61684FF43E
:10128000885009684860E068016801B9A068006A90
:1012900005684348296821F018012960296821F070
:1012A0000101296000E000BF2968C90701D0401E84
:1012B000F9D22868C00702D06FF0010070BDEFF3CB
:1012C000108672B63748A8602069E860E06A400876
:1012D0006860002104F1280020F096FD3248854224
:1012E00007D131494FF474602039086039201EF06D
:1012F0006EFD06B962B6A068006878B3002141624D
:10130000A0680068026922F001020261E0680068DA
:1013100040B14162E0680068016921F001010161AA
:10132000E06800E0A0680068C16841F48071C160B5
:1013300060680068816840F201121143816028688A
:1013400040F019002860A168184A0868904206D148
:10135000016A41F4805101620EE01EE016E0144A79
:10136000904210D1016A41F001010162A068006859
:10137000416C41F400414164A0680068016841F09B
:101380000101016002E0084616F06EF8E0680068AE
:1013900018B1016841F001010160002070BD00003A
:1013A000400D03004C20014028640240000800402A
:1013B0000000014070B504004FF000051CD06068CB
:1013C000D0B10068C0B1A06800F054F8E06820B166
:1013D000A168884201D000F04DF86068006881681B
:1013E000214A114081606168A1B1E06838B10268AA
:1013F0002AB1006A58B902E04FF0FF3070BDA06812
:1014000018B102680AB1006A08B9886B08B10168AE
:1014100000E0002101B315480A6822F018020A60B2
:101420000A6822F001020A6000E000BF0A68D207E1
:1014300001D0401EF9D20868C00702D06FF0010544
:101440000AE00B48814207D109494FF47460203902
:10145000086039201EF0BBFC60680068016821F05C
:101460001E010160284670BDFEFEBFBF400D030097
:101470002864024000281CD00168002919D0CA68DD
:1014800022F48072CA6001680A6822F001020A60D0
:10149000084A0168914203D10A6A22F4805205E0A9
:1014A000054A914203D10A6A22F001020A6216F04B
:1014B00057B870470008004000000140002903D0E1
:1014C0000844401E491E884370472DE9FF4F81B0F4
:1014D0001F461546040010D000F0CEF904F58871BF
:1014E0000091029800F03EFC060009D0204601F071
:1014F0001BF9304605B0BDE8F08F4FF0FF30F9E73B
:10150000D4F81001416B006B00F0C3FD00287ED0C1
:10151000D4F81001C16B806B00F0BBFD002876D0C1
:10152000D4F81001416C006C00F0B3FD00286ED0BF
:10153000D4F8100100F0BFF9002869D0002D67D061
:10154000874265D305EB07080027C4F80871D4F873
:1015500010112E46B946886D60B34D6D2021FFF7FE
:10156000ADFF0746B54253D305EB070AC2454FD836
:10157000D4F81011C86DFF2804D98A6DC969831881
:101580008B4205D9204601F0CFF86FF00300B1E798
:10159000D4F8181101EB000B11462846FFF7E6F9C5
:1015A000D4F810015946826D2846FFF71EF9A81B92
:1015B00007445546D4F81001406B90B12021FFF745
:1015C0007DFF284440455CD8C4F8D850D4F81011A9
:1015D0000546871B4A6BC4F8DC20096BC4F8E01091
:1015E00005E0C4F8D890C4F8DC90C4F8E090D4F8D2
:1015F0001001C06BA8B12021FFF760FF28444045CF
:101600003FD8C4F8FC50D4F81011CA6B01E03EE09A
:1016100037E0C4F80021896B0546871BC4F8041124
:1016200005E0C4F8FC90C4F80091C4F80491D4F823
:101630001001406C90B12021FFF740FF2844404545
:101640001FD8C4F8F050D4F810110546871B4A6C17
:10165000C4F8F420096CC4F8F81005E0C4F8F09060
:10166000C4F8F490C4F8F890D4F8D80078B1D4F85D
:10167000F00060B1D4F81011A8EB0508CA6A9045D3
:101680000BD2204601F050F86FF0040032E72046FC
:1016900001F04AF86FF007002CE720211046FFF711
:1016A0000DFF074404F59670814600F045FA482185
:1016B00004F5B070FFF77CF9D4F81001466916F410
:1016C000706F03D1029900F078FB06434FF00110D0
:1016D000C4E95806C4E95A58D4F8D800C4F87001CF
:1016E000D4F8DC00C4F87401D4F8FC00C4F8780124
:1016F000D4F80001C4F87C01D4F8F000C4F88001EB
:10170000D4F8F400C4F80871C4F88401494600987C
:1017100000F06EFA050004D0204600F0ADF828462F
:10172000E8E6012060800020E4E60000054800684B
:101730000549884202D00549884201D101207047FD
:101740000020704714770420494145434B4F4D53C7
:101750002DE9F05F414A0024661E1368FFF7E6FF9B
:10176000002879D03E48834201D1012700E00027BC
:101770004FF0000B91461046C2F820B0C2F818B0E6
:10178000C2F81CB052688568DFF8D880022A02D3FC
:101790006FF0010051E06FF0040A102D10D807B16E
:1017A00075B10121104600F0DFFEC0BBD8F8D800AB
:1017B00040B1D8F8F01029B1D8F8DC10A94204D211
:1017C00050463AE04FF0FF3037E0FFF7CFF8D8E966
:1017D0003C01FFF7CBF8D8F8FC0018B1D8F800119D
:1017E000FFF7C4F857B11D48D8F8D810243003E0EB
:1017F00010F8012B01F8012B6D1EF9D2194801F0E8
:10180000ADF8060000D40020D8F8F440102C00D920
:101810001024124923463431D8F8F02004E00CE0BB
:1018200012F8015B01F8015B5B1EF9D2042C04D3B2
:10183000D8F8F0100968C9F81C10C9F80C00C9F8EC
:101840001060D8F80C01C9F81400C9F8184006480F
:10185000C9F82000C9F800B0BDE8F09F1477042053
:1018600049414543B8F704204345414901490860CF
:10187000704700001077042010B504000ED0608877
:10188000012806D1D4F8100118B104F5887000F0D1
:101890002EF92046BDE8104000F046BF10BD0128DB
:1018A00005D0022802D0032803D00020704704206E
:1018B00070470120704770B5040019D02021606B7B
:1018C000FFF7FCFD05462021E06BFFF7F7FD05441F
:1018D0002021606CFFF7F2FD05442021A06DFFF789
:1018E000EDFD05442021E06AFFF7E8FD284470BDC6
:1018F000002070BD10B500F0E7FCE0B90F490868A2
:10190000401C13D1087D88B90024204600F066F9F8
:1019100038B1D0E900100A4B0A4A594050400143FF
:1019200007D0641C022CF0D3002020B14FF480308B
:1019300010BD0120F9E7002010BD0000700100205B
:10194000474D49413233454370B500B10120134C36
:101950000025207560B100F0B7FC70B1104801F0AF
:101960002AF80F48FFF788FF25756FF0070012E08F
:101970000B4801F020F8256104E02068401C05D0E8
:1019800000F0BEFDBDE8704000F032BF044801F039
:1019900012F86FF001002061F4E7000070010020F0
:1019A000B8F7042030B5184DC1B00446022802D360
:1019B0006FF0010005E01548B0F85E0018B16FF057
:1019C0000700286105E06A46204600F030F92861EA
:1019D00020B1204600F0D1FE41B030BD2868A042C1
:1019E00008D109484FF4807269461830FEF784FF29
:1019F00000F086FD204600F0C0FE2868A042EBD132
:101A000000F0F6FEE8E7000070010020B0020020C0
:101A100070B50546144C4FF0FF3604F11800FF2D49
:101A200003D0022D08D3700018E04FF480712660B7
:101A3000FEF7BEFF002005E00146284600F0FEFA52
:101A400040B126602061094800F0B5FF0748FFF764
:101A500013FF04E0217D284600F086FD2061BDE8EB
:101A6000704000F0C5BE000070010020B8F70420EF
:101A700010B500F029FC00280ED0084800F09BFFAC
:101A80000648FFF7F9FE06480168491C02D06FF0CE
:101A9000070101610021017510BD0000B8F70420A5
:101AA0007001002001F0010252420A4203D0FF29D6
:101AB00001D9814202D36FF00300704700207047C4
:101AC00030B5002A0FD0084C11F8013B58400023D4
:101AD000C50702D084EA500000E040085B1C082BD8
:101AE000F6D3521EF0D130BD2083B8ED704718B147
:101AF0008069002802D000474FF0FF30704708B5DA
:101B0000694600F05BF810B16FF0010008BD009865
:101B100003C811F02DFF0028F8D06FF0050008BDB4
:101B2000012805D0022802D0032803D000207047E6
:101B3000042070470120704710B504000DD03421F7
:101B4000FEF736FF4FF0011020600120606003486F
:101B5000A0600348E0600348206110BDE54A030827
:101B60005D460308ED1A020818B1012804D00020D0
:101B700070474FF4805070474FF4905070470028E2
:101B800009D0806811B1096901B10846012803D064
:101B9000022804D0002070474FF4807070474FF443
:101BA0000060704708B5694600F008F808B10020E9
:101BB00008BD009803C8081A401C08BD09B10228D6
:101BC00002D36FF001007047034A00EB400002EBC4
:101BD0008000086000207047A840040808B56946E6
:101BE000FFF7ECFF08B1002008BD0098006808BDB1
:101BF00010B58EB0040004D02069002803D021B1B4
:101C000007E04FF0FF300EB010BD6846FFF794FFBD
:101C100069460868B0F1011F02D14868012802D066
:101C20006FF00700EFE7226908469047EBE72DE9E0
:101C3000F74FADF5427D0C46C0A9C298FFF7BEFF35
:101C4000002811D1C2980CB1C19403E0FFF78CFFBA
:101C5000C19068B10020002806D16946C19816F0ED
:101C6000EDFF40B16FF002000DF5457DBDE8F08F4E
:101C70006FF00100EFE74FF4807B5A46694680A879
:101C8000FEF73AFE80A8C29900F0DEF80028EBD1FA
:101C9000C298FFF734FF0028E6D1C098879E4FF026
:101CA000FF39076806F2FF104FEA502800244FF46E
:101CB000007A2BE04CB1C1986946204416F0BEFF73
:101CC00018B1C09800F03CF8CCE75546AE4200D8B9
:101CD00035461CB12A466946484605E05D4506D9A9
:101CE000A5F58072484640A9FFF7EAFE81462A46DC
:101CF0006946384611F0ECFE28B1C09800F020F893
:101D00006FF00500B0E7761B2F44641C4445D1D327
:101D100093996FEA0900814205D0C09800F010F84D
:101D20006FF00600A0E7C499C29800F087F904009C
:101D300004D0C09800F004F8204695E7002093E70F
:101D40001CB500210091019148B100680822694644
:101D500011F0BEFE002801D06FF005001CBD4FF051
:101D6000FF301CBD38B50C00054623D06946FFF78F
:101D700025FF00281DD10021284600F05FF900282A
:101D800017D100980068C4E9000500990A68A260AC
:101D90004A68E260026A0AB10B681A4422610A6862
:101DA000436A1A446261806A08B109680844A06104
:101DB000002038BD4FF0FF3038BD38B50A4604006A
:101DC00004D069461046FFF7F9FE08B1002038BD7F
:101DD000A08A10F47060FAD121460098FFF7CFFE78
:101DE00038BD30B450B149B143693BB10A68B2F172
:101DF000011F06D06FF0070030BC70474FF0FF3076
:101E0000FAE78A686FF00404CAB10068CA68C56A54
:101E1000AA4214D3426B22B10D6985B14D69954236
:101E20000DD3C26B22B18D694DB1CD69954206D3F8
:101E3000406C30B10A6A12B14A6A824201D220462D
:101E4000DAE730BC084618472DE9F04FC1B00D461F
:101E5000040016D040A92846FFF7B0FE002812D192
:101E60004098724E724BD0E90021891A01F10108A5
:101E7000D4E90021724059406FF003090A4371D13F
:101E800004E04FF0FF3041B0BDE8F08FA1686FF083
:101E90000706012969D1E168B1F1011F65D1A16C83
:101EA000012962D1216911B18068814264D1207D0C
:101EB000C00757D029462046FFF77FFF0546214639
:101EC0004098FFF75CFE4FF40067B84201D14FF431
:101ED0006060054250D0681E05424DD14FF4007B32
:101EE0004FF4807A5D4504D0B5F5806F01D0BD42D6
:101EF0001ED1206BFFF714FE98B3616B89B3B1FB61
:101F0000F0F200FB121272BB5D4502D100EB400003
:101F100008E0B5F5806F04D0BD4209D100EBC000E8
:101F200000E0C000B1FBF0F200FB1210D8B904E0F1
:101F3000554502D1606E40283DD2E06B0028A06B71
:101F400012D0FFF7EDFD60B1E16BB1FBF0F200FBE9
:101F5000121232B9C000B1FBF0F200FB121010B93E
:101F600005E002E049E026E008B130468BE7409901
:101F7000A0690968884202D06FF0010083E7E06938
:101F8000FF2818D9404516D8A16D0546B1B1294B97
:101F9000626D1344B3F5703F2FD2E56DFF2D2CD940
:101FA00085422AD253189A4205D8234A934202D82E
:101FB0002944814206D96FF0040064E7616DE1B9FC
:101FC000E16DD1B9616AFFF76DFD0028CED1606A7D
:101FD000A84212D2216A09B1A9420ED2A06A08B160
:101FE000A8420AD219B1E069FFF75CFD28B9A16ADD
:101FF00029B1E069FFF756FD08B1484643E7554669
:10200000524621466846FEF777FC002014902A4687
:102010006946401EFFF754FD216DC043814202D046
:102020006FF006002FE700202DE70000474D4941E3
:1020300032334543804BFFDF80740420F8B50D46F2
:1020400006466946FFF7BAFD002818D100983146C8
:1020500004682046FFF7F8FE002810D10098E269D6
:1020600001684FF0FF3001F58071A2F58072FFF733
:1020700027FDE16CC043814202D06FF00600F8BD3D
:102080002DB14FF4807221462846FEF735FC002022
:10209000F8BD00B551B100280AD0FFF700FC30B1FF
:1020A000B1FBF0F200FB121008B902E008B1002009
:1020B00000BD012000BD000070B5040022D0FFF774
:1020C00019FC0246B0F5703F00D900224FF4703081
:1020D0000D4D00590119E960C5E901120B481FF0C7
:1020E00083FD0B48844207D1D5E901010844094921
:1020F000884201D8012000E000206875BDE87040EA
:1021000000F0FEB970BD00007001002060F90420ED
:1021100080B4002080740420002903D00844401EAD
:10212000491E8843704700002DE9F04104002DD07E
:102130001948417D51B3D0E901504619A06D6FF0A7
:10214000040750B1616D08442021FFF7E5FF616D80
:10215000A9421ED3B0421CD805462021606BFFF770
:10216000DBFF05442021E06BFFF7D6FF054420216B
:10217000606CFFF7D1FF05442021E06AFFF7CCFF38
:102180002844B04205D80020BDE8F0816FF0070078
:10219000FAE73846F8E700007001002070B5044601
:1021A0002021FEF7E3FB2F48304D008820802E4889
:1021B000C1896180018AA180418AE18001892181F0
:1021C000418961818189A1810188E18141882182E0
:1021D00080886082D5F800034FF6FF71A0FB0101F3
:1021E00040F6E4425310C018002641F10001334686
:1021F000FEF724F91E4AA082E68292ED000A1D49EC
:1022000010EE100ADFED1C0A884201DDB0EE600A14
:1022100010EE100A4FF047439FED181A984201D96B
:10222000B0EE410ABDEEC00A10EE100A208392ED16
:10223000010A10EE100A884201DDB0EE600A10EECD
:10224000100A984201D9B0EE410ABDEEC00A10EE64
:10225000100A6083D5F8F802A083D5F8F802000CC4
:10226000E08370BD3E00002048EB0420A0F4042071
:10227000987B042000FEFF4600FEFF46000000C7DA
:102280007FB50E4800240294406803904FF48C718F
:102290000B48FEF78DFB0A48651E0123056000947C
:1022A00003AA02A90748019400F0F2FA054800F0D9
:1022B00082FB04480565C0F80C417FBDC04004089E
:1022C00070010020B8F704200448406820B1D0F81D
:1022D000C00008B10120704700207047A0F404201E
:1022E0000AB1084402E000207047801A9042FCD2F4
:1022F000704712B900207047891A9142FCD2884277
:1023000001D3401A7047081A101A70472DE9F05F80
:102310000C465FEA000A93464FF0FF3824D010467F
:10232000FFF7BDFA00B3B4FBF0F100FB1141D9B9DE
:10233000B4FBF0F6D6B372B62848836828498F6894
:1023400042684D6862B6806B70B1886B60B1402A9C
:102350000AD3402D08D32348006828B12248D0F87A
:102360001001446E402C02D34046BDE8F09F40214E
:102370001846FFF7BEFF81462A4640213846FFF740
:10238000B8FF202C01D2154F00E0154F01D3A4F166
:102390002004A04600D248467A684FEA8611A1F18F
:1023A0004001FFF7A6FF0546002412E013E005EB0D
:1023B0004801384600F08CF803B222465946504690
:1023C00000F036F97A6840212846FFF789FF054674
:1023D000641CB442EBD30020C7E7000060EB04208C
:1023E000A0EB0420A0EC0420B8F704202DE9FF4F57
:1023F00089B00024169F099899460D46661E60B163
:10240000B9F1000F09D047B10B98FFF748FA20B196
:10241000B5FBF0F100FB115119B130460DB0BDE82C
:10242000F08FB5FBF0F616B3F019401EB0FBF7FBCA
:1024300072B6264988684A68009262B6896B09B10B
:10244000202A15D26846FFF7A9FE6D460DE0B4FBC1
:10245000F7F007FB1041224619F801000B9935F9F6
:102460001030099800F0E4F8641CB442EFD32BE07C
:102470002021FFF73EFF4FEA4B112039009AFFF76A
:1024800038FF824600201CE000250EE019F8050008
:102490000AEB40010D4800F01BF803B222460B99ED
:1024A000099800F0C5F8641C6D1CBD4201D2B4420D
:1024B000ECD320215046009AFFF712FF824608F124
:1024C000010080465845DFD30020A7E720EC042018
:1024D00010B520B1826B12B14368022B01D20020EB
:1024E00010BD4368B1FBF3F003FB1010411CB1FBBE
:1024F000F3F403FB1413105CD15C40EA012010BD1F
:1025000070B5174800F057FA1548FFF7B5F9154DA3
:102510006FF007042868401C687D07D020B1A868C8
:1025200010B1FFF7D1FE28B12C6170BD0028FBD09F
:102530000024F9E70B481830FFF7F6FD28B9D5E974
:10254000023207482968FEF7C0FF28610028ECD155
:10255000287D0028E9D0BDE87040014800F024BA89
:10256000B8F70420700100202DE9F0470E462849F5
:1025700080468946FFF762FD254D04004FF0FF3786
:10258000A5F1180502D02F602C612EE0C5F800805F
:10259000FFF79AFE0446687D10B1A86800B184B1C7
:1025A0001C4800F008FA1B48FFF766F96FF00700B7
:1025B0002861002E03D0002C01D000212975BDE830
:1025C000F0874846FFF7B0FD286130B9D5E90232FF
:1025D00010482968FEF779FF286104000DD04FF4F8
:1025E000807148462F60FEF7E3F90A4800F0E3F9EE
:1025F0000848FFF741F92046E1E7064826B100F018
:10260000D3F901202875F6E700F0D5F9F3E70000CB
:1026100088010020B8F70420002806D0002904D043
:102620000A46014601480FF017BA7047A0F404208B
:10263000012906D002290DD0032901D1190A81549C
:10264000704700EE103A00EB8200B8EEC00A80ED51
:10265000000A704720F8123070470000F8B5304D7E
:102660004FF0FF346888012832D1D5F810217AB3B1
:10267000D5F8D81061B3D5F8DC1049B3D5F81411EA
:102680001046D835FFF799FB064675E83601FEF788
:102690006DF930460826B0F5807F09D0B0F5007F8F
:1026A0000DD0B0F5806F15D0B0F5006F10D118E0E7
:1026B000D83595E80700D83DFFF728FE06E003204F
:1026C000D835009095E80700164B11E0040013D0B0
:1026D0002046F8BDD835009695E80700114B103319
:1026E00006E00920D835009095E807000D4B183317
:1026F000D83DFFF77BFEE9E7D5F8FC0068B1D5F8D7
:10270000001151B1FEF732F9FC350096054B95E802
:1027100007000833FFF76AFEF8BD0020F8BD00008F
:10272000B8F70420C040040810B504461C2100F589
:102730008870FEF73DF9342104F59670FEF738F9FC
:10274000482104F5B070FEF733F900219CB104F183
:102750009802C4F8D82003204023C4E93730C4E9E4
:102760003E01C4F800115032C4F804110823C4F823
:102770000811C4E93C23618010BD70B5CAB006469B
:10278000282140A8FEF714F93046FFF727FA05463E
:102790003046FFF707FA044669463046FFF74EFC1D
:1027A00018B30021AD228DF800219B228DF8012164
:1027B0008DF802618DF803114394CDE9410549B1CB
:1027C0000798449005984590159846900B98479027
:1027D0000D984890DA208DF824018DF825012621E6
:1027E00040A8FFF719FF4AB070BD0121DAE70000E9
:1027F00010B588B020216846FEF7DAF8224A00209A
:10280000517D01B1012011684B1C01D040F0020044
:10281000137D0BB140F004001C4B1C78A40701D5BC
:1028200040F008005B88012B01D140F01000AD237F
:102830008DF8003099238DF801308DF802000229BF
:1028400001D2C8B200E0FF208DF8030010690190AA
:1028500050680290906803900C4800F18001D0F815
:10286000DC000490486F05900848D0F80C010690F1
:10287000DA208DF81C008DF81D001E216846FFF738
:10288000CBFE08B010BD000070010020B8F7042096
:102890002DE9F05F9B46DDE90A8516460F460400E8
:1028A0004FF0FF3A58D0EFB3E6B3FEF7E5FF2078DC
:1028B0004FF00009C00706D0D4F8E40018B1FDF7C6
:1028C00096FDC4F8E490A4F800903888A080788839
:1028D000E080308820817088608184F854B0A4F84A
:1028E000568000201DB1404501DA295C00E000213E
:1028F0002218401C11744028F4DB2046FFF714FF17
:10290000402204F1980104F158001FF06DF90020F5
:1029100049462218401C82F898104028F9DB002014
:10292000221800E018E0401C82F8E8100828F7DBC5
:10293000A08840B1E28832B15043FDF729FDC4F8C8
:10294000E40048B101E0C4F8E410208840F0010040
:1029500020800020BDE8F09F5046FBE770B50400E2
:1029600002D02078800702D44FF0FF3070BD0D4EAA
:1029700075686088012807D01BF069FC7068401BEF
:10298000C4F80C01206D70BD04F5B07104F58870B9
:10299000FFF727FA7168491BC4F80C110028F2DB15
:1029A000206570BD001000E0002803D0018841F0D0
:1029B000020101807047002803D0018821F0020144
:1029C000018070477FB5284C002020766076A07685
:1029D000E076E086254E306808B1002000E0012056
:1029E0004FF48071CDE90210214B4A00CDE900235C
:1029F000204A2149214808F07FFE0125F8B1002135
:102A0000052008F099FD402118480CF005FD012231
:102A10001146052008F02EFC306B10B318491948F8
:102A2000828BC06892B2CDE90202CDE9001516484A
:102A30001649D0E909231648FEF7BAFA7FBD0121ED
:102A4000052008F079FD052008F07CFB09F01EF94F
:102A500014221049094808F09DFF0028DCD0257693
:102A6000DAE70021DBE7000000000020A0EC0420F2
:102A70000004024034AA002078A5002064770420D6
:102A8000007102008074042050E1042030A5002071
:102A9000F83C002034EB042070B5164D287818B1AE
:102AA0001548B0F8980208B1002070BDA87918B98F
:102AB0001CF078F80028F8D01CF077F80028F4D043
:102AC00000242C70AC710D48022180F8F012A0F89F
:102AD00012431BF081FF08B110F0D8FE0DF0A8FDE5
:102AE000074808A10A6882638988818780F83E4088
:102AF000012070BD0000002028360020A0F4042032
:102B00000001002043453634535F000070B5144C7B
:102B10002078002803D0FFF7BFFF08B1002070BD68
:102B200010480025B0F89802012817D00E4801215E
:102B300080F8F012A0F812531BF026FF08B110F035
:102B4000A5FE0DF075FD094809A10A688263898810
:102B5000818780F83E502570012070BD2570DDE72B
:102B60000000002028360020A0F4042000010020EE
:102B700043453634585F00002DE9F04140F23931C9
:102B8000484347F6FF7101EB80004FF6FF71B0FB41
:102B9000F1F4A4F1C800B0F5AF6F02D90811BDE897
:102BA000F081A4FB0456A5FB040206FB04220021CD
:102BB00005FB01221B490023A0FB017C02FB01C194
:102BC00000FB0311184842F6795238185141174A50
:102BD00045F6F323FDF732FC074615480021A5FB17
:102BE000002306FB003005FB0101124817231018D3
:102BF00041F10B01104AFDF721FC3D180F48104A26
:102C0000A4FB0001801841F1000152000023FDF7F0
:102C100015FC2844BDE8F041A0F60800404200F051
:102C200011B80000DC9C1B0000203D8800407A1099
:102C3000D3BD320000743BA400E8764857AE1B00B9
:102C400020A1070000F5C87140F6FF70814200D254
:102C500088B270470448B0F85E1019B990F87C004B
:102C6000002800D001207047B0020020084403492A
:102C7000B0FBF1F201FB120070470000805101002F
:102C800010B5002100B10170114CD4E902329A4212
:102C90001BD9B2F5004F18D9E46C9C4215D3A2F5AC
:102CA0000042934211D2D21A0FD0E31A934200D9B4
:102CB000134608B10124047064245008E3FB0401A6
:102CC0000023FDF7BBFBC0B210BDFF2010BD00000C
:102CD000B00200202DE9F047334F6FF0020907F5ED
:102CE0004055D5F8340230B1816B21B1096811B17A
:102CF0000020BDE8F087EFF3108672B618B1806B44
:102D000008B10068C0BB29490868C00709D1D5F8D7
:102D10003002C268120604D4D5F8382212F4A03F5B
:102D200002D04FF0FF303BE0C26822F08002C26068
:102D30001F48426922F0800242611E4C4FF0006041
:102D40004FF00008C4E9001040200101A060C4E970
:102D50000381C4F81480C4F81880C4F81C80C4F837
:102D600020802046C4F8248011F092FB28B16FF037
:102D70000100C4F8008013E00FE00F488463A063F3
:102D8000462012F01FFD384609F0B7FED5F8340290
:102D900028B1806B18B1006808B1002000E04846F7
:102DA000002EA6D162B6A4E7E89E0420B8640240D3
:102DB00000100140B4AB002044A900202DE9F041EF
:102DC0008046454886B00025016841F00201016057
:102DD000016801F002010591016841F00401016000
:102DE0000068142100F0040005906846FDF7E0FD3E
:102DF0004FF4804401260094CDE90165374F6946C0
:102E00003846039511F07CFD6000CDE900060320F3
:102E1000CDE902506946384611F072FD0122214683
:102E2000384611F05AFE2E48006808B91BF04AFDDA
:102E30002C4CD4F8B40218B94FF49640C4F8B4023C
:102E400084F8B9522649284809F023F8274807F0A2
:102E500030F8274807F02DF82548322225497A38DE
:102E6000FDF7C3FCB8F1000F07D0642011F0F6FBAA
:102E70001D4807F0AFFAE0B121E0184818300168AA
:102E800041F480410160B4F8B00220F00800A4F8D9
:102E9000B00204F52C7400F087FA208820F080003E
:102EA000208054F87C0C0FF0C5FF208840F0020011
:102EB000208010483038016841F0020101600E485E
:102EC000C16841F02001C160C16821F40051C160B6
:102ED00006B0BDE8F0810000303802400008024032
:102EE00044A90020E8CE0420E89E042080D60420D7
:102EF0001CD2042038010020001001402DE9F041CF
:102F000086B00E4680461C461546142168460C9F26
:102F1000FDF74EFD00210846ADF814103CB1628863
:102F20006168E068ADF8142022788DF80320AD22A6
:102F30008DF80020CDE902708DF801608DF8025007
:102F4000BDF81400ADF81000DA208DF812000191E0
:102F50008DF8130014226946404603F0C6F920B1EB
:102F60004FF0FF3006B0BDE8F081404609F0BAFBF3
:102F7000F8E700002DE9F04111F0B4FD2A4D0646B6
:102F800005F54054D4F8340218B1806B08B10068DC
:102F900058B9D4F83002C068000606D4D4F8380214
:102FA00010F4A03F01D1FFF795FE05F580500746CC
:102FB000D0F80C0918B9D4F83802C00309D528464E
:102FC00009F090FBD4F83802C00302D5284609F076
:102FD000E9FAD7F80C0920B9D4F8380210F4A03077
:102FE00000D00120B4F8B012090700D418B1BDE830
:102FF000F04100F0E1B9B4F8B002C00604D40B48C7
:10300000C06B28B1301A03D5BDE8F04100F0CCB94F
:1030100007480068002804D10648016841F40041CF
:103020000160BDE8F0810000E89E042080000020DF
:10303000A0EC042018080240F0B5144DADF5017D58
:10304000044602281EDA4FF4007739466E4601A87E
:10305000FDF7AEFC0E483A468068009004F19100FE
:103060008DF80100DA208DF802028DF8030209487C
:1030700000EB4421B01CFDF7B8FB3A1D6946284619
:1030800000F00AF80DF5017DF0BD0000E89E042077
:10309000BC3E0408A0F004202DE9F04116460F467E
:1030A0005FEA00084FF0000401D007B12EBB4FF0DB
:1030B000FF30BDE8F081351B142D00D914253919D6
:1030C0002A46404603F011F910B16FF00100F0E715
:1030D000404609F007FB401C06D0404609F022FCA0
:1030E00028B16FF00300E4E76FF00200E1E72C4441
:1030F000B44202D2322011F0B1FAB442DBD3002044
:10310000D7E7000070B52248204EADF5816DC17B38
:10311000E1B14FF400752A461E4981A8FDF7ECFB8A
:103120001D4CA068CDF80404218A41B10DF204427F
:10313000204605F0B5F910B1A068CDF80404E068A8
:10314000DDF80414884206D9401A05E00121017413
:103150000DF5816D70BD0020C59029466C4601A813
:10316000FDF726FC0D482A4681A940680090DA2028
:103170008DF802028DF80302A01CFDF736FB4FF418
:10318000017269463046FFF787FFE1E7E89E0420B9
:1031900000000020A0EC0420B0020020BC3E040887
:1031A0002DE9F041FFF756FD050044480068444909
:1031B0000968C0F3015101EB8101C0F3034202EB46
:1031C0004103C0F3023101EB8101C0F3032202EBA2
:1031D0004101C0F3021202EB820200F00F0000EB8B
:1031E00042004FF4616213FB02F2C1EB011102EBEA
:1031F000810101EB0004334E4FF0010003D096F83B
:10320000301019B103E00021317100E030712E4916
:1032100086F83050D1F8DC122A4F11F0020F07F176
:10322000800702D086F82F0040E096F82F1011B9E1
:1032300086F82F00BC65B86D211A24480144B1FB03
:10324000F0F200FB12104AF6C001884233D2204847
:10325000B0F8B01240F6084211422CD1D0F8381222
:1032600011F4844F27D1A0F50051D1F80C19002991
:1032700021D1D0F8241200291DD1D0F88C170029B3
:1032800019D1D0F8F00B002815D1124880460EF065
:1032900013FA0A224146104807F0E0F908B101216B
:1032A00005E01DB1307980F0010030710C2120461D
:1032B000FFF7DCFCB865BDE8F081000000280040A5
:1032C0000428004000000020A0F4042080510100E8
:1032D000E8CE0420E6D10420E89E04200848D0F877
:1032E0005C0100B90748D0F81011074AB1FBF2F2AF
:1032F0000649A1F89E220089A1F8A20270470000A9
:10330000B0020020A0EC042080841E00E8CE04203F
:1033100070B50E4605000DD005F54054D4F83402C2
:1033200040B1006830B1284609F0FCFA28B16FF0CE
:10333000010070BD4FF0FF3070BD05F58055D5F828
:103340000C0920B9D4F838021649084202D06FF0AF
:10335000020070BDD4F8340258B1806B48B10068E7
:1033600038B1416811B90068C00702D06FF003009E
:1033700070BD11F0B7FB054608E011F0B3FB401B30
:10338000142802D36FF0040070BD00BFD4F83402DB
:10339000006800684006F0D516B1304611F05EF9BD
:1033A000002070BD204001000248016841F000414A
:1033B000016070471808024010B5FFF7F5FF11F0E3
:1033C00091FB02493230C86310BD0000800000202C
:1033D00010B5044600F0A2FA002C12D0002810D03C
:1033E000017B890702D5416901B12181017B490730
:1033F00001D581696160017B090702D5C069C4F804
:10340000A40010BD2DE9F04106460D46284C0846A3
:1034100000F014FA204603F063FE46B34FF4007840
:10342000FF2241462046FDF799FA80223146204688
:10343000FDF7DBF91F492069884218D1204600F0CA
:10344000A1F9A0B11C4E20467C21266100F036F87F
:103450004FF48057E0672146384616F0D1FE10F051
:10346000FF0006D005B168800920BDE8F081042086
:10347000FBE741462046FDF779FA2146384615F02C
:10348000DDFB10F0FF0003D005B168800820ECE7F9
:103490002069B04209D1204600F074F928B12946CC
:1034A000204600F05BF80020DFE70C20DDE700009D
:1034B0002004002056414C44494E535470B50D46EB
:1034C000064600F00BF804462946304600F026F880
:1034D0002046BDE8704000F013B8000006490868B7
:1034E0000A6800F4805042F480520A60BFF34F8FA4
:1034F000024A01219160704730380240003002409A
:1035000001000448006804D103490A6822F480528B
:103510000A6070470030024030380240F0B50022A7
:103520000D4E03E083181B683360121D8B1A042BA9
:10353000F8D28A420FD000234FF0FF34FF2707E074
:1035400007FA03F5AC43855C9D402C43521C0833BD
:103550008A42F5D33460F0BD00300240002811D01B
:1035600000290FD0084B02699A4201D1022200E0E3
:1035700001220A70027D4A7082694A60026A8A608A
:10358000406AC8607047000056414C442DE9FE4F28
:1035900081460F46644C084600F050F9204603F07F
:1035A0009FFD21464FF4805015F048FB10F0FF00BE
:1035B00003D0002F00D07880A1E0204600F0E2F890
:1035C00018B15A482169814202D00D20BDE8FE8F12
:1035D00039462046FFF7C2FFA169494501D00520C1
:1035E000F4E7266A06F2FF104FEA502BD4E909A04F
:1035F0000190E06A0290FFF771FF002500902EE035
:1036000041F201002146284415F018FB10F0FF0F8D
:1036100006D00098FFF774FF002F70D07D806EE019
:1036200085B9042201A92046FDF794F828B904229F
:1036300002A9201DFDF78EF820B10098FFF760FF6A
:103640000B20C3E74FF40070864200D83046804616
:1036500001462046FFF762FFA6EB08066D1C5D459C
:10366000CED30098FFF74CFF0EB9504503D007B1F9
:1036700078800A20AAE74FF480562146304615F09C
:10368000DDFA10F0FF0F3AD1204600F07BF8C0B30E
:103690002648216981423FD1A16949453CD1616AEF
:1036A000514539D1A06A0199884235D1E06A029921
:1036B000884231D11E4D20467C212561FFF7FEFE58
:1036C000E067FF224FF4C07104F18000FDF746F976
:1036D0002146304616F094FD10F0FF0003D007B1EC
:1036E0007880092072E74FF400712046FDF73EF91B
:1036F0002146304615F0A2FA10F0FF0F02D0082044
:1037000064E709E0204600F03DF828B12069A842AE
:1037100002D1A169494501D00C2057E7394620461E
:10372000FFF71CFF002051E720040020494E5354AE
:1037300056414C4470B50446114D00F07FF82846C0
:1037400003F0CEFC29464FF4805015F077FA10F0C4
:10375000FF004FF0030604D00CB1267060800820F3
:1037600070BD284600F00EF828B121462846FFF724
:10377000F5FE002070BD04B12670032070BD00006E
:103780002004002070B504004CD0D4E90010264B72
:10379000264A59405040014344D1A068032841D1F2
:1037A000E06880283ED122492069884202D0214920
:1037B000884237D16069012834D1A06988B31E4D91
:1037C000E069A8422ED1206A08282BD3B0F5B01F9B
:1037D00028D8A26AE36AA2F1005623F00101B6F5E7
:1037E000A02F0AD8520708D1DA0706D0A94204D37D
:1037F00042198A4201D9012100E0002189B100F279
:10380000FF1041F2010101EB5020B0F5005F09D833
:103810007C212046FFF752FEE16F814202D1012058
:1038200070BDFFE70020FBE7434536344D4E46337D
:10383000494E535456414C4400000208002805D01C
:103840000021016041608160C1600170704700002B
:103850002DE9FC4780460A9D994617460E462D4C99
:103860002846FFF7EBFF204603F03AFC5FB3214602
:103870004FF4805015F0E2F910F0FF0004D005B1CC
:1038800068800820BDE8FC872046FFF77BFF18B161
:1038900021492069884201D00D20F3E729462046BE
:1038A000FFF75CFEA169414501D00520EAE7206AE7
:1038B00000F2FF10400A864205D241F2010034189E
:1038C000B4F5005F01D30620DCE7CDE90086FFF701
:1038D00005FE804604216846FFF720FE042101A86A
:1038E000FFF71CFE4FF400713846FFF717FE404605
:1038F000FFF706FE484501D00720C3E739462046BA
:1039000016F07EFCC0B205B16E800028BAD0092046
:10391000B8E7000020040020494E535410B5074872
:10392000074C084BD0E90021624059400A4302D1BC
:103930008168012900D0002010BD000000C00008EF
:103940004746434432334543012806D0022804D079
:10395000032802D04FF0FF3070470A46014603208B
:1039600000F03AB80C4808B5016841F08051016098
:10397000006800F08050009011F09AFF074A102173
:10398000074812F0C8FC01221121054812F0C3FCBF
:1039900011F082FF002008BD4038024007B032CE4F
:1039A000CCA5002002464021142000F015B80246A4
:1039B0000321122000F010B802460421112000F06B
:1039C0000BB802460221102000F006B80246402142
:1039D000132000F001B800002DE9FC4103248DF80C
:1039E0000040B0248DF8014032248DF80240CE24EE
:1039F0008DF80400FF238DF8051000258DF8034095
:103A00008DF806206F4607267C5D634000245FEA40
:103A1000036C02D586EA430300E05B00641CDBB262
:103A2000082CF4D36D1C072DEED340EA012040EAA8
:103A3000024040EA03640D48016841F08051016092
:103A4000006800F08050009011F032FF084A102109
:103A5000084812F060FC22461121064812F05BFC77
:103A600011F01AFF0020BDE8FC8100004038024040
:103A700003B032CECCA500200A49486E8A6F00EB15
:103A800040008008824204D3886F4A6ED24390423D
:103A900006D30889012803D1012102481DF0F4BF93
:103AA00070470000603D00207FB506460D460820A7
:103AB00007F048FB00F048F8134C20200821CDE91E
:103AC0000041CDE902402B4632461049104802F031
:103AD0002FFF78B10021082007F02EFD01221146AA
:103AE000082007F0C7FB0A4802F08CFE4FF0FF30B9
:103AF00004B070BD0121082007F01EFD082007F06A
:103B000021FB0020F4E70000000402409CA60020F6
:103B1000603D0020094810B5C06A4FF0FF3440B145
:103B2000074881698068FFF7BFFF002800D0204662
:103B300010BD044802F066FEF9E70000A0EC042086
:103B400080740420603D00201AF0CAB92DE9F047C6
:103B50001DF0C4FF0025314A2C46284653682946EB
:103B60009C2600EBC00206EB82029A5855194C4184
:103B7000401C0628F5DB2846214600F059F8064689
:103B800007F0D6FA814626480078C0F340074FF484
:103B9000846000F08FF8401BA14101D2012000E0B9
:103BA00000202049CA6A02B907B10626DFF87880EA
:103BB000C8F80050C8F80440C8F808600A68C8F897
:103BC0000C20CA6AC8F810200A6BC8F81420C96A09
:103BD00001B1012141EA470141EA8001B9F1000F39
:103BE0000BD04FF0000041EAC000C8F81C0007D11C
:103BF0004FF000001BF0B4F905E04FF00100F2E7D0
:103C000030461BF0F9F81BF099FA08480068C8F82C
:103C100018000EF0C5FB0020BDE8F087A0F40420DA
:103C2000B8F70420A0EC0420B8E20420947B042020
:103C300070B505460C46F02000F03CF8401BA14151
:103C400001D3002070BD4FF4A07000F033F8401B8A
:103C5000A14101D3012070BD4FF4E07000F02AF8BB
:103C6000401BA14101D3022070BD4FF4207000F031
:103C700021F8401BA14106D30D490020491BA0415A
:103C800001D3032070BD4FF4407000F013F8401BC7
:103C9000A14101D3042070BD4FF4707000F00AF808
:103CA000401BA14101D3052070BD062070BD00005E
:103CB00040AC2700044910B5A0FB0101034A0023D2
:103CC000FCF7BCFB10BD000000A0F019809C0100B7
:103CD00010B504462DED028B403091ED000A0FF037
:103CE00084F9B0EE408A84ED008A04F562700FF02A
:103CF0007CF9A06A012820D0F0EE408A41F23871A8
:103D0000B0EE680A60180FF070F984ED010A84EDD6
:103D1000048AC4ED058A002104F5D4500FF024FA7A
:103D200041F6A820005DC0070AD0BDEC028B2046FA
:103D3000BDE81040002100F005BEF0EEC08ADDE7CE
:103D4000BDEC028B10BD704770B504462DED028BA3
:103D50000D4691ED000A40300FF047F9606A0128E6
:103D600047D0B0EE408A41F2F031B0EE480A601818
:103D70000FF03BF984ED000A95ED010A04F562703D
:103D80000FF033F9A06A012836D0F0EE408A41F2F4
:103D90003871B0EE680A60180FF027F984ED010A57
:103DA00084ED048AC4ED058A94ED000A002104F52F
:103DB000D4500FF0D9F941F6BC2094ED010A01214D
:103DC00020440FF0D1F904F5805595F8A80AC007F2
:103DD00003D00021204600F0B5FD95F8E40AC007A5
:103DE0000DD0BDEC028B2046BDE87040012100F0F3
:103DF000A9BDB0EEC08AB6E7F0EEC08AC7E7BDEC59
:103E0000028B70BD2DE9F04704462DED0C8B0D465D
:103E1000403091ED000A0FF0E8F841F2F031F0EE99
:103E2000408A60180FF0E1F8B0EE40AA95ED010A63
:103E300004F562700FF0D9F841F23871B0EE408AA3
:103E400060180FF0D2F8B0EE40CA2AEE0A0A08EE67
:103E5000A80A10EE100A1FF0C7FC41EC100B1DF071
:103E600077F951EC100B1EF097FD2CEE0C0A206038
:103E700008EE080A10EE100A1FF0B6FC41EC100B19
:103E80001DF066F951EC100B1EF086FD6060C4ED6C
:103E9000048A84ED058A94ED000A002104F5D450CB
:103EA0000FF062F941F6BC2294ED010A0121A0183D
:103EB0000FF05AF904F58057002597F8A80AC007B3
:103EC00000D0012518EE900A1FF08EFC41EC190B72
:103ED0001AEE100A1FF088FC41EC100BB0EE491AE4
:103EE000F0EE691A1CF020F951EC100B1EF054FD95
:103EF00009EE100AE06A594E4FF0010890ED5D0A94
:103F0000D0ED618AB4EEC09AF1EE10FA02DA002523
:103F1000C6F808809FED52AB9FED53BBF4EEC08A0C
:103F2000F1EE10FA21D218EE900A1FF05DFC53EC6E
:103F30001A2B1EF063FD1EF02FFD08EE900AB068EC
:103F400040001FF050F853EC1B2B1FF0F9F841EC28
:103F50001D0B19EE100A1FF047FC53EC1D2B1EF031
:103F60004DFD1EF019FD09EE100A4FF00009B4EEE8
:103F7000E89AF1EE10FA03DB002000F0F3FC06E013
:103F80002DB10021204600F0DDFCC6F8089097F81E
:103F9000E40A0025C00700D0012518EE100A1FF022
:103FA00023FC41EC180B1CEE100A1FF01DFC41EC29
:103FB000100BB0EE481AF0EE681A1CF0B5F851EC90
