:020000040802F0
:10000000C8FE042009030208919603088B7D0308AB
:100010008D960308690E020865AE03080000000013
:10002000000000000000000000000000C59B030865
:10003000A5F202080000000093960308E5A003085B
:1000400023030208230302082303020823030208F0
:1000500023030208230302082303020899F302087A
:10006000B1F3020811F4020829F40208230302087C
:1000700001EE02080DEE0208ADEF0208B1EF020832
:10008000F1EF0208FDEF0208350C02082303020815
:1000900023030208230302082303020881F4020851
:1000A00091A4030823030208230302082303020880
:1000B00089A8030823030208230302089D7D03087F
:1000C000917D030823030208230302082303020887
:1000D00023030208C9AD030823030208230302080F
:1000E000A9F20208959603082303020823030208D5
:1000F0002303020895A803082303020845F0020819
:10010000230302082303020823030208230302082F
:100110000DAC03082303020823030208230302088B
:10012000D9F00208DDF0020849F102084DF1020899
:1001300023030208230302082303020823030208FF
:1001400023030208230302082303020823030208EF
:1001500091F1020895F10208D5F1020815AE0308E5
:1001600023030208230302082303020823030208CF
:10017000230302082303020800000000000000001F
:1001800023030208230302082303020823030208AF
:1001900023030208230302080000000023030208CF
:1001A00023030208230302080000000000000000EF
:1001B00023030208000000000000000023030208DF
:1001C000230302082303020823030208230302086F
:1001D000230302082303020800F002F800F06AF883
:1001E0000AA090E8000C82448344AAF10107DA4592
:1001F00001D100F05FF8AFF2090EBAE80F0013F07A
:10020000010F18BFFB1A43F001031847BCFC0100A3
:10021000DCFC01000A444FF0000C10F8013B13F025
:10022000070408BF10F8014B1D1108BF10F8015B4F
:10023000641E05D010F8016B641E01F8016BF9D142
:1002400013F0080F1EBF10F8014BAD1C0C1B09D199
:100250006D1E58BF01F801CBFAD505E014F8016B0B
:1002600001F8016B6D1EF9D59142D6D3704700009D
:100270000023002400250026103A28BF78C1FBD8AF
:10028000520728BF30C148BF0B607047632900F098
:10029000DC83732900F0E183002070471FB51EF056
:1002A000BEF89DE8030000F05FFB00F00CFA1FBDF4
:1002B00010B510BD00F03CFC1146FFF7EFFF1CF03D
:1002C0002BFE00F05AFC03B4FFF7F2FF03BC00F072
:1002D0008BFC00000B49D1F800C04A685CF8043B75
:1002E0001068184442F8040B8C4528BFA1F1DC0CBF
:1002F0008A4228BFA1F1DC02C1F800C04A6020F0A8
:1003000000407047F0350120094880470948004700
:10031000FEE7FEE7FEE7FEE7FEE7FEE7FEE7FEE7B5
:10032000FEE7FEE704480549054A064B7047000012
:1003300081A40308D9010208C8F60420C8FE0420DD
:10034000C8FA0420C8FA042070B5064600F0F0FA96
:10035000056806F10B0020F00704B4429CBF0020A2
:1003600070BD2B466A68BAB11068A04210D304F180
:10037000080188423CBF5068586007D35168101983
:1003800041601168091B016058601460101D70BD48
:1003900013465268002AE7D12146284600F0D0FAD9
:1003A0000028DED170BD70B50446051F00F0C0FA0C
:1003B0000068002C14BF446870BD002C18BFAC420C
:1003C0003CBF20466468F8D301680A18AA4218BFE7
:1003D000456003D12A680546114401602868411927
:1003E000A1421CBF6C6070BD6168696021680844EF
:1003F000286070BD53EA020C00F069802DE9F04BD3
:100400004FF00006002B1FBFB3FA83F503FA05F483
:1004100024FA05F65E4012BF1643B2FA82F502FADC
:1004200005F4C5F120051EBF22FA05FC44EA0C04C0
:10043000203556EA044C4FEA144418BF641C4FF0B0
:1004400000084FF00009904271EB030C39D30029EA
:1004500019BFB1FA81F701FA07F6B0FA80F700FA8E
:1004600007F6C7F120071EBF20FA07FC46EA0C0674
:100470002037B6FBF4FCA7EB0507103F07F01F0B76
:10048000CBF120060CFA0BFB2CFA06F644BFB34660
:100490000026202FA4BF5E464FF0000B5BEA060C3F
:1004A00008BF4FF0010B19EB0B09ABFB027C48EBCB
:1004B0000608C01B06FB02CC0BFB03CC71EB0C0146
:1004C000C1E70B46024641464846BDE8F08B13B5EE
:1004D0004FF000004FF00001AFF30080BDE81C407A
:1004E0007047B2F120030AD5C2F1200301FA02F1EC
:1004F00020FA03F300FA02F041EA0301704700FA20
:1005000003F14FF0000070470FB41CB50C0007AAB0
:10051000009001D02044401E074B7B446946019067
:10052000069800F068FA002C03D06946002000F01D
:1005300075FA1CBC5DF814FB0905000070B50C468B
:100540000546012A05D02878800600D5EA690023EF
:1005500002E0012305E05B1C934202D2E05C00282C
:10056000F9D1A869E618C01AA861286A1844286257
:100570002846AFF3008004E0D5E9012114F8010B0F
:100580009047B442F8D32846AFF3008070BD2DE900
:10059000F0474FF0000A89460446C0F820A02046E4
:1005A000E1688847002876D0252806D0D4E90121C3
:1005B0009047206A401C2062F1E7E1682046002550
:1005C0008847C4F81CA006460027C4F818A02A2EA5
:1005D00009D030461CF068FB38B304EB8708303E86
:1005E000C8F8186019E059F8041B204604EB87028C
:1005F0009161E1688847012F064618D1E06900281B
:1006000020DA25F020051DE0D8F8180000EB800066
:1006100006EB40003038C8F818002046E1688847EB
:1006200006461CF041FB0028EED1012F0AD02E2EE9
:1006300008D12046E16888477F1C0646022F45F016
:100640002005C4DBA069002803DA404245F001051B
:10065000A061E80701D025F01005B6B1A6F1410070
:10066000192802D8203645F400654A46314620460E
:1006700025604D46FFF70AFE58B1012806D0ED1D52
:1006800025F0070000F1080989E704E005F10409F5
:1006900085E730468AE7206ABDE8F0870B4910B548
:1006A000A1F17C020A4CC2E93712372106E000EBC7
:1006B000104342F82130074B00FB03400B1EA1F111
:1006C0000101F4DC10BD0120E8E7000090350120B5
:1006D000E119D666CD0D010010B5431C02E010F8FB
:1006E000011B71B18107FAD14FF0013202C88C1A97
:1006F0008C4314EAC211F9D0C01A0A0603D0C01EF6
:1007000010BDC01A10BD0A0401D0801E10BD090220
:10071000FCD0401E10BD032A40F2308010F0030CC4
:1007200000F0158011F8013BBCF1020F624498BF44
:1007300011F801CB00F8013B38BF11F8013BA2F1E1
:10074000040298BF00F801CB38BF00F8013B11F05C
:10075000030300F06780083AC0F0088051F8043BBA
:10076000083A51F804CBA0E80810F5E7121D5CBF69
:1007700051F8043B40F8043BAFF30080D20724BF9C
:1007800011F8013B11F801CB48BF11F8012B24BF30
:1007900000F8013B00F801CB48BF00F8012B70477F
:1007A000431A28BF9A427FF6B6AF032A1044114479
:1007B00040F2268010F0030F1EBF11F8013D521EBB
:1007C00000F8013D10F0030F7FF4F6AF11F00303C2
:1007D00000F05A81083AC0F00B8051F8043D083A05
:1007E00051F804CD40F8043D40F804CDFFF7F3BFC5
:1007F000121D5CBF51F8043D40F8043DAFF300808A
:10080000D20724BF11F8013D11F801CD48BF11F8FE
:10081000012C24BF00F8013D00F801CD48BF00F8CD
:10082000012C704710B5203AC0F00B80B1E8185089
:10083000203AA0E81850B1E81850A0E81850BFF4CA
:10084000F5AF5FEA027C24BFB1E81850A0E8185069
:1008500044BF18C918C0BDE810405FEA827C24BFBD
:1008600051F8043B40F8043B08BF7047D20728BF4B
:1008700031F8023B48BF11F8012B28BF20F8023B9A
:1008800048BF00F8012B704702F0FF0343EA032240
:1008900042EA024200F002B84FF000020429C0F020
:1008A000128010F0030C00F01B80CCF1040CBCF1A2
:1008B000020F18BF00F8012BA8BF20F8022BA1EBF4
:1008C0000C0100F00DB85FEAC17C24BF00F8012BD9
:1008D00000F8012B48BF00F8012B70474FF00002D1
:1008E00000B5134694469646203922BFA0E80C5026
:1008F000A0E80C50B1F12001BFF4F7AF090728BF01
:10090000A0E80C5048BF0CC05DF804EB890028BF7C
:1009100040F8042B08BF704748BF20F8022B11F0A5
:10092000804F18BF00F8012B704770477047704721
:100930000048704700360120704770477047704785
:1009400038B504460A4600206946AFF30080002807
:1009500008BF38BD02460099204600F0C7F80120C4
:1009600038BD012000F0DCB8F8B5AFF300800546D3
:1009700000200C46102000BF0646A819A0420DD941
:10098000324669460020AFF30080070008BF00F040
:10099000C7F80098A04218BF0546C419FFF7C8FF62
:1009A00005600746F01D20F007004619284600F0B4
:1009B0000AF8B44208BFF8BDA21B31463868BDE84A
:1009C000F84000F093B800210160C0E901107047C1
:1009D0001020704710B500F085F8006810BD10B504
:1009E000044600F07FF8046010BD000001694A1C55
:1009F00002610878704700B58FB0CDE90131002160
:100A0000059105497944CDE9031011466846FFF781
:100A1000BEFD0FB000BD0000E5FFFFFF0A6802F851
:100A2000010B0A607047D1E900239A4202D2531C9D
:100A30000B601070704710B5436913B1AFF30080BD
:100A400001E0FFF77BFD012010BD127800F12401C9
:100A50000A7000224A700122EDE711684FF0FF3260
:100A6000E9E7431A28BF9A427FF6DCAE104410F043
:100A7000030F11441EBF11F8013D521E00F8013D45
:100A800010F0030F7FF4F6AF103AC0F00A8010B5F3
:100A900031E91850103A20E91850BFF4F9AFBDE819
:100AA0001040530724BF31E9081020E9081044BF63
:100AB00051F8043D40F8043D12F0030F08BF7047A1
:100AC000D20728BF31F8023D48BF11F8012C28BFDA
:100AD00020F8023D48BF00F8012C704700487047DD
:100AE000F835012000487047F8350120034640687A
:100AF0008C46002818BF88423CBF03464068F8D3A4
:100B000018681844884207D00CF1030020F0070051
:100B1000001D411A521A0146081D0A60FFF743BC26
:100B200010B500F039F8BDE8104000F02FB870475C
:100B30007546FFF7D3FFAE4605006946534620F0E1
:100B40000700854618B020B5FFF7ECFBBDE8204054
:100B50004FF000064FF000074FF000084FF0000B79
:100B600021F00701AC46ACE8C009ACE8C009ACE82C
:100B7000C009ACE8C0098D46704710B50446AFF314
:100B800000802046BDE81040FFF79DBB002801D043
:100B900000F02AB87047000010B5012805D00021E8
:100BA00003A000F027F8012010BD09A1F8E700001C
:100BB00053494752544D454D3A204F7574206F6646
:100BC0002068656170206D656D6F727900000000AE
:100BD0003A2048656170206D656D6F727920636F92
:100BE000727275707465640001491820ABBEFEE72F
:100BF0002600020070B505460C460A2000E06D1C78
:100C000000F011F835B128780028F8D102E0641C12
:100C100000F009F814B120780028F8D1BDE8704040
:100C20000A20AFF3008008B569468DF80000032064
:100C3000ABBE08BD104810B5026800211160016804
:100C40008A6822F001028A600068C06B46F2207157
:100C500080B2A0FB010147F6FF72801841F100014C
:100C60004FF6FF720023FFF7C5FB0146BDE81040B9
:100C700002480CF047BF0000702A012038B900205C
:100C8000464910B54A6822F440324A604A684368CF
:100C90001A434A6001684A6822F480724A60016817
:100CA0004A68036942EA03224A6001684A6822F0FE
:100CB00040724A6001684A6883681A434A60016862
:100CC0008A6822F400628A6001688A68C3681A43ED
:100CD0008A60816A6FF07062D14201688A6822F08E
:100CE00070628A6001688A680CD0836A1A438A60DD
:100CF00001688A6822F040528A6001688A68C36A83
:100D00001A4301E022F040528A6001688A6822F0AA
:100D100002028A6001688A68037E42EA43028A60AE
:100D200090F82010002901684A680FD042F4006250
:100D30004A6001684A6822F460424A6001684A6871
:100D4000174C436A04EB43331A4301E022F4006278
:100D50004A600168CA6A22F47002CA620168CA6AFB
:100D6000838B104C04EB03531A43CA6201688A68F0
:100D700022F400728A6001688A6890F8303042EA92
:100D800043228A6001688A6822F480628A6001686E
:100D90008A68406942EA8020886010BD00230140D3
:100DA00000E0FFFF0000F0FF18B5002300930309E7
:100DB0008DF8003000F00F008DF8010000206C4627
:100DC000235C0A2B01D2303300E037330B54401C34
:100DD0000228F5DB02201080002018BD1E4C08B54B
:100DE000656810F071FD0FF011FA4FF0E02100205E
:100DF0000861486188611948016841F0206101601B
:100E000072B60020421E810001F1E021C1F880216C
:100E1000C1F88022401C0828F5D31148016841F42C
:100E200080410160006800F4804000900D48016836
:100E300021F003010160016841F0010101600748F0
:100E4000001D0460BFF34F8FBFF36F8F206880F3E6
:100E5000088862B6A847FEE70000FF1F04ED00E027
:100E600044380240003801401AF016F9F0B500F19C
:100E70002401C06A42088868CB681344CB60CB6801
:100E8000834206D3CB68CC68B3FBF0F303FB10437B
:100E9000CB60002301EB830505F1200454E8006FCB
:100EA000164444E80067002FF8D12C6A844204D924
:100EB00028620C6844F400740C605B1C032BE9DBB3
:100EC000F0BD00002DE9F04F85B015461C460A46DE
:100ED0000646DDE91010DDE90E733762C6E903410D
:100EE000C6E901250246B37706F124001BF04AFF4C
:100EF0006848DFF8A491006A50B1006840B10AF078
:100F000023FB28B9B9F8980201281DD002281BD06C
:100F100000208046002D7DD0DFF880A128684FEAB0
:100F2000074BE8B3EFB30EF013FDB8F1000F0ED08E
:100F30005B4A2968914201D0514508D1B9F898120D
:100F40005848022902D002E00120E2E75648B0FBEF
:100F5000FBF1491C07FB01F2B0FBF2F0491E69608E
:100F60000021401EC5E902102846296111F09AFEB1
:100F70004B492868884201D050452DD14B4A9042B8
:100F800015D0B0F1804F12D0494A90420FD088421C
:100F90000DD0484988420AD0504508D0464901E062
:100FA0001AE017E0884202D04449884214D1142143
:100FB0006846FFF793FC5FEA080000D00720009026
:100FC000002001906946284612F05FFB20B10EF028
:100FD000A9FA01E00020B060E4B12068D0B1EFB31D
:100FE0000EF0B6FCB8F1000F0BD02D4A21689142EB
:100FF00001D0514505D1B9F898122A48022900D1EB
:101000004010B0FBFBF1491C4F43B0FBF7F0491E09
:10101000002500E039E0401E6160C4E9025020462E
:10102000256111F03FFE1E492068884201D05045DD
:101030002BD11E4A904214D0B0F1804F11D01C4ADF
:1010400090420ED088420CD01A49884209D05045AF
:1010500007D01949884204D0184900E013E08842BB
:1010600013D114216846FFF739FC5FEA080000D06D
:101070000720CDE900056946204612F006FB20B1A5
:101080000EF050FA01E00020F06005B00020BDE84D
:10109000F08F0000D0A50020049F00200004014034
:1010A000000800400088130000C40900000001404F
:1010B00000040040000C00400040014000180040C7
:1010C00038B1406828B1006818B18168C90703D0F9
:1010D00018E04FF0FF307047816841F001018160F6
:1010E0000B490C4A0968B1FBF2F1102901D20F211A
:1010F00005E0B1F5006F03D900BF40F2FE7100BFFB
:10110000491EFCD2816841F4800181600020704753
:10111000D8050020400D030030B54FF0FF33A0B1DB
:101120004168096889B100224CF250340FE08D68A3
:10113000ED070AD01546521CA54208D9086820F0D0
:10114000080008606FF0010030BD184630BD0D6822
:101150006D07ECD5CA6B82820A6CC2824A6C02832C
:101160008A6C4283086820F00C000860002030BDC3
:1011700000BF704778B505004FF0FF361BD0686898
:1011800001688868C0070AD1886840F0010088605B
:101190000020009000BF401C00900A28FADB0024C9
:1011A0002846FFF7B9FF002806D02846FFF788FF3A
:1011B000641C032CF4D3304678BD000010B50446FF
:1011C000006A00286DD02046FFF7D2FF61684FF417
:1011D00088500968486060680068816840F20112C0
:1011E00011438160E068016801B9A068006A006885
:1011F000016821F00101016000E000BF0168C9073A
:10120000FBD1294981602169C160E16A49084160D7
:10121000A1680A68D2B300215162A26812681369FA
:1012200023F001031361E268126842B15162E16880
:1012300009680A6922F001020A61E16800E0A16818
:101240000968CA6842F48072CA60016841F01901F5
:101250000160A168154A0868904204D1016A41F40E
:10126000805101620CE0124A904210D1016A41F0B3
:1012700001010162A0680068416C41F400414164D1
:10128000A0680068016841F00101016002E00846C1
:1012900011F094FEE068006818B1016841F00101A6
:1012A0000160002010BD00004C20014000080040FB
:1012B0000000014010B5040016D06068A0B10068BD
:1012C00090B1A06800F03AF8E06820B1A1688842C7
:1012D00001D000F033F8616801B3E06838B102680A
:1012E0002AB1006A58B902E04FF0FF3010BDA06883
:1012F00018B102680AB1006A08B9886B70B1006859
:1013000060B1016821F018010160016821F001015C
:10131000016000E000BF0168C907FBD16068006898
:101320008168054A1140816060680068016821F0A9
:101330001E010160002010BDFEFEBFBF00281CD0B2
:101340000168002919D0CA6822F48072CA60016855
:101350000A6822F001020A60084A0168914203D13A
:101360000A6A22F4805205E0054A914203D10A6AD2
:1013700022F001020A6211F09DBE70470008004091
:1013800000000140002903D00844401E491E884344
:1013900070472DE9FF4F81B01F461546040010D05D
:1013A00000F0BEF904F58A710091029800F012FC79
:1013B000060009D0204601F005F9304605B0BDE829
:1013C000F08F4FF0FF30F9E7D4F81401416B006B58
:1013D00000F099FD00287ED0D4F81401C16B806B19
:1013E00000F091FD002876D0D4F81401416C006C17
:1013F00000F089FD00286ED0D4F8140100F0AFF998
:10140000002869D0002D67D0874265D305EB070817
:101410000027C4F80C71D4F814112E46B946886D13
:1014200060B34D6D2021FFF7ADFF0746B54253D3A2
:1014300005EB070AC2454FD8D4F81411C86DFF2830
:1014400004D98A6DC96983188B4205D9204601F0F9
:10145000B9F86FF00300B1E7D4F81C1101EB000BF1
:1014600011462846FFF718FAD4F814015946826D40
:101470002846FFF750F9A81B07445546D4F8140135
:10148000406B90B12021FFF77DFF284440455CD898
:10149000C4F8DC50D4F814110546871B4A6BC4F815
:1014A000E020096BC4F8E41005E0C4F8DC90C4F84F
:1014B000E090C4F8E490D4F81401C06BA8B12021E6
:1014C000FFF760FF284440453FD8C4F80051D4F8E6
:1014D0001411CA6B01E03EE037E0C4F80421896BC7
:1014E0000546871BC4F8081105E0C4F80091C4F84C
:1014F0000491C4F80891D4F81401406C90B12021F3
:10150000FFF740FF284440451FD8C4F8F450D4F8F2
:1015100014110546871B4A6CC4F8F820096CC4F8FE
:10152000FC1005E0C4F8F490C4F8F890C4F8FC90FE
:10153000D4F8DC0078B1D4F8F40060B1D4F8140128
:10154000A8EB0506C06A86420BD2204601F03AF8A5
:101550006FF0040032E7204601F034F86FF0070026
:101560002CE72021FFF70EFF00EB070804F5987029
:10157000814600F01DFA482104F5B270FFF7AEF97C
:10158000D4F81401476917F4706F03D1029900F081
:101590004EFB07434FF00110E4E959074946C4E9FF
:1015A000025654F8880C206154F8840C606154F899
:1015B000640CA06154F8600CE06154F8700C206277
:1015C00054F86C0C606244F8588CA4F5B27400981E
:1015D00000F04AFA050004D0204600F0A1F82846A1
:1015E000ECE6012060800020E8E600002DE9F05FD5
:1015F000434A4FF000084FF0FF36106841498842D7
:1016000004D04149884278D1002700E001274FF0FB
:10161000000B91461046C2F820B0C2F818B0C2F8CC
:101620001CB052688568394C022A02D36FF0010061
:1016300054E06FF0040A102D10D807B175B10121E4
:10164000104600F0DBFED0BBD4F8DC0040B1D4F88B
:10165000F41029B1D4F8E010A94204D250463DE07C
:101660004FF0FF303AE0FFF717F9F4E93D01FFF7DB
:1016700013F9E068F43C18B1D4F80411FFF70CF941
:1016800057B11F48D4F8DC10243003E010F8012BC8
:1016900001F8012B6D1EF9D21C4801F0ADF80600CF
:1016A00000D40020D4F8F880B8F1100F01D94FF021
:1016B0001008134943463431D4F8F42004E00DE017
:1016C00012F8015B01F8015B5B1EF9D2B8F1040F5F
:1016D00004D3D4F8F4100968C9F81C10C9F80C0038
:1016E000C9F81060D4F81001C9F81400C9F81880BE
:1016F0000748C9F82000C9F800B0BDE8F09F000015
:101700005C360120494145434B4F4D5340BC0020BE
:10171000434541490149086070470000583601209F
:1017200010B504000ED06088012806D1D4F8140149
:1017300018B104F58A7000F016F92046BDE8104093
:1017400000F040BF10BD012805D0022802D00328B8
:1017500003D000207047042070470120704770B507
:10176000040019D02021606BFFF70CFE05462021F4
:10177000E06BFFF707FE05442021606CFFF702FED7
:1017800005442021A06DFFF7FDFD05442021E06AFE
:10179000FFF7F8FD284470BD002070BD10B500F0C3
:1017A000D7FC40B905480168491C01D1007D10B142
:1017B0004FF4803010BD002010BD000090020020CA
:1017C00070B500B10120134C0025207560B100F008
:1017D000BFFC70B1104801F03CF80F48FFF7A0FFC4
:1017E00025756FF0070012E00B4801F032F8256113
:1017F00004E02068401C05D000F0CCFDBDE870403E
:1018000000F044BF044801F024F86FF001002061AB
:10181000F4E700009002002040BC002030B5184CD6
:10182000C1B00546022802D36FF0010005E015485B
:10183000B0F8520018B16FF00700206105E06A4669
:10184000284600F030F9206120B1284600F0E3FE80
:1018500041B030BD2068A84208D109484FF48072D9
:1018600069461830FEF7DEFF00F094FD284600F0D0
:10187000D2FE2068A842EBD100F008FFE8E70000A4
:10188000900200201029002070B50546144C4FF03E
:10189000FF3604F11800FF2D03D0022D08D370008D
:1018A00018E04FF480712660FFF718F8002005E07B
:1018B0000146284600F0FCFA40B126602061094844
:1018C00000F0C7FF0748FFF72BFF04E0217D284603
:1018D00000F094FD2061BDE8704000F0D7BE00002C
:1018E0009002002040BC002010B500F031FC002820
:1018F0000ED0084800F0ADFF0648FFF711FF06487C
:101900000168491C02D06FF00701016100210175D7
:1019100010BD000040BC00209002002001F0010238
:1019200052420A4203D0FF2901D9814202D36FF00B
:10193000030070470020704730B5002A0FD0084CD4
:1019400011F8013B58400023C50702D084EA50003B
:1019500000E040085B1C082BF6D3521EF0D130BDCE
:101960002083B8ED704718B18069002802D0004785
:101970004FF0FF30704708B5694600F05BF810B1D2
:101980006FF0010008BD009803C80DF023FE002889
:10199000F8D06FF0050008BD012805D0022802D05C
:1019A000032803D0002070470420704701207047AF
:1019B00010B504000DD03421FEF790FF4FF0011058
:1019C0002060012060600348A0600348E060034895
:1019D000206110BD3D070308510203086519020884
:1019E00018B1012804D0002070474FF48050704790
:1019F0004FF490507047002809D0806811B10969F0
:101A000001B10846012803D0022804D00020704705
:101A10004FF4807070474FF40060704708B5694616
:101A200000F008F808B1002008BD009803C8081AA3
:101A3000401C08BD09B1022802D36FF001007047B5
:101A4000034A00EB400002EB800008600020704772
:101A5000C8E9030808B56946FFF7ECFF08B10020A4
:101A600008BD0098006808BD10B58EB0040004D011
:101A70002069002803D021B107E04FF0FF300EB0FD
:101A800010BD6846FFF794FF69460868B0F1011F72
:101A900002D14868012802D06FF00700EFE7226901
:101AA00008469047EBE72DE9F74FADF5427D0C4630
:101AB000C0A9C298FFF7BEFF00280DD1C2981CB97B
:101AC000FFF78EFF04000BD06946204612F0C4FBDE
:101AD0006FF0020B38B158460DF5457DBDE8F08F2B
:101AE0006FF00100F8E74FF48072694680A8FEF7B6
:101AF00099FE80A8C29900F0E1F80028ECD1C298C4
:101B0000FFF739FF0028E7D1C098879E4FF0FF39D3
:101B1000D0F800A006F2FF10470A00252EE045B1DC
:101B20006019694612F098FB18B1C09800F040F8AF
:101B3000D1E74FF40070864200D8304680461DB190
:101B400002466946484606E0B8F5807F06D9A8F502
:101B50008072484640A9FFF7EFFE8146424669463B
:101B600050460DF0E7FD28B1C09800F021F86FF065
:101B70000500B1E7C244A6EB08066D1CBD42CED3FA
:101B800093996FEA0900814205D0C09800F010F8DF
:101B90006FF00600A0E7C499C29800F089F904002C
:101BA00004D0C09800F004F8204695E7002093E7A1
:101BB0001CB500210091019148B1006808226946D6
:101BC0000DF0B8FD002801D06FF005001CBD4FF0EE
:101BD000FF301CBD38B50C00054623D06946FFF721
:101BE00029FF00281DD10021284600F061F90028B6
:101BF00017D100980168C4E9001500980268A26036
:101C00004268E2600A6A0AB103681A442261026803
:101C10004B6A1A446261896A39B100680844A0615C
:101C2000002038BD4FF0FF3038BD0020F7E738B551
:101C30000A46040004D069461046FFF7FBFE08B1CF
:101C4000002038BDA08A10F47060FAD121460098B7
:101C5000FFF7D1FE38BD30B450B149B142693AB155
:101C60000B68B3F1011F06D06FF0070030BC70475E
:101C70004FF0FF30FAE78B686FF00404CBB10068D7
:101C8000CB68C56AAB4214D3436B23B10D6985B1F0
:101C90004D699D420DD3C36B23B18D694DB1CD69A3
:101CA0009D4206D3406C30B10B6A13B14B6A83423C
:101CB00001D22046DAE730BC084610472DE9F04F44
:101CC000C1B00D46040016D040A92846FFF7B2FE69
:101CD000002812D14098724E724BD0E90021891A27
:101CE00001F10108D4E90021724059406FF0030965
:101CF0000A4371D104E04FF0FF3041B0BDE8F08FEE
:101D0000A1686FF00706012969D1E168B1F1011FEF
:101D100065D1A16C012962D1216911B1806881422C
:101D200064D1207DC00757D029462046FFF77FFFAA
:101D3000054621464098FFF75EFE4FF40067B84223
:101D400001D14FF46060054250D0681E05424DD16C
:101D50004FF4007B4FF4807A5D4504D0B5F5806F79
:101D600001D0BD421ED1206BFFF716FE98B3616B08
:101D700089B3B1FBF0F200FB121272BB5D4502D1D8
:101D800000EB400006E0B5F5806F09D0BD4209D1F7
:101D900000EBC000B1FBF0F200FB1210E8B906E066
:101DA000C000F7E7554502D1606E40283DD2E06B98
:101DB0000028A06B12D0FFF7EFFD60B1E16BB1FB23
:101DC000F0F200FB121232B9C000B1FBF0F200FBDE
:101DD000121010B905E002E049E026E008B13046F3
:101DE0008BE74099A0690968884202D06FF0010032
:101DF00083E7E069FF2818D9404516D8A16D05464C
:101E0000B1B1294A636D1A44B2F5703F2FD2E56D26
:101E1000FF2D2CD985422AD25A18934205D8234B3C
:101E20009A4202D82944814206D96FF0040064E73F
:101E3000616DE1B9E16DD1B9616AFFF76FFD00280D
:101E4000CED1606AA84212D2216A09B1A9420ED24B
:101E5000A06A08B1A8420AD219B1E069FFF75EFD95
:101E600028B9A16A29B1E069FFF758FD08B14846D1
:101E700043E75546524621466846FEF7D3FC00200C
:101E800014902A466946401EFFF756FD216DC04357
:101E9000814202D06FF006002FE700202DE70000FE
:101EA000474D494132334543804BFFDF8074042066
:101EB000F8B50D4606466946FFF7BCFD002818D167
:101EC0000098314604682046FFF7F8FE002810D13C
:101ED0000098E26901684FF0FF3001F58071A2F5CA
:101EE0008072FFF729FDE16CC043814202D06FF0A0
:101EF0000600F8BD2DB14FF4807221462846FEF74A
:101F000091FC0020F8BD00B551B100280AD0FFF7C0
:101F10001AFC30B1B1FBF0F200FB121008B902E07C
:101F200008B1002000BD012000BD0000024800787B
:101F3000C0F340007047000040BC002070B50400B2
:101F400022D0FFF72BFC0246B0F5703F00D90022EB
:101F50004FF470300D4D00590119E960C5E90112C7
:101F60000B481AF00FFF0B48844207D1D5E9010155
:101F700008440949884201D8012000E00020687522
:101F8000BDE8704000F006BA70BD0000900200206D
:101F9000ECBD002080B4002080740420002903D010
:101FA0000844401E491E8843704700002DE9F04157
:101FB00005002DD01948417D51B3D0E901400619E3
:101FC000A86D6FF0040750B1696D08442021FFF738
:101FD000E5FF696DA1421ED3B0421CD80446202102
:101FE000686BFFF7DBFF04442021E86BFFF7D6FFA7
:101FF00004442021686CFFF7D1FF04442021E86AE3
:10200000FFF7CCFF2044B04205D80020BDE8F081A6
:102010006FF00700FAE73846F8E70000900200206A
:1020200070B504462021FEF737FC3048314D00885A
:1020300020802F48C1896180018AA180418AE18086
:1020400001892181418961818189A1810188E181A1
:102050004188218280886082D5F800034FF6FF71A5
:10206000A0FB010140F6E4425310C018002641F1E4
:1020700000013346FEF7BEF91F4BA082E68293EDC6
:10208000000A1E4910EE100A9FED1D1ADFED1D0A11
:102090004FF04742884202DDB0EE410A05E010EE03
:1020A000100A904201D9B0EE600ABDEEC00A10EEEF
:1020B000100A208393ED010A10EE100A884202DD17
:1020C000B0EE410A05E010EE100A904201D9B0EEE0
:1020D000600ABDEEC00A10EE100A6083D5F8F8025F
:1020E000A083D5F8F802000CE08370BDB601002093
:1020F000D0AF002038B90020E005002000FEFF46E8
:1021000000FEFF46000000C77FB50E480024029481
:10211000406803904FF48C710B48FEF7DFFB0A48D0
:10212000651E01230560009403AA02A907480194D3
:1021300000F0FCFA054800F08CFB04480565C0F887
:1021400010417FBDE0E903089002002040BC002060
:102150000448406820B1D0F8B00008B101207047B1
:102160000020704738B900200AB1084402E000207E
:102170007047801A9042FCD2704712B90020704715
:10218000891A9142FCD2884201D3401A7047081A3A
:10219000101A70472DE9F05F0C465FEA000A93467B
:1021A0004FF0FF3824D01046FFF7CDFA00B3B4FB50
:1021B000F0F100FB1141D9B9B4FBF0F5DDB372B613
:1021C0002849CB682848C7688A68866862B6896BE0
:1021D00071B1806B60B1402A0AD3402E08D32348E6
:1021E000006828B12248D0F81401446E402C02D374
:1021F0004046BDE8F09F40211846FFF7BEFF8146EC
:10220000324640213846FFF7B8FF202C01D2154E48
:1022100000E0154E02D300BFA4F12004A04600D276
:102220004846B2684FEA8511A1F14001FFF7A5FFCA
:102230000746002412E013E007EB4801304600F0A7
:1022400091F803B222465946504600F03BF9B26875
:1022500040213846FFF788FF0746641CAC42EBD3A9
:102260000020C6E7E4AF002028B0002038B10020ED
:1022700040BC00202DE9FF4F89B00024169D09982D
:102280009A460E46671E60B1BAF1000F09D045B1FB
:102290000B98FFF758FA20B1B6FBF0F100FB116183
:1022A00019B138460DB0BDE8F08FB6FBF0F62EB38D
:1022B0007019401EB0FBF5F972B62949C868D1F80B
:1022C00008B062B6896B19B15946BBF1200F16D21E
:1022D0006846FFF7A5FE6F460EE000BFB4FBF5F0C1
:1022E00005FB104122461AF801000B9937F910300E
:1022F000099800F0E7F8641CB442EFD32DE00A46D9
:102300002021FFF73AFF4FEA49115A462039FFF7DB
:1023100034FF009000201DE000270FE01AF80700AE
:10232000009901EB40010E4800F01CF803B2224670
:102330000B99099800F0C6F8641C7F1CAF4201D2CB
:10234000B442EBD35A4620210098FFF70DFF0090CE
:1023500008F1010080464845DED30020A2E70000D6
:10236000B0B0002010B520B1826B12B18368022B8F
:1023700001D2002010BD8368B1FBF3F003FB101005
:10238000411CB1FBF3F403FB1411105C515C40EAF7
:10239000012010BD70B5174800F05BFA1548FFF733
:1023A000BFF9154C6FF007052068401C607D07D011
:1023B00020B1A06810B1FFF7CBFE28B1256170BD38
:1023C0000028FBD00025F9E70B481830FFF7EEFD99
:1023D00028B9D4E9023207482168FEF7DAFF206104
:1023E0000028ECD1207D0028E9D0BDE870400148EC
:1023F00000F028BA40BC0020900200202DE9F047F0
:102400000E46284980468946FFF752FD254C0500B7
:102410004FF0FF37A4F1180402D0276025612EE0A9
:10242000C4F80080FFF794FE0546607D10B1A068F7
:1024300000B185B11C4800F00CFA1B48FFF770F999
:102440006FF007002061002E03D0002D01D0002185
:102450002175BDE8F0874846FFF7A8FD206130B937
:10246000D4E9023210482168FEF793FF206105008D
:102470000DD04FF4807148462760FEF72FFA0A48C6
:1024800000F0E7F90848FFF74BF92846E1E706486E
:1024900026B100F0D7F901202075F6E700F0D9F950
:1024A000F3E70000A802002040BC0020002806D06E
:1024B000002904D00A46014601480BF09FBA704734
:1024C00038B90020012906D002290DD0032901D1F5
:1024D000190A8154704700EE103A00EB8200B8EE02
:1024E000C00A80ED000A704720F8123070470000E3
:1024F000F8B5324C4FF0FF3005466188012935D1DF
:10250000D4F81421002A31D0D4F8DC1000292DD0C1
:10251000D4F8E010002929D0D4F818111046DC3482
:10252000FFF785FB074674E83701FEF7B5F9082683
:10253000B7F5807F09D0B7F5007F0DD0B7F5806F74
:1025400015D0B7F5006F10D118E0DC3494E807001F
:10255000DC3CFFF71FFE06E00320DC34009094E82B
:102560000700174B11E0050013D02846F8BDDC34F6
:10257000009694E80700124B103306E00920DC3483
:10258000009094E807000E4B1833DC3CFFF772FE16
:10259000E9E7D4F8000170B1D4F8041159B1FEF79D
:1025A0007BF904F580740096054B94E80700083326
:1025B000FFF760FEF8BD0020F8BD000040BC002021
:1025C000E0E9030810B504461C2100F58A70FEF707
:1025D00085F9342104F59870FEF780F9482104F557
:1025E000B270FEF77BF900209CB104F19C02C4F8A4
:1025F000DC2003214023C4E93831C4E93F10C4F88A
:1026000004015032C4F808010823C4F80C01C4E9DD
:102610003D23608010BD70B5CAB0064628216846CB
:10262000FEF75CF93046FFF715FA05463046FFF72E
:10263000F5F904460AA93046FFF73AFC18B3002121
:10264000AD228DF800209B228DF801208DF80260CC
:102650008DF803100394CDE9010549B11198049058
:102660000F9805901F980690159807901798089056
:10267000DA208DF824008DF8250026216846FFF722
:1026800015FF4AB070BD0121DAE7000010B588B02F
:1026900020216846FEF722F9224900204A7D02B136
:1026A00001200A68531C01D040F002000B7D0BB1E1
:1026B00040F004001C4B1C78A40701D540F0080032
:1026C0005B88012B01D140F01000AD238DF8003064
:1026D00099238DF801308DF80200022A01D2D0B280
:1026E00000E0FF208DF8030008690190486802901F
:1026F00088680D49039001F18000D1F8E010049141
:10270000806F05900848D0F810010690DA208DF807
:102710001C008DF81D001E216846FFF7C7FE08B09B
:1027200010BD00009002002040BC00202DE9F05FA9
:102730009B46DDE90A8615460F4604004FF0FF3A36
:1027400058D0EFB3E5B3FEF7EBFF20784FF0000968
:10275000C00706D0D4F8E80018B1FDF724FEC4F88D
:10276000E890A4F800903888A0807888E0802888D5
:1027700020816888608184F854B0A4F856800020D5
:102780001EB1404501DA315C00E000212218401CF6
:1027900011744028F4DB2046FFF714FF402204F1B7
:1027A0009C0104F158001AF0EDFA00204946221865
:1027B000401C82F89C104028F9DB0020221800E021
:1027C00018E0401C82F8EC100828F7DBA08840B124
:1027D000E28832B15043FDF7B7FDC4F8E80048B1D4
:1027E00001E0C4F8E810208840F0010020800020BB
:1027F000BDE8F09F5046FBE770B5040002D020789A
:10280000800702D44FF0FF3070BD0D4E75686088B0
:10281000012807D016F039FF7068401BC4F810017A
:10282000206D70BD04F5B27104F58A70FFF713FADC
:102830007168491BC4F810110028F2DB206570BDD7
:10284000001000E0002803D0018841F0020101805F
:102850007047002803D0018821F0020101807047F1
:102860001FB51B4C206808B1002000E001204FF488
:102870008071CDE90210174B4A00CDE90023164ABA
:102880001649174806F098FBB8B14021104809F0E6
:10289000B3FC206BC8B1134913480123828BC06875
:1028A00092B2CDE90202CDE9001310481049D0E9F7
:1028B00009231048FEF706FB1FBD06F08DFD14220C
:1028C0000D49074806F0C6FCE3E70021E4E70000F5
:1028D00038B1002000040240742F0120B82A0120E2
:1028E000B8C1002000710200A0F60420D0A500208D
:1028F000702A012030C20020BCAF002070B5134DFB
:10290000287818B11248B0F8980208B1002070BDBC
:1029100017F05AFB0028FAD000242C700D48022131
:1029200080F8F012A0F8044317F096FA08B10CF002
:10293000F9FD0AF065F9054807A180300A6840F8FA
:10294000402F898881808471012070BD980100200A
:10295000049F002038B9002043453634535F0000FF
:1029600070B5154D2878002803D0FFF7C7FF08B1D0
:10297000002070BD11480024B0F89802012818D03A
:102980000F48012180F8F012A0F8044317F01EFA56
:1029900008B10CF0C7FD0AF033F9074809A18030EF
:1029A0000A6840F8402F8988818084712C7001204A
:1029B00070BD2C70DCE7000098010020049F00200F
:1029C00038B9002043453634585F000070B5002107
:1029D00000B10170114AD2E90243A3421BD9B3F5F9
:1029E000004F18D9156CA54215D3A3F500439C429E
:1029F00011D21A1B0FD02B1B934200D9134608B1DA
:102A00000124047064245008E3FB04010023FDF753
:102A1000F1FCC0B270BDFF2070BD00001029002085
:102A20002DE9F0418046474886B00025016841F015
:102A300002010160016801F002010591016841F0A5
:102A4000040101600068142100F00400059068464C
:102A5000FDF744FF4FF4804401260094CDE9016561
:102A6000394F6946384603950DF068FD6000CDE9A1
:102A700000060320CDE90250694638460DF05EFDA0
:102A80000122214638460DF054FE3048006808B94E
:102A900017F02EF92E4CD4F8B40218B94FF4964022
:102AA000C4F8B40284F8B95228492A4806F088FDCF
:102AB000294805F0E0F8294805F0DDF827483222DA
:102AC00027497A38FDF727FEB8F1000F07D06420B8
:102AD0000DF0BEFB1F4805F03FFB00B325E01A4890
:102AE0001830016841F480410160B4F8B01221F05F
:102AF0000801A4F8B012016841F000410160B4F887
:102B0000B00220F08000A4F8B002D4F8340204F53A
:102B10002C740BF061FF208840F0020020801048E8
:102B20001438016841F0020101600E48C16841F0AB
:102B30002001C160C16821F40051C16006B0BDE848
:102B4000F08100003038024000080240842E01204D
:102B5000985C0020982C002030640020CC5F00207E
:102B60005802002000100140064810B5016841F0ED
:102B7000004101600DF0E2FD42F21071084402498B
:102B8000C86610BD180802409801002010B50DF06D
:102B9000D5FD194941F60C1252582AB901F5405198
:102BA000D1F83812490401D5012200E0002213496E
:102BB000B1F8521049B91249D1F8DC3213F0020FC2
:102BC00003D1D1F8E012890700D001210D4BDB6E53
:102BD0000BB1C01A0ED4114303D0BDE81040FFF76B
:102BE000C3BF09480068002804D10848016841F4BF
:102BF0000041016010BD0000982C00201029002029
:102C000038B900209801002038B10020180802408F
:102C1000F0B5154EADF5017D0446022821DA4FF4DA
:102C2000007739466D4601A8FDF758FE0F483A4631
:102C30008068009004F191008DF80100DA208DF891
:102C400002028DF803020A4800EB4421A81CFDF79C
:102C500062FD3A1D6946304602F008FB304606F038
:102C600084FE0DF5017DF0BD982C002000E80308DE
:102C700038B5002070B5ADF5816D4FF40075184E74
:102C80002A46184981A8FDF7CDFD174C0DF20442E4
:102C90002046218A03F09AFEE068DDF80414401A09
:102CA000C59029466C4601A8FDF718FE0F482A4634
:102CB00081A940680090DA208DF802028DF80302A5
:102CC000A01CFDF728FD2A1D6946304602F0CEFA09
:102CD000002802D1304606F048FE0DF5816D70BD2A
:102CE000982C002038B100201029002000E80308AB
:102CF0002DE9F0413A4800683949091D0968C0F3D7
:102D0000015101EB8101C0F3034202EB4101C0F329
:102D1000023202EB8202C0F3032303EB4203C0F34F
:102D2000021202EB820200F00F0000EB42004FF4AF
:102D3000616211FB02F1C3EB031201EB82010C187B
:102D40002848D0F8DC02294D10F0020F26484FF039
:102D5000010100F1800601D0C1743EE0C27C002A6E
:102D6000FAD03068201A2844B0FBF5F105FB1100B9
:102D70004AF6C00188422ED21D48B0F8B01240F683
:102D80000842114227D1D0F8381211F4844F22D1D1
:102D9000A0F50051D1F80C1900291CD1D0F824124B
:102DA000002918D1D0F88C17002914D1D0F8F00BD5
:102DB000002810D10F4807460AF0B0FC0822394617
:102DC0000D4805F00DFB40B114F10104B4FBF5F022
:102DD00005FB10403060BDE8F0810C34F6E70000E0
:102DE0000028004038B900209801002080510100DF
:102DF000985C0020965F0020982C00200848D0F8AE
:102E00004C0100B90748D0F81011074AB1FBF2F2A3
:102E10000649A1F89E220089A1F8A202704700008D
:102E20001029002038B1002080841E00985C00200A
:102E300010B5044600F016F8002C12D0002810D06F
:102E4000017B890702D5416901B12181017B4907D5
:102E500001D581696160017B090702D5C069C4F8A9
:102E6000A40010BD10B50748074C084BD0E900215D
:102E7000624059400A4302D18168012900D00020F4
:102E800010BD000000C000084746434432334543AC
:102E90000C4808B5016841F080510160006800F0FD
:102EA000805000900EF09EFA074A102107480EF05D
:102EB000C4FF0122112105480EF0BFFF0EF086FA73
:102EC000002008BD4038024007B032CE0C2B012054
:102ED0000A48416EC26F01EB410189088A4204D35E
:102EE000C16F426ED243914206D30089012803D1BB
:102EF0000121024819F0F0BE70470000A4C2002072
:102F00001FB50F48C06A4FF0FF34A0B100F022F89F
:102F10000C4820210822CDE90002CDE902010A492E
:102F20000B488B698A68094902F082FC002800D0AE
:102F3000204604B010BD064802F0F2FBF8E700009E
:102F400038B1002000040240A0F60420DC2B012050
:102F5000A4C2002016F0E2B92DE9F04119F0E4FE18
:102F60000026294A35463046D2F8042031468C24C2
:102F700000EBC00304EB8303D3589E194D41401C62
:102F80000628F5DB3046294600F046F81F4C074678
:102F9000E06A10B9FEF7CAFF00B1052731461C4EA2
:102FA00031607560B7602168F160E16A3161216B61
:102FB0007161FEF7BBFFE16A01B1012141EA400006
:102FC000F06107F055F810B105F030FF48B1206806
:102FD00068B1206840F2E241884208D8E06A20B136
:102FE00005E0002017F07AF904E0206B00B13846C4
:102FF00017F0C6F817F006FA06480068B0610BF043
:1030000017F90020BDE8F08138B9002038B1002060
:1030100040A70020D8050020124B00221B1A8A412D
:1030200001D300207047104B00221B1A8A4101D3A4
:10303000012070470D4B00221B1A8A4101D3022048
:1030400070470B4B00221B1A8A4101D303207047A3
:10305000084B0022181A8A4101D30420704705202A
:1030600070470000A2170F00831F1400452F1E0099
:10307000073F28008B5E3C0010B504462DED028B07
:10308000403091ED000A0BF095FDB0EE408A84EDE2
:10309000008A04F562700BF08DFDA06A012820D033
:1030A000F0EE408A41F23871B0EE680A60180BF019
:1030B00081FD84ED010A84ED048AC4ED058A0021B6
:1030C00004F5D4500BF034FE41F6A820005DC00793
:1030D0000AD0BDEC028B2046BDE81040002100F074
:1030E00001BEF0EEC08ADDE7BDEC028B10BD70477B
:1030F00070B504462DED028B0D4691ED000A40306F
:103100000BF058FD606A012801D1B0EEC00A41F20F
:10311000F031F0EE408A60180BF04CFD84ED000AAF
:1031200095ED010A04F562700BF044FDA06A0128D8
:1031300034D0B0EE408A00BF41F23871B0EE480A98
:1031400060180BF037FD84ED010AC4ED048A84EDAC
:10315000058A94ED000A002104F5D4500BF0E8FD37
:1031600041F6BC2094ED010A012120440BF0E0FD62
:1031700004F5805595F8A80AC00703D00021204621
:1031800000F0B0FD95F8E40AC0070AD0BDEC028B50
:103190002046BDE87040012100F0A4BDB0EEC08A19
:1031A000CAE7BDEC028B70BD2DE9F04704462DED5A
:1031B0000A8B0D46403091ED000A0BF0FBFC41F20A
:1031C000F030F0EE408A20440BF0F4FCB0EE409A70
:1031D00095ED010A04F562700BF0ECFC41F23870D9
:1031E000B0EE408A20440BF0E5FC69EE090AF0EEEF
:1031F000409A48EEA80A10EE900A1BF09FF841ECA6
:10320000100B19F0CDF851EC100B1AF0B3F969EE70
:10321000A90A206048EE080A10EE900A1BF08EF80A
:1032200041EC100B19F0BCF851EC100B1AF0A2F99C
:103230006060C4ED048A84ED058A94ED000A0021E3
:1032400004F5D4500BF074FD41F6BC2294ED010A54
:103250000121A0180BF06CFD04F58057002697F8AB
:10326000A80AC00700D0012618EE900A1BF066F8E5
:1032700041EC1A0B19EE100A1BF060F841EC100B30
:10328000B0EE4A1AF0EE6A1A18F086F851EC100BFC
:103290001AF070F909EE100AE06A594D4FF0010872
:1032A00090ED5D0AD0ED618AB4EEC09AF1EE10FAAD
:1032B00002DA0026C5F808809FED52AB9FED53BBA4
:1032C000F4EEC08AF1EE10FA21D218EE900A1BF04B
:1032D00035F853EC1A2B1AF07FF91AF04BF908EE77
:1032E000900AA86840001AF02CFC53EC1B2B1AF033
:1032F000D5FC41EC1C0B19EE100A1BF01FF853EC27
:103300001C2B1AF069F91AF035F909EE100A4FF082
:103310000009B4EEE89AF1EE10FA03DB002000F0A9
:10332000F1FC06E02EB10021204600F0DBFCC5F8E0
:10333000089097F8E40A0026C00700D0012618EE8E
:10334000100A1AF0FBFF41EC180B19EE900A1AF064
:10335000F5FF41EC100BB0EE481AF0EE681A18F0C9
:103360001BF851EC100B1AF005F908EE900AE06A10
:1033700090ED5D0A90ED618AF4EEC08AF1EE10FAEC
:1033800002DA0026C5F80C80B4EEC08AF1EE10FA1D
:1033900021D218EE100A1AF0D1FF53EC1A2B1AF0B2
:1033A0001BF91AF0E7F808EE100AE86840001AF076
:1033B000C8FB53EC1B2B1AF071FC41EC190B18EEF7
:1033C000900A1AF0BBFF53EC192B1AF005F91AF00A
:1033D000D1F808EE900AF4EEC88AF1EE10FA06DB96
:1033E000012000F08FFCBDEC0A8BBDE8F087002EB9
:1033F000F9D00121204600F075FCC5F80C90F2E7E9
:1034000000000020112D4454FB211940112D44547B
:10341000FB21094070B504462DED028B0D4691ED60
:10342000000A40300BF0C6FB606A012801D1B0EE03
:10343000C00A41F2F031F0EE408A60180BF0BAFB9E
:1034400084ED000A95ED010A04F562700BF0B2FB01
:10345000A06A012830D0B0EE408A00BF41F2387136
:10346000B0EE480A60180BF0A5FB84ED010AC4ED2C
:10347000048A84ED058A94ED000A002104F5D450F5
:103480000BF056FC41F6BC2094ED010A01212044CA
:103490000BF04EFC04F5805090F8A81AC9070ED026
:1034A00090F8E40AC0070AD0BDEC028B2046BDE8C4
:1034B0007040002100F016BCB0EEC08ACEE7BDEC33
:1034C000028B70BD2DE9F05F04462DED028B00F5F7
:1034D0008059C162002004F50056C9F8F82A9FED12
:1034E0003A8A93468846A6F82C030546824600BFD2
:1034F00004EB4507F88B20F40060F883A08B0528C7
:1035000009D90BEB4520D0F884100A2903D250F8D2
:10351000841F18310160284600F0F2FB294620463E
:1035200000F0D2F92946204600F054F804EB85015A
:10353000012007F580574862A7F818AFA7F81CAF1D
:10354000B6F82411C01EA8400140A6F82411B6F810
:1035500028110140A6F82811002004EB052100BF26
:1035600001EB800202F50052401C82ED4B8A40289C
:10357000F6DB6D1C022DBBDBE06A90F84001608336
:10358000D8F87021D8F86C11204600F017FAC4F86A
:103590002C80D8F8A400A083A4F822A0AD2189F83B
:1035A000201FAE2189F8211FDA2086F8220186F833
:1035B00023010648E06306480068BDEC028BBDE8C5
:1035C000F05FFDF76BB8000000000000D93D020875
:1035D000282800402DE9F84306460F46C06A40F20D
:1035E000E24108B1406B00B9084680B2B0FBF1F18E
:1035F000C7EB0710C0EBC00006EBC00505F5DA60AD
:1036000005F5566404294AD004DC012972D0022948
:103610002FD15AE0082915D010292AD1DFF80081CE
:10362000032308F14802A2F12401CDF800800BF039
:1036300011FB08F1480220460323A2F12401CDF832
:10364000008014E0DFF8D880032308F16C0808F14B
:103650004802A2F12401CDF800800BF0FBFA08F13A
:10366000480220460323A2F12401CDF800800BF08C
:10367000F1FA41F6F820805900EB472241F2F03090
:10368000291805F1400006F039FBC7EB071006EBDF
:103690008000BDE8F84300F5D4500BF011BBDFF813
:1036A0008080032308F1D80808F14802A2F1240120
:1036B000CDF800800BF0CEFA08F148022046032333
:1036C000A2F12401CDF80080D1E7DFF85880032370
:1036D000A8F1FC0202F59071CDF800800BF0BAFA67
:1036E000A8F1FC022046032302F59071CDF800807A
:1036F000BDE7FFE7DFF82C80032308F1480808F155
:103700004802A2F12401CDF800800BF0A3FA08F1E1
:10371000480220460323A2F12401CDF80080A6E749
:10372000F8E503083CE703082DE9FC478946044611
:10373000002500F5805600BF04EB8508D6F8F80A8E
:10374000D8F8303000EB452001AA49469847C5EB30
:103750000510C0EBC00004EBC00000F5DA600746BE
:103760009DED010A0BF026FA88ED020AD6F8F80A58
:103770006A4600EB452049460BF04AF938469DED74
:10378000000A0BF017FA6D1C8DED000A022DD3DB39
:10379000208B618B884227D100202083014604F5CD
:1037A000005000BF04EB0122B0F82C339DED000A5D
:1037B00002EB830202F50052491C82ED4B0A0229FA
:1037C000F0DB90F82C13491C01F03F01A0F82C13FA
:1037D00004F10801A26B0D4620469047E26B294692
:1037E00020469047BDE8FC87401C2083FAE710B5CF
:1037F00000F5D8510446D1E90223521E43F1FF33AC
:10380000C1E90223D14371EA030107D100F008F8AE
:103810002046BDE81040002100F064BA10BD000051
:103820002DE9F04100252DED028BC16A09B1496BEC
:1038300009B940F2E2418FB200F5D854FCF74AFDD5
:1038400000EE100ADFED170AD4E90060B8EEC00AF6
:10385000801B60EE200A00EE100AB8EE400A20EE4F
:10386000800A10EE100A1AF021FE36184D41384633
:103870001AF07EF99FED0C1B53EC112B19F068FF29
:1038800041EC180B304629461AF086F953EC182BF8
:103890001AF004FA1AF0CEFDC4E90201BDEC028B65
:1038A000BDE8F0810000003000000000000024406E
:1038B00004494A8C22F4805242F400524A8408F0AF
:1038C000C5BE0000980100202DE9F043C56A85B00F
:1038D0000E4604464FF000090DB1686B08B940F27E
:1038E000E2401FFA80F841F6F820678B005900EBA0
:1038F000462104EB860030300BF0B6F805EB86006D
:1039000006F0FF0CD0F8E830D0F8D82050F8A81F07
:103910000DF1040E8EE80E100169009190ED160A6B
:10392000016C016B01680069D5F8FC30D5F8F8200E
:10393000C6EB061004EB8000414600F5D4500BF0B6
:10394000C5F931462046FFF745FEE06AD0F8A400ED
:1039500080B2A0836783A4F81890082809D2DFE812
:1039600000F004060F11131517190B4800E00B485F
:10397000A0630B48006805B0BDE8F043FCF78EBEBD
:103980000848F5E70848F3E70848F1E70848EFE793
:103990000848EDE70848EBE7EF300208013A020873
:1039A00028280040F1300208793002081534020856
:1039B000EF370208653A0208A931020800F5805382
:1039C00003F5306306C3FFF72BBF000030B442F2AB
:1039D0002412002311521A465FF0010505FA02F481
:1039E0000C4200D00123521C022AF7DB1BB1034911
:1039F000C16330BC704730BC00F0CCB90D3D02084B
:103A000010B504462DED028B403091ED000A0BF00D
:103A1000D1F8606A01281ED0B0EE408A41F2F03140
:103A2000B0EE480A60180BF0C5F884ED000A84ED8A
:103A3000048A002104F5D4500BF07AF941F6A8204D
:103A4000005DC0070AD0BDEC028B2046BDE81040E7
:103A5000002100F047B9B0EEC08ADFE7BDEC028B71
:103A600010BD000070B504462DED068B403091ED81
:103A7000000A0BF09FF841F2F030B0EE408A20448B
:103A80000BF098F8B0EE409A69EE090A48EE080A81
:103A900010EE900A1AF052FC41EC100B18F080FC6A
:103AA00051EC100B19F066FD206084ED048A18EECD
:103AB000100A1AF043FC41EC1A0B19EE100A1AF026
:103AC0003DFC41EC100BB0EE4A1AF0EE6A1A17F00A
:103AD00063FC51EC100B19F04DFD08EE900A18EE46
:103AE000100A1AF02BFC41EC1A0B19EE100A1AF00E
:103AF00025FC41EC100BB0EE4A1AF0EE6A1A17F0F2
:103B00004BFC9FED311B51EC100B53EC112B19F0BA
:103B10001FFE9FED2F9B53EC192B1AF0BFF853ECAF
:103B2000192B19F059FD19F025FD6060606194EDC5
:103B3000000A002104F5D4500BF0FAF841F6A82051
:103B40000025005DC00700D00125E06A90ED5D9A78
:103B500090ED618AB4EEC98AF1EE10FA0DD218EE3A
:103B6000100A1AF0EBFB9FED1C1B53EC112B19F004
:103B700033FD19F0FFFC08EE100A194E35B1F4EED2
:103B8000C98AF1EE10FA01DBC6ED018AD6ED010A11
:103B9000B0EE680A19F082FCB4EEC80A86ED010A9C
:103BA000F1EE10FA05DB002000F0ACF8BDEC068B5E
:103BB00070BD002DFAD0BDEC068B20460021BDE87B
:103BC000704000F08FB80000112D4454FB210940D3
:103BD00000000000004CCD40112D4454FB21194041
:103BE0000000002010B5838B00F5D45141F6BC24B1
:103BF0004FF400622044082B06D2DFE803F00504EE
:103C00000606060404068A6210BD8A62826210BD3E
:103C10000348418C21F4005141F4805141847047A4
:103C20009801002070B52B4C0500E08B02D0012DCF
:103C300006D102E040F0010001E040F00400E08322
:103C40002548D0F8A00001283FD10CF077FD214B8A
:103C50000021B03353F82520861A71EB01060E4679
:103C600006D2821A66EB0101521E41F1000102E008
:103C7000821A66EB010143F825000A2300209A1AF4
:103C8000884122D21548418801290DD1007880074A
:103C90000AD5FEF72DFC18B91048FEF7ADFD18B196
:103CA000E08B40F400600FE0E08B20F40060E083E4
:103CB0000120A840C1B20A4809F06AFA35B1012DC5
:103CC00003D1E08B40F00800E08370BDE08B40F052
:103CD0000200F9E79801002038B1002040BC002024
:103CE000046F002010B500F500500123B0F8262124
:103CF0008B401A43A0F826210846FFF793FF10BD1A
:103D000000BF704700BF704700BF704730B51F4904
:103D100000F580520C88B2F8183F641CA4B20C80E5
:103D2000022C32D100240C8090ED020A00EB4304F7
:103D300004F58054BDEEC00A10EE101AA4F8181B4A
:103D400000F5005191F82641E4071AD0B2F81C4F53
:103D5000651CA2F81C5F802C13D3B1F8264124F017
:103D60000104A1F82641B1F8244124F00104A1F88E
:103D70002441074CC463B1F8280140F00100A1F8C8
:103D800028015B1CD8B2A2F8180F30BD000000203B
:103D9000D93D020870B50F490022C1631346951E34
:103DA00000F5005100EB420404F58054A4F8183FDC
:103DB000A4F81C3FB1F8246105FA02F42640A1F8EA
:103DC0002461B1F82861521C2640A1F82861022A1A
:103DD000E8DB70BDD93D020800BF70472DE9F04116
:103DE00000F50055044695F828010026012710F03B
:103DF000010F2BD004F580510022B1F8180FA1F863
:103E0000182FA1F81C2F114604EB462202EB4003A9
:103E100004EB410C03F580530CF5805C401CB3F8B7
:103E2000183B491CACF8223FC0B2FF29EEDD4FF42D
:103E3000017204F5F951304600F00CF8B5F828018C
:103E4000B740B843A5F828010148E063BDE8F08118
:103E50000D3D0208084810B5D0F8DC0200F0020061
:103E6000401C07D0054805F003FDBDE8104003489D
:103E700005F07BBD10BD000038B90020982C002053
:103E80002DE9F04FFF482DED088BADF5137DFE4D6C
:103E9000869005F5C0508790FC48DFF8F483B6EEB5
:103EA000009A9FEDFC8ADFEDFC8ADFEDFC9A8A9098
:103EB00005F5DA604FF0010ADFF8E493F94E05F5F5
:103EC000805B929044E200BFFEF74EFE0CF036FCA1
:103ED000F54FC7F8E802849C2078892873D04ADC23
:103EE000302871D022DC13286FD010DC0428E9D0F0
:103EF00006DC01286AD0022869D00328E2D1E8E074
:103F00000528DFD0112874D01228DBD15DE12028EC
:103F100070D004DC14286ED01528D3D199E1212863
:103F20006AD0222869D02328CCD14CE250287BD0FB
:103F300010DC402879D006DC312877D0322876D0C2
:103F40003328BFD1B3E2412872D0422871D0432830
:103F5000B8D114E380286DD006DC51286BD06028DE
:103F60006AD06128AED129E3812866D0822865D045
:103F70008428A7D198E39D287AD017DCA0F18A0085
:103F800012289FD2DFE810F0DA03E40106043F04B0
:103F9000E401F00479057C057E058205AB05B805D2
:103FA000C005EA05F305FC05E401FF05AE287DD058
:103FB00015DCA1287BD00BDC9E2879D09F2896D0D9
:103FC000A0289BD1FEE373E33AE20EE11DE050E04E
:103FD000AB286ED0AC286DD0AD288FD1F3E3F1289B
:103FE00069D00BDCBA2867D0BB2866D0F02885D111
:103FF000EAE3A4E069E109E186E1AAE1F2287DD0E3
:10400000F3287CD0F42888D1FCE34FF40072A74950
:104010006846FCF707FC94F8913069468DF89030BB
:1040200091204FF488720AE0AEE25EE21AE222E2E8
:1040300068E276E2C8E2B0E2B4E2E0E2F7E2231836
:104040005B780B54401C9042EDDB084601F071FF99
:10405000002887D14FF4007269469448FCF7E2FBD0
:10406000934A92498848FFF72DFA09F0A7FC17E216
:10407000FDE34FF400726846611C01F061FF684681
:1040800001F019FF00289CD18A48809088488290CE
:104090008098CDF80CD20021416180984FF40074D3
:1040A0008161809880218160809807E0FEE3FEE3D3
:1040B000FEE3FEE3FEE3FEE3FEE3FEE30CF018F8AE
:1040C00028B9DDE98221234680980CF07BF8002195
:1040D00028E04FF400726846611C01F031FF684629
:1040E00001F0E9FE00288ED1724880908A98CDF8C0
:1040F0000CD24FF400740021829001E0FEE3FEE355
:104100008098416180988161809880218160809849
:104110000BF0EEFF28B9DDE98221234680980CF0F0
:1041200051F801215848FFF7CFFB09F047FC00BFC9
:10413000D7F8DC0240F00800C7F8DC02C2E660787D
:1041400000F00F00042805D8607800F00F015748F0
:10415000C0F8A4105548D0F8A41029B9DBF8A81A63
:1041600041F40062CBF8A82AD0F8A41002290BD1A0
:10417000DBF8A81A41F40062CBF8A82ADBF8E41AAD
:1041800041F40062CBF8E42AD0F8A41004290BD142
:10419000DBF8A81A41F40062CBF8A82ADBF8E41A8D
:1041A00041F40062CBF8E42AD0F8A4000328C5D17A
:1041B000DBF8A80A40F40061CBF8A81ADBF8E40A9F
:1041C00040F40061CBF8E41A7CE6012103AA002048
:1041D000849B5B5C1354491C401CC9B20428F7DB68
:1041E00032480399C0F814116CE6012103AA00209B
:1041F000849B5B5C1354491C401CC9B20228F7DB4A
:104200002A48BDF80C10C0F820119DE06378022107
:10421000022B93D26A460020849C645C1454491C8F
:10422000401CC9B20428F7DB13B1012B86D106E08C
:1042300087989DED000A80EDA50A1F4806E0879843
:104240009DED000A80EDB40A1B483C3008F0FEF9F1
:1042500038E66278022AB7D202A90020849B034480
:104260009B780B54401C0428F8DBC2EB021005EBD2
:1042700080019DED020A01F5C05080EDA60AD0ED47
:10428000A70A1BE0982C0020E005002038B700208A
:10429000A4A10020000000006666663FCDCCCC3DA6
:1042A00098010020049F002038B9002038B1002078
:1042B00038B50020142F01206020002020EE200AB5
:1042C00080EDA50A01F5D450C0E714216846FCF73B
:1042D00005FB1422611C684601F032FEFE4800997D
:1042E000CBF8841AC0F8D8100199CBF8881AC0F816
:1042F000E8100299CBF88C1AC0F8B8100399CBF8E3
:10430000901A40F8A81F1DE014216846FCF7E6FA51
:104310001422611C684601F013FEEF480099CBF8A7
:10432000C01AC0F8DC100199CBF8C41AC0F8EC1020
:104330000299CBF8C81AC0F8BC100399CBF8CC1A74
:1043400040F8AC1F04990162E349E44808F034FCEA
:104350001FE21C218BA8FCF7C1FA889F012F29D9E5
:104360007F1E1C2F00D91C273A46611C8BA801F028
:10437000E7FD4FF400742246D9496846FCF752FA2B
:104380008B9823908C9821908D9820908E988DF802
:1043900000008F988DF8010090988DF802001C2F76
:1043A00002D391988DF80300684601F084FD00283F
:1043B000CED101E00027D7E722466946C848FCF77E
:1043C00031FA002138E01C218BA8FCF787FA889F7E
:1043D000012F29D97F1E1C2F00D91C273A46611CAA
:1043E0008BA801F0ADFD4FF40074224668468A990F
:1043F000FCF718FA8B9823908C9821908D98209038
:104400008E988DF800008F988DF8010090988DF8A7
:1044100002001C2F02D391988DF80300684601F02A
:104420004AFD002894D101E00027D7E722466946DB
:104430008A98FCF7F7F90121AA48FFF7CBF8A8E121
:10444000B6F8980201280AD10322A749A34808F028
:1044500062FE20B10121A04807F0CEFE99E106F0EE
:1044600015FF96E106F05CFFA0A00522D0E9001040
:10447000CDE9001031E30020ADF8000002226846CB
:10448000611C01F05DFDBDF8003044F62060834200
:1044900000DD03464FF0FF320021964818F078FF08
:1044A000D7F8E00240F04000C7F8E00240E6002004
:1044B0000090019002900C226846611C01F040FDC2
:1044C000009944F62060814200D8084682498862FB
:1044D0000198102800D91020C8628748029A8242A9
:1044E00000D8104608638B6AD4E7D7F8DC0240F0A6
:1044F0000200C7F8DC028148016841F00041016018
:104500007FA006E0D7F8DC0220F00200C7F8DC024A
:104510007CA00322006800906946704808F0FBFD0B
:1045200037E160780006607800F07F000FD4402803
:1045300085D2EFF3108772B661786748C0F818111A
:10454000002189F80F100121A0F5AA700DE01028B4
:1045500084D2EFF3108772B661785F48C0F8181103
:10456000002189F80F100121883806F014F85A4804
:10457000CC3805F0E7FF002FD2D162B609E16178AF
:104580005848FFF723FA04E15F4801680906FCD5A3
:104590005149D1F81C114160FBE0D7F8E00240F02E
:1045A00002002EE36478E00702D00020FFF73AFB18
:1045B000A007B5D50120FFF735FBEAE06178A278C6
:1045C0004C4809F0A3F8E4E04C48016841F0004190
:1045D00001604D4801680906FCD54CA00122006825
:1045E00000906946869800F041FE869805F0BDF976
:1045F000B8F8001041F00801A8F80010C9E03F48E1
:10460000016841F0004101603F4908680006FCD59F
:10461000354814300FC88DE80F003D480068016828
:10462000CDF80110806ACDF805000D2255E233481F
:10463000016841F000410160B8F8001040464907A8
:104640002DD590ED020AD0ED010A90ED031A30EE5F
:10465000600AD0ED060AC08CADF81400AD208DF8CC
:10466000000082208DF8010010EE100A8DF802A0E3
:10467000CDF8030010EE900A6946CDF8070011EE60
:10468000100ACDF80B00BDF81400ADF80F00DA20C9
:104690008DF811008DF8120013221E48BFE3D7F8E1
:1046A000E00240F00100ACE2E07805F037FE70E097
:1046B000194809F0B5FAA8F800A089ED098A89ED32
:1046C0000A8A89ED0B8AD7F8E00240F00100C7F8AA
:1046D000E002124824E0000038B10020046F0020FE
:1046E00038B50020E005002000E803085A5A31A53B
:1046F000A500000038B9002000710200180802402F
:104700003C403E003C413E00001001408000000063
:104710000C2B0120982C0020A4A10020985C0020E4
:10472000B0F8981221F0800141F04001A0F89812F1
:10473000B6F898020128BAD1F7A0EAE6042205A843
:10474000611C01F0FDFB849914226846491D01F0AB
:10475000F7FBB8F80000474604280DD000240022DB
:1047600005A9EE480DF0F2FD00226946EB4807F07E
:10477000E9FB002C9BD101E00124F0E789ED098AD7
:1047800089ED0A8A89ED0B8AE54809F049FAA7F80C
:1047900000A0C0E308220DA8611C01F0D1FB8499A0
:1047A00008220FA8093101F0CBFB0DA90FA809F0D1
:1047B00003FCDC4880ED030A90ED030AD84809F0B9
:1047C00049FA02E016E28EE22CE3002208A9D3485F
:1047D0000DF040FC002207A9D0480DF019FC3C2048
:1047E0008DF800008A208DF801000798CDF80200AE
:1047F000142208A90DF10600FBF78DFF3E208DF86D
:104800001A0088E3F2E3082209A8611C01F098FB72
:10481000849908220BA8093101F092FB849908229F
:104820000DA8113101F08CFBBC4F0024224604A9D5
:1048300038460DF00FFC22460FA938460DF0E8FB74
:104840009DF811009DF81210C0EB001001EB8000E4
:104850000290059942F20F70401A039009A90BA823
:1048600009F0AAFBB0EE40BA02A90DA800E099E158
:1048700009F0A2FBB0EE40AAF0EE4B0A09A930EE17
:104880008A0A02A860EE09BA09F096FBF0EE40AA87
:104890000BA90DA809F090FB7AEEC0AAF5EEC0AA0C
:1048A000F1EE10FA25DD1AEE900A07E038E2ABE1EE
:1048B00098E1D0E1E6E1F0E24EE279E29A498842FD
:1048C00017DAB0EE6B0A964809F0C4F999ED090AB7
:1048D0004846B5EEC00AF1EE10FA04D9F4EEC0AACB
:1048E000F1EE10FA05D2C0ED09AA80ED0ABA89ED01
:1048F0000BAAF5EEC0AAF1EE10FA01E019E376E397
:1049000024DDD8ED040A2AEE890A4046F5EEC00AF5
:10491000F1EE10FA06D9D0ED040AF4EEC00AF1EE79
:1049200010FA01DD80ED040A90ED030AB5EEC00A2D
:10493000F1EE10FA90ED040A06D9D0ED030AF4EE78
:10494000C00AF1EE10FA02DD80ED030AE3E2D0EDD9
:10495000030A9FED761A60EE810A9FED751A40EE0C
:10496000010AC0ED030AD6E2002005900422611C72
:1049700005A801F0E5FA0598C7F8F802674C00228F
:10498000694620460DF066FB002208A920460DF07E
:104990003FFB9DF801009DF80210C0EB001001EBF9
:1049A0008000019A42F20F71891A0A22B1FBF2F1DA
:1049B00000EB4002C2EBC01001EBC001C1F31300D9
:1049C0000090059C200D02900098C7F8FC02AD20D5
:1049D0008DF80C008F208DF80D00CDF80E10DA2028
:1049E0008DF812008DF81300082203A9514800F039
:1049F0003DFC869804F0B9FF02982044C0F31301EF
:104A00000098401AB0F5002F02DDA0F5801004E0F8
:104A100010F5002F01DA00F5801000EE100AF8EE14
:104A2000C00A9FED451AB9F81C004C4680EE810A79
:104A300000283C481CD0D0ED040A60EEA80A40EEE5
:104A4000290AC0ED040A3748D0ED040A70EE600A66
:104A500090ED050A20EE280A60EEA00A00EEA90AF1
:104A600080ED050A09F084FAA08B401CA08352E275
:104A700080ED040A80ED058AE5E7FEF7FBF84AE2DF
:104A8000002000E00120FEF7C3F844E22B48016853
:104A900041F00041016060780228E8D2AD218DF834
:104AA000001093218DF801108DF80200C0EB00106A
:104AB00005EB8000A0F26C5000F500500168CDF8C5
:104AC00003104168CDF807108068CDF80B00DA209C
:104AD0008DF80F008DF81000112269469EE188992B
:104AE0000020032903D36178A07841EA0020A9F8C7
:104AF0001A0089F80DA00EE2607800B9012089F84B
:104B00000B0089F80AA006E200200190889802288C
:104B100016D3647815E000003C893E000C2B012080
:104B2000A4A10020180200200000404052B87E3F9F
:104B30000AD7A33B982C002000007A4418080240B2
:104B4000FF24062805D38499042201A8891C01F0BA
:104B5000F7F920460199FCF761FEDCE1889802280C
:104B600001D3607800E0FF20FCF78EFED3E1889847
:104B7000022801D3607800E00020FCF721FECAE1A2
:104B8000FDF784FDC7E18898022804D36078FF28E8
:104B900001D0607803E00020FDF73DFD0120FDF726
:104BA0003AFDB8E1FE49086840F000400860AD20D9
:104BB0008DF800009D208DF80100FA48018BADF8BA
:104BC0000C10408BADF8080088B2ADF80200BDF8BB
:104BD0000800ADF80400DA208DF806008DF8070013
:104BE00008227AE7607810B106F0FAFC93E106F04B
:104BF0001DFD90E160780A2885D1D7F8E00240F0E9
:104C00000400C7F8E00286E164781CB1012C01D0F1
:104C1000022C67D1B6F89802012817D1012C02D0D6
:104C2000022C02D012E0022000E00120DEA10422CA
:104C3000096801918DF8060001A9DC4808F06BFABB
:104C4000DA4804F059FF02200BF002FB204607F07F
:104C5000BFFCA12079E06078BA2843D1B6F8980269
:104C600001280DD1D2A00422006800906946CF48E7
:104C700008F051FACD4804F03FFF02200BF0E8FAAB
:104C8000AB2062E06078CA282CD1B6F898020128DF
:104C90000DD1C8A00422006800906946C34808F0FE
:104CA0003AFAC24804F028FF02200BF0D1FAC249B8
:104CB000AC20486001200BF0CBFAB94C206840F0E2
:104CC0008040206014200BF0C3FABCA1BE4813F052
:104CD0000FF864200BF0BCFA206840F4804020609C
:104CE000FCF77CF817E16078DA287DD1142168465A
:104CF000FBF7F4FD684614F071FEB4A002220068D0
:104D00000590B3A005A900680690869800F0AEFA59
:104D100012226946869800F0A9FA022206A97DE0CF
:104D2000B6F8980201280DD1AAA0032200680090CD
:104D300069469E4808F0EFF99C4804F0DDFE022029
:104D40000BF086FAFEF7A4F8AE209B4948600120DC
:104D50000BF07EFA16F08EF99F48B0F8500010F074
:104D6000050F41D000270422611C8BA88B9701F00E
:104D7000E7F8AD208DF80400BA208DF805008B9877
:104D800001ACCDF80600A11D0FF066FA8CAA4FF415
:104D90000071A01D8C9709F0F5FEADF80A02DA202B
:104DA0008DF80C028DF80D0240F20A2201A935E0BF
:104DB0008948B0F8500010F0050F15D084990024F0
:104DC0000422829482A8491C01F0BAF884994FF415
:104DD00000773A466846491D01F0B2F8ADF8004246
:104DE000022280A8849900E056E001F2052101F03A
:104DF000A7F883AA39466846839409F0C3FEBDF834
:104E00000012884203D16946829810F015FD73A004
:104E10008BAB07C883E8070009228BA9869800F0AE
:104E200025FA75E06A464FF40171869800F092FA0F
:104E300090BB0098AD2100F8011BF02100F8011B88
:104E400000242746CDF80000ADF8087084980222AF
:104E500000EB440102A8491C01F072F8BDF90800FA
:104E600000EE100A9298B8EEC00A09F0A3FEBDEE5B
:104E7000C00A0098641C10EE101A00F8011B090A01
:104E800000F8011B0090FF2CDEDDDA2100F8011B89
:104E900000F8011B009038E03DE002AA4FF40171D8
:104EA000869800F057FAB0BB0298AD2100F8011BBC
:104EB000F12100F8011B0024274602908498ADF8E8
:104EC0000C7000EB4401022203A8491C01F038F8E1
:104ED000BDF90C0000EE100A9298B8EEC00A09F075
:104EE00069FEBDEEC00A0298641C10EE101A00F8AC
:104EF000011B090A00F8011B0290FF2CDEDDDA21FC
:104F000000F8011B00F8011B0290869800F0C3F91D
:104F1000869804F02AFD88AA84A9869804F099FB53
:104F200000283EF4D1AF0DF5137DBDEC088BBDE834
:104F3000F08F6A464FF40171869800F00BFA002852
:104F4000E9D10098AD2100F8011BF22100F8011B06
:104F50000090002424482746CDF80C00ADF80870D6
:104F60008498022200EB440102A8491C00F0E8FFEB
:104F7000BDF9080000EE100A0398B8EEC00A09F067
:104F800019FEBDEEC00A0098641C10EE101A00F85D
:104F9000011B090A00F8011B0090FF2CDEDD74E7FD
:104FA00018080240A4C200203CA1003E046F00206B
:104FB0003CABBA3E3CACCA3E001001403C504556AA
:104FC000454E3E0000000000842E0120ADDA0000B6
:104FD000DADA00003CAE3E0010290020ADBB000034
:104FE000000000DADA000000F80F002038E002AA22
:104FF0004FF40171869800F0ADF900288BD102982A
:10500000AD2100F8011BF32100F8011B02900024E0
:105010002F482746CDF800008498ADF80C7000EBBF
:105020004401022203A8491C00F08AFFBDF90C00CC
:1050300000EE100A0098B8EEC00AB0EEC00A09F0FF
:10504000B9FDBDEEC00A0298641C10EE101A00F8FB
:10505000011B090A00F8011B0290FF2CDCDD4EE762
:1050600002AA4FF40171869800F074F90028C5D1A6
:105070000298AD2100F8011BF42100F8011B0290F9
:1050800000241448274600908498ADF80C7000EB7B
:105090004401022203A8491C00F052FFBDF90C0094
:1050A00000EE100A0098B8EEC00AB0EEC00A09F08F
:1050B00081FDBDEEC00A0298641C10EE101A00F8C3
:1050C000011B090A00F8011B0290FF2CDCDD16E72A
:1050D000D0190020181D002070B500F58053D3F8BA
:1050E0000C499CB3D3F8086900EB860505F580559B
:1050F000D5F84C4800EB460000F58050B0F8346815
:1051000011B1D5F804580D6002B11460D3F8081934
:10511000491C0C29D3F8081901D2491C00E00B39AD
:10512000C3F80819D3F80C19491EC3F80C19B3F8C1
:105130007C182144A3F87C18B3F87C183144A3F8F8
:105140007C180021A0F83418084670BDFFE74FF026
:10515000FF30FAE730B500F58053D3F80C29A2B33D
:1051600093F8FC280024C2B9D3F8082900EB820286
:1051700002F58052D2F80428C3F8F028D3F80829A1
:1051800000EB820202F58052D2F84C28C3F8F828CE
:10519000C3F8F448012283F8FC28D3F8F428D3F8A4
:1051A000F0581544521CC3F8F4282A780A70D3F832
:1051B000F418D3F8F828914205D383F8FC4800226C
:1051C0001146FFF789FF002030BDFFE74FF0FF30A9
:1051D000FAE700F58050D0F8F818D0F8F408081A6B
:1051E000704730B500F58053D3F80C594FF0FF34B9
:1051F0000C2D39D2B3F87C58954235DBD3F80049F1
:1052000000EB840404F58054C4F80418D3F80019A2
:1052100000EB810101F58051C1F84C28D3F8004919
:10522000002100EB440000F58050A0F83418B3F8DA
:105230007C08801AA3F87C08D3F80009401C0C28CD
:10524000D3F8000901D2401C00E00B38C3F8000974
:10525000D3F80C09401CC3F80C09D3F81009401C02
:10526000C3F81009002030BD204630BDF8B5144603
:105270000D4606466A46214600F06CF810B14FF024
:10528000FF30F8BD224629460098FBF744FA304625
:1052900000F001F8F8BDF0B500F5805191F8EC2868
:1052A0004FF0FF36BAB1D1F80C290C2A13D2D1F83D
:1052B0000049D1F8E05800EB440303F580532A1A63
:1052C000921EB3F8343892B2B1F87C78D1F8E8C8BD
:1052D0009C44674501D23046F0BD00EB840000F5E8
:1052E0008050C0F80458D1F8E848C0F84C48B1F8EC
:1052F0007C08D1F8E8482344C01AA1F87C08D1F80A
:10530000E8081044B0F5C05FD1F8E80801D3A2F571
:10531000C0521044C1F80409D1F80009401C0C28FF
:10532000D1F8000901D2401C00E00B38C1F8000997
:10533000D1F80C09401CC1F80C09D1F81009401C27
:10534000C1F81009002081F8EC08C1F8E808C1F89C
:10535000E408F0BD2DE9F04100F580549046D4F802
:10536000042986B092B2C2F5C0539DB200235E1EDE
:10537000B1F5C05F48DCD4F80C790C2F44D2A942B7
:1053800001DB2B460022B4F87C58CF18BD423BDB32
:105390000244921CC4F8E028C4F8E8180025C4F8B8
:1053A000E458012184F8EC18D4F8001900EB41010D
:1053B00001F58051A1F83438D4F80019134F00EBEF
:1053C000C1062A466946384604F50E6406F5C456F9
:1053D0000CF040FE2A4605A938460CF019FE9DF84F
:1053E00001109DF80200C1EB011100EB810030605B
:1053F000019842F20F71081A706021680020C8F805
:10540000001006B0BDE8F0813046FAE70C2B012011
:1054100000F58050D0F8E428D0F8E8389A420AD253
:10542000D0F8E428D0F8E0381344521CC0F8E4283F
:10543000197000207047D0F8E418491CC0F8E4182F
:105440004FF0FF307047A0F21C7000F500500021B3
:10545000017241600160016B491C016300207047CB
:1054600000F58050D0F8E818D0F8E408081A704722
:1054700010B500F58053D3F80C499CB1D3F8084916
:1054800000EB840404F58054D4F804480C60D3F88D
:10549000081900EB810000F58050D0F84C0810602E
:1054A000002010BD4FF0FF3010BD00F58050D0F847
:1054B0000C09704710B5044641F61811FBF70EFAB7
:1054C00004F580544FF4C050A4F87C08002010BDAF
:1054D00010B504480EF03DF9BDE81040024807F051
:1054E0009BBA0000842E0120046F002010B50446F2
:1054F00014F0FEFB2046FDF793FAFDF735FB0C4850
:1055000004F0D7FB0B48C16841F40051C160084862
:1055100004F02BFA08480068002808D0816B0029A5
:1055200005D0BDE81040054A054807F0E3BA10BDB4
:10553000982C00200010014038B9002038B100201C
:10554000046F002000BF704700BF70472DE9F04F87
:10555000534986B003AD1CC98DE81C000EC985E80F
:105560000E004E4F002634464FF0FF3EF0B3D0F809
:1055700020C0BCF1000F3CD00023EA46A9464FF002
:105580000C0B5AF82310002201EB8108C8EBC11163
:105590000BEB810859F8221041444D1CBD420AD240
:1055A0001CF801101CF8055001F07F0145EA0121AB
:1055B00006EB5116641C521C032AEBD35B1C032B15
:1055C000DFD39CB1B6FBF4F3A3F50072D117A0F8BA
:1055D000483002EB117190F84A2002EB2114314956
:1055E000026DCD699A4208D26D1C00E001E0CD61E8
:1055F00016E0704606B0BDE8F08F2A4A466D926903
:105600009E4201D9521C0AE0002D01DC002500E079
:105610006D1ECD61002A01DC002200E0521E8A616D
:105620000023FF2C03DDFF2280F84A2006E0002C37
:1056300002DA80F84A3001E080F84A40CA69202A3C
:1056400006DD90F84B2002B1521E80F84B20CB6152
:105650008A69202A07DD90F84B20032A00D0521CCB
:1056600080F84B208B6190F84D2090F84A309207DB
:10567000120E42EA032290F84B30017E03F003033E
:1056800042EA031290F84C3001F0030103F00303E7
:1056900042EA83020A4302830020ABE70C67020060
:1056A00044FC0308AC03002070B50168CA6C92F892
:1056B0005C30916D202202FA03F38B600368DB6C8F
:1056C00093F85C40082303FA04F48C600468E46CEB
:1056D00094F85C50102404FA05F58D600568ED6CB3
:1056E00095F85C60012505FA06F68E6001688E6CFF
:1056F000B16D96F85C60B2408A600268926C92F874
:105700005C2093408B600268926C92F85C2094401D
:105710008C600068806C90F85C0085408D6070BD86
:1057200010B500210171C18000F002F8002010BD09
:1057300010B504480CF0D9FE0348016841F48021FB
:10574000016010BDDC2B0120180402402DE9F0415E
:1057500006460AF0F3FF716C401A11494862304660
:1057600000F054FB304600F030FAB08B022101EB20
:1057700000144FF4F6704443CF034FF6FF780AE06D
:10578000BC4201D3404600E0204685B2294630465F
:1057900013F0D4FF641B002CF2D10020BDE8F0818F
:1057A000AC0300202DE9F04186B004460E46808A05
:1057B000009001A9012000274FF0030881E8810132
:1057C0006946E0680AF0BAFEA18A0022E0680AF0A1
:1057D000B0FF01200AF03CFD002518E0A18A01225B
:1057E000E0680AF0A6FF00BF00BF022000BF401C17
:1057F0000528FBDBA18A0022E0680AF09AFF00BFBF
:1058000000BF022000BF401C0528FBDB6D1CB54219
:10581000E4D3A08A009001A9022081E8810106203A
:1058200004906946E0680AF089FE06B0BDE8F081A0
:105830002DE9FC4108AF1E461546044697E80D10B9
:10584000002727712160E060A2822361A4F816C0BE
:1058500000F042F820680068016841F040010160F2
:10586000A783E76229004FF0FF3721620BD017486A
:10587000864208D3324604F15C0017F083FA2046D2
:1058800000F0BAF830B1207940F0080020713846B5
:10589000BDE8FC8120790EA140F001002071D1E922
:1058A0000001CDE90001206A00990160BDF80410F3
:1058B00081800220E0800021204617F00DFA0121AE
:1058C000204617F009FA0020E2E70000007102000C
:1058D0004345333243000000094810B5016841F0E8
:1058E0000401016032200AF0B3FC0648006810B1E0
:1058F00004480CF0FAFDBDE8104013F00FBD0000A5
:1059000018040240DC2B01202DE9FC470446D0F8A6
:105910002080002000900190A08340F6DF202083AB
:105920006420608301212046FFF73CFF208B9021FB
:1059300041EAD0318DF80010C0098DF80100207EB9
:10594000922140008DF80200608B4FF47A7641EA94
:10595000D0308DF80300608B3346C0098DF8040009
:10596000A07E032240008DF805006946204600F025
:1059700079FA3346032220460DF1030100F072FA52
:1059800001200AF065FC0A212046FFF70BFF0C21DD
:105990002046FFF707FF4FF4F6773A465521204699
:1059A00000F0EAF94FF0FF3528B97A00552120467A
:1059B00000F0E2F910B12846BDE8FC872046FFF769
:1059C000C5FEB946DFF828A000254FF4A07753465E
:1059D0004A464146204600F04AF86D1CBD42F6DBBF
:1059E00033460C220349204600F041F80020E3E74B
:1059F000A086010098C2002010B5044600F07FF890
:105A000010B14FF0FF3010BD2046FFF77DFF10B101
:105A10006FF0010010BD002084F84A00012084F8D6
:105A20004B00022084F84C0084F84D004FF4B37012
:105A3000606540F29920206598202083207F4FF4F4
:105A4000097100F00F0041EAC02060832068C26C39
:105A5000016812680C3191600168C06C0C310068FB
:105A60008160002010BD002070470020704770B595
:105A700014460D46064600F0C9F9304600F0A5F878
:105A800006E00021304614F021F805F8010B641EF1
:105A9000002CF6D170BD70B516460D46044600F0D8
:105AA000B5F9204600F091F8A6622046A563BDE84E
:105AB000704013F0D5BE000010B504460AF03EFE5B
:105AC000616C401A08498862204600F09FF9204620
:105AD00000F07BF8054A42F210732046216AFFF776
